AFLY00AE 0100634
HFDTE120516
HFFXA010
HFPLTPILOT:KNUT RYERSON    
HFCM2CREW2:NKN
HFGTYGLIDERTYPE:AERO DISCUS     
HFGIDGLIDERID:NKN             
HFDTM100GPSDATUM:WGS84
HFRFWFIRMWAREVERSION: 1.04.13
HFRHWHARDWAREVERSION:1.00
HFFTYFRTYPE:Flytec Element Track
HFGPS:FASTRAX,IT430,48
HFPRSPRESSALTSENSOR:INTERSEMA,MS5401BM,12000
HFALGALTGPS:GEO
HFALPALTPRESSURE:ISA
HFTZNUTCOFFSET: -4.00h
I033638FXA3940SIU4143TAS
C120516181921120516002401
C2831982N08150800W TAKEOFF
C2831982N08150800W START  QUEST            00000000005000000000360000AREA
C2822584N08149398W TURN   T47433           00000000003000000000360000AREA
C2831982N08150800W FINISH QUEST            00000000000400000000360000AREA
C2831982N08150800W LANDING
F19160901070809111623272830
B1916092832147N08150809WA-00140003500510000
F19163901070809111623272830
B1916392832147N08150809WA-00140003500310000
F19170901070809111623272830
B1917092832146N08150809WA-00140003500410000
F19173901070809111623272830
B1917392832146N08150809WA-00140003500410000
F19180901070809111623272830
B1918092832143N08150809WA-00140003400410000
F19183901070809111623272830
B1918392832141N08150808WA-00140003400410000
F19190901070809111623272830
B1919092832141N08150808WA-00140003400410000
F19193901070809111623272830
B1919392832141N08150808WA-00140003400510000
F19200901070809111623272830
B1920092832139N08150807WA-00140003400210000
E192028STA
E192028ATS1019.1
LFLYA1 00034
B1920282832109N08150807WA-00130003500310000
B1920332832068N08150802WA000010003900610000
B1920382832029N08150802WA000180005200610000
B1920432831989N08150811WA000380007600610000
B1920482831950N08150812WA000540009800510000
B1920532831912N08150799WA000740012100410000
B1920582831877N08150777WA000930014300510000
B1921032831844N08150749WA001110016400510000
B1921082831810N08150720WA001250018200410000
B1921132831779N08150689WA001440020200310000
B1921182831752N08150654WA001680022500510000
B1921232831724N08150620WA001950025300310000
B1921282831699N08150583WA002170027800410000
B1921332831674N08150540WA002380030200410000
B1921382831649N08150498WA002570032400510000
B1921432831621N08150460WA002780034700310000
B1921482831595N08150421WA003000036800410000
B1921532831570N08150381WA003180038900310000
B1921582831545N08150339WA003360040800310000
B1922032831522N08150296WA003510042500310000
B1922082831505N08150247WA003680044300410000
B1922132831493N08150196WA003860046200310000
B1922182831481N08150146WA004060048200310000
B1922232831473N08150094WA004280050300310000
B1922282831474N08150042WA004530053000410000
B1922332831476N08149989WA004710055100410000
B1922382831488N08149936WA004890057000310000
B1922432831514N08149888WA005080058800410000
B1922482831552N08149856WA005350061400610000
B1922532831597N08149837WA005690065100510000
B1922582831644N08149831WA005960068500410000
B1923032831685N08149838WA006040070600610000
B1923082831722N08149826WA006070071000510000
B1923132831759N08149811WA006080070400510000
B1923182831798N08149788WA006080070300610000
B1923232831828N08149762WA006140070400610000
B1923282831854N08149785WA006210070800410000
B1923332831839N08149818WA006220071000510000
B1923382831807N08149826WA006230071200510000
B1923432831778N08149803WA006260071400410000
B1923482831771N08149758WA006300071600410000
B1923532831791N08149717WA006370072101110000
B1923582831824N08149739WA006430072500810000
B1924032831807N08149774WA006500073300910000
B1924082831776N08149751WA006550073900510000
B1924132831774N08149702WA006630074900810000
B1924182831808N08149680WA006670075200910000
B1924232831841N08149713WA006750076300510000
B1924282831820N08149744WA006880077100610000
B1924332831786N08149724WA006990078400610000
B1924382831787N08149678WA007050079300910000
B1924432831826N08149662WA007050079501210000
B1924482831840N08149708WA007160079800910000
B1924532831805N08149712WA007290081100810000
B1924582831813N08149667WA007360082001010000
B1925032831853N08149674WA007400082600710000
B1925082831849N08149718WA007520083700810000
B1925132831812N08149726WA007580084700910000
B1925182831795N08149686WA007660085300910000
B1925232831826N08149650WA007690085700810000
B1925282831870N08149661WA007760086400710000
B1925332831870N08149699WA007880087800710000
B1925382831837N08149684WA007980089000610000
B1925432831848N08149639WA008070090001010000
B1925482831887N08149644WA008160090900610000
B1925532831882N08149681WA008280092100910000
B1925582831857N08149659WA008420093101010000
B1926032831882N08149623WA008520094200910000
B1926082831918N08149637WA008630095401010000
B1926132831913N08149675WA008730096700910000
B1926182831881N08149677WA008870098200510000
B1926232831875N08149636WA008990099500810000
B1926282831907N08149606WA009090100600710000
B1926332831945N08149627WA009180101500510000
B1926382831941N08149666WA009300102800310000
B1926432831908N08149667WA009370103800410000
B1926482831902N08149628WA009490105000810000
B1926532831942N08149632WA009600106100910000
B1926582831938N08149669WA009710107200810000
B1927032831911N08149650WA009800107900810000
B1927082831941N08149611WA009920109000810000
B1927132831968N08149640WA010040110400510000
B1927182831945N08149669WA010160112000810000
B1927232831919N08149643WA010230112800510000
B1927282831928N08149594WA010340114000610000
B1927332831964N08149581WA010470115300610000
B1927382831978N08149620WA010600116500410000
B1927432831948N08149631WA010710117900710000
B1927482831944N08149587WA010800118500810000
B1927532831986N08149576WA010900119600810000
B1927582832004N08149613WA011050121200810000
B1928032831979N08149635WA011160122300610000
B1928082831958N08149604WA011260123000710000
B1928132831990N08149572WA011360124300910000
B1928182832017N08149603WA011490125600510000
B1928232831990N08149625WA011590126600610000
B1928282831971N08149592WA011680127600810000
B1928332832003N08149560WA011810128900810000
B1928382832036N08149586WA011910129700710000
B1928432832016N08149615WA012020130900710000
B1928482831986N08149595WA012090131900410000
B1928532831981N08149551WA012230133100710000
B1928582832017N08149532WA012340134500910000
B1929032832038N08149572WA012410135100510000
B1929082832016N08149609WA012510136300410000
B1929132831983N08149622WA012600137300410000
B1929182831949N08149618WA012650138100510000
B1929232831916N08149614WA012730138900510000
B1929282831879N08149617WA012770139300310000
B1929332831841N08149623WA012810139600210000
B1929382831804N08149622WA012830139700310000
B1929432831763N08149625WA012790139500410000
B1929482831717N08149638WA012800139400410000
B1929532831661N08149639WA012850139500310000
B1929582831604N08149643WA012880139700310000
B1930032831548N08149654WA012860139900310000
B1930082831497N08149665WA012790139500310000
B1930132831445N08149673WA012670138500410000
B1930182831392N08149685WA012500136900310000
B1930232831341N08149701WA012380135400310000
B1930282831295N08149717WA012300134200410000
B1930332831251N08149727WA012200133300310000
B1930382831208N08149736WA012090132200310000
B1930432831170N08149748WA012030131400310000
B1930482831130N08149761WA011960130600310000
B1930532831093N08149773WA011900130100210000
B1930582831052N08149778WA011830129300210000
B1931032831012N08149781WA011770128600310000
B1931082830972N08149781WA011690127900310000
B1931132830931N08149788WA011610127000410000
B1931182830892N08149792WA011540126200210000
B1931232830856N08149803WA011450125300310000
B1931282830822N08149822WA011330124100310000
B1931332830790N08149844WA011220123100310000
B1931382830757N08149867WA011100121900410000
B1931432830720N08149879WA011010120800410000
B1931482830682N08149878WA010930119800410000
B1931532830644N08149866WA010840118900410000
B1931582830606N08149855WA010750118000310000
B1932032830567N08149852WA010660117000310000
B1932082830525N08149850WA010520115700410000
B1932132830484N08149842WA010390114300310000
B1932182830446N08149826WA010260112900310000
B1932232830409N08149804WA010140111400410000
B1932282830372N08149781WA010010110000410000
B1932332830333N08149768WA009900108800410000
B1932382830297N08149773WA009780107700310000
B1932432830264N08149788WA009670106500310000
B1932482830230N08149802WA009530105200410000
B1932532830193N08149810WA009420104000310000
B1932582830155N08149811WA009340103100210000
B1933032830120N08149822WA009250102300410000
B1933082830093N08149846WA009220102000410000
B1933132830069N08149867WA009190101700310000
B1933182830054N08149899WA009140101300310000
B1933232830048N08149938WA009050100800410000
B1933282830034N08149977WA009000100100310000
B1933332830020N08150014WA008960099600310000
B1933382830014N08150054WA008890099000310000
B1933432830015N08150094WA008830098300510000
B1933482830019N08150136WA008740097500310000
B1933532830026N08150175WA008670096600410000
B1933582830034N08150212WA008570095600510000
B1934032830042N08150249WA008540095000410000
B1934082830053N08150289WA008530094500310000
B1934132830049N08150325WA008590094700510000
B1934182830021N08150309WA008670095401010000
B1934232830053N08150283WA008690096201010000
B1934282830082N08150310WA008750096800510000
B1934332830059N08150324WA008870098300810000
B1934382830052N08150287WA008960098900810000
B1934432830088N08150274WA009000099500710000
B1934482830111N08150301WA009060100100310000
B1934532830098N08150330WA009150101300510000
B1934582830071N08150312WA009250102200410000
B1935032830085N08150271WA009350103301010000
B1935082830124N08150281WA009430104100710000
B1935132830118N08150311WA009490104500610000
B1935182830087N08150307WA009580105600410000
B1935232830080N08150260WA009650106500610000
B1935282830114N08150237WA009740107501110000
B1935332830138N08150271WA009780107900410000
B1935382830121N08150301WA009860108800410000
B1935432830101N08150269WA009920109100710000
B1935482830134N08150234WA009990109801110000
B1935532830168N08150254WA010080110600410000
B1935582830158N08150289WA010120110900410000
B1936032830124N08150290WA010170111300410000
B1936082830097N08150258WA010240112100410000
B1936132830114N08150210WA010280112601110000
B1936182830154N08150217WA010360113500410000
B1936232830148N08150250WA010410114000710000
B1936282830113N08150251WA010480114800510000
B1936332830101N08150209WA010560115700610000
F1936380107080911161723272830
B1936382830138N08150179WA010600116400611000
B1936432830174N08150193WA010660116800611000
B1936482830156N08150218WA010700117300611000
B1936532830124N08150193WA010730117900511000
B1936582830133N08150147WA010800118500711000
B1937032830172N08150140WA010820118800711000
B1937082830194N08150173WA010860119100811000
B1937132830171N08150192WA010900119700611000
B1937182830150N08150157WA010930120100511000
B1937232830169N08150113WA010980120400711000
B1937282830212N08150102WA011010120700711000
B1937332830239N08150133WA011030120900411000
B1937382830220N08150160WA011090121700711000
B1937432830191N08150137WA011120122200511000
B1937482830191N08150088WA011160122600311000
B1937532830223N08150062WA011210123100711000
B1937582830263N08150075WA011190123000411000
B1938032830280N08150113WA011170122700311000
B1938082830257N08150142WA011210123000311000
B1938132830226N08150122WA011250123700611000
B1938182830254N08150084WA011280123800811000
B1938232830288N08150100WA011310124000411000
B1938282830286N08150133WA011330124200511000
B1938332830258N08150148WA011370124600311000
B1938382830225N08150152WA011410125200311000
B1938432830194N08150130WA011470125800511000
B1938482830195N08150083WA011490125900311000
B1938532830228N08150047WA011520126200611000
B1938582830261N08150066WA011510126100411000
B1939032830251N08150100WA011530126200311000
B1939082830216N08150106WA011550126500311000
B1939132830185N08150099WA011570126800511000
B1939182830157N08150083WA011550126700411000
B1939232830125N08150054WA011520126400311000
B1939282830088N08150032WA011530126500511000
B1939332830053N08150002WA011550126800411000
B1939382830057N08149955WA011610127000711000
B1939432830097N08149958WA011650127500911000
B1939482830097N08149991WA011730128500511000
B1939532830062N08149998WA011760129200711000
B1939582830037N08149967WA011780129500311000
B1940032830048N08149911WA011740128801111000
B1940082830094N08149885WA011780128900711000
B1940132830105N08149915WA011830129200811000
B1940182830071N08149902WA011850129500711000
B1940232830076N08149850WA011880129800611000
B1940282830111N08149825WA011930130400911000
B1940332830129N08149855WA011940130400511000
B1940382830117N08149887WA012020131000311000
B1940432830095N08149910WA012030131300411000
B1940482830062N08149904WA012030131500411000
B1940532830048N08149858WA011990131300311000
B1940582830072N08149820WA012010131400911000
B1941032830101N08149844WA011950131000711000
B1941082830084N08149874WA011960131000511000
B1941132830059N08149893WA011940131000411000
B1941182830029N08149905WA011870130400311000
B1941232829998N08149914WA011820129900311000
B1941282829964N08149923WA011750129100311000
B1941332829930N08149932WA011690128500311000
B1941382829897N08149940WA011630127700511000
B1941432829860N08149949WA011550126900311000
B1941482829825N08149958WA011570126700311000
B1941532829793N08149965WA011600126800311000
B1941582829761N08149971WA011590126800411000
B1942032829727N08149978WA011620127000311000
B1942082829692N08149980WA011660127400411000
B1942132829658N08149985WA011680127600411000
B1942182829624N08149993WA011700127800311000
B1942232829590N08150003WA011710128000411000
B1942282829551N08150005WA011640127600411000
B1942332829514N08150009WA011650127500511000
B1942382829481N08150004WA011670127700411000
B1942432829447N08150003WA011680127800311000
B1942482829412N08150009WA011670127800311000
B1942532829376N08150017WA011680127900411000
B1942582829342N08150029WA011610127400411000
B1943032829308N08150041WA011540126700411000
B1943082829274N08150048WA011480126100311000
B1943132829241N08150056WA011420125400311000
B1943182829207N08150060WA011390125000311000
B1943232829173N08150060WA011350124500311000
B1943282829137N08150063WA011310124200511000
B1943332829104N08150073WA011300123900311000
B1943382829072N08150088WA011240123600311000
B1943432829037N08150096WA011220123400311000
B1943482829001N08150102WA011200123200311000
B1943532828963N08150109WA011190123000411000
B1943582828926N08150124WA011190123000311000
B1944032828897N08150151WA011190123000211000
B1944082828874N08150182WA011210123100311000
B1944132828845N08150212WA011210123100211000
B1944182828822N08150239WA011240123300311000
B1944232828798N08150269WA011250123400211000
B1944282828765N08150289WA011310124000511000
B1944332828742N08150251WA011340124300511000
B1944382828772N08150218WA011340124300511000
B1944432828804N08150226WA011390124700611000
B1944482828798N08150260WA011460125400511000
B1944532828761N08150268WA011490126000311000
B1944582828730N08150235WA011520126300211000
B1945032828728N08150189WA011510126200511000
B1945082828759N08150159WA011490126000711000
B1945132828794N08150169WA011460125800411000
B1945182828798N08150204WA011520126100511000
B1945232828768N08150212WA011560126500611000
B1945282828748N08150175WA011540126400911000
B1945332828773N08150137WA011550126400711000
B1945382828811N08150135WA011570126600511000
B1945432828826N08150168WA011570126600311000
B1945482828810N08150201WA011590126900311000
B1945532828774N08150216WA011590127100311000
B1945582828744N08150197WA011620127400311000
B1946032828764N08150161WA011620127501011000
B1946082828800N08150164WA011670127500411000
B1946132828810N08150198WA011680127600311000
B1946182828781N08150220WA011700127900411000
B1946232828751N08150201WA011730128400511000
B1946282828754N08150155WA011710128200811000
B1946332828783N08150124WA011750128800511000
B1946382828811N08150139WA011790129000311000
B1946432828791N08150168WA011780129000611000
B1946482828752N08150161WA011800129300511000
B1946532828745N08150121WA011820129400611000
B1946582828781N08150108WA011850129701211000
B1947032828795N08150142WA011910129800511000
B1947082828763N08150160WA011960130400611000
B1947132828741N08150126WA011950130700911000
B1947182828763N08150084WA011950130501011000
B1947232828797N08150094WA012000130900611000
B1947282828778N08150128WA012000131100511000
B1947332828740N08150141WA012030131500411000
B1947382828703N08150143WA012060131800411000
B1947432828668N08150126WA012040131600311000
B1947482828633N08150098WA012000131300311000
B1947532828594N08150080WA012010131200311000
B1947582828556N08150078WA012000131200311000
B1948032828518N08150074WA011980131000411000
B1948082828481N08150054WA012000131300211000
B1948132828442N08150029WA011990131200311000
B1948182828400N08150010WA012010131300311000
B1948232828356N08150011WA011990131100311000
B1948282828311N08150012WA012000131300311000
B1948332828267N08150004WA011980131100311000
B1948382828225N08149999WA011960130800311000
B1948432828183N08149994WA011890130300411000
B1948482828141N08149975WA011890130100311000
B1948532828103N08149950WA011830129600311000
B1948582828065N08149926WA011750128800311000
B1949032828023N08149910WA011640127500511000
B1949082827979N08149902WA011520126200411000
B1949132827935N08149903WA011420125000411000
B1949182827893N08149903WA011350124100211000
B1949232827849N08149900WA011230123000211000
B1949282827803N08149899WA011130122000211000
B1949332827759N08149895WA011050121100411000
B1949382827719N08149891WA011020120700311000
B1949432827681N08149879WA010980120400411000
B1949482827643N08149860WA010900119700511000
B1949532827603N08149842WA010820118900411000
B1949582827563N08149829WA010760118100211000
B1950032827524N08149824WA010720117700411000
B1950082827489N08149814WA010670117300211000
F19501301070809111723272830
B1950132827454N08149804WA010600116500410000
B1950182827416N08149793WA010520115600410000
B1950232827378N08149782WA010450114900310000
B1950282827343N08149776WA010350113900410000
B1950332827305N08149773WA010270113100410000
B1950382827267N08149771WA010210112300410000
B1950432827232N08149771WA010140111500510000
B1950482827196N08149771WA010030110400310000
B1950532827161N08149768WA009990109800410000
B1950582827128N08149755WA009900109000510000
B1951032827092N08149744WA009780108000510000
B1951082827054N08149729WA009640106700610000
B1951132827017N08149704WA009560105700410000
B1951182826982N08149682WA009470104700410000
B1951232826943N08149674WA009340103300410000
B1951282826904N08149666WA009240102200510000
B1951332826867N08149658WA009160101300410000
B1951382826831N08149654WA009060100300510000
B1951432826795N08149655WA008950099300410000
B1951482826757N08149652WA008830098100510000
B1951532826717N08149643WA008710096800510000
B1951582826676N08149632WA008620095600510000
B1952032826635N08149624WA008540094700410000
B1952082826597N08149633WA008510094300310000
B1952132826560N08149636WA008480094100410000
B1952182826524N08149630WA008480094100510000
B1952232826493N08149608WA008490094300510000
B1952282826461N08149584WA008500094500510000
B1952332826430N08149565WA008500094300510000
B1952382826408N08149530WA008420093700510000
B1952432826377N08149517WA008330092800410000
B1952482826344N08149528WA008240091800410000
B1952532826307N08149538WA008140090600510000
B1952582826269N08149536WA008030089600510000
B1953032826232N08149528WA007930088700510000
B1953082826195N08149527WA007860087800510000
B1953132826161N08149528WA007800087200410000
B1953182826124N08149529WA007710086200510000
B1953232826088N08149527WA007670085700410000
B1953282826056N08149526WA007650085500510000
B1953332826027N08149519WA007630085300410000
B1953382825999N08149505WA007610085100510000
B1953432825969N08149503WA007560084800410000
B1953482825939N08149510WA007470084100410000
B1953532825909N08149518WA007340083000410000
B1953582825879N08149522WA007190081400510000
B1954032825847N08149511WA007070079900410000
B1954082825814N08149502WA006970078600510000
B1954132825782N08149494WA006900077800510000
B1954182825750N08149491WA006840077000410000
B1954232825716N08149492WA006740075900510000
B1954282825681N08149494WA006640074900410000
B1954332825648N08149494WA006590074200510000
B1954382825617N08149499WA006550073800310000
B1954432825590N08149512WA006520073400410000
B1954482825560N08149521WA006490073200310000
B1954532825528N08149521WA006470073100410000
B1954582825511N08149488WA006500073300610000
B1955032825543N08149458WA006460073201310000
B1955082825584N08149474WA006450072800710000
B1955132825598N08149514WA006410072400610000
B1955182825589N08149553WA006380072200310000
B1955232825568N08149583WA006380072100610000
B1955282825537N08149586WA006420072500510000
B1955332825531N08149551WA006460072800710000
B1955382825568N08149535WA006440072700810000
B1955432825582N08149572WA006420072500810000
B1955482825573N08149608WA006450072700510000
B1955532825547N08149612WA006490073100510000
B1955582825545N08149572WA006480073200710000
B1956032825585N08149553WA006480073200810000
B1956082825616N08149578WA006480073000510000
B1956132825610N08149612WA006480073000610000
B1956182825584N08149629WA006490073100610000
B1956232825556N08149612WA006540073600610000
F195628010708091117272830
B1956282825555N08149572WA006550073800609000
F19563301070809111723272830
B1956332825589N08149552WA006580074100610000
B1956382825617N08149577WA006560073800610000
B1956432825615N08149614WA006570073900510000
B1956482825587N08149618WA006590074000910000
B1956532825577N08149579WA006600074000710000
B1956582825608N08149547WA006620074100710000
B1957032825645N08149558WA006620074300710000
B1957082825654N08149592WA006620074400610000
B1957132825631N08149611WA006630074600610000
B1957182825601N08149601WA006610074500610000
B1957232825583N08149564WA006600074600710000
B1957282825593N08149521WA006620074600410000
B1957332825629N08149509WA006610074501110000
B1957382825659N08149536WA006590074100710000
B1957432825661N08149574WA006600074100610000
B1957482825639N08149597WA006590074100710000
B1957532825607N08149596WA006600074300510000
B1957582825583N08149567WA006600074400410000
B1958032825591N08149525WA006580074200710000
B1958082825629N08149512WA006550074000910000
B1958132825661N08149541WA006530073501010000
B1958182825661N08149582WA006530073400610000
B1958232825640N08149615WA006530073600710000
B1958282825607N08149622WA006540073700510000
B1958332825587N08149588WA006540073800610000
B1958382825607N08149550WA006530073601110000
B1958432825642N08149568WA006470073000910000
B1958482825641N08149608WA006460072600810000
B1958532825621N08149636WA006460072600610000
B1958582825589N08149637WA006430072500510000
B1959032825563N08149610WA006440072600410000
B1959082825563N08149567WA006440072600610000
B1959132825595N08149541WA006410072200910000
B1959182825632N08149552WA006340071600710000
B1959232825644N08149590WA006310071300510000
B1959282825637N08149629WA006250071000410000
B1959332825617N08149662WA006230070600610000
B1959382825596N08149692WA006210070400310000
B1959432825569N08149708WA006220070400410000
B1959482825543N08149688WA006220070400410000
B1959532825539N08149650WA006230070500510000
B1959582825571N08149624WA006190070101110000
B2000032825604N08149643WA006180069800610000
B2000082825606N08149682WA006130069400710000
B2000132825591N08149719WA006100069000410000
B2000182825571N08149753WA006090068900410000
B2000232825547N08149782WA006100068900410000
B2000282825514N08149800WA006110069100510000
B2000332825483N08149787WA006180069800510000
B2000382825481N08149741WA006230070400710000
B2000432825512N08149708WA006270070801110000
B2000482825552N08149712WA006320071300810000
B2000532825576N08149746WA006320071400610000
B2000582825557N08149783WA006300071300610000
B2001032825520N08149798WA006330071500710000
B2001082825491N08149772WA006400072101010000
B2001132825513N08149733WA006460072401510000
B2001182825555N08149752WA006470072801010000
B2001232825565N08149802WA006450073000710000
B2001282825540N08149838WA006500073201110000
B2001332825510N08149816WA006560073900810000
B2001382825522N08149774WA006570073900810000
B2001432825562N08149772WA006620074201110000
B2001482825577N08149809WA006680074600610000
B2001532825546N08149828WA006720075201010000
B2001582825524N08149797WA006750075800610000
B2002032825538N08149750WA006740075600510000
B2002082825573N08149725WA006810076100610000
B2002132825606N08149738WA006850076600610000
F200218010708091117232830
B2002182825615N08149776WA006840076700509000
B2002232825608N08149814WA006910076900809000
B2002282825577N08149825WA007010077900609000
B2002332825557N08149796WA007060078800609000
B2002382825583N08149766WA007100079101509000
B2002432825618N08149786WA007170079801409000
F20024801070809111723272830
B2002482825627N08149825WA007220080600210000
F200253010708091117232830
B2002532825608N08149864WA007260081100609000
B2002582825573N08149878WA007290081500709000
B2003032825542N08149852WA007340082200709000
B2003082825542N08149811WA007330082300509000
B2003132825568N08149770WA007350082500709000
B2003182825609N08149759WA007400082700609000
B2003232825635N08149784WA007430082901009000
B2003282825635N08149830WA007410083001009000
B2003332825610N08149859WA007420082900909000
B2003382825575N08149857WA007390083001009000
B2003432825548N08149826WA007420083300809000
B2003482825566N08149784WA007450083400809000
B2003532825605N08149770WA007500083800509000
B2003582825639N08149790WA007540084201209000
B2004032825624N08149830WA007530084201009000
B2004082825592N08149844WA007580084400709000
B2004132825559N08149831WA007540084500609000
B2004182825554N08149790WA007570084700609000
F20042301070809111723272830
B2004232825589N08149765WA007610084900410000
B2004282825627N08149767WA007650085200710000
B2004332825644N08149805WA007670085400510000
B2004382825629N08149844WA007680085500610000
B2004432825596N08149848WA007680085600610000
B2004482825575N08149815WA007630085400910000
B2004532825581N08149769WA007650085500410000
B2004582825611N08149743WA007690085700710000
B2005032825649N08149753WA007710085700610000
B2005082825670N08149787WA007710085700410000
B2005132825661N08149830WA007690085600610000
B2005182825623N08149848WA007670085500810000
B2005232825590N08149842WA007620085100710000
B2005282825572N08149803WA007550084500410000
B2005332825592N08149758WA007570084500610000
B2005382825630N08149744WA007570084500910000
B2005432825665N08149768WA007570084400710000
B2005482825668N08149812WA007540084200610000
B2005532825636N08149837WA007520084100510000
B2005582825603N08149834WA007510084000610000
B2006032825596N08149793WA007410083300610000
B2006082825624N08149758WA007430083101010000
B2006132825650N08149790WA007440082900810000
B2006182825628N08149821WA007460083100810000
B2006232825601N08149809WA007440083200810000
B2006282825604N08149770WA007420082900710000
B2006332825642N08149754WA007430082801010000
B2006382825675N08149780WA007450083100610000
B2006432825674N08149821WA007470083300510000
B2006482825641N08149833WA007460083200910000
B2006532825624N08149803WA007430083100510000
B2006582825641N08149769WA007420083100610000
B2007032825678N08149761WA007440083200810000
B2007082825706N08149790WA007460083300710000
B2007132825695N08149828WA007440083000610000
B2007182825657N08149840WA007430082900810000
B2007232825630N08149819WA007400082700510000
B2007282825635N08149782WA007350082200510000
B2007332825665N08149755WA007310082000910000
B2007382825699N08149758WA007330082200610000
B2007432825707N08149794WA007330082300810000
B2007482825695N08149830WA007330082200710000
B2007532825667N08149827WA007320081900710000
B2007582825656N08149786WA007260081400610000
B2008032825675N08149743WA007220080900810000
B2008082825712N08149742WA007240080900510000
B2008132825718N08149777WA007210080900710000
B2008182825697N08149805WA007230081000610000
B2008232825666N08149800WA007240081100810000
B2008282825641N08149768WA007190080600610000
B2008332825635N08149724WA007140080000310000
B2008382825663N08149693WA007130079700710000
B2008432825701N08149701WA007090079400710000
B2008482825716N08149740WA007040078900410000
B2008532825699N08149779WA007030078800810000
B2008582825672N08149805WA007030078700610000
B2009032825638N08149797WA007010078500910000
B2009082825613N08149763WA006960078000610000
B2009132825622N08149719WA006880077300710000
B2009182825662N08149716WA006850077000910000
B2009232825687N08149750WA006810076600610000
B2009282825681N08149793WA006790076300510000
B2009332825655N08149827WA006780076200510000
B2009382825624N08149849WA006780076100610000
B2009432825590N08149853WA006750075700410000
B2009482825557N08149835WA006670075200610000
B2009532825520N08149832WA006530073900510000
B2009582825483N08149855WA006410072700510000
B2010032825451N08149878WA006320071500610000
B2010082825413N08149895WA006230070600410000
B2010132825377N08149907WA006160069700510000
B2010182825340N08149919WA006050068700310000
B2010232825304N08149939WA005960067500310000
B2010282825271N08149964WA005890066700410000
B2010332825239N08149992WA005880066500410000
B2010382825204N08150009WA005850066300310000
B2010432825170N08150024WA005820065800410000
B2010482825139N08150049WA005750065100410000
B2010532825105N08150075WA005700064500410000
B2010582825073N08150096WA005660064100410000
B2011032825040N08150116WA005640063800410000
B2011082825010N08150137WA005600063500510000
B2011132824988N08150170WA005590063300310000
B2011182824965N08150205WA005520062900510000
B2011232824937N08150235WA005460062300310000
B2011282824908N08150259WA005420061800410000
B2011332824879N08150287WA005340061100510000
B2011382824851N08150315WA005270060400410000
B2011432824821N08150339WA005270060000510000
B2011482824792N08150334WA005270060200610000
B2011532824799N08150298WA005250059900610000
B2011582824836N08150296WA005210059601210000
B2012032824847N08150341WA005140059100710000
B2012082824827N08150379WA005130058900510000
B2012132824797N08150400WA005140058800510000
B2012182824763N08150411WA005130058800410000
B2012232824729N08150402WA005200059400810000
B2012282824734N08150361WA005280060701510000
B2012332824773N08150374WA005280060801210000
B2012382824775N08150417WA005270060701110000
B2012432824751N08150448WA005320060800610000
B2012482824719N08150435WA005360061200810000
B2012532824723N08150392WA005440062100710000
B2012582824759N08150378WA005480062600810000
B2013032824776N08150405WA005510062700810000
B2013082824748N08150422WA005560063200510000
B2013132824722N08150402WA005620063800510000
B2013182824732N08150364WA005650064200610000
B2013232824766N08150362WA005630063900810000
B2013282824785N08150399WA005610063900510000
B2013332824772N08150432WA005630063900710000
B2013382824737N08150434WA005630063900610000
B2013432824711N08150405WA005670064400510000
B2013482824719N08150363WA005730064900610000
B2013532824754N08150368WA005750065201110000
B2013582824759N08150408WA005800065400810000
B2014032824732N08150428WA005840065900910000
B2014082824697N08150411WA005910066800710000
B2014132824683N08150371WA005980067900410000
B2014182824703N08150328WA006040068300710000
B2014232824739N08150324WA006080068501210000
B2014282824740N08150360WA006050068500810000
B2014332824707N08150371WA006110068801110000
B2014382824679N08150340WA006190069700510000
B2014432824690N08150293WA006270070400510000
B2014482824731N08150278WA006280070800810000
B2014532824750N08150309WA006320071100810000
B2014582824724N08150330WA006360071500710000
B2015032824695N08150303WA006420072100510000
B2015082824715N08150261WA006450072501210000
B2015132824751N08150286WA006430072701210000
B2015182824742N08150324WA006500072901010000
B2015232824716N08150329WA006590073600710000
B2015282824708N08150286WA006630074200510000
B2015332824738N08150254WA006650074401010000
B2015382824775N08150268WA006670074700710000
B2015432824786N08150308WA006640074700610000
B2015482824769N08150342WA006660074800510000
B2015532824735N08150341WA006730075400510000
B2015582824722N08150299WA006780076100510000
B2016032824751N08150263WA006830076400810000
B2016082824784N08150280WA006870076701310000
B2016132824765N08150304WA006900077000510000
B2016182824731N08150287WA006950077700810000
B2016232824732N08150241WA007010078300710000
B2016282824765N08150217WA007030078600510000
B2016332824803N08150226WA007060078700710000
B2016382824822N08150260WA007060078900710000
B2016432824803N08150291WA007080079201010000
B2016482824769N08150284WA007120080000810000
B2016532824749N08150250WA007210080900510000
B2016582824771N08150215WA007220080900710000
B2017032824812N08150217WA007240080900610000
B2017082824829N08150248WA007250081100610000
B2017132824808N08150274WA007230081000610000
B2017182824774N08150275WA007270081400610000
B2017232824754N08150239WA007330082000510000
B2017282824775N08150200WA007340082000610000
B2017332824816N08150198WA007340082200910000
B2017382824832N08150233WA007360082300810000
B2017432824809N08150250WA007400082700810000
B2017482824790N08150215WA007440083200610000
B2017532824806N08150171WA007450083200610000
B2017582824844N08150154WA007480083300810000
B2018032824877N08150184WA007440083100610000
B2018082824876N08150223WA007440083200510000
B2018132824847N08150244WA007390082800510000
B2018182824812N08150248WA007410082700310000
B2018232824779N08150244WA007460082800510000
B2018282824769N08150204WA007470083300510000
B2018332824799N08150169WA007460083001010000
B2018382824840N08150176WA007450083001010000
B2018432824850N08150210WA007460083100810000
B2018482824829N08150237WA007480083200510000
B2018532824795N08150239WA007500083500510000
B2018582824763N08150213WA007540084000610000
B2019032824754N08150169WA007560084200610000
B2019082824780N08150129WA007520083800510000
B2019132824821N08150116WA007470083400910000
B2019182824845N08150147WA007450083200810000
B2019232824832N08150178WA007440083300710000
B2019282824798N08150189WA007460083400610000
B2019332824762N08150192WA007480083400510000
B2019382824736N08150163WA007480083400510000
B2019432824743N08150117WA007440083000510000
B2019482824780N08150100WA007360082201210000
B2019532824791N08150135WA007280081400910000
B2019582824759N08150156WA007240081100410000
B2020032824726N08150163WA007210080600310000
B2020082824696N08150162WA007230080600610000
B2020132824663N08150168WA007190080500310000
B2020182824632N08150179WA007200080300410000
B2020232824600N08150161WA007200080400310000
B2020282824582N08150121WA007180080200410000
B2020332824592N08150077WA007140079900510000
B2020382824625N08150053WA007060079200810000
B2020432824664N08150062WA007020078600510000
B2020482824686N08150098WA006940078000410000
B2020532824682N08150140WA006890077700510000
B2020582824670N08150175WA006890077600310000
B2021032824645N08150193WA006910077601010000
B2021082824617N08150165WA006860077100610000
B2021132824611N08150119WA006820076600310000
B2021182824625N08150072WA006780076200410000
B2021232824658N08150038WA006750075700510000
B2021282824698N08150026WA006710075400410000
B2021332824740N08150031WA006670074900410000
B2021382824779N08150053WA006600074200410000
B2021432824815N08150079WA006560073800310000
B2021482824851N08150105WA006580073800810000
B2021532824874N08150134WA006580074000610000
B2021582824853N08150159WA006470073400710000
B2022032824818N08150142WA006440073000710000
B2022082824807N08150100WA006450073200410000
B2022132824822N08150054WA006410072700410000
B2022182824856N08150024WA006380072100910000
B2022232824896N08150033WA006360071500610000
B2022282824920N08150072WA006320071100510000
B2022332824917N08150111WA006310071000510000
B2022382824890N08150134WA006280070800410000
B2022432824867N08150112WA006280070700710000
B2022482824897N08150076WA006250070601410000
B2022532824933N08150098WA006270070701110000
B2022582824930N08150135WA006230070400910000
B2023032824911N08150167WA006170069900810000
B2023082824879N08150172WA006110069100710000
B2023132824849N08150146WA006090068600510000
B2023182824825N08150119WA006090068500710000
B2023232824824N08150079WA006100068700510000
B2023282824854N08150051WA006020068200610000
B2023332824893N08150078WA005970067700810000
B2023382824910N08150116WA005960067500510000
B2023432824899N08150150WA005910067000610000
B2023482824872N08150175WA005890066800410000
B2023532824843N08150189WA005910066700410000
F202358010708091117272830
B2023582824813N08150170WA005870066500409000
F2024030108091117272830
B2024032824794N08150133WA005840066000608000
F202408010708091117272830
B2024082824785N08150091WA005790065600709000
B2024132824811N08150053WA005740064900909000
B2024182824856N08150052WA005670064400709000
B2024232824892N08150080WA005590063600809000
B2024282824910N08150121WA005540063000509000
B2024332824899N08150158WA005530062900709000
B2024382824870N08150177WA005470062300509000
B2024432824837N08150177WA005420061900509000
B2024482824805N08150181WA005370061400309000
B2024532824772N08150188WA005310060700309000
B2024582824740N08150175WA005270060300309000
B2025032824719N08150138WA005250060000409000
B2025082824723N08150094WA005190059400909000
B2025132824756N08150059WA005110058400809000
B2025182824799N08150060WA005050057800809000
B2025232824831N08150088WA004970056900609000
B2025282824835N08150126WA004900056201009000
B2025332824805N08150146WA004840055500709000
B2025382824773N08150144WA004810055200809000
B2025432824740N08150126WA004770054800409000
B2025482824708N08150112WA004690054000609000
B2025532824672N08150114WA004590053200309000
B2025582824639N08150122WA004570052700309000
B2026032824604N08150133WA004550052400309000
B2026082824568N08150142WA004500051900309000
B2026132824531N08150142WA004440051300309000
B2026182824495N08150138WA004380050600209000
B2026232824461N08150135WA004370050200409000
B2026282824435N08150143WA004380050100309000
B2026332824407N08150145WA004390050200609000
B2026382824398N08150112WA004380050100409000
B2026432824433N08150080WA004380049900709000
B2026482824477N08150092WA004360050001209000
B2026532824480N08150129WA004370050400509000
B2026582824454N08150123WA004400050600709000
B2027032824464N08150087WA004400050701109000
B2027082824509N08150077WA004410050700809000
B2027132824546N08150098WA004420050700809000
B2027182824541N08150136WA004410050601009000
B2027232824521N08150158WA004380050400709000
B2027282824493N08150157WA004330050100409000
B2027332824467N08150130WA004290049900709000
F20273801070809111317272830
B2027382824453N08150090WA004290049600810000
B2027432824469N08150053WA004320049700710000
B2027482824507N08150062WA004320049801410000
B2027532824513N08150107WA004300049600510000
B2027582824500N08150141WA004300049401010000
B2028032824470N08150134WA004280049300810000
F202808010708091113172830
B2028082824464N08150093WA004250049200609000
B2028132824492N08150057WA004260049100509000
B2028182824534N08150046WA004240048900409000
B2028232824574N08150067WA004240049001009000
B2028282824587N08150109WA004200048801309000
B2028332824563N08150136WA004160048500509000
B2028382824533N08150139WA004150048300409000
F2028430108091113172830
B2028432824503N08150127WA004090048100408000
F202848010708091113172830
B2028482824476N08150105WA004080047900809000
B2028532824475N08150066WA004060047500909000
B2028582824508N08150030WA004050047400509000
B2029032824551N08150012WA004020047200409000
B2029082824594N08149990WA004020047000709000
B2029132824635N08149997WA004060046800909000
F2029180107080911131730
B2029182824628N08150039WA004050046800608000
F202923010708091113172830
B2029232824601N08150037WA004070047100909000
B2029282824595N08150001WA004090047300909000
B2029332824628N08149972WA004100047400509000
B2029382824675N08149976WA004120047700509000
B2029432824705N08150007WA004150048001409000
B2029482824691N08150035WA004170048100909000
B2029532824665N08150027WA004090048000509000
B2029582824666N08149983WA004090047800609000
B2030032824702N08149955WA004100047800509000
B2030082824741N08149968WA004130047900909000
B2030132824751N08150004WA004140047801009000
B2030182824736N08150031WA004120047501009000
B2030232824707N08150031WA004070047300409000
B2030282824684N08150004WA004090047400709000
B2030332824691N08149964WA004110047501009000
B2030382824727N08149946WA004120047400609000
B2030432824764N08149971WA004130047501209000
B2030482824764N08150008WA004160047500809000
B2030532824742N08150031WA004130047400509000
B2030582824713N08150038WA004140047500509000
B2031032824698N08150008WA004160047801009000
B2031082824729N08149978WA004160047900809000
B2031132824770N08149978WA004190048400509000
B2031182824791N08150014WA004170048101209000
B2031232824770N08150037WA004200048300509000
B2031282824747N08150011WA004180048500609000
B2031332824757N08149968WA004190048600509000
B2031382824783N08149936WA004190048600409000
B2031432824822N08149929WA004210048600609000
B2031482824853N08149956WA004230048700909000
B2031532824850N08149991WA004240048600909000
B2031582824823N08150002WA004240048700509000
B2032032824799N08149981WA004260048800409000
B2032082824796N08149942WA004240048600509000
B2032132824826N08149906WA004150048200509000
B2032182824871N08149892WA004160047900509000
B2032232824910N08149910WA004170048200809000
B2032282824921N08149947WA004180048300809000
B2032332824902N08149970WA004180048200709000
B2032382824873N08149964WA004160048100509000
B2032432824857N08149932WA004170048100609000
B2032482824870N08149890WA004130048000609000
B2032532824907N08149864WA004120047600509000
B2032582824951N08149870WA004090047400509000
B2033032824974N08149905WA004060047001109000
B2033082824959N08149940WA004040046900709000
B2033132824932N08149965WA004030046900309000
B2033182824903N08149972WA004030046900609000
B2033232824893N08149939WA004010046700709000
B2033282824911N08149898WA004010046700909000
B2033332824945N08149872WA003990046400709000
B2033382824987N08149865WA003950046000409000
B2033432825021N08149887WA003900045601009000
B2033482825018N08149927WA003870045100909000
B2033532824999N08149957WA003860045100409000
B2033582824973N08149979WA003870045100409000
B2034032824943N08149993WA003840045100409000
B2034082824913N08149995WA003820044800609000
B2034132824883N08149988WA003800044500309000
B2034182824853N08149973WA003780044300409000
B2034232824831N08149942WA003770044100809000
B2034282824825N08149900WA003720043700509000
B2034332824847N08149856WA003690043400609000
B2034382824891N08149847WA003670043000509000
B2034432824919N08149880WA003610042301109000
B2034482824915N08149920WA003600042200709000
B2034532824894N08149948WA003560042000709000
B2034582824867N08149958WA003560041900709000
B2035032824838N08149963WA003510041500509000
B2035082824808N08149971WA003440040900409000
B2035132824782N08149987WA003400040500309000
B2035182824755N08149995WA003360039900609000
F2035230108091113172830
B2035232824728N08150000WA003300039400308000
F203528010708091113172830
B2035282824698N08149996WA003240038800409000
B2035332824669N08149991WA003200038300409000
B2035382824641N08149993WA003160037700409000
B2035432824610N08149996WA003100037100309000
B2035482824582N08150013WA003060036700309000
B2035532824558N08150034WA003030036400409000
B2035582824529N08150043WA002970035900609000
B2036032824501N08150047WA002930035400709000
B2036082824476N08150065WA002920035200309000
B2036132824459N08150096WA002880034700609000
B2036182824439N08150126WA002800034200409000
B2036232824410N08150143WA002760033800609000
B2036282824383N08150150WA002750033500409000
B2036332824355N08150154WA002700033100609000
B2036382824326N08150153WA002670032800409000
B2036432824298N08150140WA002620032400509000
B2036482824268N08150133WA002550032000509000
B2036532824238N08150136WA002470031000709000
B2036582824211N08150154WA002400030200309000
B2037032824203N08150193WA002320029400409000
B2037082824210N08150235WA002280028600509000
B2037132824214N08150276WA002190027700609000
B2037182824228N08150318WA002120026900609000
F2037230108091113172830
B2037232824251N08150359WA002030025900808000
F203728010708091113172830
B2037282824267N08150403WA001920024700509000
B2037332824292N08150444WA001860024000609000
B2037382824335N08150466WA001810023400509000
B2037432824378N08150448WA001760022900909000
B2037482824396N08150407WA001680022201109000
B2037532824390N08150370WA001640021800509000
B2037582824371N08150343WA001560021100609000
B2038032824342N08150333WA001480020300409000
B2038082824315N08150336WA001400019400609000
B2038132824289N08150342WA001310018400409000
B2038182824258N08150338WA001180017400409000
B2038232824229N08150327WA001090016600509000
B2038282824199N08150323WA000990015600409000
B2038332824170N08150314WA000870014400709000
B2038382824193N08150268WA000750013001109000
B2038432824243N08150240WA000640011500509000
B2038482824296N08150222WA000520010200509000
B2038532824347N08150202WA000410009000409000
B2038582824396N08150186WA000290007800509000
B2039032824436N08150211WA000070006301609000
B2039082824404N08150256WA-00040004401009000
B2039132824374N08150266WA-00050003400509000
B2039182824357N08150272WA-00050003300709000
B2039232824358N08150276WA-00060003400509000
B2039282824360N08150280WA-00060003400509000
B2039332824364N08150284WA-00050003500509000
B2039382824369N08150286WA-00050003600309000
B2039432824373N08150288WA-00050003600309000
B2039482824377N08150291WA-00050003600509000
B2039532824381N08150292WA-00050003600409000
B2039582824386N08150292WA-00050003700309000
B2040032824391N08150292WA-00050003700209000
B2040082824392N08150291WA-00050003800209000
B2040132824392N08150291WA-00050003800209000
B2040182824392N08150291WA-00050003800209000
B2040232824392N08150291WA-00050003800209000
G7234BEBFCC91109AD498919FEB628E9403A2F434403E2FE30BF8A3E6554D5066
