AFLY00AE 0100634
HFDTE100516
HFFXA010
HFPLTPILOT:KNUT RYERSON    
HFCM2CREW2:NKN
HFGTYGLIDERTYPE:AEROS           
HFGIDGLIDERID:NKN             
HFDTM100GPSDATUM:WGS84
HFRFWFIRMWAREVERSION: 1.04.13
HFRHWHARDWAREVERSION:1.00
HFFTYFRTYPE:Flytec Element Track
HFGPS:FASTRAX,IT430,48
HFPRSPRESSALTSENSOR:INTERSEMA,MS5401BM,12000
HFALGALTGPS:GEO
HFALPALTPRESSURE:ISA
HFTZNUTCOFFSET: -4.00h
I033638FXA3940SIU4143TAS
C100516155730100516002102
C2831982N08150800W TAKEOFF
C2831982N08150800W START  QUEST            00000000005000000000360000AREA
C2839143N08159941W TURN   CENTER           00000000000400000000360000AREA
C2842911N08153802W TURN   TURN33           00000000003000000000360000AREA
C2838488N08152838W FINISH Grassots         00000000001000000000360000AREA
C2838488N08152838W LANDING
F175438030708091116232627
B1754382832123N08150808WA-00330003600409000
F175508030708091116232627
B1755082832121N08150808WA-00320003600409000
F175538030708091116232627
B1755382832121N08150808WA-00330003600409000
F175608030708091116232627
B1756082832121N08150808WA-00320003600409000
F175638030708091116232627
B1756382832121N08150808WA-00320003600509000
F175708030708091116232627
B1757082832119N08150808WA-00320003500309000
F175738030708091116232627
B1757382832117N08150808WA-00320003600509000
F175808030708091116232627
B1758082832117N08150808WA-00320003500409000
F175838030708091116232627
B1758382832116N08150808WA-00320003600509000
E175902STA
E175902ATS1021.5
LFLYA1 00037
B1759022832089N08150803WA-00290003600409000
B1759072832048N08150799WA-00140004000509000
B1759122832001N08150800WA-00030005000509000
B1759172831955N08150803WA000140006500509000
B1759222831912N08150803WA000360008700409000
B1759272831873N08150793WA000560011900609000
B1759322831847N08150767WA000790015300709000
B1759372831831N08150730WA000990017700609000
B1759422831822N08150688WA001100019400309000
B1759472831822N08150646WA001240020800309000
B1759522831832N08150605WA001380022400309000
B1759572831857N08150563WA001550023900309000
B1800022831892N08150530WA001720025600509000
B1800072831930N08150499WA001890027400409000
B1800122831968N08150467WA002030029100409000
B1800172832011N08150442WA002210030700409000
B1800222832057N08150428WA002380032600309000
B1800272832105N08150427WA002540034300309000
B1800322832153N08150442WA002650035600409000
B1800372832191N08150472WA002790036600309000
B1800422832219N08150513WA003030038300409000
B1800472832233N08150566WA003300040700609000
B1800522832226N08150620WA003470043200409000
B1800572832204N08150664WA003600044900309000
B1801022832173N08150693WA003750046500309000
B1801072832137N08150708WA003910048100309000
B1801122832099N08150714WA004050049700409000
B1801172832061N08150710WA004160051100309000
B1801222832028N08150690WA004310052300309000
B1801272831996N08150664WA004420053500509000
B1801322831965N08150640WA004540054700409000
B1801372831936N08150613WA004650055900309000
B1801422831915N08150579WA004760057000509000
B1801472831911N08150535WA004900058300309000
F1801520307080911162327
B1801522831929N08150492WA005070059600408000
F180157030708091116232627
B1801572831970N08150466WA005200061200509000
B1802022832018N08150467WA005330062800309000
B1802072832065N08150487WA005430064100309000
B1802122832105N08150521WA005550065400309000
B1802172832145N08150559WA005670066600209000
B1802222832184N08150602WA005780067800309000
B1802272832225N08150644WA005890068900409000
B1802322832262N08150686WA006030070300409000
F1802370308091116232627
B1802372832296N08150726WA006180071800408000
F180242030708091116232627
B1802422832330N08150768WA006330073300409000
B1802472832370N08150804WA006460074700309000
F1802520307080911162327
B1802522832410N08150838WA006600076100308000
F180257030708091116232627
B1802572832449N08150873WA006820077700309000
B1803022832482N08150915WA007080080200509000
B1803072832499N08150963WA007030081800609000
B1803122832508N08151012WA007000081400709000
B1803172832474N08151024WA006950080201009000
B1803222832472N08150991WA006890079600609000
B1803272832510N08150971WA006850079000509000
B1803322832557N08150981WA006890079200809000
B1803372832589N08151016WA006980079900809000
B1803422832617N08151055WA007000080500709000
B1803472832637N08151100WA007010080700509000
B1803522832646N08151152WA007070081200409000
B1803572832648N08151205WA007160081700409000
B1804022832670N08151251WA007220082500409000
B1804072832705N08151286WA007270083100309000
B1804122832742N08151314WA007300083500309000
B1804172832782N08151312WA007250083400409000
B1804222832826N08151309WA007230083200409000
B1804272832871N08151305WA007290083400309000
B1804322832903N08151285WA007380084000609000
B1804372832920N08151247WA007400084400609000
B1804422832914N08151212WA007500085100609000
B1804472832884N08151217WA007530085700609000
B1804522832853N08151256WA007570086400809000
B1804572832850N08151309WA007630086900509000
B1805022832888N08151339WA007710087400809000
B1805072832912N08151310WA007750088200909000
B1805122832889N08151288WA007830088900709000
B1805172832857N08151306WA007880089500509000
F1805220708091116232627
B1805222832843N08151351WA007940090200608000
B1805272832865N08151396WA008010090800808000
B1805322832909N08151410WA008020091300708000
B1805372832942N08151389WA008050091600608000
B1805422832953N08151353WA008070091700808000
B1805472832948N08151320WA008110091800608000
B1805522832919N08151308WA008080091800808000
B1805572832881N08151316WA008050091600708000
B1806022832840N08151321WA008060091400708000
B1806072832812N08151351WA008180091801008000
B1806122832847N08151395WA008250092301008000
B1806172832883N08151381WA008340093601108000
B1806222832875N08151344WA008420094800708000
B1806272832847N08151322WA008510095700808000
B1806322832814N08151335WA008570096600508000
B1806372832794N08151382WA008620097300608000
B1806422832811N08151434WA008670097700808000
B1806472832859N08151455WA008730098101008000
B1806522832890N08151432WA008800098901208000
B1806572832855N08151410WA008840099401208000
B1807022832824N08151436WA008910099701008000
B1807072832836N08151496WA008950100301008000
B1807122832874N08151531WA008930100700808000
B1807172832917N08151538WA008890100500708000
B1807222832940N08151511WA008920100500608000
B1807272832935N08151481WA008980100600808000
B1807322832909N08151473WA009020100900808000
B1807372832878N08151489WA009050101300408000
B1807422832849N08151521WA009080101500408000
B1807472832851N08151568WA009070101700608000
B1807522832883N08151609WA009020101400408000
B1807572832924N08151621WA008850100300708000
B1808022832953N08151592WA008720098901108000
B1808072832959N08151550WA008670098000608000
B1808122832971N08151511WA008670097600408000
B1808172832969N08151475WA008690097500508000
B1808222832971N08151439WA008660097400508000
B1808272832977N08151399WA008690097600408000
B1808322832972N08151360WA008770098200608000
B1808372832942N08151360WA008880099000708000
B1808422832931N08151407WA008940099901308000
B1808472832965N08151448WA008950100400608000
B1808522833016N08151451WA008970100800708000
B1808572833054N08151428WA009040101401008000
B1809022833057N08151391WA009120102000608000
B1809072833039N08151364WA009230102900408000
B1809122833011N08151368WA009400104500808000
B1809172833004N08151416WA009500106101208000
B1809222833046N08151431WA009540107001508000
B1809272833093N08151413WA009600107500908000
B1809322833127N08151391WA009730108601108000
B1809372833105N08151365WA009790109301308000
B1809422833067N08151376WA009920110200608000
B1809472833043N08151413WA010060111300908000
B1809522833064N08151465WA010160112901108000
B1809572833106N08151494WA010240114000808000
B1810022833148N08151480WA010260114501208000
B1810072833142N08151438WA010380115301208000
B1810122833113N08151445WA010530116600608000
B1810172833111N08151495WA010630117901208000
B1810222833155N08151524WA010690118601008000
B1810272833199N08151505WA010720119300608000
B1810322833221N08151464WA010820120000708000
B1810372833200N08151433WA010940120701208000
B1810422833168N08151440WA011080122200608000
B1810472833153N08151486WA011180123300908000
B1810522833178N08151537WA011300124300608000
B1810572833227N08151556WA011360125000908000
B1811022833267N08151531WA011420125800908000
B1811072833273N08151491WA011500126800608000
B1811122833248N08151464WA011620127800708000
B1811172833215N08151486WA011800129001008000
B1811222833231N08151538WA011900130501708000
B1811272833283N08151546WA011970131901108000
B1811322833305N08151503WA012050132901108000
B1811372833301N08151459WA012210134400708000
B1811422833272N08151454WA012320135700608000
B1811472833245N08151494WA012400136600808000
B1811522833248N08151547WA012560137900708000
B1811572833279N08151587WA012660139200608000
B1812022833326N08151588WA012740140100908000
B1812072833351N08151556WA012820140900508000
B1812122833342N08151518WA012920141800708000
B1812172833313N08151502WA013030142800608000
B1812222833281N08151532WA013110143500608000
B1812272833283N08151587WA013220144500908000
B1812322833321N08151610WA013310145300908000
B1812372833367N08151592WA013350145800808000
B1812422833395N08151557WA013420146600908000
B1812472833378N08151525WA013510147400708000
B1812522833341N08151541WA013550147900708000
B1812572833326N08151594WA013620148700808000
B1813022833347N08151644WA013670149400608000
B1813072833393N08151664WA013710149800708000
B1813122833436N08151653WA013740150200308000
B1813172833457N08151612WA013750150301008000
B1813222833451N08151570WA013830150701208000
B1813272833422N08151551WA013900151700708000
B1813322833390N08151573WA013950152300608000
B1813372833401N08151623WA014050153201008000
B1813422833449N08151629WA014090153901208000
B1813472833460N08151593WA014150154501008000
B1813522833429N08151592WA014210155101008000
B1813572833424N08151637WA014300155901108000
B1814022833468N08151652WA014330156401208000
B1814072833500N08151622WA014400157100908000
B1814122833490N08151591WA014450157501108000
B1814172833458N08151610WA014490157900808000
B1814222833470N08151658WA014520158401008000
B1814272833514N08151676WA014550158801108000
B1814322833553N08151651WA014580159100808000
B1814372833559N08151617WA014630159600908000
B1814422833525N08151629WA014620159900908000
B1814472833521N08151680WA014620159700908000
B1814522833544N08151725WA014610159600608000
B1814572833586N08151746WA014670159900708000
B1815022833624N08151733WA014660160100908000
B1815072833634N08151695WA014620159800508000
F18151207080911232627
B1815122833626N08151660WA014630159600407000
F1815170708091116232627
B1815172833627N08151620WA014590159500408000
B1815222833599N08151595WA014600159500808000
B1815272833566N08151624WA014630159500908000
B1815322833555N08151673WA014690160100608000
B1815372833570N08151721WA014710160500708000
B1815422833592N08151768WA014650160500708000
B1815472833624N08151805WA014680160400708000
B1815522833661N08151805WA014660160201008000
B1815572833694N08151778WA014580159600808000
B1816022833706N08151740WA014500159000408000
B1816072833694N08151702WA014490158600408000
B1816122833664N08151677WA014540158700608000
B1816172833632N08151690WA014540158700508000
B1816222833628N08151742WA014440158300708000
B1816272833643N08151795WA014430158000808000
B1816322833674N08151825WA014450157900808000
B1816372833714N08151818WA014370157300908000
B1816422833755N08151810WA014270156500508000
B1816472833798N08151821WA014170155300708000
B1816522833836N08151842WA014080154300508000
B1816572833867N08151875WA014030153600408000
B1817022833899N08151898WA014000153100608000
B1817072833939N08151907WA013940152600608000
B1817122833971N08151932WA013900152000408000
B1817172833991N08151973WA013830151400408000
B1817222834003N08152022WA013780150700608000
B1817272834008N08152069WA013710150100508000
F181732070809111623262730
B1817322834016N08152118WA013680149600309000
B1817372834031N08152167WA013630149200309000
B1817422834048N08152213WA013610148900509000
B1817472834065N08152259WA013520148300509000
B1817522834090N08152301WA013450147600609000
B1817572834122N08152340WA013350146800309000
B1818022834153N08152381WA013260146000309000
B1818072834181N08152423WA013150144800609000
B1818122834209N08152467WA013040143700609000
B1818172834233N08152513WA012940142500309000
B1818222834256N08152560WA012810141200309000
B1818272834282N08152607WA012700140000509000
B1818322834305N08152653WA012610139000309000
B1818372834321N08152703WA012510138000509000
B1818422834333N08152753WA012400136900509000
B1818472834339N08152803WA012310135800509000
B1818522834349N08152851WA012210134700209000
B1818572834369N08152896WA012090133500509000
B1819022834395N08152937WA011980132300509000
B1819072834424N08152978WA011870131100309000
F1819120708091116232730
B1819122834454N08153020WA011780130100608000
F181917070809111623262730
B1819172834484N08153060WA011730129500309000
B1819222834505N08153107WA011650128900309000
B1819272834515N08153162WA011580128200509000
B1819322834530N08153216WA011540127700309000
B1819372834550N08153266WA011520127400509000
B1819422834560N08153317WA011450127000609000
B1819472834566N08153372WA011380126200509000
B1819522834580N08153427WA011350125800409000
B1819572834600N08153477WA011300125200509000
B1820022834601N08153524WA011220124400609000
B1820072834604N08153573WA011140123600309000
B1820122834628N08153615WA011070122900309000
B1820172834658N08153654WA010970122100309000
B1820222834688N08153698WA010900121300309000
B1820272834709N08153746WA010840120600509000
B1820322834722N08153796WA010790120000609000
B1820372834743N08153840WA010740119600309000
B1820422834771N08153880WA010660118800409000
B1820472834792N08153925WA010610118300609000
B1820522834817N08153967WA010560117600609000
B1820572834846N08154007WA010510117100309000
B1821022834881N08154045WA010410116300509000
B1821072834920N08154082WA010300115400409000
B1821122834962N08154114WA010250114500609000
B1821172835002N08154147WA010200113900509000
B1821222835027N08154191WA010250113601209000
B1821272835000N08154210WA010250113800909000
B1821322834992N08154175WA010200113700609000
B1821372835023N08154147WA010200113600809000
B1821422835063N08154165WA010260114001109000
B1821472835055N08154199WA010350114701209000
B1821522835052N08154171WA010390115200809000
B1821572835093N08154172WA010450115701309000
B1822022835116N08154217WA010490116401309000
B1822072835083N08154236WA010510116701009000
B1822122835066N08154206WA010550117101309000
B1822172835100N08154184WA010630117900809000
B1822222835126N08154220WA010720118801109000
B1822272835096N08154235WA010760119301009000
B1822322835097N08154199WA010830119800609000
B1822372835138N08154200WA010920120901009000
B1822422835149N08154243WA010980121600509000
B1822472835118N08154258WA011030122101209000
B1822522835117N08154227WA011120122700909000
B1822572835157N08154228WA011190123400709000
B1823022835180N08154278WA011200123800909000
B1823072835150N08154311WA011210124001309000
B1823122835136N08154282WA011280124401109000
B1823172835176N08154281WA011340125201309000
B1823222835178N08154326WA011380125701109000
B1823272835140N08154329WA011400125901009000
B1823322835133N08154295WA011500126601109000
B1823372835172N08154287WA011570127501509000
B1823422835182N08154331WA011610128200809000
B1823472835153N08154326WA011670128500909000
B1823522835181N08154301WA011720129101709000
B1823572835215N08154350WA011750129601109000
B1824022835195N08154393WA011820130301209000
B1824072835166N08154377WA011880130701109000
B1824122835200N08154357WA011920131200909000
B1824172835230N08154396WA011980132001109000
B1824222835213N08154433WA012030132800909000
B1824272835183N08154419WA012090133301209000
B1824322835197N08154384WA012180134000609000
B1824372835239N08154391WA012240134601009000
B1824422835236N08154432WA012290135200909000
B1824472835210N08154414WA012320135401309000
B1824522835231N08154379WA012400136001109000
B1824572835274N08154385WA012490137000909000
B1825022835285N08154427WA012520137601109000
B1825072835247N08154442WA012540138001009000
B1825122835225N08154420WA012610138601309000
B1825172835259N08154400WA012630138700609000
B1825222835295N08154434WA012730139501109000
B1825272835277N08154474WA012790140400709000
B1825322835241N08154479WA012850141001009000
B1825372835254N08154448WA012870141101009000
B1825422835303N08154463WA012900141100609000
B1825472835323N08154513WA012970141801109000
B1825522835301N08154554WA013000142300909000
B1825572835271N08154548WA013050142901109000
B1826022835270N08154509WA013060142901109000
B1826072835304N08154490WA013080143000609000
B1826122835342N08154524WA013130143601209000
B1826172835345N08154575WA013170144200509000
B1826222835317N08154603WA013220144700609000
B1826272835290N08154589WA013240145100609000
B1826322835297N08154555WA013220144900709000
B1826372835336N08154545WA013200144800909000
B1826422835376N08154584WA013250145100709000
B1826472835373N08154634WA013280145500909000
B1826522835337N08154654WA013300145601209000
B1826572835313N08154631WA013330145800609000
B1827022835330N08154599WA013320145700809000
B1827072835371N08154592WA013320145800509000
B1827122835411N08154628WA013330145900609000
B1827172835413N08154681WA013370146300909000
B1827222835379N08154702WA013350146401009000
B1827272835358N08154678WA013380146700609000
B1827322835381N08154648WA013360146500909000
B1827372835427N08154651WA013340146300409000
B1827422835456N08154688WA013380146700709000
B1827472835447N08154735WA013340146601009000
B1827522835416N08154765WA013310146201109000
F1827570709111623262730
B1827572835383N08154756WA013300145900608000
F182802070809111623262730
B1828022835368N08154729WA013300145800509000
B1828072835387N08154698WA013280145400909000
B1828122835426N08154692WA013260145200609000
B1828172835464N08154725WA013220144800409000
B1828222835474N08154775WA013210144700609000
B1828272835461N08154823WA013160144500609000
B1828322835435N08154852WA013130144100509000
B1828372835403N08154875WA013090143600409000
B1828422835381N08154913WA013030143200409000
B1828472835378N08154966WA012920142100609000
B1828522835391N08155019WA012840141200409000
B1828572835407N08155072WA012720140200609000
B1829022835427N08155125WA012620139000609000
B1829072835453N08155173WA012530137900609000
B1829122835480N08155217WA012430136900309000
B1829172835504N08155258WA012320135700309000
B1829222835527N08155306WA012160134300309000
B1829272835551N08155357WA012040132900409000
B1829322835582N08155403WA011960131900309000
B1829372835607N08155450WA011830130800409000
B1829422835621N08155504WA011700129300509000
B1829472835633N08155557WA011620128200509000
B1829522835646N08155608WA011510127000309000
B1829572835670N08155658WA011390125800409000
B1830022835699N08155701WA011300124700409000
B1830072835725N08155740WA011190123700609000
B1830122835753N08155777WA011100122800209000
B1830172835779N08155813WA010990121900309000
B1830222835802N08155853WA010910121000609000
B1830272835828N08155892WA010800119900509000
B1830322835857N08155926WA010690118600309000
B1830372835886N08155958WA010570117500309000
B1830422835916N08155991WA010440116200209000
B1830472835938N08156027WA010320114800509000
B1830522835961N08156064WA010190113400509000
B1830572835990N08156098WA010060112000309000
B1831022836019N08156130WA009930110700309000
B1831072836046N08156164WA009790109300309000
B1831122836067N08156202WA009660107900209000
B1831172836084N08156244WA009510106400609000
B1831222836102N08156287WA009360104700509000
B1831272836128N08156325WA009210103000309000
B1831322836152N08156362WA009080101600309000
B1831372836173N08156404WA008960100200309000
B1831422836195N08156446WA008860099000609000
B1831472836221N08156485WA008730097800209000
B1831522836248N08156523WA008610096600309000
B1831572836267N08156567WA008510095500509000
B1832022836293N08156605WA008400094400309000
B1832072836324N08156635WA008270093300509000
B1832122836349N08156673WA008180092200609000
B1832172836353N08156720WA008050091000609000
B1832222836337N08156764WA007950090000509000
B1832272836330N08156811WA007850088800509000
B1832322836343N08156861WA007760087800209000
B1832372836371N08156901WA007700087300509000
B1832422836394N08156944WA007620086400609000
B1832472836414N08156988WA007530085400509000
B1832522836434N08157034WA007430084400409000
B1832572836461N08157077WA007300083200209000
F1833020708091116232730
B1833022836487N08157120WA007210082200508000
B1833072836505N08157168WA007100081100508000
B1833122836534N08157203WA007040080500508000
B1833172836575N08157199WA006990080100708000
B1833222836596N08157160WA007030079900608000
B1833272836627N08157154WA007140080401008000
B1833322836624N08157195WA007190081600908000
B1833372836593N08157187WA007230082201008000
B1833422836599N08157146WA007330083001208000
B1833472836635N08157151WA007440084300908000
B1833522836635N08157194WA007500085101008000
B1833572836601N08157204WA007570085601108000
B1834022836594N08157166WA007640086201408000
B1834072836629N08157151WA007720087201208000
B1834122836638N08157189WA007830088201308000
B1834172836607N08157172WA007920089001408000
B1834222836635N08157152WA008030089801408000
B1834272836646N08157194WA008120091201008000
B1834322836612N08157201WA008210092401208000
B1834372836614N08157162WA008300093001208000
B1834422836647N08157179WA008420094301308000
B1834472836627N08157214WA008500095601408000
B1834522836622N08157180WA008600096401108000
B1834572836656N08157186WA008720097700908000
B1835022836634N08157221WA008780098601208000
B1835072836610N08157197WA008860099201108000
B1835122836641N08157180WA008900099601208000
B1835172836647N08157221WA008970100201508000
B1835222836615N08157215WA009050100801208000
B1835272836639N08157182WA009060101101008000
B1835322836680N08157203WA009120101601108000
B1835372836674N08157247WA009210102501008000
B1835422836646N08157236WA009280103301308000
B1835472836670N08157207WA009370103800908000
B1835522836698N08157245WA009420104701208000
B1835572836665N08157268WA009480105801308000
B1836022836660N08157227WA009560106701008000
B1836072836696N08157209WA009610107300608000
B1836122836726N08157243WA009610107501208000
B1836172836695N08157280WA009660107601608000
B1836222836666N08157251WA009710107701308000
F183627010708091116232730
B1836272836701N08157234WA009780108500709000
B1836322836721N08157276WA009840109301209000
B1836372836692N08157315WA009860109901309000
B1836422836666N08157290WA009930110501209000
B1836472836699N08157272WA009980110801109000
B1836522836717N08157313WA010020111401209000
B1836572836685N08157330WA010070112200609000
B1837022836671N08157296WA010100112500609000
B1837072836697N08157263WA010160113000509000
B1837122836738N08157278WA010150113100809000
B1837172836742N08157327WA010150113201009000
B1837222836709N08157364WA010160113401109000
B1837272836674N08157351WA010190113501009000
B1837322836675N08157310WA010220113801009000
B1837372836709N08157284WA010200113700909000
B1837422836738N08157317WA010210113901009000
B1837472836719N08157361WA010220113700609000
B1837522836680N08157373WA010240113700809000
B1837572836673N08157335WA010270114101309000
B1838022836712N08157327WA010250114200909000
B1838072836736N08157363WA010310114401109000
B1838122836711N08157397WA010310114601209000
B1838172836671N08157390WA010370114900909000
B1838222836672N08157351WA010320115101109000
B1838272836712N08157325WA010280114600809000
B1838322836758N08157337WA010280114400609000
B1838372836749N08157374WA010310114601209000
B1838422836719N08157346WA010330114801109000
B1838472836733N08157308WA010310114900809000
B1838522836779N08157310WA010270114601509000
B1838572836797N08157349WA010300114601209000
B1839022836764N08157378WA010270114600709000
B1839072836733N08157359WA010280114401109000
B1839122836753N08157322WA010270114401009000
B1839172836799N08157334WA010220114000509000
B1839222836826N08157375WA010230114100409000
B1839272836823N08157424WA010260114200509000
B1839322836794N08157448WA010300114501109000
B1839372836779N08157413WA010320114801309000
B1839422836819N08157399WA010310114901209000
B1839472836851N08157437WA010370115400709000
B1839522836827N08157473WA010400115701309000
B1839572836797N08157449WA010420115701509000
B1840022836818N08157408WA010470116200509000
B1840072836857N08157417WA010520116800909000
B1840122836864N08157463WA010560117301109000
B1840172836835N08157487WA010640118000909000
B1840222836815N08157460WA010670118301109000
B1840272836844N08157433WA010700118801109000
B1840322836871N08157469WA010760119301309000
B1840372836849N08157506WA010810119900509000
B1840422836818N08157490WA010870120101109000
B1840472836840N08157452WA010900120701009000
B1840522836877N08157477WA010960121301209000
B1840572836872N08157521WA010990121900809000
B1841022836837N08157533WA011030122300809000
B1841072836821N08157503WA011120123100909000
B1841122836853N08157480WA011130123300809000
B1841172836876N08157518WA011180124001109000
B1841222836843N08157527WA011200124201109000
B1841272836853N08157494WA011240124501509000
B1841322836889N08157521WA011270124800709000
B1841372836886N08157570WA011280124800709000
B1841422836849N08157586WA011290124800809000
B1841472836836N08157555WA011360125301109000
B1841522836871N08157562WA011440126201509000
B1841572836862N08157599WA011490127001209000
B1842022836835N08157579WA011540127401109000
B1842072836860N08157550WA011610128300709000
B1842122836894N08157577WA011680128900609000
B1842172836886N08157620WA011730129600709000
B1842222836856N08157618WA011750129801209000
B1842272836853N08157580WA011840130301209000
B1842322836887N08157579WA011910131101109000
B1842372836883N08157618WA011980131801009000
B1842422836861N08157599WA012040132301409000
B1842472836894N08157587WA012110133101009000
B1842522836916N08157624WA012170133701109000
B1842572836899N08157665WA012190134200409000
B1843022836861N08157676WA012240134300909000
B1843072836842N08157642WA012310135201009000
B1843122836866N08157621WA012370136100909000
B1843172836893N08157650WA012460136900909000
B1843222836876N08157687WA012470137200909000
F18432701070809111623272830
B1843272836847N08157677WA012530137800810000
B1843322836857N08157647WA012580138400410000
B1843372836893N08157641WA012620138700710000
B1843422836912N08157678WA012680139300610000
B1843472836890N08157716WA012740139901010000
B1843522836865N08157700WA012770140301110000
B1843572836888N08157671WA012790140400810000
B1844022836931N08157690WA012810140701010000
F184407070809111623272830
B1844072836935N08157736WA012870141401209000
F18441201070809111623272830
B1844122836902N08157731WA012910141801010000
B1844172836915N08157699WA012960142201010000
B1844222836955N08157717WA012990142400710000
B1844272836954N08157767WA013050143001210000
B1844322836919N08157774WA013100143400710000
B1844372836913N08157745WA013150144000710000
B1844422836947N08157730WA013200144600610000
B1844472836985N08157759WA013230145000610000
B1844522836976N08157802WA013310145800810000
B1844572836957N08157779WA013310146100610000
B1845022836999N08157771WA013310146000810000
B1845072837033N08157811WA013390146800910000
B1845122837022N08157852WA013460147500910000
B1845172836994N08157847WA013500147900710000
B1845222837021N08157823WA013480147900810000
B1845272837062N08157861WA013490148100510000
B1845322837085N08157911WA013550148600410000
B1845372837102N08157958WA013570148800310000
B1845422837120N08158009WA013510148400310000
B1845472837139N08158064WA013440147600310000
B1845522837162N08158114WA013360146800210000
B1845572837187N08158163WA013280146000310000
B1846022837208N08158216WA013170144800310000
B1846072837228N08158269WA013040143400310000
B1846122837257N08158312WA012930142100310000
B1846172837293N08158347WA012810140800410000
B1846222837328N08158385WA012680139500310000
B1846272837358N08158426WA012560138300210000
B1846322837389N08158468WA012430137000310000
B1846372837417N08158513WA012310135500210000
B1846422837444N08158557WA012180134300310000
B1846472837480N08158596WA012020132600410000
B1846522837513N08158637WA011880131200310000
B1846572837537N08158684WA011750129800310000
B1847022837565N08158729WA011620128500210000
B1847072837599N08158766WA011540127500310000
B1847122837634N08158798WA011450126700510000
B1847172837668N08158833WA011360125700310000
B1847222837696N08158876WA011250124600210000
B1847272837726N08158917WA011140123500310000
B1847322837765N08158950WA011040122600310000
B1847372837804N08158979WA010950121600310000
B1847422837842N08159012WA010850120500210000
B1847472837880N08159047WA010770119400310000
B1847522837920N08159083WA010680118400210000
B1847572837956N08159121WA010650117900210000
B1848022837986N08159163WA010590117300310000
B1848072838021N08159200WA010510116700510000
B1848122838058N08159231WA010440116100410000
B1848172838091N08159265WA010380115500210000
B1848222838122N08159307WA010300114700310000
B1848272838158N08159343WA010220113800410000
B1848322838198N08159374WA010140113000310000
B1848372838239N08159398WA010070112200310000
B1848422838279N08159418WA009980111400410000
B1848472838321N08159437WA009890110500310000
B1848522838365N08159458WA009800109800510000
B1848572838406N08159487WA009750109200210000
B1849022838446N08159517WA009690108600210000
B1849072838489N08159538WA009630107700310000
F184912070809111623272830
B1849122838531N08159562WA009550107000409000
F18491701070809111623272830
B1849172838572N08159592WA009500106400310000
B1849222838613N08159621WA009430105700210000
B1849272838652N08159653WA009350104900210000
B1849322838692N08159682WA009270104100210000
B1849372838729N08159710WA009180103200210000
B1849422838762N08159745WA009060102100210000
B1849472838800N08159775WA008940100800210000
B1849522838843N08159798WA008830099500510000
B1849572838886N08159815WA008740098400310000
B1850022838931N08159828WA008640097300310000
B1850042838949N08159829WA008580096800310000
B1850052838958N08159829WA008540096500310000
E185006TPC
B1850062838968N08159829WA008510096200310000
B1850072838978N08159830WA008470095800410000
B1850082838988N08159832WA008430095500310000
B1850092838998N08159834WA008400095100310000
B1850102839008N08159837WA008350094900510000
B1850112839017N08159841WA008330094700610000
B1850122839026N08159845WA008320094400610000
B1850172839062N08159875WA008180093200310000
B1850222839085N08159917WA008020091500610000
B1850272839100N08159957WA007890090000310000
B1850322839113N08200001WA007710088100410000
B1850372839120N08200049WA007600086500310000
B1850422839135N08200094WA007530085500310000
B1850472839174N08200124WA007380084200410000
B1850522839208N08200104WA007260083200710000
B1850572839211N08200064WA007140081900610000
B1851022839213N08200026WA007080081100410000
B1851072839216N08159989WA006950079800410000
B1851122839217N08159948WA006810078200310000
B1851172839214N08159911WA006640076500310000
B1851222839214N08159867WA006440074600310000
B1851272839219N08159822WA006300073000510000
B1851322839227N08159779WA006190071700310000
B1851372839238N08159737WA006070070300210000
B1851422839250N08159694WA005950069200410000
B1851472839255N08159655WA005840068000310000
B1851522839250N08159615WA005710066800210000
B1851572839248N08159576WA005610065700410000
B1852022839271N08159539WA005490064500410000
B1852072839318N08159533WA005380063400610000
B1852122839363N08159543WA005270062200410000
B1852172839399N08159574WA005160061100310000
B1852222839410N08159621WA005050059600310000
B1852272839408N08159670WA004920058200310000
B1852322839400N08159718WA004820057200310000
B1852372839393N08159765WA004690055800310000
B1852422839383N08159809WA004550054400410000
B1852472839364N08159844WA004410052900310000
B1852522839357N08159886WA004290051600310000
B1852572839365N08159938WA004230050800310000
B1853022839358N08159985WA004150050000610000
B1853072839333N08200017WA004020048901010000
B1853122839315N08159986WA003890047800810000
B1853172839333N08159947WA003790046600410000
B1853222839364N08159916WA003720045800310000
B1853272839401N08159885WA003710045400610000
B1853322839438N08159909WA003680045101210000
B1853372839422N08159951WA003640044601010000
B1853422839390N08159956WA003600044300810000
B1853472839368N08159929WA003510043900810000
B1853522839380N08159885WA003440043100610000
B1853572839412N08159854WA003410042600610000
B1854022839464N08159856WA003300041600410000
B1854072839492N08159897WA003110039300710000
B1854122839463N08159939WA003000037800710000
B1854172839437N08159969WA002990037600610000
B1854222839418N08159952WA002900037000810000
B1854272839435N08159910WA002770036400910000
B1854322839487N08159912WA002740035700610000
B1854372839501N08159961WA002680034900810000
B1854422839482N08159990WA002650034500610000
B1854472839454N08200008WA002580034000410000
B1854522839421N08200012WA002520033300710000
B1854572839391N08159989WA002440032900710000
B1855022839361N08159971WA002330031900410000
B1855072839333N08159991WA002170030700610000
B1855122839325N08200042WA002020028600610000
B1855172839313N08200085WA001950027400310000
B1855222839303N08200131WA001800025900510000
B1855272839301N08200185WA001630024000610000
B1855322839290N08200232WA001530022900610000
B1855372839264N08200271WA001520022400410000
B1855422839247N08200249WA001370021801010000
B1855472839282N08200215WA001330021101110000
B1855522839315N08200247WA001240020101210000
B1855572839286N08200283WA001210019501110000
B1856022839285N08200252WA001170019301510000
B1856072839329N08200254WA001120018701210000
B1856122839325N08200294WA001100018401010000
B1856172839290N08200297WA001080018100910000
B1856222839308N08200265WA000950017501010000
B1856272839352N08200284WA000900016601010000
B1856322839345N08200323WA000880016201110000
B1856372839343N08200287WA000860015601210000
B1856422839388N08200308WA000850015600910000
B1856472839372N08200334WA000810015501210000
B1856522839363N08200295WA000790015101010000
B1856572839405N08200302WA000690014500510000
B1857022839400N08200341WA000690014400810000
B1857072839370N08200339WA000640013700510000
B1857122839345N08200326WA000510012500410000
B1857172839312N08200318WA000410011500610000
B1857222839278N08200323WA000220009900610000
B1857272839233N08200324WA-00000007600710000
B1857322839237N08200270WA-00240004801010000
B1857372839253N08200220WA-00290002700810000
B1857422839262N08200187WA-00300002300510000
B1857472839263N08200173WA-00300002700610000
B1857522839265N08200174WA-00300002900310000
B1857572839266N08200176WA-00300002900310000
B1858022839266N08200176WA-00300003000410000
B1858072839266N08200176WA-00300003000410000
B1858122839266N08200176WA-00300003000310000
B1858172839266N08200176WA-00300003000310000
B1858222839266N08200176WA-00300003000310000
B1858272839266N08200176WA-00300003000310000
B1858322839266N08200176WA-00300003000310000
B1858372839266N08200176WA-00300003000310000
B1858422839266N08200176WA-00300003000310000
B1858472839266N08200176WA-00300003000310000
B1858522839266N08200176WA-00300003000310000
B1858572839267N08200176WA-00300003100410000
B1859022839267N08200176WA-00300003100310000
B1859072839267N08200176WA-00290003100310000
B1859122839267N08200176WA-00290003200310000
B1859172839267N08200176WA-00300003200310000
B1859222839267N08200176WA-00300003100310000
B1859272839267N08200176WA-00300003100410000
B1859322839267N08200176WA-00290003200410000
B1859372839267N08200176WA-00300003200310000
B1859422839269N08200175WA-00300003100410000
B1859472839271N08200173WA-00300003100310000
B1859522839272N08200174WA-00300003100310000
B1859572839271N08200174WA-00300003200410000
B1900022839271N08200174WA-00300003200410000
B1900072839271N08200174WA-00300003200410000
B1900122839271N08200174WA-00300003200410000
B1900172839271N08200174WA-00300003200310000
B1900222839271N08200174WA-00300003200510000
B1900272839271N08200174WA-00300003200410000
B1900322839271N08200174WA-00300003200310000
B1900372839271N08200174WA-00300003200310000
B1900422839271N08200174WA-00300003200310000
B1900472839271N08200174WA-00300003200310000
B1900522839271N08200174WA-00300003200310000
B1900572839271N08200174WA-00300003200310000
B1901022839271N08200174WA-00300003200410000
B1901072839271N08200174WA-00300003200410000
B1901122839271N08200174WA-00300003200310000
B1901172839271N08200174WA-00300003200310000
B1901222839271N08200174WA-00300003200310000
B1901272839271N08200174WA-00300003200310000
G932237E368E739DE48F2AE55432E97DABF6A9DEE09007159F4E8C7F84B76138E
