AFLY00NB 0101437
HFDTE080516
HFFXA010
HFPLTPILOT:Cory Barnwell   
HFCM2CREW2:NKN
HFGTYGLIDERTYPE:Moyes LS RX 3.5 
HFGIDGLIDERID:NKN             
HFDTM100GPSDATUM:WGS84
HFRFWFIRMWAREVERSION: 1.04.13
HFRHWHARDWAREVERSION:1.00
HFFTYFRTYPE:Flytec Element Track
HFGPS:FASTRAX,IT430,48
HFPRSPRESSALTSENSOR:INTERSEMA,MS5401BM,12000
HFALGALTGPS:GEO
HFALPALTPRESSURE:ISA
HFTZNUTCOFFSET: -4.00h
I033638FXA3940SIU4143TAS
C080516151720080516002303
C2831982N08150800W TAKEOFF
C2831982N08150800W START  QUEST            00000000005000000000360000AREA
C2838733N08213139W TURN   GROSS            00000000003000000000360000AREA
C2842911N08153802W TURN   TURN33           00000000000400000000360000AREA
C2822584N08149398W TURN   T47433           00000000003000000000360000AREA
C2831982N08150800W FINISH QUEST            00000000000400000000360000AREA
C2831982N08150800W LANDING
F17185608092223
B1718562832088N08150784WA-00130002409804000
E171902STA
E171902ATS1018.3
LFLYA1 00051
B1719022832026N08150774WA000140004406604000
B1719052831999N08150765WA000260005305004000
B1719082831971N08150756WA000380006805204000
B1719112831945N08150742WA000480007805404000
B1719142831922N08150723WA000600008903804000
B1719172831902N08150702WA000720010104604000
B1719202831887N08150678WA000860011203604000
B1719232831872N08150655WA000970012403604000
B1719262831857N08150628WA001090013803404000
B1719292831845N08150605WA001170015003404000
B1719322831837N08150579WA001270016303604000
F171935080916222327
B1719352831827N08150575WA001380018101506000
B1719382831822N08150556WA001500019701406000
B1719412831823N08150531WA001640021001006000
B1719442831828N08150504WA001760022701406000
B1719472831836N08150478WA001850024200806000
B1719502831849N08150455WA001970025601206000
F17195308091622232731
B1719532831865N08150433WA002060027000707000
B1719562831884N08150414WA002170028301207000
B1719592831906N08150400WA002270029500907000
B1720022831930N08150387WA002390030700507000
B1720052831953N08150378WA002500031900907000
B1720082831978N08150376WA002620033200707000
B1720112832003N08150378WA002730034400607000
B1720142832028N08150385WA002820035500507000
B1720172832052N08150395WA002960036700607000
B1720202832077N08150408WA003080037700507000
B1720232832100N08150425WA003160038700807000
B1720262832120N08150444WA003290039700907000
B1720292832140N08150464WA003410040900807000
B1720322832159N08150486WA003510042100507000
B1720352832177N08150509WA003630043300607000
B1720382832193N08150532WA003730044500607000
B1720412832208N08150559WA003850045600807000
B1720442832221N08150586WA003970046800707000
B1720472832234N08150613WA004090048000507000
B1720502832244N08150640WA004180049100807000
B1720532832254N08150669WA004270050100707000
B1720562832263N08150697WA004360051000907000
F1720590308091622232731
B1720592832271N08150724WA004480052100708000
B1721022832277N08150754WA004580052900508000
B1721052832280N08150785WA004640053900708000
B1721082832280N08150816WA004750054900508000
B1721112832284N08150847WA004860056000808000
B1721142832293N08150877WA004960057200808000
B1721172832303N08150907WA005110058400808000
B1721202832309N08150939WA005170059600808000
F172123030708091622232731
B1721232832313N08150969WA005350061100609000
B1721262832315N08150998WA005480062700509000
B1721292832315N08151027WA005680064500709000
B1721322832308N08151057WA005830066100409000
B1721352832297N08151084WA005990067600609000
B1721382832280N08151109WA006120069000409000
B1721412832256N08151130WA006230070300509000
B1721442832231N08151143WA006270071500709000
B1721472832212N08151144WA006240072100609000
B1721502832201N08151128WA006160072301109000
B1721532832213N08151105WA006140072001309000
B1721562832230N08151095WA006110071301109000
B1721592832250N08151089WA006020070300609000
B1722022832275N08151097WA005960069500809000
F17220503070809162223262731
B1722052832298N08151108WA005970068800910000
B1722082832323N08151120WA005960068100910000
B1722112832349N08151135WA005960067600710000
B1722142832371N08151150WA006020067700810000
B1722172832395N08151157WA006080068100510000
B1722202832413N08151146WA006140068601010000
B1722232832414N08151121WA006130069001110000
B1722262832395N08151107WA006210069401010000
B1722292832375N08151105WA006290070101010000
B1722322832358N08151122WA006300070700710000
B1722352832366N08151143WA006300071101110000
B1722382832393N08151140WA006370071601310000
B1722412832400N08151115WA006470072101410000
B1722442832381N08151096WA006530072801010000
B1722472832366N08151100WA006580073400810000
B1722502832349N08151117WA006550073600710000
B1722532832335N08151136WA006610073900510000
B1722562832332N08151161WA006630074300510000
B1722592832347N08151184WA006670074700910000
B1723022832370N08151188WA006710074900710000
B1723052832391N08151177WA006750075401010000
B1723082832404N08151158WA006820076000910000
B1723112832409N08151135WA006820076400710000
B1723142832402N08151113WA006880076800910000
B1723172832384N08151109WA006930077300710000
B1723202832372N08151126WA006990077800910000
B1723232832380N08151148WA007000078101010000
B1723262832403N08151155WA007060078501110000
B1723292832413N08151130WA007090079001410000
B1723322832397N08151114WA007150079601010000
B1723352832379N08151122WA007200080301010000
B1723382832378N08151145WA007200080601210000
B1723412832404N08151157WA007270081000910000
B1723442832423N08151146WA007320081401110000
B1723472832433N08151126WA007340081700910000
B1723502832424N08151104WA007360081901210000
B1723532832403N08151104WA007410082300810000
B1723562832391N08151123WA007480082801310000
B1723592832402N08151143WA007520083201010000
B1724022832424N08151139WA007570083601110000
B1724052832429N08151114WA007580083801110000
B1724082832409N08151100WA007630084401110000
B1724112832390N08151114WA007700085000910000
B1724142832385N08151138WA007760085600710000
B1724172832400N08151157WA007790086100810000
B1724202832420N08151155WA007880086501110000
B1724232832427N08151130WA007920087301110000
B1724262832414N08151110WA007960087801310000
B1724292832393N08151116WA007990088200810000
B1724322832390N08151142WA008040088700910000
B1724352832409N08151158WA008110089300910000
B1724382832426N08151146WA008160090101010000
B1724412832426N08151122WA008220090701010000
B1724442832406N08151114WA008270091101210000
B1724472832389N08151132WA008280091401110000
B1724502832391N08151156WA008340091700710000
B1724532832407N08151172WA008410092300710000
B1724562832426N08151166WA008480092901210000
B1724592832430N08151142WA008550093401110000
B1725022832410N08151130WA008560093900910000
B1725052832389N08151144WA008630094701310000
B1725082832388N08151167WA008690095301110000
B1725112832406N08151178WA008730095901410000
B1725142832420N08151162WA008810096501210000
B1725172832418N08151139WA008880097001010000
B1725202832397N08151131WA008930097600910000
B1725232832379N08151145WA008990098200710000
B1725262832380N08151168WA009030098800910000
B1725292832397N08151179WA009070099300710000
B1725322832414N08151169WA009120099800910000
B1725352832417N08151147WA009170100500810000
B1725382832402N08151129WA009250101001010000
B1725412832381N08151130WA009300101500710000
B1725442832365N08151147WA009340102000710000
B1725472832359N08151173WA009370102400510000
B1725502832357N08151198WA009410102700510000
B1725532832356N08151223WA009440103000510000
B1725562832355N08151249WA009520103600510000
B1725592832365N08151271WA009600104300610000
B1726022832387N08151275WA009640104901210000
B1726052832399N08151252WA009710105701010000
B1726082832385N08151233WA009760106501210000
B1726112832349N08151245WA009870107500610000
B1726142832341N08151268WA009910107800610000
B1726172832342N08151292WA009960108000610000
B1726202832360N08151305WA009910107901110000
B1726232832385N08151288WA009890107701110000
B1726262832402N08151269WA010000107901010000
B1726292832410N08151246WA010090108401110000
B1726322832393N08151232WA010160108800810000
B1726352832372N08151246WA010190109301110000
B1726382832375N08151272WA010250109901210000
B1726412832400N08151278WA010300110601110000
B1726442832415N08151259WA010390111601310000
B1726472832407N08151239WA010480112301010000
B1726502832385N08151241WA010550113201110000
B1726532832377N08151264WA010590113801110000
B1726562832394N08151279WA010630114401410000
B1726592832413N08151268WA010710115101110000
B1727022832419N08151245WA010800115801110000
B1727052832404N08151225WA010830116301210000
B1727082832382N08151231WA010890117001210000
B1727112832375N08151254WA010950117401010000
B1727142832382N08151278WA011000117800810000
B1727172832401N08151288WA011070118500810000
B1727202832418N08151278WA011120119101110000
B1727232832414N08151253WA011190119901210000
B1727262832393N08151245WA011250120600810000
B1727292832378N08151264WA011340121201110000
B1727322832387N08151283WA011370121701010000
B1727352832408N08151281WA011410122401010000
B1727382832410N08151255WA011480123001210000
B1727412832391N08151245WA011530123700910000
B1727442832372N08151260WA011580124100710000
B1727472832373N08151284WA011600124101310000
B1727502832394N08151291WA011640124500810000
B1727532832405N08151269WA011690124901310000
B1727562832390N08151252WA011760125401310000
F172759030708091622232631
B1727592832369N08151258WA011800126000709000
F17280203070809162223262731
B1728022832363N08151285WA011790126201110000
B1728052832378N08151300WA011880126901010000
B1728082832397N08151295WA011860127101310000
B1728112832407N08151268WA011920127601010000
B1728142832408N08151244WA012000128000710000
B1728172832403N08151220WA012030128400710000
B1728202832381N08151207WA012060128700810000
B1728232832361N08151218WA012080129000710000
B1728262832355N08151243WA012070129100910000
B1728292832367N08151265WA012080129300810000
B1728322832385N08151274WA012120129500710000
B1728352832404N08151265WA012150129900910000
B1728382832417N08151248WA012210130300610000
B1728412832426N08151226WA012220130500610000
B1728442832438N08151202WA012250130700710000
B1728472832442N08151175WA012330131100810000
B1728502832438N08151151WA012410131800910000
B1728532832421N08151134WA012490132601010000
B1728562832396N08151131WA012560133700810000
B1728592832379N08151147WA012620134500810000
B1729022832382N08151170WA012680135300810000
B1729052832398N08151181WA012710135801010000
B1729082832415N08151170WA012780136701110000
B1729112832418N08151147WA012870137500810000
B1729142832406N08151130WA012920138000910000
B1729172832383N08151139WA012960138401010000
B1729202832378N08151164WA013020138800910000
B1729232832397N08151171WA013050139101110000
B1729262832407N08151149WA013080139601010000
B1729292832401N08151123WA013200140201010000
B1729322832378N08151114WA013220140901010000
B1729352832363N08151134WA013260141201210000
B1729382832370N08151153WA013320141800910000
B1729412832387N08151157WA013350142101010000
B1729442832401N08151144WA013420142400910000
B1729472832406N08151122WA013440142700610000
B1729502832395N08151098WA013470143000710000
B1729532832371N08151092WA013530143600810000
B1729562832351N08151106WA013570144100710000
B1729592832343N08151127WA013610144500510000
B1730022832348N08151145WA013640144900610000
B1730052832364N08151154WA013670145300610000
B1730082832379N08151151WA013690145500710000
B1730112832393N08151137WA013710145900610000
B1730142832400N08151116WA013720146100710000
B1730172832387N08151093WA013720146301110000
B1730202832360N08151084WA013750146500910000
B1730232832336N08151082WA013820146800610000
B1730262832316N08151094WA013820147000610000
B1730292832307N08151119WA013820147000510000
B1730322832310N08151141WA013820147000710000
B1730352832317N08151160WA013840147200610000
B1730382832325N08151181WA013850147300610000
B1730412832327N08151204WA013880147500610000
B1730442832326N08151229WA013850147500810000
B1730472832321N08151262WA013810147500610000
B1730502832318N08151289WA013840147300610000
B1730532832319N08151316WA013770146800610000
B1730562832323N08151340WA013770146600510000
B1730592832324N08151366WA013710146300410000
B1731022832323N08151396WA013640145600410000
B1731052832322N08151425WA013600145000510000
B1731082832325N08151453WA013530144300410000
B1731112832329N08151480WA013480143600410000
B1731142832334N08151512WA013370142800410000
B1731172832337N08151545WA013330142100410000
B1731202832340N08151578WA013240141300410000
B1731232832343N08151611WA013170140600310000
B1731262832348N08151641WA013130139900410000
B1731292832356N08151670WA013080139300510000
B1731322832366N08151696WA013060138900510000
B1731352832376N08151720WA013070138800410000
B1731382832385N08151747WA013070138800410000
B1731412832392N08151773WA013090139000410000
B1731442832400N08151800WA013070138900410000
B1731472832409N08151826WA013060138800610000
B1731502832418N08151851WA013020138700410000
B1731532832426N08151878WA012990138600410000
B1731562832431N08151901WA012980138400410000
B1731592832434N08151925WA012930138100310000
B1732022832435N08151948WA012900137700410000
B1732052832440N08151970WA012830137100810000
B1732082832446N08152000WA012700136100610000
B1732112832453N08152030WA012630135300510000
B1732142832461N08152058WA012600134600610000
B1732172832469N08152088WA012520133700710000
B1732202832475N08152118WA012470132900710000
B1732232832478N08152151WA012450132300510000
B1732262832481N08152179WA012470132400710000
B1732292832485N08152207WA012500132600610000
F173232070809162223262731
B1732322832491N08152236WA012520133000409000
F17323503070809162223262731
B1732352832491N08152268WA012560133500410000
B1732382832495N08152297WA012660134000410000
B1732412832515N08152312WA012610134401110000
B1732442832532N08152299WA012650134801110000
B1732472832530N08152280WA012640134901510000
B1732502832512N08152266WA012650135200910000
B1732532832491N08152262WA012660135400710000
B1732562832467N08152269WA012710135700610000
B1732592832447N08152285WA012750136000610000
B1733022832437N08152309WA012770136100610000
B1733052832443N08152334WA012780136300810000
B1733082832461N08152348WA012790136400910000
B1733112832477N08152331WA012800136501310000
B1733142832473N08152305WA012820136600910000
B1733172832454N08152295WA012820136601010000
B1733202832430N08152300WA012780136500810000
B1733232832409N08152315WA012810136600610000
B1733262832398N08152338WA012800136500510000
B1733292832401N08152365WA012770136400910000
B1733322832407N08152388WA012770136300510000
B1733352832418N08152409WA012740136200510000
B1733382832433N08152432WA012690136000410000
B1733412832440N08152461WA012640135600510000
B1733442832438N08152496WA012600135000710000
B1733472832437N08152528WA012550134400410000
B1733502832434N08152560WA012480133800710000
B1733532832426N08152593WA012420133200510000
B1733562832414N08152621WA012390132600410000
B1733592832399N08152647WA012360132200410000
B1734022832386N08152672WA012340131900410000
B1734052832373N08152701WA012310131400410000
B1734082832361N08152733WA012240130900410000
B1734112832353N08152765WA012210130600510000
B1734142832348N08152798WA012170130100510000
B1734172832348N08152833WA012150129600510000
B1734202832349N08152868WA012090129100310000
B1734232832350N08152906WA012000128500310000
B1734262832349N08152945WA011960127900510000
B1734292832345N08152983WA011930127500610000
B1734322832335N08153019WA011950127400410000
B1734352832320N08153048WA011950127300510000
B1734382832300N08153071WA011990127400410000
B1734412832283N08153095WA012010127600410000
B1734442832273N08153124WA012000127700610000
B1734472832268N08153150WA012020128100510000
B1734502832257N08153178WA012020128200510000
B1734532832250N08153207WA012040128300510000
B1734562832258N08153233WA012040128500610000
F173459030708162223262731
B1734592832276N08153250WA012080128800509000
F17350203070809162223262731
B1735022832297N08153246WA012080128901310000
B1735052832306N08153226WA012110129100810000
B1735082832299N08153204WA012150129600910000
B1735112832277N08153198WA012140129700610000
B1735142832255N08153211WA012110129600710000
B1735172832243N08153234WA012110129500510000
B1735202832244N08153262WA012060129201010000
B1735232832262N08153285WA012050129000710000
B1735262832283N08153301WA012050128900610000
B1735292832305N08153310WA012070128900510000
B1735322832327N08153308WA012030128700710000
B1735352832344N08153294WA012050128700610000
B1735382832355N08153277WA012070128900510000
B1735412832367N08153260WA012060128900610000
B1735442832376N08153240WA012070129000510000
B1735472832386N08153220WA012090129200510000
B1735502832397N08153199WA012130129400610000
B1735532832398N08153177WA012150129600910000
B1735562832380N08153162WA012160129600910000
B1735592832360N08153173WA012210130001010000
B1736022832356N08153199WA012180130001210000
B1736052832372N08153218WA012200130300910000
B1736082832393N08153219WA012230130501210000
B1736112832404N08153204WA012270130801210000
B1736142832405N08153182WA012250130901010000
B1736172832389N08153168WA012270131100910000
B1736202832367N08153179WA012250131001110000
B1736232832354N08153201WA012260131101010000
B1736262832355N08153226WA012270131100610000
B1736292832372N08153245WA012250131001210000
B1736322832392N08153243WA012290131000710000
B1736352832405N08153227WA012300131101110000
B1736382832404N08153205WA012290131100810000
B1736412832384N08153197WA012290131101010000
B1736442832365N08153210WA012240131000910000
B1736472832362N08153240WA012230130801010000
B1736502832377N08153258WA012260131000710000
B1736532832398N08153267WA012250130900710000
B1736562832421N08153273WA012200130600610000
B1736592832445N08153275WA012200130400510000
B1737022832468N08153272WA012220130500510000
B1737052832486N08153260WA012240130500710000
B1737082832488N08153237WA012260130700910000
B1737112832467N08153229WA012240130800710000
B1737142832441N08153240WA012260130900610000
B1737172832428N08153264WA012290131100710000
B1737202832432N08153292WA012260131101210000
B1737232832454N08153305WA012260131101010000
B1737262832475N08153302WA012270131100710000
B1737292832492N08153287WA012230130900610000
B1737322832492N08153259WA012190130601310000
B1737352832481N08153239WA012240130800710000
B1737382832461N08153226WA012230130700710000
B1737412832435N08153230WA012260130900710000
B1737442832416N08153245WA012270130900810000
B1737472832408N08153273WA012210130700710000
B1737502832421N08153296WA012200130701110000
B1737532832445N08153302WA012210130600710000
B1737562832462N08153294WA012230130600910000
B1737592832473N08153276WA012200130501010000
B1738022832471N08153252WA012210130400810000
B1738052832458N08153233WA012230130700510000
B1738082832438N08153227WA012240130800510000
B1738112832419N08153241WA012200130701010000
B1738142832414N08153269WA012150130400610000
B1738172832425N08153293WA012130130100910000
B1738202832446N08153301WA012140130000910000
B1738232832465N08153295WA012150129800710000
B1738262832477N08153279WA012160129900810000
B1738292832476N08153258WA012140129901010000
B1738322832458N08153246WA012140129801110000
B1738352832436N08153255WA012130129700710000
B1738382832421N08153277WA012100129600510000
B1738412832420N08153304WA012080129400510000
B1738442832431N08153327WA012080129200810000
B1738472832449N08153338WA012060129200610000
B1738502832467N08153333WA012060129000910000
B1738532832475N08153315WA012070129001010000
B1738562832481N08153295WA012050128900710000
B1738592832489N08153274WA012060128900610000
B1739022832490N08153254WA012080128900710000
B1739052832480N08153231WA012040128901010000
B1739082832460N08153223WA012050128700910000
B1739112832439N08153229WA012000128400510000
B1739142832423N08153248WA011980128200510000
B1739172832410N08153273WA011950127800410000
B1739202832404N08153301WA011920127500510000
B1739232832408N08153329WA011880127100510000
B1739262832423N08153349WA011850126800810000
B1739292832443N08153359WA011840126600510000
B1739322832464N08153362WA011830126400710000
B1739352832483N08153361WA011830126300710000
B1739382832503N08153356WA011800126100310000
B1739412832516N08153342WA011750126000610000
B1739442832519N08153316WA011700125600810000
B1739472832518N08153290WA011680125400610000
B1739502832512N08153269WA011680125100810000
B1739532832497N08153252WA011650124900610000
B1739562832480N08153237WA011610124500410000
B1739592832463N08153221WA011560124100410000
B1740022832447N08153202WA011540123900410000
B1740052832436N08153183WA011540123700410000
B1740082832432N08153162WA011520123600310000
B1740112832431N08153138WA011460123300510000
B1740142832434N08153111WA011420122900710000
B1740172832437N08153083WA011450122700910000
B1740202832432N08153058WA011500122800610000
B1740232832419N08153037WA011500122900810000
B1740262832394N08153039WA011560123401010000
B1740292832383N08153060WA011610123800710000
B1740322832390N08153086WA011630124201210000
F1740350307080911162223262731
B1740352832411N08153095WA011660124601311000
B1740382832431N08153081WA011690125101311000
B1740412832434N08153056WA011730125400711000
B1740442832425N08153033WA011740125501111000
B1740472832406N08153022WA011790125900711000
B1740502832385N08153026WA011840126400411000
B1740532832373N08153046WA011870126800611000
B1740562832385N08153069WA011890127201211000
B1740592832411N08153074WA011930127401211000
B1741022832427N08153060WA011970127701011000
B1741052832432N08153034WA011980128000911000
B1741082832429N08153011WA012040128400611000
B1741112832414N08152992WA012080128801011000
B1741142832392N08152997WA012140129401011000
B1741172832384N08153022WA012200130100511000
B1741202832394N08153047WA012230130600711000
B1741232832411N08153065WA012290131100611000
B1741262832432N08153074WA012330131600411000
B1741292832451N08153067WA012340132001111000
B1741322832453N08153040WA012350132101011000
B1741352832436N08153024WA012410132600711000
B1741382832416N08153022WA012480133100511000
F17414103070809162223262731
B1741412832396N08153034WA012540133800510000
F1741440307080911162223262731
B1741442832384N08153057WA012590134400411000
B1741472832397N08153080WA012590134701211000
B1741502832422N08153078WA012630135101211000
B1741532832433N08153058WA012710135701011000
B1741562832431N08153035WA012760136100711000
B1741592832419N08153017WA012850136801011000
B1742022832397N08153019WA012920137600711000
B1742052832388N08153043WA012990138400911000
B1742082832404N08153063WA013040139101011000
B1742112832426N08153062WA013080139701011000
B1742142832435N08153043WA013160140400811000
B1742172832428N08153021WA013210140900711000
B1742202832409N08153009WA013270141500611000
B1742232832391N08153009WA013340141900511000
F17422603070809111623262731
B1742262832375N08153028WA013350142300610000
B1742292832376N08153054WA013390142600810000
B1742322832395N08153068WA013410143000910000
B1742352832415N08153056WA013470143401410000
B1742382832418N08153032WA013530143900710000
B1742412832408N08153012WA013600144300510000
B1742442832387N08153007WA013620144700810000
B1742472832370N08153023WA013650145100610000
B1742502832366N08153047WA013670145301010000
B1742532832380N08153068WA013680145700710000
B1742562832403N08153072WA013730146200510000
B1742592832425N08153065WA013780146600710000
B1743022832436N08153045WA013830147000810000
B1743052832430N08153024WA013880147500910000
B1743082832407N08153018WA013940148101210000
B1743112832386N08153032WA014000148700910000
B1743142832378N08153056WA014030149300910000
B1743172832390N08153078WA014040149701110000
B1743202832413N08153073WA014060149801310000
B1743232832421N08153050WA014100150100810000
B1743262832412N08153027WA014140150300710000
B1743292832392N08153018WA014190150800510000
B1743322832371N08153025WA014200150900610000
B1743352832361N08153051WA014160151000710000
B1743382832362N08153077WA014240151100610000
B1743412832375N08153102WA014210151200710000
B1743442832397N08153110WA014230151400610000
B1743472832417N08153102WA014230151401110000
B1743502832425N08153078WA014230151400710000
B1743532832423N08153053WA014260151500810000
B1743562832409N08153034WA014290151800610000
B1743592832388N08153038WA014330152100810000
B1744022832377N08153062WA014310152200910000
B1744052832393N08153086WA014300152301410000
B1744082832417N08153094WA014380152901010000
B1744112832437N08153086WA014370152901210000
B1744142832440N08153059WA014370152900910000
B1744172832421N08153044WA014390153100710000
B1744202832401N08153052WA014430153400810000
B1744232832389N08153073WA014440153500510000
B1744262832385N08153100WA014450153500610000
B1744292832392N08153123WA014490153900610000
B1744322832409N08153140WA014500154100710000
B1744352832433N08153142WA014470154000810000
B1744382832449N08153127WA014480154000910000
B1744412832448N08153100WA014450153800910000
B1744442832431N08153083WA014480153900910000
B1744472832410N08153086WA014500154100610000
B1744502832394N08153103WA014530154300610000
B1744532832391N08153130WA014540154400510000
B1744562832403N08153150WA014590154801010000
B1744592832425N08153155WA014590155001010000
B1745022832443N08153142WA014610155001310000
B1745052832453N08153121WA014570154900610000
B1745082832446N08153095WA014570154800710000
B1745112832431N08153080WA014570154700710000
B1745142832408N08153075WA014500154400810000
B1745172832387N08153085WA014490154300610000
B1745202832374N08153103WA014450153800510000
B1745232832366N08153130WA014390153400610000
B1745262832371N08153157WA014400153200810000
B1745292832389N08153172WA014430153300810000
B1745322832411N08153177WA014470153501010000
B1745352832429N08153168WA014490153700710000
B1745382832436N08153145WA014510153900510000
B1745412832428N08153125WA014510153900510000
B1745442832408N08153116WA014470153900610000
B1745472832386N08153130WA014440153900610000
B1745502832377N08153157WA014430153700810000
B1745532832382N08153184WA014430153600610000
B1745562832394N08153201WA014430153500710000
B1745592832414N08153213WA014440153500710000
B1746022832436N08153226WA014390153400510000
B1746052832454N08153250WA014380153300410000
B1746082832469N08153275WA014390153300410000
B1746112832482N08153300WA014360153100410000
B1746142832490N08153332WA014310152700410000
B1746172832487N08153363WA014290152400310000
B1746202832474N08153390WA014270152100410000
B1746232832458N08153415WA014250151700510000
B1746262832454N08153447WA014230151300710000
B1746292832463N08153478WA014190151000510000
B1746322832477N08153504WA014130150500510000
B1746352832496N08153527WA014060149900610000
B1746382832520N08153541WA013970149100510000
B1746412832544N08153542WA013900148200710000
B1746442832556N08153526WA013790147100910000
B1746472832556N08153499WA013670145700710000
B1746502832554N08153470WA013550144500710000
B1746532832549N08153444WA013490143500510000
B1746562832541N08153415WA013390142500410000
B1746592832536N08153381WA013390141800510000
B1747022832534N08153350WA013440141600610000
B1747052832534N08153319WA013440141800610000
B1747082832530N08153291WA013440142100610000
B1747112832515N08153268WA013410142200610000
B1747142832495N08153258WA013400142400510000
B1747172832472N08153260WA013350142300710000
B1747202832448N08153270WA013350142200610000
B1747232832430N08153282WA013350142000410000
B1747262832419N08153303WA013330141900510000
B1747292832424N08153327WA013280141701010000
B1747322832445N08153340WA013250141401110000
B1747352832466N08153330WA013210141100810000
B1747382832480N08153307WA013180140700710000
B1747412832495N08153287WA013190140600710000
B1747442832511N08153269WA013150140300610000
B1747472832513N08153242WA013110140000810000
B1747502832502N08153217WA013130139900610000
B1747532832484N08153198WA013170140000510000
B1747562832460N08153189WA013240140600610000
B1747592832441N08153206WA013310141300910000
B1748022832447N08153233WA013370141901110000
B1748052832468N08153241WA013460142600910000
B1748082832477N08153218WA013460143201310000
B1748112832459N08153194WA013520143801410000
B1748142832435N08153188WA013590144700610000
B1748172832415N08153199WA013630145200610000
B1748202832412N08153220WA013660145701310000
B1748232832430N08153229WA013680146101110000
B1748262832450N08153213WA013700146201310000
B1748292832457N08153187WA013780146500910000
B1748322832446N08153164WA013790146901010000
B1748352832422N08153156WA013780147000610000
B1748382832403N08153171WA013780147000710000
B1748412832401N08153197WA013760146900810000
B1748442832414N08153218WA013790146800910000
B1748472832434N08153228WA013820147100610000
B1748502832457N08153224WA013860147400710000
B1748532832469N08153201WA013920148101010000
B1748562832458N08153180WA013970148400710000
B1748592832435N08153183WA013940148500910000
B1749022832436N08153209WA013950148501210000
B1749052832455N08153221WA013980148701110000
B1749082832477N08153213WA014040149001410000
B1749112832481N08153184WA014090149500810000
B1749142832465N08153167WA014110150000710000
B1749172832447N08153179WA014090150201010000
B1749202832456N08153203WA014090150201210000
B1749232832480N08153207WA014120150301110000
B1749262832500N08153197WA014190150501010000
B1749292832520N08153179WA014200150700810000
B1749322832540N08153163WA014250151100510000
B1749352832563N08153165WA014250151400910000
B1749382832582N08153184WA014280151700810000
B1749412832599N08153200WA014330152100510000
B1749442832620N08153216WA014360152400510000
B1749472832641N08153240WA014370152700310000
B1749502832655N08153269WA014410152900510000
B1749532832664N08153299WA014320152700510000
B1749562832671N08153332WA014250152300510000
B1749592832683N08153361WA014200151700410000
B1750022832698N08153391WA014150151100310000
B1750052832712N08153421WA014120150500310000
B1750082832724N08153453WA014050150000310000
B1750112832733N08153486WA013980149300410000
B1750142832741N08153518WA013930148900310000
B1750172832749N08153550WA013910148400410000
B1750202832758N08153582WA013860147900510000
B1750232832767N08153617WA013800147400410000
B1750262832777N08153652WA013790147100310000
B1750292832790N08153686WA013770146800310000
B1750322832803N08153721WA013760146600310000
B1750332832807N08153732WA013770146600310000
E175034TPC
B1750342832810N08153743WA013780146600410000
B1750352832814N08153755WA013790146600310000
F175036070809111623262731
B1750362832818N08153766WA013780146500409000
F17503703070809111623262731
B1750372832822N08153777WA013770146500310000
B1750382832826N08153789WA013770146400310000
B1750392832830N08153800WA013760146400310000
B1750402832834N08153812WA013760146300410000
B1750412832839N08153823WA013750146200410000
B1750442832855N08153855WA013740146100310000
B1750472832872N08153885WA013740146000310000
B1750502832890N08153913WA013720145900310000
B1750532832907N08153942WA013690145700310000
B1750562832924N08153974WA013630145300210000
B1750592832939N08154007WA013590144900310000
B1751022832955N08154037WA013540144500310000
B1751052832974N08154072WA013440143900310000
B1751082832992N08154109WA013440143300310000
B1751112833008N08154150WA013400142800410000
B1751142833023N08154189WA013370142300510000
B1751172833037N08154222WA013330142000410000
B1751202833053N08154258WA013240141300410000
B1751232833067N08154295WA013190140700510000
B1751262833078N08154331WA013170140400610000
B1751292833085N08154367WA013140140100310000
B1751322833091N08154404WA013090139700410000
B1751352833098N08154441WA013040139300410000
B1751382833109N08154477WA013020138900510000
B1751412833123N08154512WA012960138400210000
B1751442833138N08154549WA012920138000310000
B1751472833151N08154584WA012930137700310000
B1751502833168N08154618WA012930137500310000
B1751532833183N08154652WA012940137500410000
B1751562833198N08154687WA012870137300610000
B1751592833217N08154724WA012800136800310000
B1752022833235N08154756WA012770136400310000
B1752052833250N08154789WA012710135900310000
B1752082833262N08154823WA012690135400610000
B1752112833271N08154859WA012640134900410000
B1752142833283N08154896WA012570134300410000
B1752172833298N08154929WA012570134000310000
B1752202833316N08154960WA012530133600410000
B1752232833331N08154991WA012540133400510000
B1752262833344N08155023WA012500133100610000
B1752292833357N08155058WA012450132900410000
B1752322833373N08155090WA012470132800310000
B1752352833388N08155121WA012440132700410000
B1752382833406N08155149WA012420132500610000
B1752412833425N08155179WA012330132200510000
B1752442833443N08155213WA012320132000510000
B1752472833457N08155242WA012370132200710000
B1752502833469N08155266WA012380132300310000
B1752532833482N08155296WA012280131800410000
F175256030708091116232627
B1752562833497N08155329WA012210131100609000
B1752592833508N08155362WA012160130400309000
B1753022833521N08155394WA012080129700409000
B1753052833536N08155426WA012000128800409000
B1753082833553N08155455WA011950128000609000
B1753112833571N08155484WA011890127300509000
B1753142833587N08155513WA011840126600309000
B1753172833600N08155545WA011750125700409000
B1753202833610N08155580WA011700125100409000
B1753232833617N08155614WA011650124500609000
B1753262833624N08155647WA011620124100609000
B1753292833627N08155682WA011510123500409000
B1753322833631N08155717WA011440122700409000
B1753352833642N08155749WA011370121800709000
B1753382833654N08155779WA011290121100809000
B1753412833663N08155815WA011200120300409000
B1753442833671N08155850WA011150119700809000
B1753472833677N08155880WA011120119200509000
B1753502833684N08155911WA011100118800609000
B1753532833692N08155943WA011060118300409000
B1753562833702N08155979WA011020117800409000
B1753592833712N08156017WA010970117400409000
B1754022833723N08156053WA010950117100409000
B1754052833733N08156089WA010940116800409000
B1754082833744N08156123WA010900116600409000
B1754112833757N08156158WA010870116300409000
B1754142833772N08156190WA010760115900509000
B1754172833788N08156224WA010740115500509000
B1754202833803N08156256WA010680115000709000
B1754232833821N08156286WA010620114400509000
B1754262833839N08156316WA010570113800309000
B1754292833855N08156349WA010530113200409000
B1754322833866N08156385WA010450112600509000
B1754352833872N08156421WA010420112100609000
B1754382833880N08156455WA010380111600509000
B1754412833889N08156488WA010330111100509000
B1754442833899N08156519WA010300110700409000
B1754472833912N08156548WA010300110500409000
B1754502833924N08156577WA010250110200409000
B1754532833937N08156604WA010230109900409000
B1754562833950N08156630WA010190109500409000
B1754592833963N08156657WA010140109000409000
B1755022833976N08156682WA010140108800409000
B1755052833990N08156709WA010100108500409000
B1755082834003N08156737WA010060108100609000
B1755112834016N08156760WA010050107900509000
B1755142834033N08156777WA010000107500509000
B1755172834058N08156797WA009900107000609000
B1755202834080N08156819WA009860106600409000
B1755232834097N08156849WA009760105900509000
B1755262834107N08156881WA009770105700709000
B1755292834118N08156907WA009770105500509000
B1755322834127N08156936WA009730105200609000
B1755352834137N08156968WA009690104900609000
B1755382834148N08156995WA009700104800409000
B1755412834165N08157018WA009660104500709000
B1755442834187N08157042WA009570103900409000
B1755472834207N08157073WA009440102900409000
B1755502834222N08157107WA009400102100609000
B1755532834234N08157136WA009380101400509000
B1755562834252N08157165WA009280100500509000
B1755592834276N08157192WA009180099500509000
B1756022834297N08157221WA009130098700409000
F1756050708091116232627
B1756052834317N08157250WA009080098000508000
F175608030708091116232627
B1756082834331N08157282WA009040097400409000
B1756112834341N08157311WA009040097100409000
B1756142834349N08157340WA009020096900609000
B1756172834358N08157369WA008980096700709000
B1756202834366N08157402WA008910096300309000
B1756232834374N08157434WA008890096000509000
F1756260307091116232627
B1756262834383N08157466WA008860095600608000
B1756292834392N08157499WA008810095300408000
F175632030708091116232627
B1756322834401N08157532WA008750094800309000
B1756352834409N08157565WA008690094100309000
B1756382834420N08157596WA008610093400409000
B1756412834433N08157629WA008540092700409000
B1756442834448N08157658WA008490092000409000
B1756472834465N08157686WA008400091300409000
F1756500307080911162326
B1756502834481N08157712WA008350090600408000
F175653030708091116232627
B1756532834501N08157738WA008280090000709000
B1756562834524N08157758WA008220089400609000
B1756592834545N08157779WA008150088800509000
B1757022834563N08157798WA008120088400609000
B1757052834582N08157820WA008000087700609000
B1757082834603N08157846WA007890086800709000
B1757112834623N08157871WA007870086100609000
B1757142834641N08157893WA007830085500709000
B1757172834659N08157915WA007790085000609000
B1757202834675N08157937WA007760084500409000
B1757232834693N08157960WA007680083900509000
B1757262834709N08157985WA007630083300409000
B1757292834717N08158019WA007510082500609000
B1757322834725N08158052WA007430081700509000
B1757352834736N08158086WA007290080500609000
B1757382834751N08158124WA007170079100609000
B1757412834765N08158160WA007130078400809000
B1757442834777N08158195WA007100077900809000
B1757472834789N08158228WA007050077300709000
B1757502834799N08158263WA006970076600409000
B1757532834806N08158295WA006940076100709000
B1757562834814N08158328WA006850075500509000
B1757592834825N08158362WA006770074800509000
B1758022834836N08158392WA006770074300709000
B1758052834846N08158418WA006700073700809000
B1758082834855N08158448WA006660073200509000
B1758112834870N08158474WA006640072700509000
B1758142834886N08158503WA006610072300409000
B1758172834902N08158533WA006600072200409000
B1758202834917N08158562WA006630072200609000
B1758232834932N08158592WA006670072600509000
B1758262834949N08158615WA006690073000909000
B1758292834966N08158640WA006630072900509000
B1758322834978N08158671WA006590072900509000
B1758352834990N08158698WA006600072800709000
B1758382835008N08158721WA006630073000709000
B1758412835022N08158746WA006680073100509000
B1758442835027N08158773WA006760073500609000
B1758472835011N08158787WA006830074200709000
B1758502834998N08158773WA006830074700909000
B1758532835011N08158755WA006930074901409000
B1758562835036N08158761WA006980075701009000
B1758592835046N08158784WA007040076401009000
B1759022835026N08158796WA007090077201309000
B1759052835020N08158779WA007110077901109000
B1759082835046N08158767WA007160078601109000
B1759112835064N08158791WA007250079000809000
B1759142835056N08158813WA007300079700709000
B1759172835040N08158812WA007290080201009000
B1759202835046N08158787WA007330080301009000
B1759232835069N08158778WA007420080700809000
B1759262835091N08158791WA007490081100809000
B1759292835087N08158812WA007470081600909000
B1759322835068N08158809WA007470081901209000
B1759352835059N08158783WA007530082201109000
B1759382835053N08158761WA007610082900909000
B1759412835062N08158740WA007660083601109000
B1759442835086N08158740WA007720084201009000
B1759472835100N08158767WA007770084700909000
F1759500307080911232627
B1759502835083N08158788WA007850085301208000
F175953030708091116232627
B1759532835071N08158779WA007930086300909000
B1759562835077N08158758WA007990087101109000
B1759592835101N08158755WA008030087800909000
B1800022835118N08158779WA008120088700909000
B1800052835108N08158805WA008160089300909000
B1800082835091N08158798WA008200089800909000
B1800112835098N08158778WA008280090401309000
B1800142835123N08158773WA008330091101009000
B1800172835141N08158795WA008450091801209000
B1800202835136N08158816WA008490092400709000
B1800232835118N08158816WA008500092701209000
B1800262835118N08158797WA008570093000709000
B1800292835137N08158791WA008640093300909000
B1800322835155N08158809WA008680093801009000
B1800352835149N08158832WA008710094200909000
B1800382835132N08158830WA008740094701109000
B1800412835131N08158809WA008790095300809000
B1800442835148N08158800WA008840095701309000
B1800472835167N08158819WA008880096200709000
B1800502835166N08158844WA008930096600609000
B1800532835149N08158853WA008950096900709000
B1800562835138N08158836WA008970097200809000
B1800592835143N08158813WA009030097700709000
B1801022835162N08158797WA009080098200909000
B1801052835186N08158798WA009170099101309000
B1801082835195N08158823WA009210099800909000
B1801112835181N08158842WA009260100300709000
B1801142835163N08158838WA009290100700809000
B1801172835156N08158820WA009360101100509000
B1801202835168N08158804WA009440101701009000
B1801232835190N08158806WA009490102400609000
B1801262835201N08158830WA009530103000809000
B1801292835187N08158852WA009560103400809000
B1801322835167N08158848WA009610104001309000
B1801352835164N08158826WA009680104800809000
B1801382835178N08158811WA009750105401109000
B1801412835200N08158815WA009800106101409000
B1801442835214N08158840WA009890106800909000
B1801472835204N08158864WA009940107300609000
B1801502835183N08158866WA009980107901309000
B1801532835180N08158843WA010030108400809000
B1801562835196N08158829WA010120109001009000
B1801592835219N08158837WA010180109600709000
B1802022835234N08158861WA010220110100709000
B1802052835226N08158886WA010260110600609000
B1802082835207N08158893WA010310111300809000
F1802110307080911162327
B1802112835199N08158876WA010360111800808000
F180214030708091116232627
B1802142835212N08158858WA010420112401109000
B1802172835235N08158862WA010490113101109000
B1802202835246N08158886WA010520113400809000
B1802232835238N08158912WA010570114000609000
B1802262835221N08158924WA010630114600509000
B1802292835203N08158920WA010660115000709000
B1802322835192N08158905WA010710115400809000
B1802352835198N08158884WA010740115700709000
B1802382835219N08158874WA010740115900709000
B1802412835244N08158883WA010790116300909000
B1802442835260N08158904WA010850116900609000
B1802472835262N08158930WA010890117300409000
B1802502835244N08158946WA010900117400609000
B1802532835221N08158937WA010970117400909000
B1802562835200N08158917WA010900117201109000
B1802592835179N08158894WA010890117200609000
B1803022835162N08158868WA010880117200509000
B1803052835147N08158840WA010830117000609000
B1803082835131N08158808WA010750116600609000
B1803112835109N08158781WA010770116400809000
B1803142835087N08158758WA010830116400609000
B1803172835066N08158737WA010930117000709000
B1803202835055N08158710WA010950117500709000
B1803232835056N08158684WA011040118300909000
B1803262835069N08158665WA011080119000709000
B1803292835090N08158663WA011130119600909000
B1803322835108N08158681WA011180120100709000
B1803352835113N08158706WA011220120700509000
B1803382835107N08158729WA011320121500509000
B1803412835090N08158740WA011390122200409000
B1803442835071N08158731WA011420122900909000
B1803472835078N08158703WA011490123501209000
B1803502835099N08158694WA011530123801209000
B1803532835122N08158702WA011580124200809000
B1803562835136N08158722WA011620124700609000
B1803592835131N08158745WA011680125300409000
B1804022835116N08158759WA011720125900409000
B1804052835093N08158754WA011750126300909000
B1804082835085N08158732WA011840127100809000
B1804112835093N08158711WA011870127501109000
B1804142835112N08158697WA011900127900509000
F1804170308091116232627
B1804172835133N08158702WA011930128201308000
F180420030708091116232627
B1804202835150N08158719WA011960128500609000
B1804232835158N08158743WA012010129000809000
B1804262835157N08158767WA012050129500409000
B1804292835148N08158788WA012110130000309000
B1804322835128N08158799WA012110130100309000
B1804352835106N08158796WA012090130100709000
B1804382835096N08158770WA012140130200709000
B1804412835101N08158746WA012220130700709000
B1804442835112N08158724WA012220130900509000
B1804472835132N08158710WA012240131100609000
B1804502835155N08158711WA012240131300509000
B1804532835173N08158726WA012260131600609000
B1804562835179N08158751WA012300131900409000
B1804592835180N08158778WA012340132200409000
B1805022835187N08158802WA012390132600609000
B1805052835200N08158825WA012390132700809000
B1805082835212N08158850WA012400132900709000
B1805112835219N08158875WA012350132900409000
B1805142835220N08158907WA012280132600509000
B1805172835211N08158936WA012270132400409000
B1805202835199N08158966WA012240132200409000
B1805232835194N08158994WA012260131900509000
B1805262835195N08159025WA012230131600509000
B1805292835196N08159058WA012200131200509000
B1805322835198N08159092WA012170130900509000
B1805352835200N08159126WA012160130500309000
B1805382835201N08159159WA012150130300309000
B1805412835204N08159191WA012130130100309000
B1805442835212N08159222WA012030129700509000
B1805472835230N08159260WA011920128700809000
B1805502835249N08159293WA011910128200809000
B1805532835268N08159321WA011870127600609000
B1805562835285N08159349WA011880127400509000
B1805592835296N08159379WA011850127000409000
B1806022835299N08159417WA011760126600509000
B1806052835296N08159454WA011740126200409000
B1806082835287N08159490WA011680125600409000
B1806112835275N08159525WA011640125100409000
B1806142835267N08159564WA011550124400609000
B1806172835273N08159599WA011530123901109000
B1806202835288N08159632WA011480123500909000
B1806232835305N08159665WA011420122900509000
B1806262835319N08159697WA011410122600509000
B1806292835329N08159729WA011400122300409000
B1806322835335N08159762WA011390122000409000
B1806352835337N08159793WA011370121700509000
B1806382835336N08159828WA011320121500509000
B1806412835336N08159860WA011330121500409000
B1806442835342N08159893WA011310121400509000
B1806472835356N08159922WA011300121400709000
B1806502835373N08159948WA011280121100809000
B1806532835389N08159977WA011220120900409000
B1806562835407N08200004WA011200120600609000
B1806592835425N08200030WA011160120200409000
B1807022835443N08200059WA011070119600409000
B1807052835461N08200089WA010990118800509000
B1807082835478N08200118WA010910117900409000
B1807112835496N08200149WA010830117000309000
B1807142835516N08200179WA010800116300409000
B1807172835534N08200211WA010740115600409000
B1807202835550N08200241WA010690115000509000
B1807232835567N08200272WA010620114400509000
B1807262835582N08200304WA010540113700209000
B1807292835595N08200340WA010450112900509000
B1807322835610N08200374WA010430112300409000
B1807352835627N08200405WA010360111600809000
B1807382835646N08200435WA010280110700509000
B1807412835663N08200465WA010270110100509000
B1807442835681N08200494WA010200109500509000
B1807472835699N08200526WA010140108900409000
B1807502835716N08200556WA010110108600409000
B1807532835734N08200585WA010080108200409000
B1807562835756N08200611WA010020107800609000
B1807592835779N08200637WA009960107300509000
B1808022835803N08200661WA009910106800509000
B1808052835827N08200686WA009860106300509000
B1808082835845N08200716WA009790105800309000
B1808112835849N08200754WA009720105400509000
B1808142835846N08200790WA009670104900609000
B1808172835846N08200827WA009600104300409000
B1808202835846N08200864WA009540103800409000
B1808232835839N08200898WA009470103100409000
B1808262835825N08200929WA009440102600409000
B1808292835816N08200960WA009400101900409000
B1808322835813N08200995WA009370101300309000
B1808352835810N08201030WA009330101000409000
B1808382835804N08201064WA009340100800509000
B1808412835800N08201095WA009400101200509000
B1808442835789N08201128WA009430101500509000
B1808472835774N08201154WA009520102100509000
B1808502835755N08201165WA009570102500709000
B1808532835734N08201176WA009600103301009000
B1808562835726N08201201WA009630103700709000
B1808592835740N08201227WA009610103901309000
B1809022835767N08201226WA009630104101509000
B1809052835787N08201214WA009630104100909000
B1809082835807N08201200WA009620104100909000
B1809112835823N08201181WA009630104200609000
B1809142835836N08201158WA009600104200909000
B1809172835839N08201128WA009630104300909000
B1809202835842N08201104WA009710104700509000
B1809232835861N08201097WA009730105201209000
B1809262835879N08201119WA009740105300709000
B1809292835870N08201142WA009800105800709000
B1809322835851N08201145WA009840106200609000
B1809352835841N08201129WA009890106600509000
B1809382835849N08201111WA009930107000809000
B1809412835868N08201107WA009930107201309000
B1809442835885N08201130WA009970107300609000
B1809472835881N08201154WA009990107500409000
B1809502835863N08201162WA010000107600809000
B1809532835843N08201157WA010040108000509000
B1809562835824N08201151WA010080108500509000
B1809592835811N08201136WA010130109200609000
B1810022835811N08201116WA010150109500609000
B1810052835828N08201106WA010120109501209000
B1810082835851N08201119WA010100109301209000
B1810112835866N08201143WA010100109300809000
B1810142835878N08201169WA010140109400609000
B1810172835890N08201194WA010150109500309000
B1810202835901N08201223WA010160109600609000
B1810232835910N08201252WA010190109900809000
B1810262835914N08201283WA010210110100409000
B1810292835910N08201313WA010220110200309000
B1810322835901N08201343WA010210110100409000
B1810352835894N08201374WA010190110000509000
B1810382835903N08201403WA010130109700609000
B1810412835922N08201426WA010090109300709000
B1810442835944N08201446WA010030108900609000
B1810472835967N08201473WA009930108100709000
B1810502835987N08201496WA009950107501009000
B1810532836005N08201517WA009940107100809000
B1810562836025N08201540WA009860106600709000
B1810592836046N08201564WA009790106000809000
B1811022836068N08201582WA009790105800809000
B1811052836089N08201597WA009790105700709000
B1811082836113N08201613WA009760105600709000
B1811112836138N08201627WA009750105500509000
B1811142836162N08201640WA009710105200609000
B1811172836184N08201651WA009670104900709000
B1811202836206N08201659WA009600104400809000
B1811232836232N08201672WA009490103600909000
B1811262836259N08201694WA009410102600609000
B1811292836282N08201718WA009360102000909000
B1811322836308N08201740WA009290101100709000
B1811352836331N08201764WA009240100400409000
B1811382836353N08201790WA009150099400709000
B1811412836373N08201816WA009130098800609000
B1811442836395N08201842WA009040097900409000
B1811472836420N08201869WA008970097100609000
B1811502836444N08201898WA008890096300409000
B1811532836467N08201925WA008850095700609000
B1811562836494N08201949WA008780095000509000
B1811592836520N08201969WA008710094300409000
B1812022836547N08201993WA008610093500509000
B1812052836573N08202017WA008520092700409000
B1812082836598N08202043WA008450091800509000
B1812112836626N08202067WA008330090800609000
B1812142836657N08202092WA008250090000609000
B1812172836688N08202115WA008260089500809000
B1812202836722N08202130WA008230089300709000
B1812232836756N08202140WA008240089300709000
B1812262836788N08202152WA008350089800909000
B1812292836809N08202165WA008460090801109000
B1812322836832N08202182WA008520091700709000
B1812352836850N08202203WA008510092100609000
B1812382836852N08202234WA008530092500509000
B1812412836843N08202261WA008590093100409000
B1812442836826N08202276WA008680093700609000
B1812472836807N08202272WA008750094601109000
B1812502836802N08202255WA008830095700509000
B1812532836817N08202238WA008820096100809000
B1812562836845N08202256WA008860096400909000
F1812590307080916232627
B1812592836840N08202291WA008930097100708000
F181302030708091116232627
B1813022836821N08202302WA009030097800709000
B1813052836811N08202286WA009080098300709000
B1813082836824N08202271WA009130098600909000
B1813112836848N08202287WA009160098900709000
B1813142836848N08202315WA009230099600709000
B1813172836834N08202330WA009300100300509000
B1813202836818N08202323WA009340101000609000
B1813232836821N08202306WA009360101400709000
B1813262836845N08202303WA009380101801209000
B1813292836857N08202331WA009470102400809000
B1813322836848N08202355WA009510102800609000
F1813350708091116232627
B1813352836830N08202362WA009540103201308000
B1813382836821N08202344WA009580103600908000
B1813412836834N08202327WA009570103801308000
B1813442836861N08202333WA009630104001308000
B1813472836875N08202360WA009670104401008000
B1813502836865N08202382WA009690104801308000
B1813532836847N08202379WA009700105001208000
B1813562836846N08202359WA009700105200708000
B1813592836863N08202343WA009690105101208000
B1814022836885N08202354WA009760105301008000
B1814052836892N08202383WA009750105600708000
B1814082836878N08202402WA009750105700808000
B1814112836864N08202394WA009760105701108000
B1814142836873N08202370WA009760105700908000
B1814172836895N08202355WA009740105501208000
B1814202836922N08202358WA009740105401008000
B1814232836945N08202370WA009710105300808000
B1814262836963N08202392WA009610104900708000
B1814292836977N08202416WA009560104300808000
B1814322836995N08202436WA009500103600608000
B1814352837015N08202462WA009400102800708000
B1814382837030N08202495WA009330101800608000
B1814412837040N08202527WA009310101100708000
B1814442837056N08202560WA009220100200608000
B1814472837069N08202595WA009150099400508000
B1814502837082N08202630WA009090098600408000
B1814532837097N08202669WA009000097800708000
B1814562837106N08202710WA008970097200808000
B1814592837117N08202751WA008870096400508000
B1815022837127N08202792WA008860095800708000
B1815052837136N08202826WA008930095700608000
B1815082837148N08202861WA008890095700708000
B1815112837158N08202902WA008890095700808000
B1815142837167N08202937WA009000096200808000
B1815172837176N08202964WA009100097100808000
B1815202837195N08202985WA009130097901108000
B1815232837215N08202975WA009160098601208000
B1815262837213N08202946WA009190099201108000
B1815292837194N08202929WA009230099501208000
B1815322837171N08202939WA009280100001608000
B1815352837165N08202965WA009340100501308000
B1815382837173N08202992WA009370100901508000
B1815412837195N08203002WA009430101401408000
B1815442837214N08202992WA009470102101608000
B1815472837213N08202969WA009510102501308000
B1815502837193N08202961WA009530102901508000
B1815532837174N08202977WA009600103201208000
B1815562837180N08203005WA009650103701408000
B1815592837203N08203013WA009670104101508000
B1816022837212N08202991WA009670104501608000
B1816052837195N08202976WA009720104801808000
B1816082837175N08202983WA009770105201408000
B1816112837172N08203009WA009820105501408000
B1816142837189N08203027WA009870105901508000
B1816172837208N08203017WA009880106201508000
B1816202837210N08202994WA009940106501308000
B1816232837191N08202987WA009970106801208000
B1816262837172N08203003WA010050107301708000
B1816292837182N08203029WA010100108101508000
B1816322837204N08203036WA010140108501908000
B1816352837220N08203014WA010190109201908000
B1816382837208N08202995WA010220109801708000
B1816412837185N08203001WA010320110501608000
B1816442837180N08203025WA010350111001508000
B1816472837191N08203046WA010420111801308000
B1816502837212N08203053WA010460112501108000
B1816532837225N08203034WA010490113001608000
B1816562837215N08203012WA010550113401408000
B1816592837193N08203004WA010590113801108000
B1817022837170N08203013WA010690114200908000
B1817052837162N08203035WA010760114901408000
B1817082837174N08203058WA010800115301408000
B1817112837195N08203056WA010880115901708000
B1817142837201N08203031WA010960116801408000
B1817172837186N08203010WA011040117601308000
B1817202837164N08203022WA011100118601008000
B1817232837169N08203048WA011160119701708000
B1817262837191N08203053WA011240120701708000
B1817292837203N08203034WA011320121401708000
B1817322837196N08203009WA011400122201008000
B1817352837176N08202999WA011480123201408000
B1817382837156N08203009WA011550123701008000
B1817412837154N08203031WA011590124301308000
B1817442837172N08203042WA011630124901208000
B1817472837193N08203030WA011710125601608000
B1817502837197N08203006WA011790126300908000
B1817532837183N08202987WA011870127001408000
B1817562837160N08202990WA011930127501508000
B1817592837158N08203016WA011940128001308000
B1818022837174N08203034WA012020128701208000
B1818052837195N08203028WA012050129001608000
B1818082837200N08202999WA012130129701008000
B1818112837194N08202973WA012230130500908000
B1818142837174N08202964WA012260131301108000
B1818172837159N08202990WA012270131701708000
B1818202837162N08203014WA012370132501308000
B1818232837176N08203031WA012440133301008000
B1818262837197N08203033WA012480133801108000
B1818292837211N08203016WA012550134401508000
B1818322837207N08202989WA012670135000908000
B1818352837190N08202972WA012710135501608000
B1818382837170N08202989WA012730136101208000
B1818412837169N08203016WA012800136501308000
B1818442837186N08203031WA012880137301308000
B1818472837204N08203020WA012900138001908000
B1818502837212N08202994WA012990138701208000
B1818532837203N08202969WA013020139301308000
B1818562837185N08202954WA013100139701208000
B1818592837162N08202952WA013100140001508000
B1819022837158N08202973WA012990140001908000
B1819052837184N08202985WA013080140101508000
B1819082837200N08202973WA013130140301508000
B1819112837195N08202951WA013130140201408000
B1819142837169N08202948WA013140140501208000
B1819172837146N08202962WA013170140601308000
B1819202837136N08202985WA013190140801408000
B1819232837143N08203008WA013170140901208000
B1819262837159N08203022WA013210141001108000
B1819292837178N08203025WA013230141101108000
B1819322837197N08203020WA013280141501408000
B1819352837202N08202995WA013260141800908000
B1819382837186N08202974WA013290141901508000
B1819412837161N08202967WA013340142101108000
B1819442837135N08202976WA013330142101208000
B1819472837116N08202994WA013340142100908000
B1819502837110N08203019WA013290142001008000
B1819532837108N08203047WA013250141800708000
B1819562837107N08203083WA013190141401008000
B1819592837108N08203118WA013190141200708000
B1820022837113N08203151WA013180141100608000
B1820052837118N08203183WA013190140900808000
B1820082837125N08203214WA013180140700508000
B1820112837132N08203247WA013130140500608000
B1820142837139N08203279WA013090140200608000
B1820172837148N08203310WA013050139800608000
B1820202837155N08203342WA013000139500508000
B1820232837163N08203373WA012940139000908000
B1820262837172N08203409WA012840138200808000
B1820292837180N08203443WA012820137600508000
B1820322837187N08203478WA012790137000508000
B1820352837196N08203516WA012710136300408000
B1820382837205N08203554WA012690135900708000
B1820412837214N08203588WA012690135600408000
B1820442837224N08203623WA012670135400508000
B1820472837234N08203657WA012680135200508000
B1820502837244N08203691WA012630135100908000
B1820532837254N08203724WA012580134800608000
B1820562837264N08203760WA012480134100908000
B1820592837273N08203799WA012430133500508000
B1821022837284N08203837WA012400133000608000
B1821052837292N08203871WA012410132700908000
B1821082837301N08203903WA012380132400608000
B1821112837309N08203937WA012340132000608000
B1821142837317N08203970WA012280131500608000
B1821172837326N08204002WA012230131000508000
B1821202837335N08204034WA012150130300508000
B1821232837343N08204070WA012050129600708000
B1821262837349N08204103WA012020128900508000
B1821292837356N08204135WA012000128300908000
B1821322837367N08204168WA011950127900708000
B1821352837376N08204203WA011980127700808000
B1821382837386N08204235WA012020127800708000
B1821412837396N08204266WA012070128300508000
B1821442837401N08204298WA012110128800508000
B1821472837401N08204332WA012120129300508000
B1821502837396N08204365WA012180129600508000
B1821532837397N08204397WA012190130000608000
B1821562837404N08204432WA012130130000708000
B1821592837410N08204471WA012030129700708000
B1822022837415N08204511WA011970129200808000
B1822052837419N08204547WA011960128700808000
B1822082837418N08204583WA011870127900708000
B1822112837417N08204624WA011830127400908000
B1822142837419N08204657WA011870127200908000
B1822172837424N08204690WA011850127100608000
B1822202837428N08204726WA011840127000808000
B1822232837436N08204759WA011890127200708000
B1822262837444N08204789WA011960127800808000
B1822292837444N08204817WA012000128000908000
B1822322837442N08204845WA011980128200708000
B1822352837443N08204875WA011990128200808000
B1822382837449N08204903WA011920128000708000
B1822412837454N08204934WA011860127700708000
B1822442837461N08204964WA011860127500408000
B1822472837467N08205000WA011820127200408000
B1822502837467N08205036WA011870127000408000
B1822532837470N08205066WA011950127100508000
B1822562837473N08205098WA011950127300408000
B1822592837477N08205133WA011950127500608000
B1823022837490N08205164WA012000127900708000
B1823052837514N08205182WA012030128200908000
B1823082837541N08205186WA012100128701408000
B1823112837552N08205168WA012100129001508000
B1823142837546N08205146WA012030128901108000
B1823172837520N08205151WA012020129001408000
B1823202837499N08205170WA012030129001008000
B1823232837482N08205193WA012030129000908000
B1823262837464N08205218WA012050128900808000
B1823292837446N08205242WA012070129100508000
B1823322837430N08205266WA012080129100608000
B1823352837422N08205296WA012030128901008000
B1823382837423N08205329WA012010128800708000
B1823412837426N08205360WA011990128700508000
B1823442837429N08205390WA011970128501008000
B1823472837432N08205423WA011890128100508000
B1823502837435N08205457WA011820127300308000
B1823532837440N08205490WA011750126600608000
B1823562837449N08205523WA011660125700708000
B1823592837466N08205555WA011520124500908000
B1824022837487N08205585WA011400123000908000
B1824052837512N08205618WA011240121200808000
B1824082837535N08205651WA011200120000708000
B1824112837558N08205684WA011170119200708000
B1824142837578N08205712WA011130118601008000
B1824172837598N08205737WA011090118300708000
B1824202837617N08205766WA011030117800608000
B1824232837632N08205798WA010940117200508000
B1824262837644N08205836WA010880116500408000
B1824292837652N08205874WA010820116000408000
B1824322837659N08205910WA010790115500408000
B1824352837666N08205944WA010730115000408000
B1824382837672N08205981WA010650114400408000
B1824412837677N08206018WA010580113700708000
B1824442837681N08206055WA010500113100508000
B1824472837683N08206092WA010440112300508000
B1824502837686N08206128WA010350111600508000
B1824532837689N08206167WA010270110800508000
B1824562837693N08206205WA010200110100508000
B1824592837697N08206242WA010150109300508000
B1825022837705N08206278WA010090108600608000
B1825052837708N08206314WA010020107800708000
F182508070809111623262730
B1825082837705N08206353WA009950107100709000
B1825112837705N08206390WA009910106500709000
B1825142837716N08206424WA009850105900709000
B1825172837731N08206457WA009770105300409000
B1825202837745N08206489WA009730104800409000
B1825232837757N08206522WA009700104400409000
B1825262837766N08206553WA009690104100309000
B1825292837777N08206585WA009640103800409000
B1825322837785N08206617WA009630103600509000
B1825352837793N08206647WA009610103400609000
B1825382837802N08206679WA009520103000509000
B1825412837808N08206711WA009470102600909000
B1825442837813N08206740WA009410102100709000
B1825472837824N08206770WA009340101400909000
B1825502837841N08206791WA009290100900509000
B1825532837859N08206814WA009200100100509000
B1825562837871N08206846WA009100099100709000
B1825592837867N08206880WA009110098400909000
B1826022837865N08206910WA009100098100909000
B1826052837864N08206940WA009100098000909000
B1826082837858N08206969WA009150098300709000
B1826112837853N08207000WA009220098900609000
B1826142837860N08207032WA009190099001309000
B1826172837889N08207050WA009250099401309000
B1826202837915N08207044WA009260099701009000
B1826232837922N08207020WA009310100301109000
B1826262837917N08207003WA009340100600809000
B1826292837904N08206992WA009370100900909000
B1826322837886N08206998WA009390101301009000
B1826352837874N08207018WA009410101600809000
B1826382837866N08207042WA009420102000709000
B1826412837850N08207061WA009440102100509000
B1826442837832N08207070WA009410102200509000
B1826472837809N08207057WA009400102000709000
B1826502837790N08207038WA009500102200709000
B1826532837777N08207025WA009610102700509000
B1826562837776N08207004WA009610103300609000
B1826592837798N08206993WA009680103800809000
B1827022837823N08207013WA009740104500709000
B1827052837828N08207042WA009860105301209000
B1827082837814N08207060WA009950106201409000
B1827112837801N08207049WA010040107600809000
B1827142837810N08207029WA010040108200909000
B1827172837841N08207031WA010070108600909000
B1827202837858N08207058WA010190109201009000
B1827232837851N08207083WA010270110201009000
B1827262837835N08207088WA010280110900909000
B1827292837824N08207065WA010310111300709000
B1827322837833N08207043WA010370111800709000
B1827352837853N08207027WA010360111801309000
B1827382837882N08207024WA010380112000909000
B1827412837909N08207030WA010450112500609000
B1827442837928N08207052WA010560113200809000
B1827472837917N08207068WA010570113800809000
B1827502837901N08207056WA010560113700809000
B1827532837911N08207028WA010710113801209000
B1827562837934N08207024WA010810114201009000
B1827592837955N08207041WA010870114901009000
B1828022837956N08207064WA010880115500909000
B1828052837937N08207067WA010900116200909000
B1828082837924N08207051WA010980117100909000
B1828112837917N08207034WA011070118200609000
B1828142837920N08207007WA011050118700809000
B1828172837939N08206990WA011200119601209000
B1828202837964N08206999WA011180120000709000
B1828232837976N08207026WA011210120301209000
B1828262837967N08207049WA011270120800809000
B1828292837951N08207060WA011330121200909000
B1828322837944N08207039WA011390121700809000
B1828352837964N08207025WA011470122101009000
B1828382837984N08207044WA011540122901309000
B1828412837975N08207059WA011590123701409000
B1828442837967N08207040WA011650124500809000
B1828472837980N08207021WA011710125200909000
B1828502838002N08207037WA011730125801209000
B1828532837993N08207059WA011780126601009000
B1828562837979N08207050WA011850127000809000
B1828592837995N08207031WA011870127301009000
B1829022838019N08207045WA011930127800809000
B1829052838019N08207071WA011940128200809000
B1829082838001N08207075WA012010128700909000
B1829112837991N08207056WA012070129000709000
B1829142838003N08207034WA012120129400909000
B1829172838027N08207036WA012150129900809000
B1829202838041N08207064WA012190130400809000
B1829232838031N08207086WA012210130600809000
B1829262838013N08207083WA012260130800909000
B1829292838012N08207056WA012310131100809000
B1829322838034N08207047WA012350131700809000
B1829352838054N08207070WA012380132101309000
B1829382838049N08207097WA012430132701209000
B1829412838032N08207095WA012480133301009000
B1829442838034N08207070WA012490133500609000
B1829472838055N08207058WA012550133900909000
B1829502838076N08207080WA012550134101009000
B1829532838074N08207111WA012590134501209000
B1829562838068N08207139WA012640135100909000
B1829592838064N08207166WA012670135400709000
B1830022838061N08207196WA012650135600609000
B1830052838061N08207228WA012640135500709000
B1830082838059N08207258WA012630135400709000
B1830112838058N08207290WA012580135200909000
B1830142838066N08207324WA012590135100709000
B1830172838073N08207358WA012600135100909000
B1830202838078N08207391WA012620135200709000
B1830232838083N08207426WA012560134900809000
B1830262838082N08207466WA012510134600609000
B1830292838084N08207504WA012520134400809000
B1830322838087N08207541WA012480134101009000
B1830352838090N08207582WA012390133500609000
B1830382838092N08207626WA012290132600909000
B1830412838098N08207669WA012230131700609000
B1830442838106N08207711WA012170130900509000
B1830472838113N08207752WA012100130100509000
B1830502838117N08207792WA012050129500509000
B1830532838117N08207833WA011990128900709000
B1830562838120N08207875WA011950128400609000
F1830590708091116232730
B1830592838125N08207914WA011890127800908000
F183102070809111623262730
B1831022838131N08207951WA011850127200509000
B1831052838140N08207990WA011780126500409000
B1831082838150N08208028WA011740125900409000
B1831112838161N08208065WA011720125500409000
B1831142838177N08208096WA011700125100709000
B1831172838192N08208125WA011650124800309000
B1831202838201N08208158WA011600124400409000
B1831232838208N08208190WA011580124100409000
B1831262838216N08208221WA011560123900409000
B1831292838224N08208253WA011500123500509000
B1831322838231N08208291WA011420123000609000
B1831352838236N08208326WA011450122700609000
B1831382838242N08208358WA011410122300409000
B1831412838248N08208393WA011330121800909000
B1831442838256N08208432WA011270121000509000
B1831472838268N08208472WA011190120500409000
B1831502838277N08208507WA011200120100509000
B1831532838289N08208540WA011170119700509000
B1831562838300N08208578WA011080119200509000
B1831592838313N08208618WA010990118500509000
B1832022838325N08208656WA010990118000609000
B1832052838336N08208693WA010940117500609000
B1832082838345N08208733WA010890116900909000
B1832112838351N08208771WA010870116600709000
B1832142838358N08208811WA010790116000509000
B1832172838369N08208851WA010720115400409000
B1832202838379N08208890WA010690115000509000
B1832232838382N08208930WA010640114600909000
B1832262838384N08208972WA010540114000609000
B1832292838389N08209012WA010490113300609000
B1832322838394N08209053WA010410112500809000
B1832352838398N08209094WA010360111900909000
B1832382838403N08209133WA010320111300409000
B1832412838410N08209172WA010280110800409000
B1832442838418N08209210WA010240110200409000
B1832472838428N08209246WA010200109700509000
B1832502838437N08209284WA010120109000609000
B1832532838442N08209321WA010150108800709000
B1832562838444N08209351WA010230109000909000
B1832592838448N08209382WA010210109100709000
B1833022838454N08209413WA010260109600509000
B1833052838462N08209441WA010310110100509000
B1833082838476N08209467WA010340110600409000
B1833112838493N08209491WA010380111000309000
B1833142838506N08209516WA010400111400409000
B1833172838518N08209543WA010360111600609000
B1833202838533N08209569WA010350111500409000
B1833232838546N08209596WA010320111400609000
B1833262838553N08209624WA010370111400609000
B1833292838565N08209651WA010340111400709000
B1833322838588N08209671WA010330111301009000
B1833352838619N08209666WA010380111401009000
B1833382838635N08209639WA010390111601309000
B1833412838639N08209611WA010450112000609000
B1833442838643N08209584WA010470112100609000
B1833472838637N08209553WA010420112100609000
B1833502838623N08209529WA010440112200709000
B1833532838605N08209507WA010420112200609000
B1833562838588N08209484WA010390112000609000
B1833592838568N08209461WA010370111700609000
B1834022838548N08209440WA010400111800509000
B1834052838533N08209418WA010420111900609000
B1834082838519N08209399WA010480112200409000
B1834112838514N08209378WA010500112600509000
B1834142838528N08209365WA010490112700909000
B1834172838549N08209376WA010440112600609000
B1834202838556N08209409WA010370112200709000
B1834232838541N08209435WA010430112200709000
B1834262838527N08209455WA010460112200809000
B1834292838527N08209481WA010450112301009000
B1834322838548N08209490WA010440112100909000
B1834352838570N08209480WA010430112101109000
B1834382838576N08209457WA010440112301409000
B1834412838563N08209438WA010430112300809000
B1834442838541N08209436WA010410112400909000
B1834472838524N08209456WA010420112501009000
B1834502838516N08209482WA010410112401009000
B1834532838519N08209509WA010400112400709000
B1834562838527N08209535WA010370111900909000
B1834592838542N08209558WA010300111200709000
B1835022838552N08209586WA010280110700509000
B1835052838556N08209612WA010310110700609000
B1835082838566N08209638WA010310110600709000
B1835112838584N08209660WA010330110700909000
B1835142838604N08209675WA010350110901009000
B1835172838624N08209689WA010390111300709000
B1835202838647N08209694WA010450111800809000
B1835232838669N08209685WA010450112200909000
B1835262838679N08209658WA010470112401109000
B1835292838678N08209633WA010530113000709000
B1835322838669N08209610WA010570113300609000
B1835352838648N08209603WA010600113901109000
B1835382838630N08209620WA010660114301109000
B1835412838629N08209644WA010720114901209000
B1835442838645N08209665WA010750115500909000
B1835472838667N08209672WA010810116000909000
B1835502838689N08209661WA010830116400909000
B1835532838697N08209639WA010890116901109000
B1835562838690N08209617WA010920117200809000
B1835592838671N08209608WA010960117601209000
B1836022838649N08209613WA010950117800809000
B1836052838633N08209634WA010990117900709000
B1836082838633N08209659WA011050118301109000
B1836112838647N08209678WA011070118701209000
B1836142838668N08209689WA011120119200609000
B1836172838690N08209689WA011160119500709000
B1836202838708N08209674WA011180119900609000
B1836232838714N08209652WA011200120100609000
B1836262838707N08209629WA011210120300609000
B1836292838691N08209615WA011230120501009000
B1836322838672N08209619WA011150120401209000
B1836352838659N08209649WA011120120201109000
B1836382838664N08209673WA011190120400809000
B1836412838683N08209687WA011220120501009000
B1836442838707N08209689WA011300120800909000
B1836472838727N08209675WA011310121200809000
B1836502838724N08209648WA011320121400809000
B1836532838706N08209634WA011340121400909000
B1836562838684N08209641WA011270121301109000
B1836592838669N08209664WA011280121101009000
B1837022838667N08209691WA011250121100909000
B1837052838685N08209709WA011300121101109000
B1837082838710N08209714WA011310121201709000
B1837112838722N08209688WA011340121301609000
B1837142838710N08209666WA011360121601009000
B1837172838684N08209666WA011350121701409000
B1837202838665N08209684WA011350121601109000
B1837232838655N08209710WA011350121600709000
B1837262838658N08209739WA011390121901009000
B1837292838671N08209759WA011470122300709000
B1837322838695N08209763WA011530122701009000
B1837352838709N08209742WA011540123101509000
B1837382838702N08209716WA011580123400909000
B1837412838681N08209703WA011580123701209000
B1837442838662N08209721WA011580123901709000
B1837472838664N08209753WA011570124001109000
B1837502838681N08209775WA011630124200909000
B1837532838701N08209787WA011690124600809000
B1837562838725N08209790WA011720124900909000
B1837592838742N08209770WA011760125401009000
B1838022838744N08209743WA011770125700909000
B1838052838730N08209721WA011780125900709000
B1838082838711N08209708WA011770126000709000
B1838112838688N08209715WA011750126101009000
B1838142838677N08209741WA011720126001409000
B1838172838676N08209772WA011720125801109000
B1838202838677N08209802WA011740125700609000
B1838232838674N08209834WA011760125700709000
B1838262838675N08209864WA011830125900909000
B1838292838685N08209891WA011780125900509000
B1838322838692N08209922WA011740125900509000
B1838352838694N08209956WA011680125600809000
B1838382838691N08209991WA011630125300509000
B1838412838681N08210024WA011630125100609000
B1838442838672N08210053WA011560124500409000
B1838472838665N08210082WA011480123800509000
B1838502838658N08210116WA011380123000509000
B1838532838653N08210149WA011360122400609000
B1838562838650N08210183WA011250121600509000
B1838592838647N08210220WA011200120900509000
B1839022838646N08210253WA011160120300409000
B1839052838648N08210289WA011090119600409000
B1839082838648N08210325WA011040118900409000
B1839112838645N08210362WA011000118500409000
B1839142838640N08210398WA011000118100609000
B1839172838636N08210429WA011010118000709000
B1839202838629N08210458WA011000118000509000
B1839232838620N08210486WA010940117900509000
B1839262838613N08210517WA010940117600709000
B1839292838609N08210549WA010930117500709000
B1839322838607N08210579WA010930117400409000
B1839352838607N08210613WA010860117100609000
B1839382838602N08210647WA010840116800409000
B1839412838596N08210683WA010840116700609000
B1839442838584N08210715WA010810116300609000
B1839472838565N08210744WA010770116000509000
B1839502838546N08210771WA010800116000509000
B1839532838531N08210800WA010780115900609000
B1839562838519N08210830WA010770115800409000
B1839592838511N08210859WA010760115700609000
B1840022838502N08210893WA010680115200709000
B1840052838488N08210928WA010560114500709000
B1840082838471N08210960WA010560114200409000
B1840112838456N08210988WA010560113800709000
B1840142838440N08211013WA010510113300509000
F1840170708091116232730
B1840172838424N08211040WA010500113100608000
B1840202838418N08211069WA010510112900508000
B1840232838413N08211102WA010480112600808000
B1840262838407N08211137WA010490112600708000
B1840292838404N08211164WA010540112800708000
B1840322838401N08211190WA010500112800808000
B1840352838391N08211214WA010530113100708000
B1840382838381N08211234WA010540113200708000
B1840412838369N08211258WA010510113200608000
B1840442838355N08211277WA010560113400708000
B1840472838336N08211293WA010540113300908000
B1840502838322N08211316WA010560113501008000
B1840532838315N08211339WA010550113501008000
B1840552838312N08211356WA010510113200908000
B1840562838312N08211366WA010460113100708000
E184057TPC
B1840572838313N08211377WA010430113000608000
B1840582838316N08211388WA010400113000708000
B1840592838320N08211399WA010400112901108000
B1841002838323N08211408WA010390112800708000
B1841012838328N08211418WA010380112600708000
B1841022838332N08211426WA010370112400808000
B1841032838339N08211435WA010340112200908000
B1841052838354N08211451WA010280111900908000
B1841082838380N08211461WA010300111601108000
B1841112838405N08211461WA010280111101008000
B1841142838432N08211465WA010190110300708000
B1841172838462N08211470WA010110109600708000
B1841202838487N08211473WA010090108900908000
B1841232838514N08211470WA010000108100908000
B1841262838539N08211459WA009970107400608000
B1841292838559N08211439WA009890106601108000
B1841322838572N08211413WA009820106000908000
B1841352838580N08211390WA009770105500708000
B1841382838591N08211366WA009710105000708000
B1841412838603N08211343WA009670104500508000
B1841442838613N08211319WA009620103900708000
B1841472838625N08211294WA009560103300608000
B1841502838635N08211271WA009500102700608000
B1841532838641N08211251WA009430102000608000
B1841562838651N08211229WA009320101000708000
B1841592838667N08211203WA009200099900708000
B1842022838685N08211180WA009150098900808000
B1842052838704N08211156WA009060098000808000
B1842082838727N08211143WA009020097101208000
B1842112838759N08211136WA008860096100708000
B1842142838786N08211124WA008880095400908000
B1842172838807N08211106WA008780094601008000
B1842202838824N08211085WA008700093800908000
B1842232838837N08211063WA008630093200708000
B1842262838849N08211041WA008540092400908000
B1842292838869N08211020WA008420091301008000
B1842322838895N08211003WA008320090500808000
B1842352838918N08210983WA008270090000708000
B1842382838931N08210959WA008240089600808000
B1842412838938N08210935WA008220089300708000
B1842442838943N08210909WA008120088600608000
B1842472838948N08210885WA008080088100708000
B1842502838952N08210861WA007950087301108000
B1842532838965N08210831WA007780086101208000
B1842562838973N08210800WA007670085000808000
B1842592838976N08210772WA007590084000808000
B1843022838983N08210739WA007470082700808000
B1843052838986N08210709WA007390081600608000
B1843082838987N08210679WA007310080600708000
B1843112838987N08210649WA007250079800708000
B1843142838982N08210620WA007170079000708000
B1843172838979N08210592WA007100078200708000
B1843202838976N08210562WA007020077300708000
B1843232838973N08210531WA006930076500708000
B1843262838969N08210500WA006860075600808000
B1843292838959N08210471WA006810074900708000
B1843322838949N08210442WA006700073800908000
B1843352838949N08210407WA006620072801008000
B1843382838949N08210377WA006580072101108000
B1843412838949N08210345WA006510071400808000
B1843442838954N08210311WA006480070900708000
B1843472838958N08210279WA006410070200808000
B1843502838966N08210248WA006420069800808000
B1843532838975N08210219WA006380069700908000
B1843562838977N08210191WA006400070000808000
B1843592838979N08210162WA006380069900608000
B1844022838982N08210130WA006370069800608000
B1844052838979N08210102WA006350069800808000
B1844082838968N08210078WA006350069700708000
B1844112838957N08210052WA006340069800708000
B1844142838951N08210023WA006340069700708000
B1844172838949N08209994WA006360069800608000
B1844202838945N08209967WA006350069800808000
B1844232838940N08209940WA006370070000608000
B1844262838938N08209916WA006400070300708000
B1844292838942N08209893WA006360070400508000
B1844322838959N08209875WA006300070201108000
B1844352838985N08209877WA006270070000708000
B1844382839005N08209897WA006240069700808000
B1844412839016N08209926WA006220069300808000
B1844442839025N08209954WA006240069100908000
B1844472839032N08209982WA006280069200708000
B1844502839029N08210007WA006310069401108000
B1844532839011N08210015WA006270069200908000
F184456010708091116232730
B1844562839000N08210000WA006260069200809000
B1844592839005N08209979WA006250069301009000
B1845022839014N08209960WA006220069100709000
B1845052839021N08209939WA006180068900709000
B1845082839025N08209914WA006150068500709000
B1845112839034N08209887WA006170068300509000
B1845142839043N08209864WA006250068500609000
B1845172839057N08209849WA006250068600609000
B1845202839077N08209860WA006280068900809000
B1845232839078N08209890WA006280069100709000
B1845262839057N08209893WA006300069401209000
B1845292839051N08209873WA006350069801209000
B1845322839062N08209855WA006360070000709000
B1845352839083N08209861WA006370070200809000
B1845382839090N08209887WA006420070500809000
B1845412839079N08209907WA006420070700609000
B1845442839060N08209905WA006440070801109000
B1845472839056N08209882WA006480071401209000
B1845502839072N08209865WA006530071801209000
B1845532839094N08209866WA006560072000709000
B1845562839108N08209891WA006560072300809000
B1845592839095N08209915WA006580072500709000
B1846022839076N08209913WA006630073000909000
B1846052839069N08209894WA006670073400809000
B1846082839078N08209870WA006720073700809000
B1846112839090N08209850WA006790074000709000
B1846142839106N08209835WA006820074600609000
B1846172839125N08209826WA006850075000609000
B1846202839148N08209834WA006840075200609000
B1846232839167N08209850WA006940075500609000
B1846262839168N08209874WA006990076200709000
B1846292839149N08209885WA007060076900709000
B1846322839139N08209872WA007090077701209000
B1846352839149N08209846WA007100077901009000
B1846382839167N08209831WA007150078500909000
B1846412839189N08209827WA007220079100809000
B1846442839207N08209843WA007250079601009000
B1846472839191N08209858WA007280079900909000
B1846502839177N08209841WA007390080701009000
B1846532839188N08209820WA007430081200809000
B1846562839204N08209833WA007450081500909000
B1846592839196N08209857WA007480081700709000
B1847022839175N08209857WA007570082501109000
B1847052839169N08209833WA007640083200909000
B1847082839184N08209818WA007680083500909000
B1847112839202N08209836WA007670083700909000
B1847142839195N08209856WA007730084201109000
B1847172839178N08209840WA007800084501309000
B1847202839190N08209818WA007830084901109000
B1847232839212N08209822WA007800085101209000
B1847262839210N08209851WA007840085300809000
B1847292839188N08209861WA007900085600809000
B1847322839166N08209853WA007970086400809000
B1847352839160N08209836WA007980086901409000
B1847382839176N08209816WA007960087301309000
B1847412839196N08209813WA007950087400709000
B1847442839215N08209830WA007920087101009000
B1847472839233N08209852WA007950087200709000
B1847502839251N08209874WA007970087200509000
B1847532839257N08209903WA008020087500509000
B1847562839253N08209929WA008120088200809000
B1847592839243N08209946WA008170088500509000
B1848022839226N08209936WA008170088700909000
B1848052839222N08209909WA008240089300709000
B1848082839234N08209889WA008320090100909000
B1848112839252N08209897WA008420091100709000
B1848142839256N08209923WA008470092300709000
B1848172839239N08209936WA008530092901109000
B1848202839224N08209921WA008580093601009000
B1848232839229N08209895WA008630093900809000
B1848262839251N08209891WA008700094400909000
B1848292839262N08209915WA008710094700909000
B1848322839242N08209931WA008790095200809000
B1848352839224N08209917WA008870096001309000
B1848382839235N08209896WA008930096900709000
B1848412839253N08209910WA008980097300809000
B1848442839240N08209933WA009030097700709000
B1848472839228N08209915WA009120098201109000
B1848502839242N08209900WA009180098600909000
B1848532839256N08209924WA009230099100809000
B1848562839241N08209933WA009270099401609000
B1848592839240N08209908WA009350100200709000
B1849022839256N08209901WA009400100900809000
B1849052839271N08209918WA009400101100909000
B1849082839270N08209946WA009460101900609000
B1849112839255N08209961WA009500102400709000
B1849142839233N08209955WA009550102801209000
B1849172839225N08209931WA009620103900909000
B1849202839232N08209908WA009710104800909000
B1849232839249N08209903WA009720105400809000
B1849262839268N08209917WA009670105600909000
B1849292839278N08209945WA009700105700809000
B1849322839279N08209971WA009800106100909000
B1849352839274N08209994WA009850106500509000
B1849382839258N08210009WA009910106900409000
B1849412839236N08210008WA009970107501009000
B1849442839224N08209989WA010050108300709000
B1849472839226N08209964WA010070108700609000
B1849502839239N08209946WA010120109200909000
B1849532839260N08209943WA010140109701009000
B1849562839277N08209956WA010200110100609000
B1849592839285N08209977WA010270110700509000
B1850022839276N08209997WA010300111100609000
B1850052839254N08209999WA010370111601109000
B1850082839240N08209977WA010420112300909000
B1850112839240N08209952WA010470112901109000
B1850142839252N08209932WA010460113000809000
B1850172839273N08209928WA010480113100909000
B1850202839291N08209934WA010480113200709000
B1850232839305N08209952WA010480113200609000
B1850262839308N08209978WA010530113400509000
B1850292839309N08210000WA010590113800809000
B1850322839304N08210024WA010610114000409000
B1850352839287N08210036WA010620114200809000
B1850382839267N08210028WA010610114400909000
B1850412839249N08210007WA010610114500909000
B1850442839236N08209989WA010700115000909000
B1850472839231N08209968WA010680115201109000
B1850502839242N08209945WA010640115100709000
B1850532839263N08209941WA010620114900909000
B1850562839280N08209951WA010590114600709000
B1850592839297N08209971WA010500113901109000
F18510201070809111623272830
B1851022839301N08210000WA010520113601010000
B1851052839294N08210027WA010560113800510000
B1851082839286N08210053WA010600114200710000
B1851112839280N08210080WA010600114300310000
B1851142839265N08210108WA010650114700410000
B1851172839256N08210136WA010740115200610000
B1851202839269N08210158WA010790115901110000
B1851232839291N08210149WA010800116401010000
B1851262839296N08210124WA010870117101310000
B1851292839280N08210104WA010940117801410000
B1851322839259N08210118WA010970118301210000
B1851352839264N08210152WA011030118901510000
B1851382839289N08210158WA011080119501410000
B1851412839298N08210136WA011090119801110000
B1851442839280N08210113WA011150120301010000
B1851472839256N08210120WA011220120901410000
B1851502839253N08210150WA011210121101510000
F185153070809111623272830
B1851532839270N08210175WA011250121101009000
F18515601070809111623272830
B1851562839294N08210178WA011330121400810000
B1851592839310N08210164WA011380122101310000
B1852022839307N08210142WA011390122501010000
B1852052839284N08210134WA011450123101210000
B1852082839265N08210151WA011500123600910000
B1852112839266N08210181WA011490123701310000
B1852142839291N08210194WA011520123900910000
B1852172839310N08210181WA011590124601310000
B1852202839307N08210156WA011630125001210000
B1852232839287N08210140WA011670125400910000
B1852262839266N08210142WA011720125800810000
B1852292839250N08210160WA011750126200910000
B1852322839262N08210188WA011700126100910000
B1852352839288N08210207WA011750126300910000
B1852382839314N08210214WA011800126601410000
B1852412839327N08210194WA011830127001210000
B1852442839320N08210169WA011850127301110000
B1852472839297N08210168WA011890127601110000
B1852502839285N08210191WA011940127900710000
B1852532839285N08210219WA011950128200810000
B1852562839296N08210245WA011990128700710000
B1852592839313N08210264WA012060129200510000
B1853022839333N08210270WA012120129600810000
B1853052839346N08210254WA012110129701310000
B1853082839329N08210233WA012120130001110000
B1853112839306N08210240WA012160130201010000
B1853142839295N08210265WA012190130500710000
B1853172839299N08210293WA012220130801010000
B1853202839315N08210313WA012270131200510000
B1853232839335N08210316WA012250131300910000
B1853262839340N08210295WA012290131601310000
B1853292839325N08210275WA012300131801110000
B1853322839303N08210267WA012310132001110000
B1853352839279N08210280WA012330132101210000
B1853382839273N08210310WA012370132600710000
B1853412839283N08210334WA012390132900710000
B1853442839303N08210345WA012360132800610000
B1853472839324N08210340WA012340132700810000
B1853502839338N08210321WA012330132600810000
B1853532839350N08210304WA012410132800810000
B1853562839364N08210286WA012390132900510000
B1853592839377N08210272WA012450133100610000
B1854022839394N08210255WA012410133200410000
B1854052839413N08210236WA012480133500510000
B1854082839433N08210217WA012490133700510000
B1854112839449N08210196WA012610134300710000
B1854142839442N08210173WA012620135001310000
B1854172839419N08210173WA012630135301210000
B1854202839407N08210199WA012670135800810000
B1854232839413N08210225WA012730136300710000
B1854262839432N08210240WA012780136700710000
B1854292839454N08210233WA012850137201010000
B1854322839464N08210212WA012890137901010000
B1854352839447N08210195WA012930138300910000
B1854382839428N08210211WA012950138501010000
B1854412839438N08210240WA012980138901010000
B1854442839464N08210250WA013050139401010000
B1854472839484N08210237WA013090139901310000
B1854502839482N08210211WA013160140400910000
B1854532839463N08210210WA013200141001010000
B1854562839457N08210236WA013190141201410000
B1854592839475N08210260WA013260141400910000
B1855022839500N08210264WA013280141701310000
B1855052839516N08210245WA013300142101410000
B1855082839512N08210219WA013370142501210000
B1855112839492N08210212WA013420143101310000
B1855142839475N08210228WA013440143601010000
B1855172839477N08210260WA013380143601510000
B1855202839504N08210270WA013450143901310000
B1855232839525N08210256WA013520144201110000
B1855262839524N08210231WA013560144601310000
B1855292839504N08210228WA013580145101410000
B1855322839495N08210253WA013630145401010000
B1855352839511N08210279WA013650145600910000
B1855382839535N08210274WA013680146101510000
B1855412839540N08210250WA013740146501110000
B1855442839528N08210234WA013780147001010000
B1855472839508N08210244WA013790147201410000
B1855502839503N08210271WA013810147400710000
B1855532839517N08210296WA013820147700610000
B1855562839544N08210301WA013850147801110000
B1855592839563N08210282WA013930148401110000
B1856022839563N08210256WA013960149001110000
B1856052839543N08210253WA013960149401410000
B1856082839535N08210279WA013980149601010000
B1856112839550N08210307WA014000149600810000
B1856142839577N08210319WA014040149900610000
B1856172839603N08210319WA014110150301310000
B1856202839610N08210301WA014100150401110000
B1856232839595N08210286WA014030150201210000
B1856262839576N08210299WA014010150101210000
B1856292839569N08210329WA014010150100810000
B1856322839575N08210359WA014070150300610000
B1856352839592N08210381WA014110150400510000
B1856382839614N08210388WA014060150301210000
B1856412839631N08210369WA013950149901210000
B1856442839640N08210345WA013900149200810000
B1856472839652N08210321WA013810148400710000
B1856502839662N08210297WA013770147700610000
B1856532839670N08210275WA013750147200610000
B1856562839681N08210250WA013660146500610000
B1856592839695N08210225WA013610145800810000
B1857022839711N08210200WA013530145200710000
B1857052839730N08210177WA013510144700510000
B1857082839750N08210154WA013470144200510000
B1857112839766N08210129WA013430143600510000
B1857142839778N08210102WA013390143100510000
B1857172839789N08210075WA013330142500410000
B1857202839802N08210047WA013270142100410000
F185723010809111623272830
B1857232839811N08210021WA013230141500509000
F18572601070809111623272830
B1857262839823N08209992WA013160140900410000
B1857292839833N08209964WA013140140500510000
B1857322839843N08209938WA013120140100510000
B1857352839856N08209911WA013060139600510000
B1857382839868N08209885WA013070139400410000
B1857412839881N08209859WA013040139100610000
B1857442839892N08209831WA012990138900610000
B1857472839901N08209806WA012920138400410000
B1857502839912N08209781WA012870137800310000
B1857532839922N08209755WA012830137300510000
B1857562839931N08209730WA012770136700410000
B1857592839940N08209703WA012720136200510000
B1858022839951N08209677WA012690135800510000
B1858052839964N08209650WA012730135800510000
B1858082839976N08209626WA012710135600410000
B1858112839991N08209600WA012710135500410000
B1858142840003N08209574WA012690135500510000
B1858172840013N08209546WA012650135200410000
B1858202840022N08209522WA012640135100410000
B1858232840029N08209497WA012570134700510000
B1858262840036N08209470WA012530134300510000
B1858292840043N08209445WA012500134000410000
B1858322840050N08209421WA012450133600510000
B1858352840059N08209395WA012360132900410000
B1858382840071N08209367WA012310132300410000
B1858412840081N08209341WA012250131600510000
B1858442840092N08209313WA012210131100510000
B1858472840102N08209286WA012270131000810000
B1858502840105N08209258WA012220130800910000
B1858532840114N08209228WA012220130600510000
B1858562840126N08209200WA012190130400410000
B1858592840141N08209174WA012180130200510000
B1859022840151N08209148WA012160130200510000
B1859052840154N08209125WA012190130100510000
B1859082840150N08209098WA012130130000510000
B1859112840147N08209071WA012130130000610000
B1859142840149N08209043WA012090129800510000
B1859172840156N08209012WA012080129600510000
B1859202840164N08208985WA012080129400710000
B1859232840170N08208956WA011980129000410000
B1859262840176N08208924WA011920128400410000
B1859292840183N08208895WA011920128000510000
B1859322840190N08208869WA011890127600410000
B1859352840199N08208840WA011830127200510000
B1859382840209N08208814WA011810126900510000
B1859412840216N08208787WA011750126300410000
B1859442840226N08208757WA011670125700510000
B1859472840239N08208726WA011610124700510000
B1859502840246N08208690WA011500123700410000
B1859532840250N08208657WA011440122800410000
B1859562840255N08208627WA011370121900410000
B1859592840265N08208599WA011340121300710000
B1900022840275N08208575WA011310120900510000
B1900052840285N08208548WA011220120400610000
B1900082840292N08208523WA011200120000410000
B1900112840299N08208497WA011140119500410000
B1900142840307N08208475WA011100119000610000
B1900172840316N08208452WA011050118500410000
B1900202840324N08208430WA011030118200610000
B1900232840327N08208406WA010970117700710000
B1900262840329N08208380WA010900117200510000
B1900292840328N08208353WA010850116600310000
B1900322840326N08208330WA010780116100410000
B1900352840325N08208308WA010720115500410000
B1900382840331N08208283WA010600114700910000
B1900412840342N08208256WA010520113900810000
B1900442840352N08208230WA010490113400610000
B1900472840355N08208207WA010390112600510000
B1900502840356N08208177WA010290111700610000
B1900532840359N08208152WA010260111000710000
B1900562840363N08208125WA010160110000710000
B1900592840367N08208096WA010070109100410000
B1901022840373N08208067WA010010108300410000
B1901052840377N08208037WA009960107700410000
B1901082840378N08208008WA009960107200610000
B1901112840374N08207988WA009970107000610000
B1901142840371N08207967WA009870106600510000
B1901172840370N08207944WA009780106100510000
B1901202840372N08207919WA009710105400410000
B1901232840383N08207893WA009670104800510000
B1901262840394N08207870WA009650104400610000
B1901292840402N08207845WA009630104100610000
B1901322840412N08207823WA009680104100510000
B1901352840426N08207806WA009710104400410000
B1901382840447N08207800WA009750104800510000
B1901412840470N08207809WA009750105100610000
B1901442840482N08207838WA009750105300610000
B1901472840474N08207867WA009770105500610000
B1901502840458N08207881WA009830105700610000
B1901532840441N08207887WA009830105900510000
B1901562840427N08207881WA009850106101110000
F190159010809111623272830
B1901592840423N08207862WA009850106301009000
F19020201070809111623272830
B1902022840427N08207842WA009910106800710000
B1902052840431N08207825WA009930107000710000
B1902082840435N08207806WA009940107200410000
B1902112840441N08207788WA009940107300310000
B1902142840450N08207770WA009960107400410000
B1902172840462N08207756WA009930107500410000
B1902202840478N08207742WA009930107500510000
B1902232840496N08207730WA009900107400510000
B1902262840513N08207719WA009890107300510000
B1902292840526N08207707WA009860107100410000
B1902322840542N08207689WA009750106500610000
B1902352840560N08207669WA009680105800710000
B1902382840575N08207646WA009630105100610000
B1902412840589N08207622WA009560104300610000
B1902442840604N08207597WA009510103700510000
B1902472840614N08207575WA009460103100510000
B1902502840621N08207549WA009340102000510000
B1902532840630N08207519WA009240100800410000
B1902562840636N08207489WA009150099700410000
B1902592840641N08207457WA009050098400510000
B1903022840645N08207425WA009000097500510000
B1903052840645N08207395WA008990096900710000
B1903082840639N08207367WA008920096400510000
B1903112840632N08207338WA008870095900510000
B1903142840627N08207311WA008830095600410000
B1903172840624N08207284WA008770095100410000
B1903202840624N08207256WA008710094700510000
B1903232840623N08207226WA008660094300410000
B1903262840617N08207197WA008610093800410000
B1903292840611N08207166WA008540093200410000
B1903322840605N08207132WA008460092500510000
B1903352840598N08207102WA008430091800410000
B1903382840587N08207071WA008320091000610000
B1903412840577N08207039WA008230090100410000
F190344010708091123272830
B1903442840568N08207009WA008170089400609000
F19034701070809111623272830
B1903472840558N08206978WA008080088500410000
B1903502840549N08206945WA007990087600410000
B1903532840540N08206914WA007940086800710000
B1903562840536N08206883WA007920086300710000
B1903592840534N08206854WA007900085900510000
B1904022840525N08206829WA007890085700410000
B1904052840505N08206812WA007830085300710000
B1904082840483N08206799WA007790085000610000
B1904112840460N08206781WA007750084800710000
B1904142840439N08206768WA007760084700610000
B1904172840417N08206762WA007740084500610000
B1904202840391N08206763WA007690084200310000
B1904232840364N08206769WA007640083800410000
B1904262840337N08206774WA007610083500410000
B1904292840313N08206776WA007580083200310000
B1904322840288N08206773WA007520082800310000
B1904352840264N08206762WA007460082300310000
B1904382840244N08206744WA007410081700510000
B1904412840232N08206719WA007350081100410000
B1904442840225N08206690WA007280080500410000
B1904472840222N08206660WA007240080000510000
B1904502840218N08206631WA007200079500410000
B1904532840212N08206605WA007170079000410000
B1904562840204N08206580WA007130078600410000
B1904592840195N08206559WA007160078500410000
B1905022840185N08206541WA007150078400410000
B1905052840174N08206519WA007120078200510000
B1905082840165N08206497WA007160078300510000
B1905112840157N08206476WA007190078400510000
B1905142840149N08206456WA007220078700510000
B1905172840135N08206438WA007230078900410000
B1905202840119N08206420WA007230079100510000
B1905232840105N08206401WA007170079000710000
B1905262840097N08206375WA007090078700710000
B1905292840096N08206347WA007020078100810000
B1905322840096N08206321WA006980077500610000
B1905352840096N08206298WA006950077000410000
B1905382840097N08206275WA006890076400510000
B1905412840095N08206252WA006800075600610000
B1905442840092N08206225WA006690074500510000
B1905472840088N08206197WA006650073800610000
B1905502840085N08206170WA006630073100510000
B1905532840081N08206147WA006650072900810000
B1905562840077N08206122WA006610072800510000
B1905592840074N08206096WA006620072700610000
B1906022840075N08206069WA006580072500610000
B1906052840078N08206041WA006610072600610000
B1906082840075N08206016WA006680073000910000
B1906112840064N08205996WA006700073200710000
B1906142840042N08205990WA006680073400810000
B1906172840021N08206009WA006580073201410000
B1906202840026N08206044WA006490072801210000
B1906232840045N08206064WA006450072300810000
B1906262840073N08206067WA006380071601010000
B1906292840096N08206060WA006450071600810000
B1906322840115N08206046WA006430071300510000
B1906352840133N08206031WA006460071500610000
B1906382840153N08206018WA006480071600610000
B1906412840175N08206022WA006530071900610000
B1906442840192N08206039WA006560072100510000
B1906472840199N08206061WA006590072300510000
B1906502840193N08206085WA006540072300610000
B1906532840171N08206094WA006540072400710000
B1906562840151N08206082WA006530072400710000
B1906592840147N08206057WA006570072500810000
B1907022840154N08206037WA006600072600710000
B1907052840168N08206023WA006630072800510000
B1907082840187N08206029WA006640073100710000
B1907112840196N08206050WA006690073401110000
B1907142840186N08206071WA006700073900610000
B1907172840163N08206076WA006690073800710000
B1907202840139N08206069WA006710073900910000
B1907232840122N08206054WA006740074200810000
B1907262840121N08206033WA006760074500710000
B1907292840141N08206033WA006780074500810000
B1907322840148N08206059WA006810074801010000
B1907352840135N08206077WA006830075000810000
B1907382840113N08206074WA006830075300910000
B1907412840102N08206060WA006890075700610000
B1907442840111N08206044WA006910076000710000
B1907472840129N08206051WA006930076200710000
B1907502840129N08206073WA006950076500810000
B1907532840111N08206084WA006960076600610000
B1907562840096N08206075WA006980076901010000
B1907592840096N08206055WA007040077400710000
B1908022840109N08206042WA007070077900610000
B1908052840128N08206048WA007110078300710000
B1908082840127N08206074WA007140078500810000
B1908112840105N08206079WA007130078500810000
B1908142840096N08206061WA007200078801010000
B1908172840109N08206047WA007180078600910000
B1908202840133N08206051WA007210078701010000
B1908232840144N08206069WA007260079100810000
B1908262840135N08206094WA007270079400710000
B1908292840114N08206097WA007270079601210000
B1908322840104N08206078WA007300080001110000
B1908352840104N08206058WA007280080000710000
B1908382840125N08206043WA007220079901110000
B1908412840152N08206037WA007280080100710000
B1908442840172N08206050WA007310080400810000
B1908472840163N08206075WA007300080400910000
B1908502840141N08206074WA007350080501310000
B1908532840133N08206054WA007390080900910000
B1908562840142N08206032WA007350080900710000
B1908592840169N08206024WA007340080800810000
B1909022840191N08206042WA007380080900810000
B1909052840190N08206067WA007410081100710000
B1909082840174N08206080WA007440081500710000
B1909112840157N08206070WA007460081801210000
B1909142840155N08206049WA007500082001110000
B1909172840173N08206027WA007460081900810000
B1909202840198N08206033WA007490081900910000
B1909232840203N08206060WA007510082300710000
B1909262840186N08206073WA007490082300810000
B1909292840170N08206059WA007530082301410000
