AFLY00AE 0100634
HFDTE080516
HFFXA010
HFPLTPILOT:KNUT RYERSON    
HFCM2CREW2:NKN
HFGTYGLIDERTYPE:AEROS           
HFGIDGLIDERID:NKN             
HFDTM100GPSDATUM:WGS84
HFRFWFIRMWAREVERSION: 1.04.13
HFRHWHARDWAREVERSION:1.00
HFFTYFRTYPE:Flytec Element Track
HFGPS:FASTRAX,IT430,48
HFPRSPRESSALTSENSOR:INTERSEMA,MS5401BM,12000
HFALGALTGPS:GEO
HFALPALTPRESSURE:ISA
HFTZNUTCOFFSET: -4.00h
I033638FXA3940SIU4143TAS
C080516153903080516001402
C2831982N08150800W TAKEOFF
C2831982N08150800W START  QUEST            00000000005000000000360000AREA
C2840286N08205231W TURN   CHERYL           00000000005000000000360000AREA
C2842911N08153802W TURN   TURN33           00000000006000000000360000AREA
C2831982N08150800W FINISH QUEST            00000000000400000000360000AREA
C2831982N08150800W LANDING
F17283803070809162223262731
B1728382832132N08150808WA-00120003500310002
F17290803070809162223262731
B1729082832130N08150808WA-00120003400310003
F17293803070809162223262731
B1729382832128N08150808WA-00120003300310000
F17300803070809162223262731
B1730082832128N08150808WA-00120003300410000
F17303803070809162223262731
B1730382832128N08150808WA-00120003300410000
F17310803070809162223262731
B1731082832127N08150808WA-00120003200310000
F17313803070809162223262731
B1731382832127N08150808WA-00120003200310000
F17320803070809162223262731
B1732082832127N08150808WA-00110003200410000
F17323803070809162223262731
B1732382832124N08150807WA-00110003200610000
E173255STA
E173255ATS1018.4
LFLYA1 00031
B1732552832085N08150803WA-00100003200510000
B1733002832034N08150797WA000080004100510003
B1733052831980N08150797WA000340006600410000
B1733102831922N08150792WA000560009300310000
B1733152831870N08150783WA000830012400410000
B1733202831821N08150769WA001080015800510000
B1733252831781N08150742WA001240018100410003
B1733302831755N08150706WA001450020200310005
B1733352831738N08150667WA001670022500510000
B1733402831725N08150626WA001890024900310002
B1733452831720N08150576WA002040026700310004
B1733502831734N08150530WA002200028400410000
B1733552831761N08150491WA002360030000310000
B1734002831792N08150455WA002520031500310002
B1734052831827N08150426WA002650033100410000
B1734102831865N08150404WA002880035000410000
B1734152831910N08150386WA003120037300310000
B1734202831959N08150378WA003360039800410002
B1734252832007N08150381WA003570042300210005
B1734302832054N08150388WA003780044600210000
B1734352832101N08150399WA003950046500210004
B1734402832145N08150416WA004130048500310005
B1734452832186N08150442WA004330050500310004
B1734502832221N08150477WA004550052500210004
B1734552832249N08150523WA004760054700310002
B1735002832271N08150573WA004980057000310000
B1735052832284N08150627WA005190059200310000
B1735102832292N08150684WA005350061100210003
B1735152832290N08150740WA005560063100310003
B1735202832288N08150796WA005850065500310002
B1735252832289N08150850WA006080068000310007
B1735302832292N08150899WA006270070300210005
B1735352832297N08150935WA006190070900510000
B1735402832322N08150968WA006120069800410047
B1735452832341N08151000WA006030067800610045
B1735502832319N08151029WA005900066300610046
B1735552832286N08151044WA005830065400410043
B1736002832253N08151033WA005730064400510046
B1736052832246N08150989WA005560062900310050
B1736102832259N08150948WA005450061500510046
B1736152832268N08150905WA005310060000410046
B1736202832283N08150867WA005200058700510042
B1736252832317N08150848WA005110057700310044
B1736302832357N08150851WA005010056600310046
B1736352832392N08150872WA004950055900210047
B1736402832412N08150914WA004890055300410045
B1736452832418N08150958WA004830054900510039
B1736502832416N08151002WA004790054400310042
B1736552832399N08151043WA004780054300310036
B1737002832374N08151037WA004810054500710039
B1737052832399N08151021WA004860055100610038
B1737102832396N08151053WA004880055300810035
B1737152832363N08151051WA004910055700810039
B1737202832374N08151022WA004900055600410037
B1737252832410N08151007WA004930055700410032
B1737302832440N08151031WA004940055900710036
B1737352832436N08151071WA004940056000510037
B1737402832410N08151097WA004940056000710034
B1737452832379N08151088WA004940056100410041
B1737502832378N08151055WA004980056300710042
B1737552832401N08151079WA005020056501010043
B1738002832368N08151083WA005080057100910037
B1738052832379N08151050WA005080057300510037
B1738102832416N08151056WA005090057500610044
B1738152832416N08151093WA005110057700710041
B1738202832391N08151082WA005150058101110041
B1738252832421N08151068WA005170058300610043
B1738302832436N08151107WA005190058401010041
B1738352832408N08151126WA005220058801110039
B1738402832397N08151096WA005260059400710038
B1738452832430N08151091WA005240059400810042
B1738502832448N08151134WA005260059501210042
B1738552832415N08151152WA005240059500910043
B1739002832396N08151117WA005250059400510041
B1739052832427N08151107WA005230059200710042
B1739102832443N08151155WA005250059100910043
B1739152832426N08151196WA005290059600610041
B1739202832390N08151201WA005330060100710043
B1739252832368N08151176WA005360060300410038
B1739302832389N08151147WA005340060100710039
B1739352832427N08151161WA005310060000410043
B1739402832452N08151205WA005320059900510050
B1739452832484N08151201WA005370060401010046
B1739502832469N08151167WA005390060700710044
B1739552832440N08151190WA005400060900610041
B1740002832445N08151240WA005430061100410047
B1740052832476N08151258WA005520061901210042
B1740102832471N08151222WA005550062501010046
B1740152832437N08151216WA005610063000810039
B1740202832401N08151230WA005690063700510040
B1740252832396N08151273WA005700064100510043
B1740302832422N08151309WA005780064600510049
F1740350307080911162223262731
B1740352832451N08151293WA005880065601011048
B1740402832431N08151259WA005950066600711048
B1740452832392N08151283WA005980067100611049
B1740502832392N08151337WA006050067600411052
F17405503080911162223262731
B1740552832426N08151369WA006150068600610046
F1741000307080911162223262731
B1741002832462N08151356WA006220069300611043
B1741052832471N08151320WA006300070200311046
B1741102832444N08151307WA006410070901111042
B1741152832437N08151353WA006480071700811047
B1741202832475N08151356WA006560072800811045
B1741252832481N08151322WA006610073500711046
B1741302832449N08151313WA006640073700611045
B1741352832418N08151341WA006680073900511042
B1741402832414N08151395WA006720074500411047
B1741452832439N08151438WA006830075700711044
B1741502832475N08151431WA006890076500711043
B1741552832482N08151396WA006910076700611041
B1742002832471N08151361WA006920076900511047
B1742052832437N08151351WA006970077200511043
B1742102832395N08151367WA007010077400611045
B1742152832370N08151410WA007060078000311047
B1742202832375N08151464WA007160078900711049
F17422503070809111623262731
B1742252832412N08151457WA007210079601210048
B1742302832378N08151451WA007290080301310042
B1742352832381N08151499WA007380081301010042
B1742402832415N08151482WA007370081500610045
B1742452832410N08151444WA007410081701110049
B1742502832378N08151472WA007450082200910048
B1742552832402N08151514WA007520082800810044
B1743002832438N08151505WA007560083200910046
B1743052832426N08151474WA007570083300710037
B1743102832387N08151477WA007630083900410043
B1743152832380N08151519WA007720084700710037
B1743202832420N08151524WA007750085201010044
B1743252832433N08151492WA007820086000510039
B1743302832409N08151468WA007840086400610042
B1743352832377N08151501WA007870086700610039
B1743402832379N08151551WA007930087200410036
B1743452832410N08151579WA007910087300510036
B1743502832449N08151567WA007920087200410037
B1743552832452N08151532WA007930087300710038
B1744002832414N08151534WA007920087300710039
B1744052832405N08151584WA007970087400810043
B1744102832443N08151577WA007960087601310041
B1744152832416N08151558WA007990087601010040
B1744202832402N08151603WA008010088100910042
B1744252832435N08151599WA007980088000910040
B1744302832415N08151573WA007990087901010038
B1744352832392N08151608WA008020088000610033
B1744402832415N08151643WA008010087900610036
B1744452832446N08151629WA007980087700710038
B1744502832436N08151599WA007960087600510035
B1744552832402N08151591WA007950087300410037
B1745002832376N08151624WA007950087400410039
B1745052832387N08151666WA007880087200610037
B1745102832424N08151656WA007810086700910039
B1745152832443N08151620WA007770085900610049
B1745202832419N08151599WA007790085500810039
B1745252832388N08151631WA007780085600510037
B1745302832382N08151677WA007760085500410038
B1745352832413N08151704WA007650085000810039
B1745402832442N08151679WA007600084000610034
F174545030708091116232731
B1745452832451N08151641WA007580083400409039
F17455003070809111623262731
B1745502832428N08151620WA007590083400610040
B1745552832402N08151653WA007600083600510035
B1746002832411N08151700WA007550083400510034
B1746052832431N08151741WA007490083000410034
B1746102832457N08151776WA007430082300410033
B1746152832488N08151803WA007350081400410029
B1746202832518N08151829WA007240080400410031
B1746252832534N08151870WA007110079100410034
B1746302832537N08151918WA006980077600310038
B1746352832544N08151962WA006850076300310029
B1746402832545N08152008WA006690074700310032
B1746452832533N08152052WA006560073100410037
B1746502832527N08152094WA006410071500210033
B1746552832526N08152138WA006270069900310030
B1747002832518N08152181WA006180068700310038
B1747052832502N08152220WA006130068300310031
B1747102832479N08152256WA006010067400210037
B1747152832453N08152295WA005910066600310037
B1747202832447N08152339WA005820065500310026
B1747252832457N08152384WA005690064400310034
B1747302832465N08152430WA005580063000310033
B1747352832471N08152475WA005480061800310036
B1747402832475N08152522WA005390060800310035
B1747452832486N08152571WA005330060100310039
B1747502832503N08152613WA005260059300310029
B1747552832506N08152663WA005130058300310035
B1748002832499N08152717WA004990056900310050
B1748052832500N08152768WA004890055600310044
B1748102832510N08152816WA004780054300410043
B1748152832520N08152867WA004650052900310049
B1748202832531N08152915WA004550051900310041
B1748252832535N08152968WA004430050700410049
B1748302832529N08153025WA004330049500310049
B1748352832527N08153080WA004270048700310047
B1748402832531N08153134WA004200048100310048
B1748452832535N08153188WA004170047700310052
B1748502832515N08153230WA004240047801110049
B1748552832500N08153205WA004260048401210045
B1749002832533N08153191WA004180048400610048
B1749052832569N08153223WA004170048100410053
B1749102832555N08153261WA004180047901310053
B1749152832566N08153243WA004260048301110045
B1749202832559N08153283WA004330048701410041
B1749252832556N08153257WA004350049001410047
B1749302832593N08153273WA004410049700610045
B1749352832581N08153312WA004420050201310045
B1749402832565N08153286WA004460050701010048
B1749452832596N08153287WA004520051600710045
B1749502832586N08153325WA004560052201010040
B1749552832560N08153309WA004590052401210046
B1750002832582N08153280WA004650053000610047
B1750052832617N08153304WA004670053200510048
B1750102832600N08153339WA004690053300910046
B1750152832588N08153313WA004740053601110044
B1750202832609N08153341WA004780054200810043
B1750252832580N08153365WA004810054401210045
B1750302832561N08153337WA004850054900710046
B1750352832581N08153316WA004880055200410041
B1750402832614N08153338WA004880055400410046
B1750452832614N08153385WA004900055500610048
B1750502832581N08153398WA004930055800510046
B1750552832558N08153377WA004980056300810045
B1751002832582N08153360WA005000056600510041
B1751052832606N08153393WA005030056900510045
B1751102832593N08153436WA005050057200510046
B1751152832561N08153437WA005080057500710049
B1751202832577N08153412WA005120057600810043
B1751252832599N08153445WA005160057900710040
B1751302832575N08153479WA005190058401210045
B1751352832552N08153461WA005200058600610044
B1751402832567N08153430WA005210058800810044
B1751452832603N08153436WA005240059100410046
B1751502832625N08153477WA005260059300510047
B1751552832615N08153522WA005280059600510049
B1752002832586N08153524WA005280059601210046
B1752052832621N08153524WA005250059400810047
B1752102832627N08153575WA005230059100810052
B1752152832605N08153616WA005270059000510048
B1752202832577N08153609WA005350059301210046
B1752252832610N08153603WA005440059900810048
B1752302832602N08153649WA005510061101210048
B1752352832567N08153630WA005580062401110051
B1752402832590N08153607WA005710063700510044
B1752452832594N08153648WA005780064500510044
B1752502832563N08153651WA005860065201410046
B1752552832596N08153634WA005930065600910049
B1753002832586N08153679WA006010066401310047
F175305030708091116232627
B1753052832560N08153652WA006110067001209050
B1753102832598N08153664WA006230068201609042
B1753152832569N08153695WA006340069701409050
B1753202832565N08153655WA006460071601409047
B1753252832601N08153672WA006550072900809045
B1753302832585N08153719WA006620073301009050
B1753352832561N08153701WA006770074201109051
B1753402832594N08153710WA006890074901809054
B1753452832569N08153721WA007050076501409052
B1753502832590N08153706WA007240077901109044
B1753552832581N08153741WA007350080201709052
B1754002832559N08153722WA007510081901109047
B1754052832592N08153730WA007670083401509046
B1754102832563N08153745WA007840085801409044
B1754152832578N08153716WA007980087800609043
B1754202832601N08153743WA008090088901309043
B1754252832574N08153770WA008280090301209044
B1754302832553N08153743WA008500092501109042
B1754352832577N08153719WA008670094600809044
B1754402832597N08153756WA008760095801109047
B1754452832566N08153793WA008890096901009055
B1754502832557N08153762WA009070098501009049
B1754552832590N08153778WA009230100201009046
B1755002832566N08153798WA009380101901209045
B1755052832572N08153762WA009550103400809051
B1755102832606N08153772WA009700104900609043
B1755152832612N08153820WA009830106301109052
B1755202832582N08153831WA009960107801309047
B1755252832596N08153793WA010100109000909051
B1755302832631N08153813WA010260110800909043
B1755352832615N08153854WA010350112401509050
B1755402832586N08153823WA010450113401209050
B1755452832607N08153793WA010630114600709044
B1755502832639N08153813WA010800116300709043
B1755552832629N08153848WA010900117800609046
B1756002832604N08153825WA010980118600909050
B1756052832632N08153802WA011120120300709051
B1756102832672N08153809WA011210121300509044
B1756152832691N08153848WA011290122101109046
B1756202832655N08153853WA011380122601309044
B1756252832646N08153814WA011460123400909046
B1756302832676N08153790WA011520124100809043
B1756352832711N08153817WA011540124400409044
B1756402832710N08153860WA011620125100509042
B1756452832679N08153868WA011730126001309043
B1756502832677N08153829WA011790127001109047
B1756552832712N08153807WA011880127800609047
B1757002832738N08153840WA011890128201209047
B1757052832719N08153879WA012000128501209034
B1757102832694N08153860WA012060129201309040
B1757152832718N08153826WA012100130101109046
B1757202832755N08153838WA012170130800909046
B1757252832766N08153882WA012250131300709036
B1757302832749N08153923WA012250131600709049
B1757352832717N08153939WA012320132200609045
B1757402832691N08153922WA012340132501009044
B1757452832701N08153880WA012380133100809052
B1757502832739N08153863WA012460134000609048
B1757552832776N08153888WA012470134301009047
B1758002832795N08153934WA012500134500709050
B1758052832783N08153977WA012530134800809047
B1758102832756N08153967WA012580135001009045
B1758152832780N08153942WA012580135200809048
B1758202832821N08153970WA012620135501209050
B1758252832846N08154012WA012620135500809048
B1758302832858N08154050WA012630135600509043
B1758352832868N08154100WA012550135400509051
B1758402832886N08154147WA012620135600709051
F1758450307080911232627
B1758452832887N08154194WA012660136100408050
F175850030708091116232627
B1758502832897N08154239WA012710136500409053
B1758552832912N08154283WA012780136900509049
B1759002832932N08154326WA012800137400709050
B1759052832950N08154377WA012840137900809049
B1759102832921N08154405WA012810138001309049
B1759152832894N08154373WA012780137601009052
B1759202832923N08154368WA012760137601009048
B1759252832950N08154419WA012780137600809053
B1759302832964N08154473WA012730137400509052
B1759352832971N08154528WA012700136900409045
B1759402832987N08154570WA012620136300509039
B1759452833015N08154614WA012450134800509046
B1759502833044N08154666WA012240132400409055
B1759552833075N08154720WA012110130600309052
B1800002833107N08154769WA011970129000409050
B1800052833138N08154815WA011870127800509053
B1800102833167N08154858WA011830127200409048
B1800152833197N08154897WA011760126500409057
B1800202833224N08154932WA011720126100309052
B1800252833253N08154962WA011710126000309050
B1800302833278N08154996WA011680125800309049
B1800352833301N08155036WA011630125500409053
B1800402833325N08155073WA011630125400409051
B1800452833352N08155105WA011620125300309048
B1800502833377N08155140WA011640125500309051
B1800552833393N08155182WA011670125700509047
B1801002833374N08155226WA011630125500509049
B1801052833349N08155268WA011620125400409045
B1801102833358N08155312WA011550124900409050
B1801152833386N08155347WA011540124500309048
B1801202833413N08155386WA011480124100309048
B1801252833440N08155425WA011450123700309047
B1801302833462N08155472WA011410123300409047
B1801352833478N08155519WA011410123100309048
B1801402833495N08155566WA011350122700409046
B1801452833500N08155620WA011290122100309049
B1801502833504N08155671WA011220121600409042
B1801552833520N08155721WA011140120800509045
B1802002833536N08155768WA011050119900509048
B1802052833553N08155813WA010940118700409047
B1802102833582N08155849WA010840117600409047
B1802152833610N08155878WA010840117100409046
B1802202833637N08155900WA010810116900309040
B1802252833660N08155926WA010770116600409043
B1802302833683N08155958WA010730116300309048
B1802352833710N08155984WA010680116100309039
B1802402833740N08156011WA010580115400309046
B1802452833758N08156053WA010500114400609045
B1802502833783N08156094WA010430113400309046
B1802552833820N08156129WA010360112600309049
B1803002833851N08156169WA010310112000309050
B1803052833873N08156216WA010200110900509049
B1803102833882N08156268WA010120109900409049
B1803152833888N08156326WA010050109000409050
B1803202833895N08156384WA010010108300409049
B1803252833896N08156444WA009950107700409047
B1803302833892N08156500WA009900107200309035
B1803352833897N08156554WA009790106600709033
B1803402833919N08156605WA009730106000409033
B1803452833948N08156651WA009690105400309039
B1803502833966N08156701WA009610104800809050
B1803552833978N08156754WA009570104200509049
B1804002834002N08156793WA009510103800309047
B1804052834036N08156825WA009430102900409050
B1804102834072N08156855WA009340102000409047
B1804152834110N08156879WA009240100900309053
B1804202834152N08156902WA009090099600309047
B1804252834200N08156907WA008940098300409051
F1804300708091116232627
B1804302834248N08156908WA008870097100308053
F180435030708091116232627
B1804352834292N08156913WA008810096200309054
B1804402834333N08156914WA008710095200309050
B1804452834379N08156916WA008600094100309055
B1804502834425N08156915WA008520093100309054
B1804552834471N08156918WA008400092100209058
B1805002834517N08156929WA008230090700309055
B1805052834561N08156938WA008080089000309052
B1805102834608N08156949WA007900087300409053
B1805152834656N08156954WA007680084900309054
B1805202834703N08156936WA007450082300409055
B1805252834750N08156912WA007250080000509059
B1805302834800N08156896WA007140078100309057
B1805352834848N08156887WA007060077200409055
B1805402834890N08156867WA007020077000409053
B1805452834934N08156859WA007020076900609052
B1805502834935N08156904WA007080076900909059
B1805552834917N08156885WA007120077700809050
B1806002834955N08156884WA007160078201009049
B1806052834949N08156919WA007210078801409048
B1806102834922N08156900WA007220079401109053
B1806152834947N08156873WA007210079300709053
B1806202834980N08156902WA007290079901109054
B1806252834954N08156912WA007360080701709049
B1806302834976N08156883WA007420081300809053
B1806352834999N08156921WA007460081901409055
B1806402834970N08156939WA007500082201309054
B1806452834989N08156908WA007560082601509052
B1806502834983N08156950WA007570083101509050
B1806552834948N08156943WA007610083501209047
B1807002834954N08156906WA007580083401109048
B1807052834997N08156899WA007620083500809054
B1807102834987N08156932WA007660083901309049
B1807152834975N08156901WA007720084001109049
B1807202835004N08156923WA007770084601009048
B1807252834974N08156947WA007800085201009048
B1807302834957N08156916WA007810085500909047
B1807352834985N08156885WA007810085800509053
B1807402835023N08156896WA007870086300409056
B1807452835023N08156939WA007920086600909054
B1807502834994N08156927WA007970087201609050
B1807552835027N08156910WA008000087400809051
B1808002835052N08156951WA008040088101009054
B1808052835018N08156977WA008060088301309052
B1808102834997N08156940WA008080088600809051
B1808152835021N08156910WA008100088500709051
B1808202835057N08156930WA008170089001209050
B1808252835025N08156960WA008210089401309047
B1808302835017N08156927WA008250089900709043
B1808352835055N08156926WA008300090700409055
B1808402835077N08156961WA008360091300809051
B1808452835040N08156972WA008400091401309049
B1808502835033N08156926WA008390091400709051
B1808552835070N08156914WA008440091900609055
B1809002835058N08156950WA008470092101409048
B1809052835026N08156930WA008550092900809048
B1809102835048N08156915WA008630093701109045
B1809152835050N08156959WA008650094100809049
B1809202835009N08156980WA008730094801009050
B1809252835007N08156950WA008750095400609048
B1809302835042N08156959WA008820095800709049
B1809352835033N08157002WA008880096400809047
B1809402834999N08156999WA008920097001209045
B1809452835009N08156963WA008940097300509048
B1809502835044N08156970WA008960097400409048
B1809552835053N08157016WA008960097500809048
B1810002835016N08157047WA008940097200809056
B1810052834992N08157028WA008930097101509043
B1810102835019N08157000WA008900097000409052
B1810152835048N08157021WA008930097300809045
B1810202835039N08157068WA008920097300509049
B1810252835006N08157082WA008890097100909051
B1810302834983N08157062WA008850096800909043
B1810352835008N08157030WA008790096200709058
B1810402835046N08157054WA008790095801109050
B1810452835022N08157081WA008750095601509050
B1810502835009N08157041WA008700095000609054
B1810552835035N08157011WA008650094500409050
B1811002835078N08157016WA008600093900409054
B1811052835119N08157033WA008580093400809056
B1811102835128N08157079WA008530093200509051
B1811152835108N08157116WA008430092500509049
B1811202835069N08157132WA008300091000809050
B1811252835037N08157106WA008280090500909054
B1811302835062N08157083WA008260090201009051
B1811352835088N08157114WA008150089700809045
B1811402835060N08157151WA008090089001209054
B1811452835024N08157141WA008040088300809054
B1811502835014N08157101WA008000087800309056
B1811552835041N08157071WA007910087300609052
B1812002835086N08157065WA007860086800609050
B1812052835117N08157093WA007790086000509044
B1812102835139N08157137WA007690084900709050
B1812152835161N08157180WA007650084100709050
B1812202835189N08157210WA007610083700309043
B1812252835217N08157234WA007520083200309039
B1812302835248N08157260WA007420082400509043
B1812352835276N08157286WA007370081600609042
B1812402835303N08157321WA007310080800409051
B1812452835331N08157356WA007320080500509046
B1812502835328N08157393WA007330080600609043
B1812552835299N08157388WA007280080300709043
B1813002835309N08157348WA007230079800409049
B1813052835350N08157340WA007230079700309050
B1813102835389N08157361WA007240079900409048
B1813152835418N08157396WA007230079800509047
B1813202835425N08157442WA007190079500309047
B1813252835418N08157487WA007140079000309048
B1813302835415N08157532WA007090078500309046
F1813350708091116232627
B1813352835445N08157570WA007080078000608051
F18134007091116232627
B1813402835466N08157611WA007020077401107049
F1813450708091116232627
B1813452835430N08157623WA006940076801508057
B1813502835398N08157595WA006910076300908051
B1813552835388N08157556WA006910076101308047
B1814002835423N08157558WA006930075901408045
B1814052835401N08157594WA006920076001308049
B1814102835374N08157567WA006920076001208048
B1814152835397N08157527WA006940076000608052
B1814202835430N08157539WA007000076901108049
B1814252835395N08157545WA007020077101608052
B1814302835390N08157496WA007110077701208051
B1814352835419N08157517WA007140078301008039
B1814402835388N08157545WA007200078801008048
B1814452835357N08157520WA007240079301108047
B1814502835372N08157482WA007280079700908048
B1814552835410N08157500WA007260079500808051
B1815002835420N08157548WA007250079500708053
B1815052835391N08157580WA007290079700908053
B1815102835361N08157554WA007290079701208050
B1815152835377N08157509WA007310079900808056
B1815202835414N08157521WA007330080301308051
B1815252835401N08157567WA007350080500908056
B1815302835360N08157573WA007350080701308052
B1815352835347N08157530WA007380080700508052
B1815402835379N08157532WA007400080901008051
B1815452835367N08157566WA007420081101208045
B1815502835335N08157545WA007430081401008045
B1815552835340N08157506WA007450081400608049
B1816002835376N08157503WA007430081400808050
B1816052835402N08157541WA007450081700508053
B1816102835387N08157583WA007450082001008053
B1816152835347N08157580WA007450081801108047
B1816202835344N08157539WA007430081500508052
B1816252835376N08157524WA007420081300908051
B1816302835389N08157561WA007460081601008049
B1816352835352N08157571WA007450081701508048
B1816402835349N08157534WA007420081601208050
B1816452835382N08157530WA007420081400908052
B1816502835391N08157568WA007430081300808047
B1816552835358N08157584WA007390081201208049
B1817002835332N08157551WA007350080700608054
B1817052835344N08157512WA007310080101308056
B1817102835387N08157518WA007260079801008058
B1817152835393N08157570WA007220079400608056
B1817202835360N08157598WA007150078900808055
B1817252835321N08157592WA007080078400908047
B1817302835305N08157549WA006970077401208058
B1817352835331N08157509WA006920076700708055
B1817402835370N08157496WA006840075900708048
B1817452835399N08157520WA006710074800508043
B1817502835405N08157567WA006620073600608052
B1817552835413N08157612WA006520072400408048
B1818002835425N08157659WA006420071300408051
B1818052835445N08157702WA006360070400708050
B1818102835468N08157739WA006350070200508050
B1818152835462N08157777WA006380070100908045
B1818202835431N08157758WA006370070300808050
B1818252835447N08157720WA006380070400908049
B1818302835485N08157724WA006380070301308048
B1818352835475N08157759WA006390070501408050
B1818402835434N08157759WA006370070401108050
B1818452835414N08157722WA006360070300908051
B1818502835441N08157696WA006280069800708051
B1818552835484N08157708WA006180068700508052
B1819002835512N08157748WA006170068400608054
B1819052835491N08157780WA006200068301608052
B1819102835467N08157750WA006200068401008049
B1819152835501N08157727WA006180068201208049
B1819202835540N08157747WA006190068400608050
B1819252835537N08157788WA006270068801008050
B1819302835501N08157770WA006310069501708053
B1819352835516N08157733WA006350069801108048
B1819402835535N08157772WA006360070200908053
B1819452835500N08157788WA006410070601608047
B1819502835491N08157745WA006420070601108049
B1819552835533N08157740WA006420070700908049
B1820002835551N08157781WA006480071500708050
B1820052835523N08157794WA006490071601408044
B1820102835543N08157751WA006460071501108056
B1820152835563N08157782WA006480071201008059
B1820202835528N08157776WA006490071400908051
B1820252835554N08157758WA006480071301008046
B1820302835565N08157804WA006480071401408052
B1820352835526N08157822WA006460071201408054
B1820402835491N08157801WA006430071000908055
B1820452835487N08157760WA006390070700708052
B1820502835527N08157749WA006370070401308052
B1820552835563N08157779WA006350070100708049
B1821002835573N08157826WA006320070000608052
B1821052835550N08157859WA006330070001008050
B1821102835535N08157826WA006310069801508048
B1821152835577N08157826WA006280069501108047
B1821202835579N08157870WA006300069500908048
B1821252835547N08157874WA006250069001208047
B1821302835540N08157834WA006200068700908052
B1821352835570N08157810WA006200068801008048
B1821402835598N08157845WA006150068401108050
B1821452835580N08157886WA006130068301108046
B1821502835545N08157891WA006090067701008047
B1821552835530N08157858WA006030067000508049
B1822002835546N08157822WA006000066700508051
B1822052835584N08157808WA005980066301008049
B1822102835611N08157850WA005960066100908050
B1822152835603N08157902WA005950066000608050
B1822202835583N08157944WA005940066100908048
B1822252835561N08157932WA005920065901208044
B1822302835595N08157906WA005890065500808053
B1822352835641N08157915WA005860065100608052
B1822402835677N08157948WA005850065000508052
B1822452835687N08157999WA005870064900608051
B1822502835665N08157999WA005900065001308045
B1822552835692N08157971WA005920065301308045
B1823002835723N08158005WA005920065601308046
B1823052835707N08158043WA005930065800608048
B1823102835675N08158041WA005940065701008053
B1823152835670N08158007WA005950065601008048
B1823202835709N08158022WA005960065701108045
B1823252835701N08158059WA005980066301008043
B1823302835671N08158059WA006010066501108047
B1823352835666N08158020WA006000066501008048
B1823402835698N08157991WA005990066400808049
B1823452835739N08158002WA005980066200908047
B1823502835757N08158043WA005950066200508048
B1823552835735N08158077WA005960066201008048
B1824002835708N08158059WA005980066201508051
B1824052835743N08158046WA006000066301708048
B1824102835744N08158086WA006040066701308046
B1824152835710N08158080WA006050067001208051
B1824202835715N08158041WA006090067201008048
B1824252835760N08158048WA006080067100908050
B1824302835774N08158092WA006080067000708048
B1824352835745N08158113WA006080067201308047
B1824402835729N08158081WA006110067400608052
B1824452835758N08158064WA006180067701708047
B1824502835759N08158092WA006190068202008045
B1824552835773N08158062WA006230068501408048
B1825002835782N08158099WA006240068801608047
B1825052835748N08158073WA006250068901708059
B1825102835780N08158043WA006280068901308060
B1825152835781N08158086WA006220069102408057
B1825202835739N08158048WA006280069200808060
B1825252835751N08158012WA006250069201208048
B1825302835778N08158056WA006170068800908053
F182535070809111623262730
B1825352835759N08158101WA006190068701209058
B1825402835760N08158065WA006190068201409056
B1825452835800N08158098WA006200068101409057
B1825502835766N08158119WA006260068701009055
B1825552835765N08158077WA006290068901409053
B1826002835806N08158087WA006320069401309048
B1826052835798N08158132WA006330069601009056
B1826102835759N08158131WA006370070000709056
B1826152835774N08158094WA006370070100909050
B1826202835817N08158103WA006380070301009051
B1826252835809N08158144WA006420070601109052
B1826302835773N08158144WA006460070900709047
B1826352835779N08158105WA006450071100709047
B1826402835821N08158085WA006420070901009049
B1826452835853N08158116WA006420070900709049
B1826502835852N08158162WA006400070701209051
B1826552835819N08158183WA006460071000709054
B1827002835830N08158151WA006460070801309051
B1827052835875N08158178WA006460071101309055
B1827102835847N08158190WA006510071301109050
B1827152835871N08158170WA006560071501509047
B1827202835886N08158219WA006580072201109050
B1827252835856N08158236WA006650072900809044
B1827302835842N08158203WA006690073300609046
B1827352835875N08158180WA006710073801209051
B1827402835903N08158215WA006720074001109050
B1827452835876N08158231WA006750074401509051
B1827502835890N08158199WA006750074301009054
B1827552835927N08158229WA006810074600909049
B1828002835911N08158264WA006840074800909048
B1828052835894N08158231WA006870075200709049
B1828102835926N08158215WA006910075400809046
B1828152835940N08158258WA006940075901109047
B1828202835906N08158255WA006910075901409052
B1828252835907N08158214WA006940076200709048
B1828302835939N08158233WA006950076200709049
B1828352835925N08158267WA006970076500909049
B1828402835894N08158249WA006940076300709048
B1828452835902N08158207WA006940076301009050
B1828502835943N08158192WA006930076200809053
B1828552835977N08158221WA006930076300709050
B1829002835975N08158261WA006970076500909048
B1829052835942N08158268WA006970076400909052
B1829102835919N08158235WA006950076500609048
B1829152835940N08158196WA006920076201009050
B1829202835980N08158206WA006900076100409049
B1829252835990N08158247WA006870075900809053
B1829302835961N08158270WA006870075700509051
B1829352835927N08158262WA006850075600509048
B1829402835909N08158226WA006780075100509049
B1829452835931N08158187WA006710074100909052
B1829502835965N08158170WA006690073600609042
B1829552836005N08158186WA006590072700709054
B1830002836030N08158220WA006570072200409048
B1830052836023N08158262WA006530072200609052
B1830102835995N08158286WA006520072100409047
B1830152835962N08158271WA006500071800809046
B1830202835960N08158228WA006440071200409050
B1830252836001N08158217WA006350070400809055
B1830302836035N08158242WA006310069900509047
B1830352836047N08158283WA006270069500709047
B1830402836053N08158325WA006300069600309051
B1830452836039N08158355WA006340069800909047
B1830502836006N08158339WA006340069900709050
B1830552836015N08158296WA006350070001009047
B1831002836062N08158297WA006310069401209051
B1831052836086N08158339WA006290069300509054
B1831102836082N08158383WA006300069500609052
B1831152836046N08158390WA006370070301209051
B1831202836058N08158352WA006380070301109049
B1831252836102N08158359WA006380070200909050
B1831302836118N08158405WA006430070900609053
B1831352836092N08158399WA006470071201309053
B1831402836120N08158368WA006530071601309051
B1831452836146N08158404WA006580072300809049
B1831502836119N08158433WA006660073400909050
B1831552836093N08158406WA006780074300709048
B1832002836125N08158376WA006820074700709046
B1832052836155N08158407WA006870075300809047
B1832102836138N08158446WA006970076401409051
B1832152836115N08158422WA007100077800809046
B1832202836152N08158406WA007160078500809048
B1832252836185N08158438WA007260079301009046
B1832302836166N08158465WA007360080300909048
B1832352836151N08158430WA007460081301209047
B1832402836187N08158431WA007570082200909043
B1832452836183N08158474WA007610083001309050
B1832502836154N08158460WA007720084100709043
B1832552836173N08158428WA007800084500909045
B1833002836209N08158447WA007870085500909046
B1833052836204N08158491WA007930086400909050
B1833102836173N08158487WA008030087501109041
B1833152836187N08158455WA008120088401109045
B1833202836212N08158488WA008210089200909047
B1833252836178N08158500WA008280089800809045
B1833302836169N08158464WA008370090601109045
B1833352836204N08158455WA008480091501109046
B1833402836220N08158496WA008540092500809051
B1833452836187N08158505WA008630093601209042
B1833502836181N08158468WA008720094400909044
B1833552836217N08158462WA008790095301109046
B1834002836224N08158501WA008870096500709044
B1834052836194N08158501WA008930096600809045
B1834102836193N08158463WA009010097300909043
B1834152836232N08158465WA009070098100809046
B1834202836240N08158504WA009160098800809046
B1834252836212N08158499WA009230099600809044
B1834302836215N08158457WA009300100301209045
B1834352836251N08158461WA009330100701209045
B1834402836262N08158505WA009380101200709048
B1834452836232N08158519WA009440101900909047
B1834502836220N08158486WA009490102401309047
B1834552836259N08158499WA009540103000709047
B1835002836256N08158543WA009600103500809047
B1835052836224N08158553WA009650104000709047
B1835102836204N08158522WA009720104600509046
B1835152836227N08158493WA009740105000709046
B1835202836261N08158513WA009760105500909049
B1835252836264N08158552WA009830106000609046
B1835302836232N08158566WA009850106301209046
B1835352836214N08158532WA009830106300809047
B1835402836239N08158500WA009860106600909044
B1835452836277N08158517WA009840106500909050
B1835502836294N08158560WA009890106800509049
B1835552836272N08158568WA009940107100709041
B1836002836274N08158525WA009940106901109049
B1836052836316N08158522WA009970107100909047
B1836102836332N08158563WA010000107600709049
B1836152836307N08158585WA010080108400909049
B1836202836299N08158546WA010110108900809044
B1836252836331N08158523WA010130109201009045
B1836302836371N08158551WA010100108900609050
B1836352836380N08158601WA010170109200509052
B1836402836354N08158609WA010290110100809044
B1836452836356N08158570WA010330110800509046
B1836502836391N08158557WA010390111601209048
B1836552836405N08158602WA010470112200909051
B1837002836376N08158613WA010580113200909043
B1837052836380N08158575WA010630114101209047
B1837102836420N08158586WA010700115101209045
B1837152836431N08158631WA010810116301109045
B1837202836401N08158630WA010860116801109046
B1837252836408N08158590WA010930117301109048
B1837302836446N08158603WA011020118501209048
B1837352836439N08158644WA011110119600709045
B1837402836408N08158642WA011190120100709045
B1837452836398N08158610WA011210120400609044
B1837502836431N08158587WA011230120700709051
B1837552836465N08158618WA011300121300809051
B1838002836457N08158655WA011410122100909044
B1838052836432N08158636WA011450122701209046
B1838102836458N08158603WA011510123201009048
B1838152836494N08158631WA011560124000709048
B1838202836488N08158675WA011620124600809049
B1838252836452N08158682WA011660125100709049
B1838302836436N08158649WA011610124800609052
B1838352836464N08158617WA011640125000809049
B1838402836498N08158644WA011660125201009046
B1838452836493N08158690WA011680125300609051
B1838502836468N08158678WA011670125300809045
B1838552836496N08158646WA011670125001109051
B1839002836538N08158667WA011690125400709047
B1839052836564N08158707WA011710125600509045
B1839102836553N08158756WA011730126000609052
B1839152836520N08158762WA011760126200909046
B1839202836496N08158736WA011750126101009048
B1839252836503N08158698WA011690125600709046
B1839302836541N08158693WA011720125801209045
B1839352836557N08158737WA011680125500609049
B1839402836537N08158778WA011660125400509051
B1839452836506N08158789WA011630125201209047
B1839502836504N08158759WA011620124801209045
B1839552836548N08158771WA011560124401109047
B1840002836578N08158809WA011530124100409044
B1840052836604N08158846WA011540123900409043
B1840102836626N08158882WA011540123900609039
B1840152836644N08158923WA011470123300509044
B1840202836674N08158956WA011450123000409046
B1840252836715N08158969WA011460123000409044
B1840302836756N08158983WA011430122800409044
B1840352836796N08159013WA011340121900609054
B1840402836827N08159053WA011300121400209048
B1840452836849N08159101WA011230120700209050
F1840500708091116232730
B1840502836862N08159153WA011140120000608048
B1840552836883N08159206WA011060119200308053
B1841002836915N08159250WA011040119100508048
B1841052836945N08159293WA010990118700308049
B1841102836972N08159345WA010930118000308053
B1841152837000N08159392WA010880117400508050
B1841202837034N08159430WA010790116700508053
B1841252837073N08159461WA010730116000608049
B1841302837108N08159499WA010640115000508053
B1841352837138N08159545WA010580114300508052
B1841402837166N08159592WA010490113300408051
B1841452837194N08159641WA010380112100608053
B1841502837222N08159689WA010330111300608057
B1841552837250N08159732WA010260110600508051
B1842002837279N08159771WA010210110000308048
B1842052837301N08159814WA010100109100308050
B1842102837326N08159855WA010030108300608051
B1842152837354N08159890WA009910107300608047
B1842202837390N08159922WA009780106200608053
B1842252837421N08159960WA009660104900308052
B1842302837442N08200005WA009580103900608051
B1842352837460N08200051WA009520103100508051
B1842402837488N08200094WA009490102600308054
B1842452837523N08200132WA009480102300408052
B1842502837558N08200165WA009440102100608047
B1842552837593N08200198WA009370101600608048
B1843002837623N08200241WA009300100900608054
B1843052837631N08200288WA009270100500508042
B1843102837602N08200296WA009200100100908048
B1843152837600N08200261WA009130099200908047
B1843202837632N08200238WA009050098300508048
B1843252837672N08200230WA008990097600708053
B1843302837713N08200232WA008960097200608043
B1843352837752N08200247WA008860096300508049
B1843402837784N08200282WA008780095400308049
B1843452837802N08200329WA008700094500608049
B1843502837810N08200381WA008630093600608047
B1843552837826N08200431WA008540092700508051
B1844002837857N08200468WA008460092000308047
B1844052837890N08200498WA008320090900608050
B1844102837918N08200535WA008230090000308052
B1844152837935N08200580WA008130088600608052
B1844202837956N08200622WA008010087400608047
B1844252837979N08200660WA007900086100508051
B1844302837996N08200706WA007740084500508051
B1844352838019N08200750WA007590083000308048
B1844402838047N08200787WA007450081600308049
B1844452838067N08200828WA007300080100608049
F184450010708091116232730
B1844502838086N08200872WA007200079000509050
B1844552838103N08200914WA007110078100509047
B1845002838120N08200958WA006980076900309048
B1845052838145N08200998WA006860075700209047
B1845102838175N08201035WA006750074500209048
B1845152838203N08201075WA006640073300309050
B1845202838227N08201118WA006520072000309051
B1845252838247N08201163WA006460071200609047
B1845302838261N08201213WA006420070900509051
B1845352838271N08201261WA006430070900309044
B1845402838249N08201291WA006420071000809047
B1845452838219N08201271WA006370070901009054
B1845502838230N08201238WA006350070300709046
B1845552838272N08201267WA006320070100609052
B1846002838274N08201307WA006290069801309044
B1846052838242N08201289WA006180069200909051
B1846102838221N08201251WA006120068400509054
B1846152838224N08201209WA006090067900709051
B1846202838263N08201207WA006030066900609047
B1846252838289N08201247WA005940066000609047
B1846302838267N08201285WA005880065200709054
B1846352838230N08201297WA005790064300409052
B1846402838196N08201280WA005690063500809053
B1846452838178N08201240WA005660063200609057
B1846502838174N08201197WA005630063000509050
B1846552838198N08201171WA005500061800609048
B1847002838241N08201183WA005360060400409051
F1847050107080911232730
B1847052838277N08201213WA005260059200308050
F184710010708091116232730
B1847102838301N08201257WA005140057900609051
B1847152838306N08201303WA005080057200509053
B1847202838289N08201339WA004950056000309050
B1847252838261N08201371WA004920055300309053
B1847302838230N08201387WA004850054600909047
B1847352838233N08201349WA004690053500809055
B1847402838278N08201335WA004610052300409055
B1847452838322N08201346WA004550051500509055
B1847502838364N08201364WA004450050700409050
B1847552838404N08201383WA004340049500309047
B1848002838431N08201418WA004190048100709050
B1848052838447N08201463WA004030046400509050
B1848102838477N08201496WA003880044700409044
B1848152838516N08201519WA003700042700309051
B1848202838556N08201548WA003550040800309053
B1848252838590N08201580WA003380039000209050
B1848302838628N08201612WA003220037100309055
B1848352838667N08201640WA003090035700309053
B1848402838707N08201663WA003010034700409052
B1848452838748N08201681WA002930034000309050
B1848502838790N08201704WA002800033000409052
B1848552838832N08201725WA002720032200609051
B1849002838875N08201744WA002630031400609055
B1849052838924N08201754WA002530030400309054
B1849102838974N08201768WA002450029500309056
B1849152839023N08201781WA002350028500309055
B1849202839071N08201794WA002250027400209054
B1849252839119N08201793WA002130026200309056
B1849302839168N08201793WA002020025000309055
B1849352839217N08201799WA001940024200309060
B1849402839266N08201806WA001920023900409052
B1849452839306N08201831WA001870023400409047
B1849502839351N08201844WA001790022900409049
B1849552839395N08201840WA001740022300609052
B1850002839438N08201843WA001760022100709053
B1850052839420N08201873WA001770022301309052
B1850102839444N08201841WA001790022200709057
B1850152839464N08201872WA001840022601309052
B1850202839440N08201851WA001820022701309057
B1850252839486N08201839WA001850022500909048
B1850302839476N08201876WA001840022601009051
B1850352839467N08201843WA001880023001309050
B1850402839510N08201852WA001890023100709047
B1850452839498N08201894WA001870023501209050
B1850502839473N08201864WA001910023701309049
B1850552839514N08201855WA001930023800709051
B1851002839498N08201895WA001900023801409054
B1851052839466N08201874WA001950024201509054
B1851102839497N08201852WA002000024400809051
B1851152839504N08201893WA002040025101209043
B1851202839471N08201886WA002090025601309055
B1851252839493N08201849WA002160025801109054
F18513001070809111623272830
B1851302839512N08201886WA002200026701210054
B1851352839495N08201868WA002300027201210051
B1851402839533N08201875WA002380028001410046
B1851452839509N08201902WA002450029401010046
B1851502839504N08201865WA002530030100810051
B1851552839544N08201882WA002570030801410053
B1852002839519N08201911WA002650031400910049
B1852052839521N08201879WA002730031900910051
B1852102839561N08201904WA002800032701210047
B1852152839534N08201924WA002870033700910054
B1852202839540N08201884WA002930034300910053
B1852252839560N08201923WA003010034801110052
B1852302839529N08201925WA003030035500910054
B1852352839559N08201904WA003060035601310047
B1852402839557N08201949WA003100035901310054
B1852452839526N08201936WA003130036401010051
B1852502839548N08201909WA003090036400610047
B1852552839590N08201920WA003020035600710046
B1853002839587N08201966WA002990035100810053
B1853052839556N08201965WA003040035100910048
B1853102839579N08201952WA003080035301310042
B1853152839556N08201980WA003080035701110053
B1853202839540N08201950WA003110036201310051
B1853252839564N08201923WA003110036300510043
B1853302839593N08201945WA003080036201110040
B1853352839577N08201986WA003070036000510048
B1853402839543N08201990WA003090036100710046
B1853452839525N08201959WA003070036200610047
B1853502839541N08201925WA002970035600410048
B1853552839585N08201920WA002940035100510054
B1854002839622N08201948WA002930034700410051
B1854052839633N08201995WA002920034500410048
B1854102839604N08202011WA002890034201210055
B1854152839599N08201977WA002840033901010049
B1854202839638N08201998WA002840033601010050
B1854252839617N08202034WA002800033700910051
B1854302839584N08202019WA002820033601310049
B1854352839613N08201985WA002830033700610052
B1854402839646N08202011WA002880033901010049
B1854452839625N08202045WA002840034100610050
B1854502839594N08202025WA002880033901310048
B1854552839618N08201992WA002890033801210048
B1855002839653N08202024WA002900033900510052
B1855052839642N08202066WA002910034000710046
B1855102839610N08202051WA002910034101310050
B1855152839631N08202019WA002930034200910050
B1855202839640N08202055WA002930034300910047
B1855252839606N08202054WA002930034300810051
B1855302839618N08202020WA002960034600710045
B1855352839656N08202042WA002920034100410048
B1855402839653N08202085WA002930034200610047
B1855452839619N08202091WA002930034200610048
B1855502839607N08202055WA002930034401010055
B1855552839639N08202058WA002920034100910052
B1856002839613N08202081WA002930034401110045
B1856052839621N08202042WA002900034201010049
B1856102839659N08202036WA002920034401210044
B1856152839667N08202074WA002880034101110046
B1856202839635N08202094WA002820033800810048
B1856252839605N08202081WA002800033600710046
B1856302839614N08202046WA002740033100610045
B1856352839644N08202021WA002740032900510048
B1856402839660N08202058WA002750032701110048
B1856452839627N08202063WA002790032900910047
B1856502839651N08202031WA002740032900810050
B1856552839693N08202053WA002760033000510044
B1857002839691N08202097WA002750033000810050
B1857052839669N08202070WA002740032800910051
B1857102839705N08202072WA002790033001110045
B1857152839688N08202103WA002800033000810044
B1857202839665N08202078WA002790033101210049
B1857252839688N08202051WA002780033100910044
B1857302839723N08202077WA002790032800910049
B1857352839700N08202097WA002790033001110043
B1857402839695N08202062WA002780032701210045
B1857452839735N08202049WA002750032700610042
B1857502839758N08202079WA002740032601110045
B1857552839732N08202108WA002700032400610047
B1858002839700N08202105WA002690032201110044
B1858052839720N08202072WA002580031801210048
B1858102839759N08202090WA002580031501110051
B1858152839740N08202117WA002560031000510046
B1858202839717N08202089WA002550031000910048
B1858252839749N08202068WA002470030201010051
B1858302839782N08202097WA002480030101110049
B1858352839769N08202137WA002480030201110049
B1858402839738N08202107WA002470030000710050
B1858452839770N08202083WA002440029601010050
B1858502839785N08202120WA002460029600910048
B1858552839753N08202135WA002480029701010049
B1859002839758N08202094WA002490030001010043
B1859052839791N08202114WA002470030101010047
B1859102839770N08202148WA002510030101110047
B1859152839749N08202123WA002540030501010049
B1859202839784N08202108WA002520030400610048
B1859252839803N08202146WA002540030501010051
B1859302839775N08202163WA002580030601110050
B1859352839798N08202136WA002540030701110054
B1859402839787N08202180WA002630031001510051
B1859452839773N08202158WA002690031301010041
B1859502839814N08202179WA002700031401010055
B1859522839819N08202198WA002740031701010050
B1859532839818N08202206WA002760031901010047
E185954TPC
B1859542839812N08202211WA002770032101010044
B1859552839803N08202212WA002780032201110045
B1859562839795N08202210WA002780032300910044
B1859572839788N08202207WA002780032400910046
B1859582839783N08202203WA002770032600910047
B1859592839781N08202196WA002780032601110051
B1900002839783N08202186WA002790032701210054
B1900052839816N08202184WA002840033301110051
B1900102839800N08202217WA002890033701110050
B1900152839786N08202187WA002910033901210050
B1900202839827N08202182WA002940034001010055
B1900252839832N08202221WA003010034901110048
B1900302839798N08202218WA003050035201310048
B1900352839820N08202180WA003070035500710044
B1900402839858N08202202WA003090035500810057
B1900452839839N08202233WA003170036300810048
B1900502839843N08202198WA003220036701110053
B1900552839864N08202225WA003300037301310048
B1901002839833N08202217WA003370038100910054
B1901052839863N08202187WA003420038801210044
B1901102839882N08202224WA003490039700710047
B1901152839852N08202232WA003550040301010051
B1901202839863N08202196WA003640040801110045
B1901252839901N08202218WA003700041701210048
B1901302839875N08202248WA003750042600610049
B1901352839860N08202221WA003850043600610044
B1901402839901N08202213WA003880043900810049
B1901452839912N08202258WA003950044501110042
F190150010709111623272830
B1901502839878N08202263WA004000045301109052
F19015501070809111623272830
B1901552839876N08202225WA004050045800710052
B1902002839915N08202224WA004150046701010046
B1902052839894N08202247WA004190047001010047
B1902102839897N08202215WA004270047400710041
B1902152839934N08202212WA004340048200610044
B1902202839943N08202251WA004390048900610045
B1902252839923N08202282WA004460049500510044
B1902302839906N08202255WA004450049801410050
F190235070809111623272830
B1902352839941N08202225WA004490050301309055
F19024001070809111623272830
B1902402839970N08202256WA004580050901110042
B1902452839941N08202257WA004590051701210048
B1902502839957N08202219WA004640052100710054
B1902552839988N08202239WA004680052200510045
B1903002839967N08202267WA004680052200810052
B1903052839948N08202238WA004700052400810052
B1903102839969N08202203WA004740052800710050
B1903152840003N08202232WA004740053201110051
B1903202839980N08202256WA004800053700710047
B1903252839984N08202228WA004810054001310045
B1903302840017N08202248WA004790053700910045
B1903352840002N08202286WA004770053400610052
B1903402839971N08202291WA004750053300610048
B1903452839971N08202253WA004760053401310054
B1903502840010N08202270WA004730053400710051
B1903552840011N08202320WA004730053200810050
B1904002839978N08202336WA004750053300610055
B1904052839959N08202307WA004800053401010047
B1904102839998N08202315WA004830053601010046
B1904152839994N08202359WA004850054100910053
B1904202839967N08202371WA004900054600910045
B1904252839984N08202340WA004960055000810049
B1904302840017N08202362WA004980055301010051
B1904352840008N08202399WA005020055700510046
B1904402839979N08202393WA005000055800410048
B1904452839963N08202360WA005040056001210048
B1904502839995N08202337WA005070056300810049
B1904552840025N08202372WA005060056400510049
B1905002840025N08202418WA005100056500610052
B1905052840002N08202441WA005140056901010048
B1905102839999N08202403WA005190057301310052
B1905152840033N08202420WA005240058000910047
B1905202840008N08202445WA005330058901110042
B1905252839992N08202414WA005400059800610047
B1905302840025N08202409WA005510060601110046
B1905352840014N08202452WA005560062001010053
B1905402839987N08202432WA005630062500910044
B1905452840010N08202399WA005730063300810049
B1905502840029N08202438WA005790064201010050
B1905552839996N08202444WA005870065000710047
B1906002840005N08202408WA005970065701110044
B1906052840039N08202422WA006000066100710043
B1906102840038N08202466WA006070067000910048
B1906152840003N08202464WA006070067500810046
B1906202839994N08202427WA006190068101010043
B1906252840029N08202433WA006160068000810053
B1906302840038N08202481WA006200068300910051
B1906352840007N08202467WA006190068400910056
B1906402840026N08202425WA006280068801110050
B1906452840058N08202453WA006300069101010047
B1906502840041N08202494WA006350069700610050
B1906552840012N08202478WA006360070000610047
B1907002840009N08202438WA006400070500710057
B1907052840041N08202413WA006430070700710049
B1907102840063N08202447WA006470071001110046
B1907152840032N08202463WA006520071700710048
B1907202840032N08202432WA006550072200910050
B1907252840071N08202413WA006560072500510053
B1907302840104N08202441WA006570072100810048
B1907352840079N08202469WA006640072700710051
B1907402840070N08202440WA006710073301210044
B1907452840107N08202425WA006730073800810048
B1907502840132N08202462WA006710073800710047
B1907552840113N08202507WA006720074100510055
B1908002840085N08202508WA006720074000710048
B1908052840082N08202469WA006760074400510051
B1908102840112N08202478WA006790075001310041
B1908152840098N08202523WA006800075000610054
B1908202840067N08202517WA006790074800710047
B1908252840084N08202473WA006800074900610051
B1908302840114N08202442WA006850075100410050
B1908352840149N08202452WA006830075200810046
B1908402840139N08202492WA006820075200910049
B1908452840111N08202475WA006770074800910047
B1908502840123N08202434WA006740074300410052
B1908552840148N08202393WA006760074400410055
B1909002840184N08202372WA006840074800810048
B1909052840185N08202414WA006900075401110048
B1909102840157N08202403WA006950075801010046
B1909152840171N08202359WA007010076400710052
B1909202840211N08202359WA007040077100910051
B1909252840220N08202406WA007090077500810048
B1909302840190N08202403WA007150078300810047
B1909352840200N08202370WA007240079300910044
B1909402840239N08202389WA007260079600610046
B1909452840237N08202433WA007330080100810050
B1909502840206N08202425WA007360080500610049
B1909552840206N08202386WA007410081000910050
B1910002840241N08202374WA007420081200610047
B1910052840275N08202410WA007420081200610051
B1910102840265N08202451WA007480081700510043
B1910152840241N08202437WA007500081800610047
B1910202840255N08202403WA007550082300610049
B1910252840295N08202409WA007550082400610049
B1910302840317N08202454WA007570082800510046
B1910352840298N08202490WA007620083300410048
B1910402840271N08202480WA007640083500610049
B1910452840278N08202447WA007680083600710047
B1910502840319N08202453WA007680083800710049
B1910552840326N08202499WA007720084200910047
B1911002840299N08202498WA007720084400710048
B1911052840311N08202459WA007750084400610053
B1911102840349N08202453WA007760084500610046
B1911152840366N08202498WA007750084600710048
B1911202840338N08202516WA007770084900910047
B1911252840327N08202484WA007780085000510049
B1911302840351N08202457WA007810085300510046
B1911352840391N08202468WA007800085200610046
B1911402840411N08202514WA007810085300910046
B1911452840387N08202538WA007780085000810047
B1911502840375N08202507WA007760084800610046
B1911552840397N08202474WA007770084800310051
B1912002840421N08202446WA007750084800410047
B1912052840452N08202424WA007700084400310048
B1912102840473N08202395WA007630083900410045
B1912152840481N08202361WA007600083500610042
B1912202840497N08202326WA007610083300310048
B1912252840532N08202315WA007640083300810046
B1912302840541N08202358WA007610083201110047
B1912352840510N08202370WA007630083500510045
B1912402840487N08202354WA007640083700610047
B1912452840497N08202316WA007640083600810052
B1912502840538N08202319WA007710084100810044
B1912552840562N08202359WA007690084100810043
B1913002840546N08202396WA007660084000710046
B1913052840522N08202375WA007660083900810049
B1913102840530N08202330WA007670084000710053
B1913152840560N08202306WA007700084101010048
B1913202840574N08202348WA007670084101010044
B1913252840550N08202356WA007710084300810044
B1913302840557N08202323WA007750084600710045
B1913352840599N08202324WA007730084400710046
B1913402840621N08202362WA007670083900810044
B1913452840596N08202382WA007580083201110051
B1913502840570N08202352WA007590082901010051
B1913552840608N08202343WA007590082700910052
B1914002840605N08202381WA007560082501410046
B1914052840601N08202332WA007570082601110055
B1914102840631N08202305WA007550082600810046
B1914152840667N08202282WA007580082700410047
B1914202840673N08202248WA007550082600510050
B1914252840662N08202217WA007530082600310041
B1914302840659N08202180WA007530082600510044
B1914352840664N08202144WA007510082500510044
B1914402840677N08202106WA007500082400510047
B1914452840697N08202071WA007510082400310052
B1914502840722N08202037WA007520082400310046
B1914552840746N08202000WA007510082500410046
B1915002840760N08201956WA007460082200410051
B1915052840784N08201922WA007440081900410047
B1915102840818N08201893WA007410081600410048
B1915152840849N08201859WA007360081200510051
B1915202840874N08201825WA007350081000410049
B1915252840896N08201791WA007270080500410045
B1915302840909N08201752WA007160079400310047
B1915352840924N08201713WA007060078300310050
B1915402840940N08201676WA006960077300410048
B1915452840942N08201641WA006810076000310048
B1915502840934N08201605WA006710074800410048
B1915552840955N08201572WA006590073400710048
B1916002840985N08201546WA006450071800510048
B1916052841008N08201515WA006340070400310046
B1916102841025N08201481WA006250069200610048
B1916152841032N08201449WA006150068200410042
B1916202841029N08201414WA006040067200410048
B1916252841031N08201380WA005940066200510043
B1916302841044N08201343WA005800064800410050
B1916352841063N08201305WA005710063700410047
B1916402841093N08201276WA005650062800410045
B1916452841134N08201256WA005520061700310049
B1916502841174N08201237WA005410060500310049
B1916552841191N08201199WA005300059301010053
B1917002841191N08201160WA005220058400510045
B1917052841189N08201121WA005110057300410048
B1917102841185N08201076WA004980056100610049
B1917152841174N08201035WA004870054900310051
B1917202841166N08200994WA004790053800410049
B1917252841157N08200956WA004640052400310049
B1917302841146N08200918WA004510051100410048
B1917352841136N08200878WA004380049600310048
B1917402841129N08200835WA004290048600310052
B1917452841121N08200790WA004220047900310052
B1917502841119N08200747WA004140047300410050
B1917552841127N08200709WA004040046500310046
B1918002841126N08200670WA003930045300410046
B1918052841112N08200635WA003830044300410048
B1918102841100N08200601WA003720043200310042
B1918152841094N08200563WA003600041900310046
B1918202841096N08200521WA003460040200310048
B1918252841101N08200480WA003340038700510048
B1918302841110N08200438WA003220037300410046
B1918352841124N08200397WA003100036000310049
B1918402841127N08200357WA002990034800510046
B1918452841111N08200321WA002890033800510050
B1918502841086N08200291WA002750032500510053
B1918552841057N08200265WA002640031200510054
B1919002841030N08200236WA002490029800510053
B1919052841002N08200219WA002410028700410048
B1919102840974N08200224WA002290027700410050
B1919152840947N08200229WA002250027100410048
B1919202840921N08200217WA002200026600310046
B1919252840894N08200211WA002140026100410045
B1919302840860N08200204WA002100025800410052
B1919352840845N08200178WA002110025601210047
B1919402840888N08200177WA002070025301010049
B1919452840875N08200217WA002030024901010053
B1919502840845N08200203WA002010024700610050
B1919552840863N08200172WA002030024700910043
B1920002840897N08200202WA002020024700810050
B1920052840872N08200209WA002000024700910047
B1920102840870N08200171WA001990024600910044
B1920152840914N08200175WA001920023700810050
B1920202840913N08200218WA001900023300910048
B1920252840882N08200222WA001870022800710051
B1920302840887N08200193WA001830022501110044
B1920352840917N08200231WA001730022001210056
B1920402840898N08200261WA001720021601210051
B1920452840906N08200230WA001730021401310048
B1920502840931N08200264WA001710021301010049
B1920552840906N08200273WA001690021300910045
B1921002840909N08200243WA001680021301010047
B1921052840948N08200257WA001620020801010047
B1921102840944N08200296WA001590020400810046
B1921152840918N08200282WA001490019800910050
B1921202840908N08200249WA001460019300410048
B1921252840943N08200230WA001370018601010046
B1921302840959N08200276WA001300017701210051
B1921352840929N08200290WA001250016900810047
B1921402840924N08200254WA001170016101010053
B1921452840966N08200243WA001060015201110055
B1921502840967N08200285WA001030014701210049
B1921552840964N08200245WA000950014001210051
B1922002840993N08200267WA000830012801210055
B1922052840953N08200288WA000720011500810053
B1922102840919N08200307WA000630010600510054
B1922152840887N08200332WA000570010000410051
B1922202840854N08200349WA000440009000810057
B1922252840860N08200297WA000110007301110075
B1922302840886N08200238WA000000004800710061
B1922352840894N08200193WA-00050003100810051
B1922402840899N08200158WA-00070002400510032
B1922452840902N08200152WA-00070002400610004
B1922502840902N08200150WA-00060002500610007
B1922552840902N08200151WA-00070002600510000
B1923002840903N08200149WA-00060002500510000
B1923052840903N08200145WA-00060002600610007
B1923102840903N08200140WA-00060002700510005
B1923152840906N08200138WA-00060002700310000
B1923202840910N08200137WA-00060002600310000
B1923252840915N08200137WA-00060002600310000
B1923302840917N08200134WA-00060002500410002
B1923352840917N08200130WA-00060002500310005
B1923402840916N08200126WA-00060002500410006
B1923452840916N08200123WA-00060002500310006
B1923502840913N08200120WA-00060002500310010
B1923552840910N08200118WA-00060002500410000
B1924002840908N08200114WA-00060002600310000
B1924052840906N08200113WA-00060002600310000
B1924102840905N08200111WA-00060002700410003
B1924152840904N08200107WA-00060002600510000
B1924202840903N08200104WA-00060002600310003
B1924252840903N08200102WA-00060002700410002
B1924302840903N08200097WA-00060002700310000
B1924352840903N08200093WA-00060002800310000
B1924402840904N08200089WA-00060002800410000
B1924452840908N08200088WA-00050002800310000
B1924502840911N08200086WA-00050002900310000
B1924552840914N08200085WA-00050002900310000
B1925002840918N08200084WA-00050003000310000
B1925052840921N08200082WA-00050003000310000
B1925102840923N08200079WA-00050003000410000
G13D64F1D2DA177FFD3C901E87F7791875FFD6570B7E2B0947A3930C5B54EAFBC
