AFLY00AE 0100634
HFDTE070516
HFFXA010
HFPLTPILOT:KNUT RYERSON    
HFCM2CREW2:NKN
HFGTYGLIDERTYPE:AEROS           
HFGIDGLIDERID:NKN             
HFDTM100GPSDATUM:WGS84
HFRFWFIRMWAREVERSION: 1.04.13
HFRHWHARDWAREVERSION:1.00
HFFTYFRTYPE:Flytec Element Track
HFGPS:FASTRAX,IT430,48
HFPRSPRESSALTSENSOR:INTERSEMA,MS5401BM,12000
HFALGALTGPS:GEO
HFALPALTPRESSURE:ISA
HFTZNUTCOFFSET: -4.00h
I033638FXA3940SIU4143TAS
C070516163930070516001301
C2831982N08150800W TAKEOFF
C2831982N08150800W START  QUEST            00000000010000000000360000AREA
C2842911N08153802W TURN   TURN33           00000000000400000000360000AREA
C2757422N08136097W FINISH SUZANE           00000000000400000000360000AREA
C2757422N08136097W LANDING
F1755010709112327
B1755012831954N08150698WA000120003611305003
F1755020709112327
E175502TPC
B1755022831954N08150698WA000120003611005002
F1755030709112327
B1755032831954N08150698WA000120003610805003
F175504030709112327
B1755042831954N08150698WA000120003610006004
F175505030709112327
B1755052831952N08150700WA000120004004006004
F175506030709112327
B1755062831952N08150700WA000120004103206003
F175531030709112327
B1755312831952N08150698WA000120003901806000
F17560103070911232627
B1756012831952N08150698WA000130003900907000
F1756210307091116232627
E175621STA
E175621ATS1016.1
LFLYA1 00036
B1756212831982N08150718WA000130003600508022
B1756262832017N08150740WA000370004400808034
B1756312832050N08150758WA000610006200608008
B1756362832088N08150769WA000830009201008002
B1756412832129N08150781WA001040012000408000
B1756462832170N08150783WA001270014900408005
B1756512832210N08150784WA001560018000408015
B1756562832252N08150777WA001830021300308010
F175701030708091116232627
B1757012832291N08150777WA002110024400409008
B1757062832328N08150780WA002400027600209027
B1757112832367N08150780WA002690030500309035
B1757162832403N08150783WA003060033800309033
B1757212832438N08150783WA003260036600309010
B1757262832467N08150782WA003500039300309025
B1757312832495N08150783WA003740041700309031
B1757362832525N08150787WA003980044300209020
B1757412832553N08150796WA004260047000209021
B1757462832580N08150802WA004580050000309011
B1757512832608N08150808WA004850052800309030
B1757562832639N08150817WA005090055600309021
B1758012832669N08150826WA005280057600309005
B1758062832698N08150820WA005500059900309006
B1758112832725N08150811WA005730062300209012
B1758162832748N08150817WA006000065100309026
B1758212832771N08150833WA006200067400409026
B1758262832787N08150859WA006350069000409006
B1758312832800N08150889WA006540070800309009
B1758362832817N08150913WA006760073000609024
B1758412832829N08150931WA006930074600809000
B1758462832794N08150950WA006850074200909000
B1758512832748N08150920WA006870074000809005
B1758562832743N08150869WA006840073900709039
B1759012832765N08150862WA006820073600809041
B1759062832750N08150885WA006760073200909042
B1759112832696N08150860WA006690072201309043
B1759162832684N08150807WA006660071501009041
B1759212832702N08150791WA006570070800509037
B1759262832709N08150815WA006450069900509043
B1759312832690N08150842WA006450069500409048
B1759362832645N08150824WA006390069001109041
B1759412832640N08150774WA006300068100809042
B1759462832661N08150753WA006190067100509042
B1759512832687N08150754WA006090066100409043
B1759562832700N08150777WA005990065000509046
B1800012832670N08150806WA005890063700509044
B1800062832628N08150826WA005760062500609043
B1800112832582N08150841WA005650061100409046
B1800162832533N08150846WA005580060100409048
B1800212832488N08150829WA005510059400809038
B1800262832443N08150812WA005510059400709039
B1800312832407N08150839WA005450059200709049
B1800362832376N08150807WA005390058801209047
B1800412832406N08150810WA005310058000909050
B1800462832391N08150849WA005280057500709047
B1800512832339N08150853WA005240057101409051
B1800562832335N08150811WA005310056600909048
B1801012832327N08150838WA005340057101309047
B1801062832297N08150795WA005380057701109054
B1801112832319N08150798WA005460058401609050
B1801162832268N08150808WA005510059101409044
B1801212832265N08150765WA005580059801409045
B1801262832259N08150793WA005610060301209048
B1801312832214N08150779WA005640060701509049
B1801362832233N08150753WA005710061301409048
B1801412832197N08150766WA005700061501409049
B1801462832194N08150717WA005760061901009056
B1801512832202N08150738WA005770062101209055
B1801562832185N08150700WA005780062201109052
B1802012832207N08150685WA005780062600909042
B1802062832173N08150706WA005790062701009048
B1802112832183N08150677WA005700062201009050
B1802162832185N08150702WA005700061900809046
B1802212832142N08150708WA005740062201309050
B1802262832129N08150660WA005750062501209052
B1802312832139N08150672WA005710062101409047
B1802362832093N08150690WA005720062201209055
B1802412832092N08150665WA005680062301309051
B1802462832075N08150703WA005730062100609059
B1802512832034N08150685WA005790062401409046
B1802562832037N08150636WA005840063101309046
B1803012832052N08150651WA005870063501109050
B1803062831996N08150649WA005890063801709049
B1803112831993N08150596WA005910063801009051
B1803162832030N08150588WA005900063800909055
B1803212832020N08150626WA005920064000909051
B1803262831976N08150616WA005980064400909044
B1803312831994N08150597WA005990064301109047
B1803362831967N08150614WA005980064301409043
B1803412831926N08150570WA006000064701109051
B1803462831943N08150549WA006030064901009045
B1803512831937N08150584WA006010065000609049
B1803562831907N08150610WA006020065100509046
B1804012831861N08150584WA006020065101009043
B1804062831863N08150535WA006030065100709047
B1804112831893N08150527WA006010064900509049
F1804160307080916232627
B1804162831919N08150532WA006010064700508050
F180421030708091116232627
B1804212831935N08150556WA006020064800409048
F1804260708091116232627
B1804262831932N08150590WA005960064700408047
F180431030708091116232627
B1804312831908N08150630WA005910064300409051
B1804362831857N08150641WA005910064000909048
B1804412831841N08150595WA005950064201109049
B1804462831851N08150600WA006010064801209039
B1804512831809N08150620WA005970064501009046
B1804562831772N08150579WA006010064801309044
B1805012831786N08150542WA006050065300809052
B1805062831783N08150567WA006070065401309044
B1805112831731N08150551WA006070065501309049
B1805162831737N08150505WA006110066000809044
B1805212831756N08150513WA006130065900609042
B1805262831750N08150548WA006070065600709048
B1805312831699N08150556WA006050065501209049
B1805362831672N08150509WA006050065301009051
B1805412831687N08150527WA006100065201109044
B1805462831659N08150503WA006070065501209043
B1805512831681N08150490WA006070065401109052
B1805562831648N08150524WA006060065201609046
B1806012831611N08150486WA006030065101409041
B1806062831629N08150460WA006050065100509047
B1806112831626N08150486WA006040065001109049
B1806162831575N08150480WA006030065101309047
B1806212831560N08150431WA006030065201509046
B1806262831566N08150447WA005970065001109048
B1806312831521N08150458WA006000065301409040
B1806362831501N08150412WA006010065301009040
B1806412831516N08150397WA005970064900409046
B1806462831506N08150415WA005970064701109043
B1806512831456N08150381WA005980064601209045
B1806562831455N08150333WA005960064300809042
B1807012831444N08150356WA005980064301009050
B1807062831407N08150324WA006000064501109041
B1807112831414N08150324WA006040065001109038
B1807162831364N08150319WA006050065101209039
B1807212831335N08150273WA006140066201209040
B1807262831349N08150264WA006200066901109041
B1807312831314N08150287WA006200066801209045
B1807362831264N08150258WA006250066901309042
B1807412831273N08150234WA006340067401309045
B1807462831235N08150239WA006420068501409041
B1807512831234N08150207WA006520069901209039
B1807562831221N08150230WA006620071401009037
B1808012831187N08150187WA006650071901209054
B1808062831197N08150171WA006780072901509045
B1808112831160N08150189WA006880073801109043
B1808162831141N08150148WA006980074701709049
B1808212831152N08150171WA007010075001409050
B1808262831112N08150197WA007110075500909045
B1808312831107N08150158WA007210075701309041
B1808362831108N08150179WA007250076201409055
B1808412831080N08150139WA007360077601109037
B1808462831080N08150168WA007320078101609044
B1808512831038N08150207WA007420078900609029
B1808562830989N08150185WA007480079601309044
B1809012830990N08150146WA007560080701009052
B1809062830973N08150174WA007600081201309057
B1809112830922N08150142WA007660081600709049
B1809162830934N08150114WA007740081801009051
B1809212830917N08150149WA007830082901309051
B1809262830877N08150106WA007870083700809053
B1809312830892N08150078WA007990084400909048
B1809362830879N08150110WA008080085801109048
B1809412830827N08150082WA008160086701509049
B1809462830839N08150057WA008280088000809042
B1809512830828N08150092WA008340089001209054
B1809562830774N08150083WA008410089701609045
B1810012830782N08150039WA008490090100609049
B1810062830793N08150054WA008610091000909045
B1810112830740N08150072WA008660091901609052
B1810162830722N08150029WA008720092500709052
B1810212830732N08150043WA008780092901409055
B1810262830675N08150043WA008820093401509054
B1810312830654N08150002WA008890094300509046
B1810362830669N08150010WA008940094500709045
B1810412830658N08150046WA008990095200809048
B1810462830603N08150054WA009080095901309050
B1810512830580N08150009WA009150096801009048
B1810562830600N08150022WA009100096900809053
B1811012830571N08150067WA009170097201309053
B1811062830527N08150040WA009310098201309048
B1811112830546N08150048WA009430099901209046
B1811162830502N08150070WA009550101601309052
B1811212830486N08150030WA009580102301009055
B1811262830510N08150028WA009650102700709053
B1811312830484N08150066WA009750102901609052
B1811362830439N08150038WA009880104001309050
B1811412830456N08150046WA009910104600809058
B1811462830428N08150095WA010020105401209052
B1811512830366N08150089WA010090106301209044
B1811562830365N08150047WA010100106901009065
B1812012830381N08150060WA010240107700909046
B1812062830326N08150077WA010370108701209049
B1812112830292N08150044WA010490110200809048
B1812162830311N08150042WA010560111600509050
B1812212830301N08150083WA010670112401109051
B1812262830242N08150086WA010750113201309045
B1812312830221N08150036WA010810113700709058
B1812362830233N08150047WA010950114800809045
B1812412830189N08150080WA011070116001509051
B1812462830145N08150042WA011070116900909051
B1812512830167N08150022WA011190118000909059
B1812562830157N08150056WA011300118401509054
B1813012830107N08150036WA011370119201009057
B1813062830111N08150033WA011430119601109054
B1813112830065N08150064WA011510120601509054
B1813162830044N08150024WA011580121100709055
B1813212830054N08150037WA011710122901209047
B1813262830004N08150054WA011770123901409051
B1813312829970N08150015WA011840124800609051
B1813362829978N08150000WA011920125700409045
B1813412829969N08150036WA011960125901309050
B1813462829909N08150044WA012030126401409050
B1813512829890N08150002WA012060126600709051
B1813562829911N08150010WA012080126901109055
B1814012829888N08150045WA012150127401509046
B1814062829841N08150014WA012160128000609049
B1814112829841N08149977WA012220128300609050
B1814162829827N08150015WA012160128101409058
B1814212829762N08150007WA012220128501009053
B1814262829751N08149967WA012210128400909047
B1814312829771N08149961WA012210128600509052
B1814362829747N08149998WA012210128301409053
B1814412829684N08149990WA012250128301009048
B1814462829662N08149943WA012240128100509050
B1814512829682N08149917WA012260128100309056
B1814562829696N08149938WA012270128500609050
B1815012829648N08149960WA012240128401409052
B1815062829600N08149913WA012200128101209049
B1815112829602N08149861WA012220128200509058
B1815162829607N08149879WA012240128501109050
B1815212829551N08149905WA012240128401109053
B1815262829518N08149856WA012270128600909052
B1815312829529N08149851WA012320129100709046
B1815362829484N08149857WA012350129401309050
B1815412829455N08149803WA012380129800509048
B1815462829472N08149777WA012400130100509047
B1815512829471N08149801WA012430130400709051
B1815562829418N08149810WA012460131001609053
B1816012829387N08149758WA012520131400609045
B1816062829404N08149732WA012560131800609051
B1816112829392N08149758WA012600132001409050
B1816162829345N08149729WA012640132401309050
B1816212829357N08149691WA012670132600709049
B1816262829347N08149717WA012730133101309048
B1816312829302N08149690WA012790133901309050
B1816362829311N08149649WA012810134100709051
B1816412829318N08149673WA012860134500909052
B1816462829265N08149669WA012910135001009054
B1816512829260N08149615WA012970135500509051
B1816562829278N08149623WA013030136201009047
B1817012829240N08149646WA013060136401009053
B1817062829199N08149602WA013160137501409050
B1817112829213N08149570WA013190138200609052
B1817162829207N08149601WA013190138201009053
B1817212829154N08149590WA013230138501409054
B1817262829165N08149557WA013260138801009054
B1817312829142N08149581WA013270138601209056
B1817362829093N08149551WA013370139100909045
B1817412829113N08149533WA013350139300709049
F1817460708091116232627
B1817462829091N08149561WA013380139701308054
B1817512829045N08149526WA013410140001308053
B1817562829065N08149511WA013430140001208054
B1818012829031N08149524WA013480140601308049
B1818062829006N08149470WA013490140901608049
B1818112829024N08149469WA013510141300908051
B1818162828992N08149490WA013540141501408045
B1818212828950N08149450WA013540141701208049
B1818262828955N08149405WA013540141300908050
B1818312828971N08149417WA013580142000608046
B1818362828937N08149436WA013570142300708048
B1818412828884N08149414WA013580142300908047
B1818462828871N08149365WA013600142600708045
B1818512828886N08149367WA013640142900808045
B1818562828858N08149392WA013670143300608044
B1819012828808N08149391WA013690143400708043
B1819062828762N08149359WA013690143500508045
B1819112828754N08149315WA013660143000408044
B1819162828775N08149308WA013670143100708044
B1819212828769N08149339WA013660143200408049
B1819262828725N08149363WA013680143500508048
B1819312828673N08149360WA013690143600508047
B1819362828625N08149331WA013670143500708047
B1819412828616N08149282WA013640142800908051
B1819462828638N08149279WA013630142701008050
B1819512828614N08149314WA013620142901308053
B1819562828559N08149313WA013630142701108050
B1820012828543N08149266WA013620142401008050
B1820062828565N08149252WA013610142301308050
B1820112828547N08149284WA013590142301308055
B1820162828490N08149270WA013580142301208051
B1820212828472N08149219WA013590142101008048
B1820262828488N08149211WA013580142201008049
B1820312828468N08149241WA013590142300808049
B1820362828414N08149227WA013570142201008051
B1820412828396N08149177WA013550141801108047
B1820462828411N08149176WA013530141600808050
B1820512828393N08149210WA013550141900508050
B1820562828339N08149215WA013540141901108049
B1821012828306N08149169WA013500141501108048
B1821062828324N08149152WA013480141200908049
B1821112828309N08149184WA013470141100608052
B1821162828251N08149180WA013420140601408050
B1821212828205N08149144WA013380140301008051
B1821262828211N08149111WA013330139700908048
B1821312828216N08149137WA013320139700508049
B1821362828176N08149159WA013250139500608047
B1821412828119N08149155WA013230139100908046
B1821462828067N08149133WA013210138700708045
B1821512828015N08149108WA013130137900708045
B1821562827962N08149082WA013020136900508046
B1822012827905N08149067WA012940135900608045
B1822062827851N08149060WA012890135200308040
B1822112827801N08149051WA012790134200708041
B1822162827746N08149043WA012670133200308044
B1822212827693N08149032WA012560132100608043
B1822262827639N08149013WA012460130900608045
B1822312827590N08148988WA012360129800608042
B1822362827533N08148969WA012230128500708046
B1822412827479N08148958WA012120127300508042
B1822462827421N08148945WA012020126300608049
B1822512827366N08148928WA011950125400408045
B1822562827312N08148919WA011850124400408043
B1823012827259N08148915WA011730123400408046
B1823062827207N08148914WA011590122300408045
B1823112827153N08148909WA011440120900408046
B1823162827101N08148894WA011300119400608048
B1823212827054N08148866WA011150117800608046
B1823262827012N08148833WA011040116400508045
B1823312826965N08148822WA010990115500708046
B1823362826919N08148807WA010890114700908049
B1823412826897N08148758WA010820114200508048
B1823462826873N08148713WA010750113600408045
B1823512826833N08148684WA010690113000608045
B1823562826786N08148670WA010630112200608044
B1824012826739N08148674WA010560111400408046
B1824062826694N08148688WA010460110800408047
B1824112826647N08148702WA010360109900308047
B1824162826597N08148700WA010230108400708048
B1824212826544N08148691WA010110107000508047
B1824262826492N08148687WA009980105700408044
B1824312826437N08148691WA009820104200408047
B1824362826382N08148696WA009730103100708046
B1824412826330N08148678WA009680102200708049
B1824462826291N08148649WA009630101700508046
B1824512826277N08148602WA009600101500808051
B1824562826300N08148579WA009550101301408058
B1825012826303N08148619WA009480100801108047
B1825062826272N08148668WA009370099700708051
B1825112826223N08148695WA009300099000608050
B1825162826179N08148664WA009250098101208054
B1825212826176N08148635WA009300097901708048
B1825262826164N08148683WA009300098001208047
B1825312826111N08148673WA009290098101608049
B1825362826101N08148620WA009340098401408056
B1825412826129N08148629WA009360098800808052
B1825462826113N08148672WA009350098600908048
B1825512826058N08148664WA009350098601208052
B1825562826039N08148620WA009410098501308049
B1826012826054N08148638WA009420098801008045
B1826062826008N08148638WA009430099001408053
B1826112825981N08148587WA009490099901208053
B1826162825999N08148561WA009590101101608051
B1826212825991N08148601WA009610101501308047
B1826262825946N08148575WA009660101801308049
B1826312825953N08148540WA009790102601308041
B1826362825963N08148572WA009790103000608057
B1826412825924N08148603WA009840103501008053
B1826462825873N08148578WA009930104401108048
B1826512825884N08148545WA010050105101008050
B1826562825879N08148577WA010120105900908053
B1827012825830N08148572WA010250107201408048
B1827062825837N08148537WA010360108301408049
B1827112825844N08148570WA010460110601108050
B1827162825800N08148558WA010580111801108050
B1827212825807N08148520WA010700112801208050
B1827262825810N08148553WA010800114001108049
B1827312825772N08148531WA010880114601408053
B1827362825796N08148513WA010980115001308051
B1827412825775N08148547WA011060115501608053
B1827462825740N08148511WA011190116501408046
B1827512825765N08148500WA011300117601608051
B1827562825760N08148536WA011370119100808047
B1828012825713N08148528WA011460120301108047
B1828062825712N08148487WA011600121301508047
B1828112825729N08148512WA011680122300508046
B1828162825701N08148544WA011750123000708049
B1828212825660N08148521WA011850124301008049
B1828262825668N08148482WA011980125300708050
B1828312825688N08148505WA012080126600608045
B1828362825650N08148522WA012150127601408050
B1828412825636N08148486WA012290128601108047
B1828462825655N08148507WA012360129100808045
B1828512825620N08148529WA012430129700808045
B1828562825590N08148500WA012550131001308045
B1829012825615N08148481WA012650132101208048
B1829062825618N08148518WA012710133000808052
B1829112825575N08148512WA012810133801308047
B1829162825576N08148478WA012880134601308047
B1829212825598N08148505WA012960135800608044
B1829262825564N08148528WA012960136000808049
B1829312825523N08148505WA012950135700908049
B1829362825522N08148470WA013030135801008048
B1829412825537N08148506WA013080136300808049
B1829462825494N08148525WA013060136601008049
B1829512825458N08148484WA013050136601308051
B1829562825470N08148445WA013120136900908044
B1830012825488N08148468WA013230138000608044
B1830062825459N08148498WA013230138400708046
B1830112825410N08148493WA013220138500908047
B1830162825380N08148451WA013210138301208047
B1830212825402N08148429WA013260138500808050
B1830262825386N08148457WA013280139200708046
F183031070809111623262730
B1830312825334N08148432WA013250138901209057
B1830362825331N08148384WA013380139701009053
B1830412825343N08148411WA013470140401209059
B1830462825291N08148409WA013540140700909056
B1830512825295N08148368WA013710142001909053
B1830562825291N08148408WA013790143501009054
B1831012825235N08148403WA013890145000709055
B1831062825224N08148363WA014070146401509047
B1831112825244N08148393WA014230148100909051
B1831162825204N08148421WA014340149900709054
B1831212825169N08148388WA014500151301209049
B1831262825201N08148389WA014610152701409053
B1831312825173N08148425WA014740153901209056
B1831362825145N08148390WA014880154801309052
B1831412825179N08148395WA014990155801109058
B1831462825150N08148437WA015090157501009054
B1831512825116N08148409WA015220158700809054
B1831562825138N08148411WA015360159901109055
B1832012825096N08148435WA015420160901009057
B1832062825092N08148400WA015520161700909051
B1832112825101N08148436WA015600162500709055
B1832162825053N08148458WA015700163900509051
B1832212825039N08148424WA015750164001209052
B1832262825057N08148451WA015830164202009060
B1832312825003N08148482WA015930165001009050
B1832362824962N08148451WA015960166100809050
B1832412824981N08148427WA015970166401009052
B1832462824984N08148470WA015950166200809057
B1832512824935N08148496WA016010166300709054
B1832562824890N08148483WA015920166100909041
B1833012824849N08148450WA015820165400409048
B1833062824804N08148425WA015780164800309046
B1833112824749N08148412WA015730164200409050
B1833162824696N08148418WA015660163600409046
B1833212824640N08148435WA015620163200409048
B1833262824581N08148442WA015620163100209050
B1833312824522N08148429WA015610162900709055
B1833362824469N08148413WA015580162500309051
B1833412824411N08148404WA015580162500509052
B1833462824360N08148386WA015610162700409049
B1833512824316N08148357WA015630163100609050
B1833562824282N08148325WA015640163300609045
B1834012824241N08148300WA015530162500609050
B1834062824188N08148286WA015500161900309053
B1834112824134N08148278WA015530161800409054
B1834162824083N08148268WA015490161500309049
B1834212824035N08148259WA015450161100509049
B1834262823984N08148249WA015400160700309053
B1834312823930N08148245WA015440160700609052
B1834362823881N08148238WA015490160900409046
B1834412823832N08148223WA015440161000509047
B1834462823778N08148211WA015380160800409052
B1834512823723N08148199WA015330160400309051
B1834562823670N08148184WA015250159700609051
B1835012823613N08148174WA015200159000709056
B1835062823559N08148167WA015170158500309053
B1835112823507N08148155WA015110157900409050
B1835162823454N08148148WA015040157300509052
B1835212823400N08148145WA015010156900309052
B1835262823347N08148141WA014970156500309050
B1835312823293N08148140WA014900155900309052
B1835362823239N08148141WA014850155300509053
B1835412823192N08148148WA014750154600309045
B1835462823145N08148162WA014630153400409049
B1835512823095N08148149WA014540152300509051
B1835562823045N08148137WA014460151300409045
B1836012822990N08148136WA014370150300409048
B1836062822933N08148143WA014280149400309049
B1836112822876N08148148WA014200148500409048
B1836162822820N08148150WA014130147600609048
B1836212822768N08148153WA013990146500309048
B1836262822714N08148158WA013850145300409052
B1836312822664N08148163WA013770144300409045
B1836362822614N08148163WA013630143100409049
B1836412822562N08148165WA013480141400409045
B1836462822510N08148172WA013320139900309047
B1836512822456N08148165WA013160138200409048
B1836562822407N08148145WA013060136700609049
B1837012822361N08148134WA012940135300609048
B1837062822315N08148135WA012790133900409049
B1837112822267N08148132WA012630132500409057
B1837162822222N08148115WA012580131500609052
B1837212822183N08148093WA012530131100709049
B1837262822145N08148073WA012430130300609049
B1837312822110N08148043WA012350129500609049
B1837362822075N08148011WA012260128700209050
B1837412822037N08147981WA012180128000609054
B1837462821999N08147953WA012160127500609050
B1837512821999N08147919WA012110126901209052
B1837562822022N08147961WA012010126500809053
B1838012821995N08148005WA011990126100509050
B1838062821954N08147998WA011920125400509046
B1838112821926N08147959WA011860124700309047
B1838162821905N08147918WA011810124100309049
B1838212821886N08147876WA011760123700309051
B1838262821874N08147833WA011720123400309053
B1838312821866N08147790WA011710123300409050
B1838362821890N08147792WA011720123201109047
B1838412821879N08147839WA011700123100509049
B1838462821834N08147858WA011670122800509054
B1838512821789N08147849WA011630122400509048
B1838562821741N08147826WA011550121600709055
B1839012821696N08147800WA011560121400509055
B1839062821674N08147760WA011520121000609051
B1839112821695N08147749WA011550121101109051
B1839162821678N08147786WA011560121501209049
B1839212821646N08147757WA011520121000709048
B1839262821645N08147713WA011560121100609057
B1839312821660N08147725WA011580121401109048
B1839362821605N08147745WA011590121701009053
B1839412821590N08147707WA011640122001109051
B1839462821618N08147720WA011600121801209051
B1839512821612N08147768WA011650122100609048
B1839562821567N08147778WA011650122300709048
B1840012821542N08147741WA011650122300709053
B1840062821555N08147708WA011630122000909053
B1840112821586N08147712WA011640122100909051
B1840162821584N08147757WA011620122000809049
B1840212821557N08147799WA011610121800809047
B1840262821507N08147806WA011560121300909050
B1840312821460N08147818WA011520120900309047
B1840362821414N08147838WA011410120300409052
B1840412821365N08147848WA011360119600409045
B1840462821317N08147848WA011280118900609046
B1840512821264N08147856WA011120117800309051
B1840562821202N08147872WA011090116800509060
B1841012821167N08147839WA011140116301309057
B1841062821177N08147870WA011180116501109056
B1841112821128N08147884WA011300117201209057
B1841162821121N08147855WA011430118301609046
B1841212821098N08147881WA011530120000909047
B1841262821071N08147848WA011690122201309044
B1841312821074N08147867WA011790123701209049
B1841362821030N08147858WA011920125101509048
B1841412821048N08147843WA012020126301209047
B1841462821029N08147878WA012150128100409049
B1841512820989N08147854WA012310129501109052
B1841562821009N08147855WA012440130301109051
B1842012820963N08147873WA012610132501509048
B1842062820972N08147849WA012750133801309053
B1842112820952N08147884WA012910135901209054
B1842162820925N08147844WA013120137501409046
B1842212820939N08147860WA013300139400509046
B1842262820898N08147871WA013490141301509050
B1842312820900N08147836WA013680143102109047
B1842362820878N08147867WA013820144500809050
B1842412820855N08147828WA014000145401709051
B1842462820868N08147852WA014180147000809046
B1842512820828N08147846WA014340149401309046
B1842562820847N08147832WA014450150701209053
B1843012820827N08147866WA014630152400809049
B1843062820794N08147831WA014820154401309042
B1843112820819N08147828WA014940156001209052
B1843162820814N08147870WA015100158000509046
B1843212820778N08147902WA015240159600409049
B1843262820730N08147902WA015380160900409048
B1843312820703N08147866WA015500162100509045
B1843362820720N08147835WA015600163001109049
B1843412820748N08147850WA015770164600809047
B1843462820742N08147890WA015920166200609044
B1843512820700N08147881WA016020167500909048
B1843562820686N08147838WA016170168800509046
B1844012820708N08147819WA016300169901109048
B1844062820721N08147860WA016410171200509049
B1844112820683N08147878WA016510172200809047
B1844162820662N08147841WA016600173201309046
B1844212820692N08147821WA016730174001209047
B1844262820715N08147853WA016770174500509048
B1844312820698N08147898WA016710174300609048
B1844362820652N08147915WA016700173900809055
B1844412820615N08147883WA016810174600509053
B1844462820605N08147839WA016890175600409052
B1844512820621N08147805WA017020177000909049
F1844560708091116232730
B1844562820647N08147825WA017060177700908049
B1845012820637N08147876WA017030177601008054
B1845062820604N08147913WA017050177800808049
B1845112820557N08147908WA017120178300608050
B1845162820543N08147865WA017180179000708046
B1845212820564N08147835WA017240179401008050
B1845262820577N08147870WA017240179601508049
B1845312820534N08147903WA017210179501308050
B1845362820485N08147893WA017270179800908052
B1845412820489N08147850WA017310180101508046
B1845462820518N08147838WA017290180500608048
B1845512820532N08147878WA017250180201108055
B1845562820488N08147907WA017190179601008055
B1846012820443N08147880WA017180179400708049
B1846062820457N08147850WA017180179301108050
B1846112820463N08147882WA017210179501308046
B1846162820410N08147894WA017170179301608057
B1846212820374N08147854WA017170179100608050
B1846262820362N08147806WA017190179200408047
B1846312820367N08147768WA017260179601208050
B1846362820376N08147797WA017260179701008047
B1846412820331N08147831WA017290179901108052
B1846462820280N08147836WA017310180100808047
B1846512820232N08147829WA017320180400808041
B1846562820183N08147823WA017340180600608044
B1847012820144N08147800WA017330180700808045
B1847062820102N08147770WA017320180701008047
B1847112820061N08147788WA017300180501108048
B1847162820034N08147825WA017230180000808045
B1847212820004N08147860WA017190179600708047
B1847262819963N08147888WA017100178900508050
B1847312819920N08147917WA016990177900608057
B1847362819876N08147940WA016970177200708049
B1847412819830N08147952WA016900176400508047
F184746010708091116232730
B1847462819784N08147967WA016760175500309051
B1847512819743N08147989WA016680174700509045
B1847562819705N08148013WA016630173700209049
B1848012819663N08148039WA016550173100409046
B1848062819617N08148073WA016510172500409055
B1848112819564N08148097WA016510172200409054
B1848162819512N08148118WA016500171900409053
B1848212819461N08148143WA016440171600309053
B1848262819413N08148176WA016440171500409054
B1848312819361N08148205WA016420171400309055
B1848362819303N08148222WA016430171400409053
B1848412819246N08148231WA016420171400609051
B1848462819190N08148239WA016410171400509053
B1848512819130N08148249WA016360171300609057
B1848562819073N08148255WA016420171500309050
B1849012819020N08148260WA016420171500409048
B1849062818965N08148257WA016410171500609045
B1849112818910N08148255WA016400171400309048
B1849162818854N08148257WA016310170900509044
B1849212818794N08148260WA016200169800509051
B1849262818744N08148284WA016060168500409050
B1849312818701N08148314WA015920166900309047
B1849362818652N08148337WA015790165500309049
B1849412818602N08148353WA015650164000609046
B1849462818551N08148372WA015460162300309049
B1849512818506N08148396WA015350160900409045
B1849562818460N08148415WA015230159600309047
B1850012818408N08148417WA015100158200509046
B1850062818354N08148397WA014960156800609055
B1850112818301N08148413WA014860155700609050
B1850162818264N08148456WA014800155000509052
B1850212818233N08148492WA014760154500409047
B1850262818198N08148525WA014660153600309050
B1850312818164N08148558WA014580152800309044
B1850362818128N08148593WA014460151700309050
B1850412818092N08148628WA014390150800309050
B1850462818057N08148652WA014340150100309042
B1850512818013N08148670WA014220149000309048
B1850562817962N08148681WA014140148000409049
B1851012817911N08148688WA014050147300309047
B1851062817864N08148701WA014000146600409047
B1851112817823N08148721WA013950146200409046
B1851162817783N08148736WA013890145600309044
B1851212817735N08148738WA013790144700309045
B1851262817686N08148743WA013710143800309045
B1851312817636N08148758WA013620142800209049
B1851362817590N08148781WA013540142000309047
B1851412817546N08148804WA013440140900509047
B1851462817500N08148825WA013360140000209049
B1851512817453N08148834WA013290139200509044
B1851562817403N08148841WA013160138200309048
B1852012817352N08148846WA013060137200309047
B1852062817301N08148842WA013020136500309044
B1852112817249N08148835WA012960136000409047
B1852162817194N08148837WA012930135600409050
B1852212817152N08148851WA012910135400509043
B1852262817113N08148873WA012860135200309043
B1852312817074N08148899WA012830134900309047
B1852362817039N08148926WA012820134900509047
B1852412816998N08148949WA012780134600309046
B1852462816959N08148972WA012700133900309050
B1852512816929N08149000WA012660133500309046
B1852562816903N08149031WA012600132900309046
B1853012816873N08149061WA012530132200309048
B1853062816835N08149088WA012470131400309050
B1853112816792N08149102WA012410130800309046
B1853162816742N08149110WA012280129500309051
B1853212816691N08149112WA012190128300309047
B1853262816644N08149111WA012080127300309048
B1853312816600N08149107WA011990126100309045
B1853362816555N08149101WA011840124800509049
B1853412816509N08149102WA011740123700309046
F1853460107080911232730
B1853462816467N08149113WA011580122200308046
F185351010708091116232730
B1853512816429N08149133WA011400120400409050
B1853562816391N08149150WA011280119000309045
B1854012816352N08149168WA011110117400609048
B1854062816309N08149182WA010980115900309047
B1854112816261N08149190WA010860114600409049
B1854162816212N08149196WA010730113400309051
B1854212816163N08149209WA010590112100309052
B1854262816116N08149227WA010490110800309050
B1854312816068N08149249WA010410109900309052
B1854362816023N08149274WA010370109300309050
B1854412815982N08149301WA010290108500309048
B1854462815938N08149327WA010210107700309051
B1854512815886N08149348WA010170107300309054
B1854562815836N08149370WA010150107100309053
B1855012815787N08149381WA010190107300809047
B1855062815770N08149343WA010210107700809044
B1855112815790N08149355WA010200107800609046
B1855162815762N08149384WA010180107601109047
B1855212815715N08149358WA010190107501409045
B1855262815733N08149343WA010180107400609048
B1855312815735N08149379WA010170107400709048
B1855362815702N08149410WA010150107500709048
B1855412815663N08149383WA010140107301209051
B1855462815674N08149347WA010150107200709047
B1855512815664N08149376WA010110106901009049
B1855562815612N08149375WA010110106801009050
B1856012815576N08149335WA010150107300909050
F18560601070809111623272830
B1856062815587N08149307WA010220107700710045
B1856112815590N08149336WA010250108000710049
B1856162815544N08149347WA010230108100610047
B1856212815512N08149309WA010280108700610051
B1856262815530N08149303WA010340109101010045
B1856312815504N08149333WA010360109200910045
B1856362815464N08149301WA010400109501410053
B1856412815480N08149298WA010470110400610048
B1856462815459N08149337WA010470110501010048
B1856512815408N08149324WA010530111400510052
B1856562815415N08149296WA010610112400810045
B1857012815414N08149334WA010660112601010048
B1857062815365N08149346WA010730113400810049
B1857112815345N08149315WA010790114200510046
B1857162815368N08149304WA010820114200610054
B1857212815377N08149343WA010860114400610052
B1857262815337N08149363WA010890114800810047
B1857312815317N08149326WA010950115401010049
B1857362815327N08149349WA011000115800710045
B1857412815286N08149373WA011030116500510044
B1857462815263N08149344WA011070117200710044
B1857512815290N08149341WA011070117200910051
B1857562815301N08149376WA011080117200710048
B1858012815266N08149411WA011050117000510052
B1858062815220N08149401WA011060117200510046
B1858112815222N08149367WA011070117200710047
B1858162815241N08149397WA011050116800410051
B1858212815235N08149438WA011060116800410049
B1858262815226N08149478WA011100117100310049
B1858312815224N08149521WA011070116900310051
B1858362815226N08149563WA011070116800210052
B1858412815221N08149600WA011050116500510050
B1858462815221N08149636WA011040116300210051
B1858512815221N08149670WA010910115700310049
B1858562815226N08149705WA010790114500210052
B1859012815236N08149736WA010630113000210048
B1859062815257N08149760WA010520111300310054
B1859112815281N08149759WA010430110400410050
B1859162815308N08149742WA010280109000310055
B1859212815336N08149737WA010210108200410047
B1859262815365N08149736WA010100107100410053
B1859312815387N08149743WA009940105400310045
B1859362815409N08149751WA009750103600410047
B1859412815431N08149728WA009590101900610043
F185946010708091623272830
B1859462815425N08149671WA009450100200609053
F18595101070809111623272830
B1859512815419N08149618WA009380099300610048
B1859562815428N08149575WA009290098400410047
B1900012815443N08149534WA009150097200310050
B1900062815468N08149509WA009030096000310051
B1900112815496N08149512WA008870094500410049
B1900162815516N08149533WA008720092900210046
B1900212815533N08149556WA008560091200210046
B1900262815553N08149579WA008370089400310048
B1900312815552N08149612WA008190087400510047
B1900362815506N08149625WA007990085300610054
B1900412815465N08149590WA007920084000810040
B1900462815450N08149535WA007800082900510047
B1900512815430N08149481WA007660081800510049
B1900562815394N08149437WA007510080300610048
B1901012815351N08149405WA007370078700310048
B1901062815303N08149380WA007260077500610045
B1901112815250N08149353WA007190076600610054
B1901162815215N08149314WA007110075800810053
B1901212815240N08149292WA007090075500810053
B1901262815243N08149327WA007060075400610047
B1901312815198N08149334WA006960074701110050
B1901362815169N08149288WA006970074800910046
B1901412815181N08149259WA007040075100910046
B1901462815182N08149297WA007040075401010050
B1901512815138N08149295WA007020075100810047
B1901562815141N08149254WA007010074900810053
B1902012815162N08149280WA007020075000910050
B1902062815126N08149300WA006980074901010043
B1902112815114N08149259WA006970075300610050
B1902162815134N08149266WA006960074800410045
B1902212815113N08149302WA006880074000510044
B1902262815077N08149275WA006830073000810049
B1902312815092N08149255WA006830073100710041
B1902362815097N08149289WA006790072800510044
B1902412815059N08149310WA006710072100710042
B1902462815012N08149299WA006630071200510044
B1902512814986N08149259WA006560070701210049
B1902562815003N08149224WA006580070601010058
B1903012814997N08149258WA006560070701110055
B1903062814939N08149229WA006540070501010048
B1903112814935N08149180WA006590070901010060
B1903162814939N08149213WA006590070701210053
B1903212814912N08149187WA006640070601010045
B1903262814936N08149185WA006690071100810041
B1903312814897N08149212WA006720071700910042
B1903362814879N08149183WA006810072800810037
B1903412814902N08149206WA006820073200510047
B1903462814881N08149247WA006860073200710043
B1903512814850N08149224WA006770073101410045
B1903562814871N08149192WA006780073100710056
B1904012814875N08149228WA006800072701410050
B1904062814832N08149213WA006760072401110047
B1904112814842N08149187WA006820072801010041
B1904162814839N08149232WA006810072800810051
B1904212814796N08149234WA006770072800610039
B1904262814786N08149187WA006710072501010048
B1904312814815N08149168WA006750072500610056
B1904362814811N08149201WA006720072000810044
B1904412814765N08149218WA006700071900610045
B1904462814717N08149196WA006670071600910047
B1904512814710N08149153WA006680071800610052
B1904562814740N08149146WA006690071700910055
B1905012814727N08149172WA006740071901010045
B1905062814717N08149130WA006740071900810051
B1905112814720N08149153WA006830072601010037
B1905162814678N08149147WA006860073201210044
B1905212814676N08149112WA006890073600910038
B1905262814695N08149138WA006940074001210048
B1905312814656N08149159WA006950074100910049
B1905362814616N08149133WA006970074500910043
B1905412814622N08149087WA007020074900610052
B1905462814639N08149107WA007040075000510051
B1905512814591N08149123WA007060075400710037
B1905562814551N08149099WA007140076500510042
B1906012814568N08149074WA007170076701210044
B1906062814586N08149107WA007240077200810047
B1906112814548N08149118WA007320078000610042
B1906162814552N08149083WA007340078300910045
B1906212814560N08149118WA007400078600910053
B1906262814525N08149097WA007420079000810048
B1906312814550N08149095WA007430079100410053
B1906362814526N08149119WA007460079300910039
B1906412814505N08149077WA007470079501110041
B1906462814515N08149038WA007500079800810047
B1906512814535N08149041WA007460079600810044
B1906562814524N08149085WA007380078800910050
B1907012814477N08149100WA007350078700810046
B1907062814454N08149068WA007370078701310039
B1907112814484N08149065WA007320078400610051
B1907162814481N08149105WA007220077501110050
B1907212814443N08149130WA007160076800510047
B1907262814396N08149122WA006970075300610043
B1907312814352N08149097WA006910074400610041
B1907362814307N08149077WA006890074000310045
B1907412814271N08149051WA006890073800410047
B1907462814284N08149022WA006820073500710057
B1907512814292N08149057WA006820073100810043
B1907562814255N08149085WA006800072900410042
B1908012814210N08149089WA006800072700310039
B1908062814166N08149078WA006730072300610048
B1908112814128N08149051WA006620071500410043
B1908162814082N08149030WA006540070600510048
B1908212814029N08149021WA006470069800510049
B1908262813977N08149003WA006430069200410045
B1908312813928N08148983WA006420069000410043
B1908362813878N08148977WA006380068700410044
B1908412813827N08148969WA006300068000410047
B1908462813773N08148955WA006260067400710046
B1908512813727N08148924WA006210067000410038
B1908562813681N08148891WA006220066800510043
B1909012813630N08148885WA006200066500510050
B1909062813594N08148853WA006210066701110047
B1909112813614N08148834WA006170066201010046
B1909162813609N08148878WA006120065700810047
B1909212813569N08148907WA006140065800510046
B1909262813518N08148918WA006110065800410048
B1909312813476N08148895WA006090065700810044
B1909362813490N08148854WA006010065001010043
B1909412813523N08148831WA005990064800610051
B1909462813554N08148839WA005970064500410045
F190951010708091123272830
B1909512813567N08148862WA005980064401209045
F19095601070809111623272830
B1909562813524N08148849WA005920063701410051
B1910012813546N08148804WA005960063501110041
B1910062813571N08148780WA005960063600610049
B1910112813578N08148806WA005980063701010047
B1910162813524N08148801WA005940063801010039
B1910212813501N08148750WA005950064001010044
B1910262813525N08148733WA005930064000610041
B1910312813534N08148762WA005970064000510054
B1910362813491N08148756WA005980064201210042
B1910412813488N08148705WA005990064201010047
B1910462813513N08148712WA006000064600610046
B1910512813502N08148751WA006040064700710049
B1910562813460N08148773WA006060065100510042
B1911012813410N08148752WA006040065201010046
B1911062813389N08148695WA006070065500710058
B1911112813398N08148701WA006060065401010047
B1911162813339N08148704WA006120065500710054
B1911212813337N08148672WA006160065801310043
B1911262813348N08148703WA006200066300710049
B1911312813308N08148711WA006290067100710044
B1911362813306N08148662WA006390068001410050
B1911412813317N08148686WA006440068601110047
B1911462813275N08148706WA006520069301210045
B1911512813252N08148661WA006590070500710046
B1911562813274N08148661WA006660071000710048
B1912012813247N08148695WA006730072000610051
B1912062813207N08148669WA006800072700810046
B1912112813224N08148636WA006890073501010048
B1912162813214N08148670WA006940074200610049
B1912212813170N08148652WA007050075200810046
B1912262813185N08148624WA007120075900810046
B1912312813189N08148651WA007200076601110039
B1912362813145N08148656WA007310077801410037
B1912412813141N08148613WA007400078801310044
B1912462813157N08148633WA007460079501010048
B1912512813126N08148660WA007540080200610041
B1912562813087N08148640WA007620081101210042
B1913012813106N08148636WA007680081501110044
B1913062813081N08148670WA007730082000410046
B1913112813031N08148659WA007810082901010044
B1913162813028N08148619WA007870083701010045
B1913212813054N08148634WA007900084000910053
B1913262813018N08148660WA007960084600810043
B1913312812987N08148621WA008010085300810044
B1913362813009N08148607WA008060085400610048
B1913412812994N08148645WA008100086000710047
B1913462812948N08148627WA008170087001210041
B1913512812954N08148590WA008230087500810042
B1913562812971N08148614WA008260087900410049
B1914012812934N08148639WA008320088401110044
B1914062812900N08148596WA008410089201010047
B1914112812917N08148584WA008450089801110046
B1914162812889N08148614WA008470090000810043
B1914212812849N08148587WA008540090800710041
B1914262812863N08148577WA008570091000610040
B1914312812861N08148613WA008600091400610044
B1914362812813N08148625WA008630091400610044
B1914412812767N08148589WA008660091200610052
B1914462812775N08148567WA008700091501010046
B1914512812760N08148598WA008760092400810046
B1914562812718N08148578WA008780093001310045
B1915012812733N08148557WA008800093201210045
B1915062812730N08148585WA008860093500610044
B1915112812686N08148605WA008920094200410043
B1915162812642N08148579WA008900094400910044
B1915212812647N08148532WA008840093901110049
B1915262812672N08148514WA008850093700510052
B1915312812663N08148539WA008850093601010045
B1915362812627N08148503WA008880094001310045
B1915412812641N08148481WA008900094201210047
B1915462812610N08148507WA008910094401310044
B1915512812574N08148464WA008930094601110039
B1915562812584N08148434WA008970094900710042
B1916012812593N08148455WA008990094900510040
B1916062812549N08148477WA009050095301010041
B1916112812531N08148429WA009060095800910047
B1916162812552N08148430WA009100096000710047
B1916212812529N08148461WA009170096301210044
B1916262812496N08148425WA009220096901310041
B1916312812503N08148436WA009290097700710036
B1916362812460N08148455WA009320098400710043
B1916412812424N08148419WA009330098800610042
B1916462812433N08148375WA009310098700610052
B1916512812450N08148379WA009380098900910044
B1916562812413N08148412WA009420099500710052
B1917012812387N08148376WA009440100001010042
B1917062812395N08148399WA009470100200810048
B1917112812348N08148389WA009530100601110042
B1917162812349N08148351WA009520100600710041
B1917212812369N08148364WA009530100700510048
B1917262812356N08148405WA009560100900810044
B1917312812310N08148424WA009580101101010043
B1917362812287N08148379WA009510100800810046
B1917412812311N08148356WA009490100601010050
B1917462812326N08148376WA009530100401110047
B1917512812273N08148381WA009490100401210048
B1917562812271N08148331WA009490100301010048
B1918012812296N08148326WA009520100600910044
B1918062812283N08148358WA009580100800610043
B1918112812231N08148349WA009610101101310048
B1918162812223N08148307WA009660101900810044
B1918212812243N08148319WA009680102400610047
B1918262812205N08148346WA009730102901110051
B1918312812175N08148303WA009770103101110048
B1918362812193N08148304WA009850103501210044
B1918412812154N08148326WA009880104001110043
B1918462812119N08148287WA009920104900810043
B1918512812139N08148277WA009920105100710044
F191856070809111623272830
B1918562812118N08148313WA009960105200609042
F19190101070809111623272830
B1919012812065N08148304WA009950105000910043
B1919062812052N08148254WA009970105200910043
B1919112812075N08148237WA010000105201110044
B1919162812044N08148262WA010030105500610042
B1919212812002N08148234WA010050105900810042
B1919262811995N08148187WA010080106300510046
B1919312812016N08148185WA010090106300510048
B1919362812002N08148226WA010090106400710049
B1919412811961N08148253WA010120106800410045
B1919462811915N08148236WA010130106900910044
B1919512811913N08148190WA010140107200910042
B1919562811937N08148179WA010160107400710044
B1920012811930N08148212WA010180107600710045
B1920062811882N08148223WA010190107700510046
B1920112811857N08148177WA010190107800710046
B1920162811873N08148139WA010170107601110049
B1920212811890N08148169WA010150107300610048
B1920262811858N08148200WA010160107300910044
B1920312811811N08148173WA010150107101210044
B1920362811810N08148126WA010160107201010040
B1920412811837N08148133WA010110106900810045
B1920462811826N08148172WA010110106900610049
B1920512811781N08148158WA010110106901210044
B1920562811790N08148114WA010090106500910047
B1921012811821N08148112WA010080106400810049
B1921062811819N08148147WA010050106100910044
B1921112811766N08148154WA010020105800610046
B1921162811739N08148112WA010040105901010042
B1921212811760N08148098WA010010105701310044
B1921262811766N08148132WA009980105400710050
B1921312811720N08148138WA009940104900710044
B1921362811705N08148089WA009890104400810047
B1921412811732N08148072WA009850104000510038
B1921462811756N08148087WA009820103700510041
B1921512811742N08148122WA009780103400710044
B1921562811693N08148121WA009750103300810044
B1922012811660N08148079WA009710103100410042
B1922062811663N08148034WA009660102400410044
B1922112811682N08148004WA009600101700510049
B1922162811710N08148002WA009530101100410046
B1922212811730N08148029WA009480100500310049
B1922262811726N08148066WA009480100400410049
B1922312811688N08148065WA009500100500510038
B1922362811677N08148021WA009480100400810038
B1922412811700N08148002WA009420099900610042
B1922462811728N08148009WA009430099700410044
B1922512811735N08148035WA009500100001110042
B1922562811693N08148031WA009490100001010042
B1923012811691N08147982WA009530100500910045
B1923062811715N08147986WA009630101200510048
B1923112811679N08147990WA009700102000710044
B1923162811687N08147947WA009800102601110045
B1923212811692N08147970WA009940103900810040
B1923262811655N08147956WA010010104901010045
B1923312811672N08147930WA010120106301110043
B1923362811649N08147955WA010210107201110048
B1923412811633N08147912WA010280108001410049
B1923462811634N08147938WA010380108901510049
B1923512811608N08147902WA010450110001010045
B1923562811630N08147894WA010560111101010045
B1924012811594N08147904WA010630111800610046
B1924062811590N08147865WA010730112501010042
B1924112811596N08147889WA010830113800710043
B1924162811556N08147871WA010890114901010046
B1924212811561N08147830WA010990115701010041
B1924262811584N08147836WA011100116900810042
B1924312811560N08147860WA011220118400510043
B1924362811529N08147829WA011320119301010040
B1924412811548N08147811WA011430120301210040
B1924462811535N08147843WA011530120900910046
B1924512811504N08147810WA011590121901110045
B1924562811529N08147783WA011670122601210048
B1925012811524N08147812WA011770123500910044
B1925062811479N08147793WA011850124800910047
B1925112811490N08147755WA011940125601210045
B1925162811485N08147788WA012030126300810050
B1925212811442N08147763WA012120126900910055
B1925262811464N08147751WA012120127300910055
B1925312811439N08147790WA012290128401110045
B1925362811423N08147757WA012340129201210045
B1925412811447N08147760WA012460130100810042
B1925462811412N08147776WA012520130900810044
B1925512811387N08147733WA012610132000610043
B1925562811415N08147727WA012630132800610051
B1926012811403N08147755WA012770133800710042
B1926062811377N08147717WA012830134700610051
B1926112811398N08147714WA012940135701110047
B1926162811377N08147758WA013100137101110050
B1926212811342N08147723WA013180138001410043
B1926262811375N08147708WA013250138701010059
B1926312811358N08147734WA013370139401210049
B1926362811333N08147694WA013530140801310043
B1926412811357N08147693WA013660142801210045
B1926462811320N08147721WA013750144001210049
B1926512811299N08147675WA013900145101310053
B1926562811314N08147693WA013960146000810053
B1927012811262N08147714WA014020146600810055
B1927062811268N08147692WA014120147801310047
B1927112811244N08147731WA014220149201110042
B1927162811209N08147700WA014240149501210045
B1927212811228N08147677WA014330149801110053
B1927262811225N08147711WA014470150501210045
B1927312811173N08147697WA014470151201310050
B1927362811181N08147664WA014590152301010052
B1927412811174N08147702WA014730153901010051
B1927462811135N08147682WA014780154801410045
B1927512811153N08147661WA014870155400810054
B1927562811173N08147666WA015040156300910050
B1928012811133N08147686WA015180157600910046
B1928062811121N08147647WA015280158700910048
B1928112811139N08147640WA015340159801310049
B1928162811106N08147675WA015470161101210047
B1928212811100N08147639WA015590162501310050
B1928262811082N08147679WA015720164501210048
B1928312811057N08147652WA015850166301410044
B1928362811059N08147683WA015990167001110047
B1928412811010N08147675WA016040167600710050
B1928462811019N08147644WA016100167801110053
B1928512811007N08147683WA016200168400510054
B1928562810973N08147656WA016240168901310052
B1929012810994N08147669WA016330169701110051
B1929062810942N08147674WA016380170700910046
B1929112810952N08147639WA016410171100910056
B1929162810958N08147671WA016500171501010048
B1929212810905N08147673WA016520172001110051
B1929262810912N08147644WA016560172501210050
B1929312810895N08147684WA016620173300710052
B1929362810848N08147667WA016630173501010048
B1929412810865N08147650WA016640173701010052
B1929462810833N08147677WA016680174201110044
B1929512810812N08147640WA016710174200910043
B1929562810828N08147646WA016740174501110044
B1930012810793N08147677WA016780174901310044
B1930062810760N08147644WA016770175201310046
B1930112810772N08147618WA016820175400710041
B1930162810786N08147639WA016790175100810046
B1930212810750N08147671WA016760175000910048
B1930262810707N08147643WA016760174901110049
B1930312810701N08147599WA016710174400510043
B1930362810694N08147557WA016600173700410042
B1930412810664N08147516WA016500172700410045
B1930462810625N08147475WA016390171800310049
B1930512810586N08147434WA016410171300410046
B1930562810545N08147394WA016410171200410051
B1931012810504N08147358WA016490171800410046
B1931062810486N08147318WA016490172000710042
B1931112810508N08147315WA016430171501210055
B1931162810496N08147361WA016440171500910047
B1931212810440N08147351WA016500171900810054
B1931262810449N08147315WA016490171701110057
B1931312810438N08147362WA016530171800810058
B1931362810392N08147345WA016560172401310044
B1931412810410N08147315WA016590172700810047
B1931462810423N08147341WA016620173101110049
B1931512810380N08147365WA016650173500810045
B1931562810355N08147319WA016650173600710048
B1932012810370N08147311WA016650173701210042
B1932062810325N08147345WA016590173600610057
B1932112810290N08147310WA016650173701210046
B1932162810307N08147325WA016620173600910056
B1932212810260N08147351WA016660174000710053
B1932262810244N08147306WA016610173700910052
B1932312810270N08147311WA016630173501110051
B1932362810223N08147329WA016620173400810049
B1932412810195N08147283WA016630173500710047
B1932462810199N08147244WA016640173600710047
B1932512810210N08147265WA016540173301210046
B1932562810164N08147297WA016500172800710047
B1933012810116N08147271WA016510172600610042
B1933062810099N08147225WA016450172200510043
B1933112810084N08147186WA016450172100410032
B1933162810051N08147149WA016320171400410043
B1933212810011N08147112WA016190170300410043
B1933262809968N08147077WA016070168900410051
B1933312809926N08147044WA016000167700310052
B1933362809888N08147014WA016020167400310047
B1933412809846N08146986WA016010167300610052
B1933462809820N08146948WA016000167100510044
B1933512809809N08146901WA015970166900310044
B1933562809797N08146855WA016060167300410036
B1934012809766N08146825WA016180168200610040
B1934062809719N08146837WA016240169200610047
B1934112809686N08146875WA016250169600510046
B1934162809677N08146920WA016300170100610044
B1934212809699N08146939WA016290170300810040
B1934262809707N08146897WA016360170600810045
B1934312809693N08146853WA016460171300610044
B1934362809647N08146838WA016510172200710044
B1934412809610N08146871WA016570172800610044
B1934462809600N08146910WA016630173400510042
B1934512809603N08146950WA016560173400510045
B1934562809625N08146973WA016560173300510039
B1935012809656N08146958WA016510172700510050
B1935062809673N08146922WA016500172500410044
B1935112809681N08146877WA016550172500410045
B1935162809664N08146837WA016660173100610040
B1935212809614N08146825WA016760174200710049
B1935262809571N08146855WA016870175500710043
B1935312809569N08146904WA016890176100610046
B1935362809596N08146927WA016920176500710044
B1935412809624N08146916WA016970177001110043
B1935462809621N08146876WA017010177400510045
B1935512809587N08146839WA017120178200510050
B1935562809537N08146843WA017240179400710041
B1936012809512N08146888WA017260180000910042
B1936062809521N08146930WA017310180400610042
B1936112809545N08146942WA017290180401110044
B1936162809557N08146904WA017280180300810050
B1936212809532N08146864WA017330180800510051
B1936262809496N08146828WA017400181400410052
B1936312809457N08146794WA017440181900310048
B1936362809413N08146763WA017470182200610059
B1936412809373N08146735WA017500182600310045
B1936462809331N08146720WA017540183000310047
B1936512809288N08146704WA017550183300410043
B1936562809240N08146675WA017450182800610051
B1937012809193N08146640WA017310181600410053
B1937062809152N08146603WA017230180500510049
B1937112809125N08146557WA017150179500410042
B1937162809111N08146508WA017030178400410042
B1937212809098N08146455WA016850176900410045
B1937262809070N08146400WA016720175400510049
B1937312809031N08146354WA016560173900310049
B1937362808994N08146306WA016440172500310047
B1937412808969N08146251WA016320170900410047
B1937462808945N08146196WA016220169700410047
B1937512808908N08146149WA016130168600310047
B1937562808870N08146103WA016110168100310050
F193801010708091116232730
B1938012808838N08146061WA016100168000309040
F19380601070809111623272830
B1938062808801N08146020WA016040167700310047
B1938112808764N08145981WA016010167400310043
B1938162808733N08145936WA016000167300410047
B1938212808708N08145889WA015980167100210043
B1938262808679N08145842WA015940166800310045
B1938312808647N08145797WA015930166700310044
B1938362808613N08145753WA015930166600210042
B1938412808573N08145714WA015910166500210043
B1938462808534N08145670WA015870166200210043
B1938512808503N08145620WA015840165900310045
B1938562808473N08145570WA015840165800310044
B1939012808434N08145527WA015820165700310044
B1939062808395N08145488WA015790165400210043
B1939112808358N08145447WA015760165100310043
B1939162808318N08145412WA015720164800210045
B1939212808276N08145380WA015670164400310046
B1939262808235N08145344WA015590163700310045
B1939312808192N08145308WA015500162800310049
B1939362808151N08145274WA015430161900210045
B1939412808115N08145232WA015350161000210045
B1939462808080N08145187WA015230160000210047
B1939512808044N08145142WA015100158700210048
B1939562808000N08145105WA014960157300310048
B1940012807955N08145075WA014870156000510045
B1940062807911N08145042WA014760154800210046
B1940112807867N08145006WA014650153600310052
B1940162807820N08144977WA014570152800410049
B1940212807772N08144952WA014540152100310048
B1940262807732N08144920WA014500151700210043
B1940312807693N08144882WA014410151200310047
B1940362807653N08144845WA014360150600310044
B1940412807606N08144813WA014250149700510047
B1940462807556N08144785WA014200148900610045
B1940512807509N08144757WA014160148300310043
B1940562807462N08144727WA014070147600510046
B1941012807413N08144702WA013950146500310045
B1941062807366N08144670WA013850145500410046
B1941112807331N08144626WA013740144400310042
B1941162807293N08144583WA013610143200210047
B1941212807251N08144545WA013480141900310045
B1941262807208N08144506WA013380140800310047
B1941312807167N08144470WA013270139600210043
B1941362807120N08144435WA013160138400510049
B1941412807077N08144400WA013060137200310043
B1941462807035N08144360WA012970136200310048
B1941512806994N08144318WA012880135300310048
B1941562806954N08144277WA012780134300210045
B1942012806916N08144236WA012680133400310043
B1942062806879N08144192WA012560132500310046
B1942112806835N08144152WA012470131400310044
B1942162806789N08144117WA012380130500310049
B1942212806744N08144086WA012300129400510047
B1942262806703N08144049WA012250128800210047
B1942312806666N08144011WA012200128200210043
B1942362806622N08143977WA012080127300310045
B1942412806575N08143950WA012010126500510045
B1942462806529N08143922WA011950125700210047
B1942512806486N08143886WA011880125000210046
B1942562806450N08143844WA011760124100310043
B1943012806408N08143809WA011630122900310046
B1943062806362N08143777WA011510121700210047
B1943112806317N08143748WA011400120400410046
B1943162806270N08143720WA011310119300510048
B1943212806224N08143692WA011180118100510047
B1943262806178N08143660WA011050116900310047
B1943312806133N08143631WA010910115500310046
B1943362806085N08143603WA010770114000310046
B1943412806040N08143576WA010650112400410043
B1943462805995N08143547WA010460110600510046
B1943512805950N08143518WA010310108900310045
B1943562805899N08143502WA010140107100510048
B1944012805850N08143484WA009980105400310047
B1944062805804N08143459WA009780103600310047
B1944112805759N08143434WA009650102000310046
B1944162805714N08143412WA009540100700310046
B1944212805671N08143386WA009440099500310044
B1944262805630N08143355WA009320098400210045
B1944312805585N08143327WA009190097100510046
B1944362805535N08143306WA009050095800510048
B1944412805487N08143280WA008940094500210048
B1944462805441N08143252WA008800093200410046
B1944512805394N08143225WA008630091600210046
B1944562805349N08143195WA008480090100210046
B1945012805303N08143166WA008310088500210047
B1945062805255N08143141WA008160086900310049
B1945112805209N08143120WA008010085200310044
B1945162805166N08143089WA007870083700310046
B1945212805126N08143056WA007760082400310045
B1945262805081N08143031WA007620080900510047
B1945312805032N08143013WA007510079600410046
B1945362804986N08142992WA007370078300310049
B1945412804942N08142965WA007230077000310046
B1945462804903N08142933WA007100075800210046
B1945512804869N08142898WA007030074900310044
B1945562804837N08142862WA006970074100310041
B1946012804797N08142826WA006880073400310043
B1946062804749N08142796WA006820072800310047
B1946112804698N08142784WA006780072400410043
B1946162804646N08142779WA006700071700310046
B1946212804594N08142772WA006620070900410043
B1946262804544N08142758WA006520069900510045
B1946312804496N08142726WA006360068600310044
B1946362804461N08142680WA006210067000310047
B1946412804432N08142634WA006090065600310040
B1946462804394N08142594WA005920063900310043
B1946512804345N08142569WA005780062200510042
B1946562804292N08142566WA005630060600310044
B1947012804238N08142572WA005490059100410046
B1947062804185N08142578WA005370057800410046
B1947112804130N08142582WA005260056600310049
B1947162804075N08142578WA005180055700310046
B1947212804020N08142564WA005100054900410045
B1947262803969N08142546WA005110054700510037
B1947312803925N08142556WA005140055000310037
B1947362803919N08142595WA005090054700910048
B1947412803944N08142595WA005110054701010044
B1947462803937N08142549WA005080054700610040
B1947512803892N08142527WA005060054600810040
B1947562803853N08142502WA005050054501410038
B1948012803872N08142480WA004980053901010048
B1948062803892N08142499WA004920053400410044
B1948112803907N08142521WA004840052600510045
B1948162803900N08142553WA004800052200710039
B1948212803853N08142559WA004730051400510044
B1948262803818N08142520WA004710051000510045
B1948312803832N08142490WA004660050200810045
B1948362803856N08142489WA004590049700510034
B1948412803878N08142479WA004520048900610043
B1948462803893N08142493WA004440048100310039
B1948512803898N08142526WA004360047200410043
B1948562803887N08142561WA004280046500510042
B1949012803838N08142550WA004130045601010047
F194906010708091116232730
B1949062803818N08142499WA004070044900609045
F19491101070809111623272830
B1949112803818N08142456WA004010044200610044
B1949162803840N08142438WA003920043000610045
B1949212803864N08142434WA003840042100510044
B1949262803889N08142431WA003760041300410042
B1949312803916N08142416WA003690040600410052
B1949362803923N08142437WA003670040301310040
B1949412803872N08142428WA003630040101310049
B1949462803868N08142384WA003680040300710042
B1949512803874N08142399WA003710040300910037
B1949562803830N08142396WA003710040201010043
B1950012803827N08142352WA003710040401010044
B1950062803855N08142340WA003680040001010053
B1950112803811N08142354WA003630039701310042
F195016010708091623272830
B1950162803804N08142304WA003630039501309042
F19502101070809111623272830
B1950212803827N08142309WA003640039300910045
B1950262803790N08142331WA003620039400710040
B1950312803756N08142293WA003580039200610050
B1950362803777N08142278WA003590039400710043
B1950412803795N08142301WA003570039300710055
B1950462803759N08142314WA003570039401110045
B1950512803752N08142268WA003570039301210045
B1950562803779N08142257WA003500038901010052
B1951012803786N08142293WA003370037900610049
B1951062803753N08142319WA003300037000710041
B1951112803706N08142295WA003290036601110048
B1951162803715N08142277WA003260036401010045
B1951212803674N08142282WA003260036300710041
B1951262803678N08142248WA003270036001210042
B1951312803674N08142276WA003240036000710042
B1951362803634N08142275WA003240035800810040
B1951412803649N08142241WA003170035101110052
B1951462803661N08142262WA003180034801110045
B1951512803619N08142265WA003190035100910039
B1951562803610N08142219WA003130034600910042
B1952012803633N08142218WA003090034200810048
B1952062803621N08142250WA003100034200610045
B1952112803583N08142232WA003110034200710038
B1952162803596N08142194WA003120034101110041
B1952212803611N08142215WA003030033701610051
B1952262803581N08142253WA003040033900610054
B1952312803545N08142227WA003040033701010037
B1952362803559N08142189WA003050033600910047
B1952412803556N08142217WA003050033400810041
B1952462803511N08142196WA003050033600510040
B1952512803514N08142155WA003030033501010039
B1952562803540N08142166WA002990033200810046
B1953012803554N08142199WA002960032900610048
B1953062803515N08142202WA002810032301210039
B1953112803519N08142147WA002730031401210047
B1953162803544N08142151WA002690030601210039
B1953212803510N08142183WA002600029601010048
B1953262803470N08142157WA002470028300510041
B1953312803474N08142107WA002380027301210048
B1953362803504N08142100WA002290026400910048
B1953412803496N08142138WA002180025501010046
B1953462803451N08142143WA002070024200710039
B1953512803404N08142115WA001900022200410043
B1953562803358N08142084WA001830021000410038
B1954012803302N08142063WA001710020100610044
B1954062803243N08142046WA001630019400510048
B1954112803189N08142031WA001600019100510049
B1954162803136N08142025WA001460018100510047
B1954212803078N08142023WA001340016700510052
B1954262803034N08142047WA001350015901310039
B1954312803052N08142078WA001270015501110048
B1954362803076N08142067WA001230015100710042
B1954412803100N08142060WA001160014500610044
B1954462803107N08142089WA001150014201010037
B1954512803062N08142098WA001130013901210051
B1954562803070N08142084WA001040013501310044
B1955012803077N08142133WA001030013100710035
B1955062803082N08142185WA000770012001010065
B1955112803102N08142239WA000540009400910063
B1955162803137N08142262WA000430007500710062
B1955212803162N08142287WA000280005500610051
B1955262803185N08142310WA000250004500510035
B1955312803193N08142323WA000250004100710022
B1955362803195N08142323WA000250004200410009
B1955412803200N08142322WA000250004200510008
B1955462803205N08142321WA000250004200410010
B1955512803209N08142320WA000250004200410008
B1955562803213N08142320WA000250004200410006
B1956012803218N08142318WA000250004200410006
B1956062803221N08142315WA000250004100310002
B1956112803225N08142311WA000250004100510003
F1956160107080911161723272830
B1956162803228N08142308WA000250004100311004
B1956212803231N08142304WA000250004100411004
B1956262803234N08142302WA000250004100311004
F19563101070809111617272830
B1956312803237N08142297WA000250004100310004
F1956360107080911161723272830
B1956362803239N08142294WA000240004100311005
B1956412803242N08142291WA000250004100311000
B1956462803245N08142288WA000250004100311000
B1956512803247N08142283WA000250004200311000
B1956562803249N08142280WA000250004200311002
B1957012803250N08142276WA000250004200311004
B1957062803252N08142272WA000250004100311003
B1957112803253N08142269WA000250004100311002
B1957162803255N08142266WA000250004200311004
B1957212803258N08142265WA000250004200411006
GC1641277E3D8E39EFD2AAB7EB58B7C1DF2FFE68237559FD3886D61AF9EB2FFCB
