AFLY00AE 0100634
HFDTE110516
HFFXA010
HFPLTPILOT:KNUT RYERSON    
HFCM2CREW2:NKN
HFGTYGLIDERTYPE:AEROS           
HFGIDGLIDERID:NKN             
HFDTM100GPSDATUM:WGS84
HFRFWFIRMWAREVERSION: 1.04.13
HFRHWHARDWAREVERSION:1.00
HFFTYFRTYPE:Flytec Element Track
HFGPS:FASTRAX,IT430,48
HFPRSPRESSALTSENSOR:INTERSEMA,MS5401BM,12000
HFALGALTGPS:GEO
HFALPALTPRESSURE:ISA
HFTZNUTCOFFSET: -4.00h
I033638FXA3940SIU4143TAS
C110516153653110516002202
C2831982N08150800W TAKEOFF
C2831982N08150800W START  QUEST            00000000005000000000360000AREA
C2838488N08152838W TURN   Grassots         00000000000400000000360000AREA
C2822584N08149398W TURN   T47433           00000000003000000000360000AREA
C2831982N08150800W FINISH QUEST            00000000000400000000360000AREA
C2831982N08150800W LANDING
F17113203070809162223262731
B1711322832126N08150811WA-00310003100410000
F17120203070809162223262731
B1712022832126N08150811WA-00310003100510000
F17123203070809162223262731
B1712322832122N08150811WA-00310003200410000
F17130203070809162223262731
B1713022832122N08150811WA-00310003200410000
F17133203070809162223262731
B1713322832119N08150810WA-00300003200410000
F17140203070809162223262731
B1714022832119N08150810WA-00300003200210000
F17143203070809162223262731
B1714322832115N08150808WA-00300003200310000
F17150203070809162223262731
B1715022832115N08150808WA-00300003200310000
F17153203070809162223262731
B1715322832115N08150808WA-00300003200310000
E171553STA
E171553ATS1020.8
LFLYA1 00031
B1715532832080N08150804WA-00310003200310000
B1715582832035N08150802WA-00150003700610000
B1716032831988N08150807WA000030005500510000
B1716082831939N08150809WA000170007400510000
B1716132831892N08150797WA000320009000310000
B1716182831854N08150772WA000430010600410000
B1716232831825N08150737WA000600012600410000
B1716282831804N08150691WA000840015100410000
B1716332831788N08150642WA001070017600310000
B1716382831786N08150595WA001320020500410000
B1716432831795N08150549WA001590023500410000
B1716482831818N08150508WA001830026400510000
B1716532831839N08150464WA002020028700410000
B1716582831862N08150422WA002240031000410000
B1717032831888N08150385WA002440033000410000
B1717082831924N08150354WA002570034400510000
B1717132831968N08150340WA002670035600310000
B1717182832016N08150341WA002900037100410000
B1717232832060N08150360WA003160039300410000
B1717282832098N08150397WA003310041200310000
B1717332832122N08150446WA003470043000310000
B1717382832135N08150498WA003670045200410000
B1717432832146N08150551WA003830047000310000
B1717482832156N08150603WA004000048900310000
B1717532832167N08150654WA004160050700310000
B1717582832180N08150706WA004370052700410000
B1718032832192N08150760WA004510054500310000
B1718082832205N08150815WA004670056100310000
B1718132832218N08150867WA004820057700310000
B1718182832229N08150919WA005000059500410000
B1718232832236N08150976WA005180061500310000
B1718282832234N08151035WA005370063400310000
F171833030809162223262731
B1718332832228N08151094WA005560065200309000
F17183803070809162223262731
B1718382832220N08151150WA005750067100410000
B1718432832215N08151200WA005660067900610000
B1718482832221N08151249WA005600067300610000
B1718532832208N08151302WA005490066100510000
B1718582832210N08151354WA005490065300610000
B1719032832221N08151403WA005470064800510000
B1719082832240N08151451WA005450064400410000
B1719132832258N08151499WA005490064400710000
B1719182832251N08151543WA005490064400510000
B1719232832215N08151562WA005480064400710000
B1719282832190N08151535WA005500064600410000
B1719332832194N08151498WA005500064800410000
B1719382832218N08151474WA005520064900410000
B1719432832253N08151467WA005550065100710000
B1719482832268N08151509WA005590065300710000
B1719532832231N08151520WA005630065700810000
B1719582832231N08151482WA005630065800910000
B1720032832265N08151470WA005680066400410000
B1720082832292N08151497WA005740067000510000
B1720132832278N08151535WA005790067600610000
B1720182832239N08151541WA005840068100710000
B1720232832217N08151510WA005840068200410000
B1720282832226N08151472WA005860068300610000
B1720332832253N08151455WA005920068700510000
B1720382832285N08151477WA005970069200510000
B1720432832274N08151522WA006000069600810000
B1720482832233N08151532WA006010070001010000
B1720532832207N08151501WA006060070500810000
B1720582832219N08151461WA006100070600610000
B1721032832255N08151452WA006070070700310000
B1721082832289N08151479WA006090070600310000
B1721132832297N08151525WA006060070300410000
B1721182832278N08151568WA006000069800410000
B1721232832235N08151573WA005900069000910000
B1721282832207N08151538WA005880068700410000
B1721332832195N08151497WA005890068700410000
B1721382832190N08151456WA005900068900510000
B1721432832196N08151418WA005940069200510000
B1721482832216N08151388WA005990069600510000
B1721532832249N08151402WA006060070400410000
B1721582832239N08151446WA006070070600510000
B1722032832199N08151459WA006060070600510000
B1722082832169N08151432WA006070070900410000
B1722132832167N08151394WA006130071400610000
B1722182832195N08151366WA006180071900410000
B1722232832228N08151386WA006280072701010000
B1722282832198N08151426WA006280073101110000
B1722332832170N08151400WA006350073700910000
B1722382832180N08151366WA006430074400810000
B1722432832216N08151364WA006510075400410000
B1722482832238N08151405WA006570075900910000
B1722532832210N08151447WA006600076100810000
B1722582832170N08151450WA006650076600810000
B1723032832163N08151417WA006670076800410000
B1723082832186N08151389WA006740077300710000
B1723132832223N08151398WA006790078000610000
B1723182832220N08151446WA006830078000610000
B1723232832177N08151460WA006810078200810000
B1723282832151N08151429WA006840078500510000
B1723332832162N08151394WA006860078700810000
B1723382832200N08151384WA006930079500610000
B1723432832225N08151415WA006960080100910000
B1723482832201N08151454WA006970080200810000
B1723532832157N08151459WA006980080300510000
B1723582832133N08151430WA006990080200610000
B1724032832148N08151393WA006950080000510000
B1724082832185N08151370WA006930079700410000
B1724132832228N08151380WA006880079400810000
B1724182832247N08151429WA006840078900810000
B1724232832214N08151462WA006830078501110000
B1724282832215N08151421WA006850078601410000
B1724332832253N08151428WA006840078501110000
B1724382832249N08151480WA006850078600810000
B1724432832212N08151497WA006850078400710000
B1724482832178N08151471WA006870078800910000
B1724532832173N08151435WA006930079400810000
B1724582832204N08151442WA006940079601310000
B1725032832194N08151489WA006930079600510000
B1725082832150N08151497WA006980080200910000
B1725132832135N08151463WA007030080500710000
B1725182832159N08151436WA007030080600510000
B1725232832192N08151453WA007070080900810000
B1725282832199N08151503WA007050081000510000
B1725332832163N08151538WA007050080800610000
B1725382832123N08151523WA007070081000510000
B1725432832122N08151483WA007080081300610000
B1725482832158N08151473WA007120081700810000
B1725532832174N08151513WA007140081800910000
B1725582832142N08151555WA007170081800810000
B1726032832105N08151542WA007230082200710000
B1726082832116N08151510WA007230082600710000
B1726132832145N08151531WA007280082901110000
B1726182832127N08151575WA007300083300610000
B1726232832086N08151573WA007300083500710000
B1726282832068N08151532WA007260083100610000
B1726332832085N08151490WA007140081900310000
B1726382832130N08151482WA007040080700610000
B1726432832158N08151526WA007060080401010000
B1726482832132N08151573WA007110080900510000
B1726532832091N08151586WA007150081400710000
B1726582832062N08151560WA007190082100610000
B1727032832065N08151519WA007090081800710000
B1727082832098N08151500WA007010081000610000
B1727132832137N08151515WA007000080600610000
B1727182832147N08151566WA007010080500510000
B1727232832128N08151616WA007040080800210000
B1727282832101N08151659WA007050080900210000
B1727332832067N08151694WA007010080600310000
B1727382832028N08151716WA006970080200310000
B1727432831989N08151732WA006900079700310000
F172748030809162223262731
B1727482831946N08151750WA006870079300309000
F17275303070809162223262731
B1727532831902N08151768WA006870079100410000
B1727582831859N08151755WA006900079101110000
B1728032831874N08151718WA006940079301110000
B1728082831909N08151745WA007000079701110000
F1728130307080911162223262731
B1728132831886N08151783WA007060080500611000
B1728182831848N08151771WA007080081200911000
B1728232831863N08151739WA007130082100811000
B1728282831900N08151752WA007140082100911000
B1728332831913N08151796WA007170082200711000
B1728382831885N08151838WA007200082700311000
B1728432831848N08151841WA007260083100811000
B1728482831860N08151802WA007280083200711000
B1728532831893N08151812WA007330083700811000
B1728582831891N08151857WA007400084301011000
B1729032831853N08151861WA007420084501311000
B1729082831866N08151820WA007440084900711000
B1729132831898N08151836WA007520085401211000
B1729182831886N08151878WA007570086100711000
B1729232831846N08151883WA007620086700611000
B1729282831832N08151847WA007620086800711000
B1729332831857N08151817WA007700087500411000
B1729382831886N08151843WA007740087900711000
B1729432831868N08151889WA007770088400411000
B1729482831830N08151910WA007830088901011000
B1729532831818N08151876WA007840089000711000
B1729582831854N08151880WA007870089301211000
B1730032831844N08151931WA007900089600411000
B1730082831809N08151971WA007920089700311000
B1730132831770N08152002WA007960090200411000
B1730182831727N08152004WA008040091100411000
B1730232831724N08151966WA008170092400611000
F17302803070809111623262731
B1730282831754N08151989WA008290093700810000
B1730332831722N08152024WA008410094901010000
B1730382831706N08151989WA008510096000810000
B1730432831737N08151973WA008650097201310000
B1730482831747N08152019WA008770098501210000
B1730532831708N08152042WA008890099701110000
B1730582831689N08152011WA009000101100710000
B1731032831720N08152001WA009120102101110000
B1731082831720N08152049WA009230103401310000
B1731132831679N08152057WA009330104600610000
B1731182831672N08152015WA009440105500810000
B1731232831706N08151996WA009610107000810000
B1731282831720N08152038WA009750108701110000
B1731332831684N08152059WA009900110201010000
B1731382831678N08152019WA010040111900610000
B1731432831713N08152041WA010140112901310000
B1731482831689N08152084WA010270114201010000
B1731532831651N08152076WA010410115700810000
B1731582831652N08152038WA010540117000610000
B1732032831685N08152045WA010640118100710000
B1732082831677N08152093WA010760119400910000
B1732132831642N08152082WA010910120901210000
B1732182831656N08152048WA010980121700710000
B1732232831683N08152075WA011090122601410000
B1732282831650N08152114WA011210123801210000
B1732332831625N08152080WA011370125801110000
B1732382831656N08152063WA011480126701010000
B1732432831669N08152105WA011550127500910000
B1732482831625N08152131WA011640128701110000
B1732532831599N08152098WA011730129600610000
B1732582831620N08152060WA011840130500410000
B1733032831650N08152080WA011910131401210000
B1733082831618N08152113WA012000132301310000
B1733132831582N08152082WA012150133600810000
B1733182831600N08152049WA012260135200610000
B1733232831628N08152077WA012370136400910000
B1733282831594N08152102WA012490137601110000
B1733332831584N08152056WA012600138701010000
B1733382831619N08152062WA012710139801310000
B1733432831612N08152110WA012840141000610000
B1733482831575N08152096WA012970142501210000
B1733532831595N08152062WA013120143801110000
B1733582831627N08152080WA013230144901110000
B1734032831609N08152128WA013300145800810000
B1734082831564N08152130WA013390146801010000
B1734132831547N08152087WA013490147500510000
B1734182831568N08152056WA013590148600810000
B1734232831602N08152076WA013660149500710000
B1734282831604N08152131WA013790150800810000
B1734332831565N08152152WA013880151800810000
B1734382831545N08152110WA013890152001010000
B1734432831566N08152068WA013980152700610000
B1734482831599N08152048WA013970153000510000
B1734532831638N08152063WA013930152800310000
B1734582831673N08152096WA014030153000410000
B1735032831695N08152142WA014150154100410000
B1735082831722N08152191WA014140154700410000
B1735132831746N08152239WA014170155200510000
B1735182831758N08152286WA014110154900710000
B1735232831776N08152329WA014000153900510000
B1735282831803N08152370WA013880152600410000
B1735332831831N08152408WA013780151200510000
B1735382831858N08152450WA013680149900410000
B1735432831877N08152494WA013580148800410000
B1735482831894N08152541WA013490147800610000
B1735532831919N08152581WA013430147100410000
B1735582831949N08152616WA013380146600310000
B1736032831981N08152645WA013380146600510000
B1736082832011N08152676WA013360146400410000
B1736132832047N08152701WA013310146000410000
B1736182832085N08152721WA013260145600610000
B1736232832119N08152751WA013160144800410000
B1736282832153N08152776WA013070143700410000
B1736332832190N08152803WA012940142500510000
B1736382832220N08152837WA012860141400510000
B1736432832245N08152880WA012760140300510000
B1736482832267N08152924WA012750139800510000
B1736532832285N08152968WA012700139300510000
B1736582832307N08153009WA012660139100410000
B1737032832337N08153036WA012610138900510000
B1737082832371N08153054WA012560138400410000
B1737132832404N08153068WA012570138300410000
B1737182832442N08153077WA012550138300410000
B1737232832476N08153092WA012570138400310000
B1737282832503N08153124WA012550138500410000
B1737332832537N08153150WA012560138500310000
B1737382832565N08153186WA012600138600410000
B1737432832548N08153227WA012680139300910000
B1737482832511N08153222WA012700139700610000
B1737532832498N08153179WA012650139400410000
B1737582832507N08153134WA012670139500410000
B1738032832535N08153100WA012660139400510000
B1738082832576N08153110WA012640139400510000
B1738132832593N08153157WA012680139600510000
B1738182832565N08153203WA012740140100710000
B1738232832529N08153191WA012810140700810000
B1738282832541N08153146WA012790140500710000
B1738332832580N08153151WA012700140100710000
B1738382832586N08153206WA012780140300710000
B1738432832545N08153230WA012810140800810000
B1738482832511N08153208WA012850141200810000
B1738532832525N08153165WA012810141100810000
B1738582832566N08153182WA012750140600410000
B1739032832580N08153231WA012780140600910000
B1739082832549N08153268WA012830140800710000
B1739132832515N08153251WA012830141000510000
B1739182832527N08153211WA012830141000410000
B1739232832564N08153204WA012840141200710000
B1739282832581N08153250WA012840141200610000
B1739332832565N08153301WA012860141300310000
B1739382832526N08153310WA012900141500810000
B1739432832512N08153271WA012870141600510000
B1739482832518N08153228WA012890141700610000
B1739532832540N08153195WA012920141800610000
B1739582832577N08153175WA012890141800410000
B1740032832615N08153178WA012910141900410000
B1740082832628N08153213WA012870141700910000
B1740132832599N08153252WA012780141000310000
F174018070809111623262731
B1740182832560N08153283WA012710140400409000
F17402303070809111623262731
B1740232832515N08153296WA012750140300410000
B1740282832483N08153271WA012730140200310000
B1740332832488N08153228WA012700140000310000
B1740382832526N08153202WA012650139400410000
B1740432832567N08153213WA012650139400410000
B1740482832589N08153256WA012670139500910000
B1740532832562N08153296WA012670139600610000
B1740582832515N08153295WA012670139400610000
B1741032832487N08153261WA012680139500410000
F174108030708091116232627
B1741082832502N08153217WA012600138800409000
B1741132832532N08153183WA012550138200609000
B1741182832573N08153167WA012500137700709000
B1741232832614N08153163WA012500137800309000
B1741282832647N08153189WA012490137800509000
B1741332832654N08153236WA012440137500709000
B1741382832626N08153275WA012370137000509000
B1741432832589N08153304WA012330136300409000
B1741482832547N08153324WA012320135900409000
B1741532832513N08153313WA012350136100609000
B1741582832511N08153274WA012370136400309000
F1742030307080911232627
B1742032832537N08153242WA012330136200408000
F174208030708091116232627
B1742082832575N08153229WA012270135600409000
B1742132832618N08153239WA012250135400409000
B1742182832654N08153267WA012250135300409000
B1742232832677N08153308WA012190134900409000
B1742282832699N08153344WA012180134600409000
B1742332832725N08153374WA012130134100409000
B1742382832756N08153395WA012070133600609000
B1742432832791N08153403WA011980132800609000
B1742482832826N08153417WA011910132000309000
B1742532832860N08153440WA011810131000409000
B1742582832900N08153450WA011730130000309000
B1743032832941N08153457WA011680129300309000
B1743082832981N08153464WA011560128300409000
B1743132833023N08153464WA011380126700409000
B1743182833067N08153458WA011300125400409000
B1743232833111N08153462WA011300124900409000
B1743282833147N08153454WA011300124700509000
B1743332833186N08153462WA011220124500409000
B1743382833225N08153482WA011180124200309000
B1743432833260N08153504WA011150124000409000
B1743482833296N08153532WA011090123400409000
B1743532833334N08153554WA011060123000309000
B1743582833371N08153570WA010980122500409000
B1744032833414N08153586WA010950121900509000
B1744082833446N08153616WA010970121800909000
B1744132833422N08153654WA010990121701009000
B1744182833399N08153629WA011020122001209000
B1744232833431N08153605WA010980121900709000
B1744282833461N08153635WA010920121600609000
B1744332833465N08153686WA010930121400509000
B1744382833437N08153713WA010900121300909000
B1744432833399N08153690WA010880120901309000
B1744482833423N08153644WA010890120500609000
B1744532833455N08153665WA010890120800909000
B1744582833456N08153711WA010890120900609000
B1745032833418N08153723WA010880120901109000
B1745082833393N08153685WA010880120801109000
B1745132833406N08153639WA010870120800509000
F1745180307080911232627
B1745182833435N08153607WA010860120700708000
F174523030708091116232627
B1745232833470N08153588WA010860120700509000
B1745282833509N08153588WA010800120300509000
B1745332833514N08153629WA010780120200809000
B1745382833478N08153636WA010710119300909000
B1745432833434N08153621WA010600118100809000
B1745482833389N08153619WA010620117800809000
B1745532833357N08153593WA010550117400609000
B1745582833364N08153557WA010450116800609000
B1746032833406N08153548WA010330115500809000
B1746082833433N08153590WA010230113900909000
B1746132833437N08153646WA010210113700909000
B1746182833426N08153699WA010210113500409000
B1746232833422N08153753WA010170113200409000
B1746282833416N08153807WA010150112900309000
B1746332833388N08153834WA010090112300709000
B1746382833364N08153815WA009980111600709000
B1746432833378N08153771WA009890110900709000
B1746482833405N08153737WA009880110400709000
B1746532833447N08153727WA009830109900509000
B1746582833481N08153710WA009820109600509000
B1747032833510N08153683WA009760109300409000
B1747082833541N08153657WA009710109000409000
B1747132833568N08153621WA009650108400509000
B1747182833596N08153586WA009610107800509000
B1747232833623N08153550WA009600107300609000
B1747282833656N08153549WA009440106400509000
B1747332833692N08153556WA009280104600409000
B1747382833728N08153553WA009100102600409000
B1747432833761N08153550WA009000101100409000
B1747482833795N08153551WA008880099700409000
B1747532833829N08153553WA008770098600509000
B1747582833867N08153556WA008610097200409000
B1748032833905N08153563WA008500095900309000
B1748082833942N08153575WA008350094400409000
B1748132833979N08153593WA008260093400409000
B1748182834016N08153612WA008160092400409000
B1748232834054N08153628WA008100091600509000
B1748282834089N08153656WA008070091100309000
B1748332834120N08153688WA008080091000409000
B1748382834122N08153730WA008060091200309000
B1748432834091N08153749WA008030091100609000
B1748482834060N08153720WA007940090101009000
B1748532834057N08153675WA007840089000509000
B1748582834081N08153643WA007770088400509000
B1749032834119N08153646WA007730088000609000
B1749082834143N08153689WA007690087600809000
B1749132834153N08153739WA007660087200609000
B1749182834158N08153789WA007630087000409000
B1749232834162N08153841WA007620086700309000
B1749282834181N08153888WA007620086600409000
B1749332834209N08153928WA007620086600409000
B1749382834208N08153974WA007590086600509000
B1749432834176N08154009WA007560086200409000
B1749482834135N08154009WA007520085900409000
B1749532834113N08153973WA007480085400609000
B1749582834124N08153931WA007410084700309000
B1750032834153N08153898WA007380084400409000
B1750082834187N08153872WA007380084200709000
B1750132834218N08153900WA007380084000409000
B1750182834218N08153950WA007380084000509000
B1750232834185N08153979WA007350083801309000
B1750282834155N08153949WA007330083601009000
B1750332834159N08153907WA007270083100409000
B1750382834181N08153872WA007290083000509000
B1750432834220N08153873WA007270083000409000
B1750482834249N08153908WA007250082800309000
B1750532834246N08153957WA007200082400309000
B1750582834215N08153983WA007140082000409000
B1751032834182N08153956WA007060081200909000
B1751082834189N08153911WA007060081100509000
B1751132834217N08153882WA007050081000509000
B1751182834255N08153866WA007040080900609000
B1751232834292N08153886WA007020080700309000
B1751282834326N08153912WA006980080400509000
B1751332834365N08153916WA006940080000609000
B1751382834404N08153910WA006920079700509000
B1751432834443N08153907WA006870079100409000
B1751482834482N08153919WA006800078600309000
B1751532834523N08153926WA006680077800609000
B1751582834563N08153932WA006600076700509000
B1752032834600N08153939WA006530075900409000
B1752082834628N08153972WA006430074700309000
B1752132834654N08154002WA006320073500309000
B1752182834691N08153997WA006200072200809000
B1752232834711N08153959WA006060070700809000
B1752282834684N08153919WA005910069000709000
B1752332834644N08153902WA005810067600609000
B1752382834609N08153879WA005720066600609000
B1752432834585N08153844WA005610065800509000
B1752482834585N08153807WA005520064800409000
B1752532834607N08153777WA005390063500509000
B1752582834642N08153769WA005290062300709000
B1753032834680N08153786WA005210061400309000
B1753082834718N08153787WA005110060500709000
B1753132834756N08153774WA004960059200509000
B1753182834795N08153756WA004900058000509000
B1753232834833N08153736WA004770056800509000
B1753282834866N08153702WA004640055500409000
B1753332834895N08153666WA004540054300409000
B1753382834931N08153645WA004390052800609000
B1753432834968N08153621WA004230051300509000
B1753482835001N08153591WA004120050100309000
B1753532835042N08153569WA004000048800409000
B1753582835081N08153550WA003920047700609000
B1754032835121N08153535WA003800046600409000
B1754082835164N08153541WA003640045300609000
B1754132835196N08153591WA003530044100509000
B1754182835207N08153650WA003510043000609000
B1754232835182N08153683WA003440042501209000
B1754282835144N08153655WA003390041901009000
B1754332835132N08153611WA003400042000509000
B1754382835168N08153610WA003390042200909000
B1754432835196N08153659WA003380041800409000
B1754482835180N08153711WA003290041300809000
B1754532835144N08153733WA003200040600809000
B1754582835111N08153707WA003060039100909000
B1755032835118N08153662WA003030038301109000
B1755082835154N08153660WA003050038301509000
B1755132835155N08153706WA003070038501209000
B1755182835120N08153695WA002990038201309000
B1755232835126N08153646WA003010037900909000
B1755282835164N08153632WA002970037800509000
B1755332835199N08153665WA002880036901109000
B1755382835198N08153716WA002810036000509000
B1755432835167N08153748WA002680035101309000
B1755482835131N08153718WA002550033601209000
B1755532835128N08153670WA002500032900909000
B1755582835160N08153665WA002500032501309000
B1756032835133N08153707WA002470032301809000
B1756082835101N08153664WA002450032301309000
B1756132835126N08153631WA002380031900609000
B1756182835166N08153648WA002270030700809000
B1756232835187N08153698WA002130029200809000
B1756282835182N08153750WA002110028401009000
B1756332835156N08153727WA002040027801009000
B1756382835200N08153717WA002020027400709000
B1756432835227N08153759WA001970027000809000
B1756482835222N08153807WA001880026300609000
B1756532835208N08153857WA001730025400409000
B1756582835170N08153877WA001640023801209000
B1757032835140N08153841WA001640023400809000
B1757082835165N08153814WA001610023400809000
B1757132835204N08153841WA001540022900409000
B1757182835221N08153895WA001410021501009000
B1757232835234N08153950WA001330020600709000
B1757282835251N08154006WA001290020000409000
B1757332835253N08154064WA001230019400509000
B1757382835253N08154121WA001150018900409000
B1757432835253N08154178WA001060018000409000
B1757482835258N08154233WA001050017500609000
B1757532835232N08154273WA001020017200509000
B1757582835198N08154288WA000980016701109000
B1758032835185N08154249WA000850015600809000
B1758082835229N08154237WA000770014700909000
B1758132835256N08154283WA000750014200709000
B1758182835269N08154337WA000690013600509000
B1758232835272N08154394WA000630013200409000
B1758282835286N08154447WA000610012800409000
B1758332835287N08154501WA000590012800509000
B1758382835254N08154534WA000550012401309000
B1758432835223N08154514WA000520012000909000
B1758482835234N08154477WA000410011101009000
B1758532835276N08154472WA000370010400709000
B1758582835307N08154514WA000380010400809000
B1759032835298N08154567WA000320010200609000
B1759082835257N08154585WA000210009201409000
B1759132835261N08154534WA-00070007601209000
B1759182835242N08154489WA-00220005701709000
B1759232835200N08154480WA-00240003701009000
B1759282835188N08154478WA-00240003300809000
B1759332835188N08154477WA-00230003300509000
B1759382835188N08154473WA-00230003400609000
B1759432835187N08154469WA-00230003500709000
B1759482835185N08154465WA-00240003500409000
B1759532835183N08154462WA-00240003500309000
B1759582835179N08154460WA-00240003500609000
B1800032835176N08154457WA-00240003500609000
B1800082835174N08154455WA-00250003600509000
B1800132835173N08154450WA-00240003600509000
B1800182835173N08154445WA-00240003600409000
B1800232835173N08154442WA-00240003600309000
B1800282835172N08154440WA-00240003600509000
B1800332835172N08154440WA-00240003600409000
B1800382835172N08154440WA-00240003600309000
B1800432835172N08154440WA-00240003600209000
B1800482835172N08154440WA-00240003600309000
B1800532835172N08154440WA-00240003600309000
G38E0F139461F14A5C8A0D39071ACB528E690BEC92A37E8270B9F04D09BF5B60B
