AFLY00AE 0100634
HFDTE130516
HFFXA010
HFPLTPILOT:KNUT RYERSON    
HFCM2CREW2:NKN
HFGTYGLIDERTYPE:AERO DISCUS     
HFGIDGLIDERID:NKN             
HFDTM100GPSDATUM:WGS84
HFRFWFIRMWAREVERSION: 1.04.13
HFRHWHARDWAREVERSION:1.00
HFFTYFRTYPE:Flytec Element Track
HFGPS:FASTRAX,IT430,48
HFPRSPRESSALTSENSOR:INTERSEMA,MS5401BM,12000
HFALGALTGPS:GEO
HFALPALTPRESSURE:ISA
HFTZNUTCOFFSET: -4.00h
I033638FXA3940SIU4143TAS
C130516152037130516002500
C2831982N08150800W TAKEOFF
C2831982N08150800W START  QUEST            00000000005000000000360000AREA
C2815179N08141131W FINISH WALABY           00000000000400000000360000AREA
C2815179N08141131W LANDING
F175232030708091116232627
B1752322831970N08150656WA000080003700609000
F175302030708091116232627
B1753022831970N08150656WA000080003800309000
F1753320708091116232627
B1753322831970N08150657WA000080003800508000
F1754020708091116232627
B1754022831970N08150657WA000080003800308000
F1754320708091116232627
B1754322831971N08150660WA000080003700508000
F1755020708091116232627
B1755022831970N08150664WA000080003700608000
F1755320708091116232627
B1755322831970N08150664WA000090003700608000
F1756020708091116232627
B1756022831970N08150664WA000090003700508000
F1756320708091116232627
B1756322831971N08150664WA000090003700608000
E175647STA
E175647ATS1016.4
LFLYA1 00036
B1756472831971N08150700WA000080003600608000
B1756522831975N08150746WA000250004200508000
B1756572831986N08150791WA000430006000508000
B1757022832012N08150822WA000620008300408000
B1757072832044N08150839WA000850011100608000
B1757122832082N08150850WA000980013300708000
B1757172832123N08150857WA001110014900608000
B1757222832160N08150861WA001300016700608000
B1757272832190N08150873WA001580018900408000
B1757322832216N08150899WA001770021300408000
B1757372832234N08150928WA001940023400408000
B1757422832239N08150964WA002090025200408000
B1757472832228N08151003WA002270027100408000
B1757522832206N08151036WA002480029100408000
B1757572832172N08151062WA002650031200408000
B1758022832130N08151085WA002770032700408000
B1758072832085N08151097WA003010034500408000
B1758122832042N08151109WA003270036700408000
B1758172831997N08151120WA003590039600508000
B1758222831954N08151138WA003870042700408000
B1758272831909N08151160WA004130045800508000
B1758322831868N08151189WA004400049100408000
B1758372831839N08151225WA004700052600408000
B1758422831817N08151258WA005040056200508000
B1758472831799N08151291WA005370059900608000
B1758522831780N08151327WA005630063000408000
B1758572831760N08151361WA005840065600408000
B1759022831733N08151390WA006080067700508000
B1759072831695N08151407WA006260069900508000
B1759122831664N08151416WA006130071200608000
B1759172831622N08151387WA005910069201108000
B1759222831588N08151336WA005850066501008000
B1759272831570N08151282WA005650064000808000
B1759322831568N08151223WA005470061700808000
B1759372831576N08151170WA005350059900608000
B1759422831597N08151127WA005310058700608000
B1759472831625N08151096WA005330058500708000
B1759522831655N08151083WA005360058900808000
B1759572831684N08151084WA005400059500708000
B1800022831700N08151105WA005450059900608000
B1800072831677N08151123WA005440060101008000
B1800122831635N08151102WA005380059801108000
B1800172831613N08151050WA005320059200708000
B1800222831625N08150996WA005310058600608000
B1800272831644N08150954WA005340058800908000
B1800322831675N08150947WA005400059401008000
B1800372831675N08150974WA005470060201208000
B1800422831634N08150975WA005500060601208000
B1800472831596N08150937WA005500060500808000
B1800522831579N08150886WA005540060900708000
B1800572831592N08150838WA005540061200808000
B1801022831628N08150816WA005570061400808000
B1801072831667N08150816WA005600061700708000
B1801122831697N08150835WA005630062000608000
B1801172831700N08150868WA005630062300608000
B1801222831671N08150898WA005620062600808000
B1801272831625N08150891WA005690062701408000
B1801322831601N08150835WA005770063501108000
B1801372831627N08150802WA005810063701208000
B1801422831651N08150822WA005850064300808000
B1801472831634N08150852WA005880064601208000
B1801522831585N08150846WA005940064901008000
B1801572831556N08150795WA005980065501208000
B1802022831580N08150756WA005980066201208000
B1802072831610N08150759WA006000066300908000
B1802122831611N08150788WA006050066500608000
B1802172831573N08150805WA006100066801208000
B1802222831534N08150773WA006110067100708000
B1802272831530N08150715WA006100067000608000
B1802322831556N08150675WA006120067300608000
B1802372831587N08150664WA006100067301008000
B1802422831605N08150693WA006070067200408000
B1802472831588N08150721WA006110067400608000
B1802522831546N08150711WA006110067400908000
B1802572831520N08150658WA006130067500808000
B1803022831531N08150606WA006170067700708000
B1803072831563N08150577WA006160067600508000
B1803122831603N08150565WA006070067200708000
B1803172831644N08150553WA006030066700408000
B1803222831683N08150532WA005990066300708000
B1803272831724N08150515WA006000066000608000
B1803322831749N08150535WA006090066501308000
B1803372831721N08150565WA006170067401408000
B1803422831685N08150539WA006230068100808000
B1803472831686N08150489WA006280068801008000
B1803522831716N08150459WA006320069301108000
B1803572831749N08150475WA006410070100708000
B1804022831736N08150512WA006520071001508000
B1804072831698N08150499WA006640072301208000
B1804122831704N08150454WA006660072900908000
B1804172831742N08150452WA006720073501108000
B1804222831755N08150487WA006850075000908000
B1804272831722N08150506WA006890075401308000
B1804322831684N08150476WA006980076300908000
B1804372831688N08150430WA006980076400808000
B1804422831724N08150407WA007020076301208000
B1804472831753N08150427WA007140077400908000
B1804522831746N08150461WA007190078101108000
B1804572831706N08150464WA007200078300808000
B1805022831678N08150421WA007270079001208000
B1805072831681N08150373WA007270079400808000
F180512070809111623262730
B1805122831715N08150344WA007240079400809000
B1805172831748N08150363WA007320080000609000
B1805222831746N08150398WA007330080501009000
B1805272831703N08150416WA007350080501209000
B1805322831674N08150379WA007390080801509000
B1805372831705N08150352WA007440081100909000
B1805422831719N08150385WA007430081200809000
B1805472831692N08150412WA007440081401409000
B1805522831656N08150390WA007500081600609000
B1805572831661N08150342WA007530081800609000
B1806022831695N08150329WA007510082000509000
B1806072831713N08150355WA007520082100709000
B1806122831686N08150380WA007510082101009000
B1806172831651N08150361WA007540082501309000
B1806222831650N08150309WA007560082601009000
B1806272831679N08150283WA007510082400609000
B1806322831713N08150295WA007510081900709000
B1806372831701N08150324WA007500081901009000
B1806422831665N08150324WA007530082001409000
B1806472831666N08150280WA007540082000809000
B1806522831701N08150266WA007490081600509000
B1806572831739N08150247WA007450081300409000
B1807022831777N08150243WA007440081100609000
B1807072831799N08150269WA007440081300609000
B1807122831787N08150298WA007400081200609000
B1807172831750N08150300WA007340080700809000
B1807222831711N08150284WA007350080300409000
B1807272831676N08150252WA007340080200409000
B1807322831643N08150220WA007330080100309000
B1807372831604N08150198WA007270079800409000
B1807422831562N08150176WA007250079500409000
B1807472831535N08150129WA007200079200609000
B1807522831552N08150071WA007140078600909000
B1807572831583N08150044WA007120078300509000
B1808022831619N08150054WA007130078000509000
B1808072831607N08150077WA007140078201909000
B1808122831583N08150029WA007100077901209000
B1808172831614N08149997WA007160078200909000
B1808222831629N08150020WA007250078701109000
B1808272831589N08150009WA007320079401009000
B1808322831601N08149966WA007380080200909000
B1808372831631N08149975WA007480081000709000
B1808422831619N08150006WA007580081901309000
B1808472831585N08150000WA007620082800809000
B1808522831578N08149949WA007550082701109000
B1808572831607N08149911WA007660083000809000
F1809020708091123262730
B1809022831631N08149932WA007780084200608000
F180907070809111623262730
B1809072831601N08149949WA007840084701009000
B1809122831584N08149892WA007920085901209000
B1809172831611N08149870WA008030086901109000
B1809222831608N08149906WA008100087601309000
B1809272831574N08149901WA008190088601009000
B1809322831590N08149850WA008240089101009000
B1809372831630N08149850WA008400090700609000
B1809422831632N08149881WA008470091901209000
B1809472831592N08149877WA008520092300709000
B1809522831586N08149823WA008560092801409000
B1809572831622N08149796WA008660093601009000
B1810022831646N08149823WA008700094200809000
B1810072831625N08149856WA008750094601109000
B1810122831590N08149832WA008760094900909000
B1810172831589N08149780WA008800095200709000
B1810222831622N08149754WA008860095701209000
B1810272831646N08149786WA008880096100609000
B1810322831631N08149822WA008860096301309000
B1810372831590N08149834WA008820096301209000
B1810422831545N08149810WA008820095700809000
B1810472831518N08149766WA008830095600709000
B1810522831530N08149711WA008800095401209000
B1810572831568N08149692WA008830095601309000
B1811022831583N08149723WA008830095601109000
B1811072831557N08149744WA008840095600709000
B1811122831523N08149705WA008850095901309000
B1811172831537N08149650WA008880095901209000
B1811222831573N08149645WA008860095900809000
B1811272831591N08149676WA008870095900509000
B1811322831571N08149705WA008880096101309000
B1811372831524N08149697WA008870096100609000
B1811422831511N08149645WA008860096101509000
B1811472831550N08149640WA008900096201409000
B1811522831532N08149667WA008890096201209000
B1811572831485N08149649WA008880096200709000
B1812022831462N08149593WA008870096100609000
B1812072831484N08149542WA008850095800809000
B1812122831520N08149540WA008790095400609000
B1812172831537N08149576WA008770095000409000
B1812222831521N08149600WA008800095100909000
B1812272831491N08149555WA008760095101609000
B1812322831510N08149508WA008770095101509000
B1812372831540N08149521WA008750095000909000
B1812422831542N08149553WA008750095000709000
B1812472831536N08149577WA008740095000809000
B1812522831500N08149566WA008640094400909000
B1812572831466N08149525WA008590093700509000
B1813022831462N08149471WA008510092901109000
B1813072831495N08149444WA008520092601409000
B1813122831513N08149471WA008490092600909000
B1813172831497N08149504WA008460092400609000
B1813222831473N08149529WA008340091900509000
B1813272831446N08149558WA008210090900809000
B1813322831401N08149565WA008230090100509000
B1813372831365N08149532WA008310090201209000
B1813422831394N08149510WA008340090401409000
B1813472831395N08149544WA008340090701309000
B1813522831351N08149548WA008450091300609000
B1813572831327N08149504WA008500091900909000
B1814022831355N08149474WA008560092200809000
B1814072831359N08149505WA008600092700809000
B1814122831318N08149518WA008680093800709000
B1814172831284N08149475WA008690094300809000
B1814222831295N08149425WA008720094601109000
B1814272831323N08149418WA008790095100709000
B1814322831322N08149446WA008870095800909000
B1814372831284N08149453WA008930096601209000
B1814422831255N08149404WA008920096800709000
B1814472831256N08149348WA008950096900609000
B1814522831279N08149310WA009010097200709000
B1814572831308N08149315WA009030097500909000
B1815022831312N08149346WA009100097901109000
B1815072831277N08149354WA009200098700909000
B1815122831264N08149302WA009210099301309000
B1815172831299N08149304WA009280099800809000
B1815222831277N08149336WA009400100901409000
B1815272831251N08149290WA009430101701209000
B1815322831282N08149261WA009510102401409000
B1815372831302N08149282WA009620103801109000
B1815422831268N08149290WA009690104801309000
B1815472831242N08149240WA009760105501309000
B1815522831271N08149205WA009820106101609000
B1815572831294N08149224WA009910107000609000
B1816022831266N08149234WA009970107901509000
B1816072831238N08149186WA010050108501109000
B1816122831261N08149145WA010080108900709000
B1816172831280N08149165WA010160109500609000
B1816222831253N08149180WA010200110100709000
B1816272831218N08149144WA010250110401009000
B1816322831233N08149090WA010280110900709000
B1816372831270N08149083WA010370111800909000
B1816422831283N08149105WA010400112100809000
B1816472831254N08149126WA010360112101009000
B1816522831211N08149119WA010430112200609000
B1816572831181N08149075WA010490112800609000
B1817022831180N08149019WA010560113400809000
B1817072831205N08148979WA010570113701009000
B1817122831238N08148987WA010570113900509000
B1817172831237N08149018WA010560113801109000
B1817222831208N08149038WA010560113900409000
B1817272831166N08149041WA010610114200609000
B1817322831143N08148990WA010700114801409000
B1817372831180N08148972WA010780115700809000
B1817422831188N08149002WA010800116400809000
B1817472831141N08149006WA010870116801209000
B1817522831115N08148956WA010950117700809000
B1817572831141N08148920WA011090119000709000
B1818022831156N08148942WA011200120700809000
B1818072831128N08148967WA011230121201609000
B1818122831088N08148928WA011310121601409000
B1818172831102N08148874WA011390122201309000
B1818222831134N08148881WA011500123500609000
B1818272831121N08148914WA011520123900709000
B1818322831073N08148919WA011570124600709000
B1818372831039N08148866WA011610124900809000
B1818422831060N08148818WA011720125701009000
B1818472831084N08148836WA011760126200709000
B1818522831052N08148862WA011820126801209000
B1818572831004N08148834WA011870127401409000
B1819022831002N08148773WA011930127800809000
B1819072831035N08148758WA011990128600709000
B1819122831030N08148791WA012000128901309000
B1819172830984N08148791WA012070129301109000
B1819222830957N08148732WA012110129901409000
B1819272830987N08148709WA012150130201109000
B1819322830984N08148736WA012180130601209000
B1819372830934N08148704WA012190130801009000
B1819422830925N08148644WA012260131300909000
B1819472830954N08148632WA012230131200509000
B1819522830960N08148665WA012280131600509000
B1819572830937N08148686WA012330132200709000
B1820022830891N08148667WA012330132401009000
B1820072830873N08148607WA012340132601109000
B1820122830899N08148563WA012380133000809000
B1820172830924N08148574WA012380133100509000
B1820222830912N08148604WA012420133500509000
B1820272830872N08148579WA012410133600809000
B1820322830883N08148519WA012400133501009000
B1820372830915N08148495WA012460133900609000
B1820422830935N08148512WA012510134400509000
B1820472830915N08148543WA012510134301209000
B1820522830865N08148534WA012550134401009000
B1820572830835N08148483WA012560134600709000
B1821022830846N08148431WA012570134701009000
B1821072830877N08148424WA012570135001209000
B1821122830891N08148452WA012610135400809000
B1821172830869N08148482WA012620135601109000
F1821220708091116232730
B1821222830822N08148456WA012610135501108000
B1821272830812N08148389WA012620135401208000
B1821322830835N08148354WA012630135701308000
B1821372830867N08148355WA012680136200708000
B1821422830872N08148384WA012660136200808000
B1821472830846N08148416WA012690136400808000
B1821522830801N08148422WA012740136600508000
B1821572830755N08148392WA012740136900608000
B1822022830732N08148337WA012770137001308000
B1822072830745N08148287WA012700136701208000
B1822122830775N08148273WA012690136301008000
B1822172830795N08148298WA012680136200708000
B1822222830790N08148336WA012740136600908000
B1822272830753N08148351WA012770136901008000
B1822322830713N08148313WA012730136900908000
B1822372830723N08148261WA012700136501508000
B1822422830753N08148265WA012730136501008000
B1822472830745N08148296WA012770136800908000
B1822522830705N08148302WA012710136500908000
B1822572830671N08148252WA012630135801108000
B1823022830690N08148200WA012610135700808000
B1823072830717N08148196WA012640135901108000
B1823122830714N08148221WA012630135700808000
B1823172830689N08148246WA012600135600708000
B1823222830649N08148251WA012480135000608000
B1823272830604N08148244WA012380134000608000
B1823322830560N08148234WA012290132900408000
F18233707091116232730
B1823372830517N08148231WA012220132000407000
F182342010708091116232730
B1823422830475N08148231WA012200131400809000
B1823472830436N08148226WA012240131600509000
B1823522830395N08148200WA012310132100709000
B1823572830358N08148167WA012340132500509000
B1824022830317N08148145WA012200132200909000
B1824072830272N08148147WA012100131400609000
B1824122830230N08148156WA012040130600609000
B1824172830188N08148163WA012020129800509000
B1824222830143N08148165WA012000129300709000
B1824272830094N08148169WA011970128800609000
B1824322830049N08148170WA012010128900309000
B1824372830010N08148175WA011980128800309000
B1824422829965N08148182WA011920128600509000
B1824472829917N08148183WA011890128300309000
B1824522829870N08148184WA011840127800409000
B1824572829827N08148191WA011800127400609000
B1825022829780N08148198WA011740126900409000
B1825072829730N08148190WA011710126400709000
B1825122829680N08148180WA011710126300409000
B1825172829634N08148178WA011690126100309000
B1825222829586N08148179WA011650125800309000
B1825272829535N08148176WA011630125500309000
B1825322829485N08148169WA011550125000309000
B1825372829433N08148159WA011440124100309000
B1825422829383N08148150WA011370123100509000
B1825472829335N08148138WA011280122200609000
B1825522829286N08148135WA011180121200309000
B1825572829242N08148141WA011120120500309000
B1826022829199N08148145WA011030119600409000
B1826072829154N08148148WA010940118600509000
B1826122829112N08148161WA010810117300309000
B1826172829078N08148178WA010760116500409000
B1826222829043N08148196WA010700115800309000
B1826272829005N08148212WA010640115100309000
B1826322828965N08148226WA010560114400509000
B1826372828925N08148242WA010450113400309000
B1826422828882N08148255WA010390112500309000
B1826472828843N08148265WA010300111800409000
B1826522828805N08148275WA010180110600309000
B1826572828768N08148290WA010060109300309000
B1827022828728N08148299WA009940108000309000
B1827072828685N08148297WA009850106800409000
B1827122828640N08148286WA009730105700309000
B1827172828592N08148272WA009630104600309000
B1827222828547N08148260WA009550103700509000
B1827272828501N08148243WA009450102800509000
B1827322828454N08148226WA009360101800509000
B1827372828406N08148211WA009280100800509000
B1827422828360N08148200WA009180099800509000
B1827472828313N08148193WA009120099000509000
B1827522828270N08148188WA009060098400509000
B1827572828226N08148180WA008950097400309000
B1828022828184N08148177WA008830096300409000
B1828072828140N08148176WA008730095100309000
B1828122828094N08148182WA008680094200409000
B1828172828049N08148190WA008750094000709000
B1828222828031N08148138WA008730094201209000
B1828272828050N08148079WA008740094500709000
B1828322828086N08148048WA008690094500609000
B1828372828123N08148060WA008580093600709000
B1828422828142N08148094WA008480092400709000
B1828472828133N08148130WA008460092100309000
B1828522828105N08148158WA008490092200509000
B1828572828073N08148126WA008590092702109000
B1829022828100N08148074WA008640093300909000
B1829072828123N08148095WA008660093701209000
B1829122828100N08148122WA008750094200609000
B1829172828069N08148096WA008830095101609000
B1829222828102N08148054WA008910096200809000
B1829272828116N08148073WA008960096900809000
B1829322828081N08148078WA009020097400609000
B1829372828054N08148037WA009110098201109000
B1829422828077N08147993WA009180099201109000
B1829472828101N08148014WA009250100200909000
B1829522828070N08148028WA009320101100909000
B1829572828046N08147974WA009340101401609000
B1830022828075N08147936WA009420102000909000
B1830072828093N08147958WA009520103200509000
B1830122828072N08147980WA009580103701209000
B1830172828032N08147949WA009590104001009000
B1830222828028N08147896WA009640104300809000
B1830272828062N08147886WA009700104800709000
B1830322828056N08147913WA009700105100809000
B1830372828015N08147896WA009660105000909000
B1830422827989N08147845WA009690105101009000
B1830472828015N08147803WA009720105200709000
B1830522828032N08147825WA009780105701109000
B1830572827992N08147801WA009800106001709000
B1831022828007N08147740WA009910106900809000
B1831072828036N08147752WA009980107401009000
B1831122828001N08147766WA010010107701009000
B1831172827968N08147723WA010120108501309000
B1831222827982N08147666WA010160109200909000
F18312701070809111623272830
B1831272828022N08147655WA010160109600510000
B1831322828050N08147665WA010240110101010000
B1831372828030N08147688WA010280110801210000
B1831422827984N08147663WA010300111100810000
B1831472827974N08147600WA010340111600910000
B1831522828008N08147571WA010340111800710000
B1831572828016N08147602WA010360112001210000
B1832022827980N08147606WA010450112500910000
B1832072827978N08147546WA010480112901010000
B1832122828016N08147543WA010470113000710000
B1832172828013N08147573WA010550113600910000
B1832222827970N08147546WA010570113801310000
B1832272827984N08147486WA010650114800610000
B1832322828020N08147476WA010700115300710000
B1832372828040N08147499WA010720115700610000
B1832422828027N08147527WA010810116400610000
B1832472827988N08147515WA010840117000410000
B1832522827972N08147461WA010850117100810000
B1832572828000N08147416WA010910117600810000
B1833022828031N08147433WA010990118500510000
B1833072828017N08147457WA011060119401110000
B1833122827979N08147419WA011110119900910000
B1833172827982N08147359WA011200120701110000
B1833222828019N08147347WA011220121001010000
B1833272828019N08147381WA011260121201010000
B1833322827974N08147359WA011300121501110000
B1833372827989N08147295WA011380122100810000
B1833422828024N08147303WA011360122400910000
B1833472827997N08147334WA011410122701310000
B1833522827959N08147306WA011480123600910000
B1833572827968N08147247WA011550124301210000
B1834022828004N08147235WA011600124800610000
B1834072828012N08147265WA011610125001010000
B1834122827984N08147287WA011660125400410000
B1834172827944N08147287WA011610125200610000
B1834222827903N08147254WA011580124900710000
B1834272827894N08147198WA011590125000910000
B1834322827906N08147139WA011620125300610000
B1834372827932N08147094WA011660125500710000
B1834422827972N08147093WA011670125600710000
B1834472827981N08147121WA011690125800610000
B1834522827959N08147150WA011700125900410000
B1834572827918N08147150WA011730126100810000
B1835022827890N08147099WA011750126501110000
B1835072827923N08147059WA011760126901310000
B1835122827951N08147083WA011780127100810000
B1835172827923N08147104WA011810127500710000
B1835222827882N08147066WA011830127800910000
B1835272827884N08147009WA011840127800810000
B1835322827925N08146987WA011820127801010000
B1835372827951N08147010WA011840127700810000
B1835422827945N08147043WA011850127700510000
B1835472827907N08147045WA011760127200710000
B1835522827866N08147012WA011730126800410000
B1835572827856N08146955WA011750126801010000
B1836022827889N08146917WA011690126300710000
B1836072827920N08146934WA011690126300710000
B1836122827908N08146969WA011630125700510000
B1836172827872N08146988WA011500124300710000
B1836222827836N08147007WA011400122900410000
B1836272827796N08147016WA011280121800310000
B1836322827751N08147020WA011170120700510000
B1836372827705N08147020WA011080119700510000
B1836422827659N08147021WA010980118600310000
B1836472827611N08147022WA010870117500410000
B1836522827560N08147014WA010750116300410000
B1836572827507N08146997WA010650115200310000
B1837022827458N08146990WA010560114200310000
B1837072827410N08146993WA010460113100410000
B1837122827364N08146996WA010380112300510000
B1837172827319N08146998WA010310111400310000
B1837222827271N08146998WA010200110400510000
B1837272827219N08146985WA010140109600310000
B1837322827169N08146974WA010090108900610000
B1837372827121N08146972WA009990107900410000
B1837422827072N08146969WA009890107000410000
B1837472827025N08146968WA009770105900610000
B1837522826977N08146970WA009660104700610000
B1837572826930N08146970WA009570103800510000
B1838022826882N08146944WA009500103000210000
B1838072826836N08146911WA009450102300310000
B1838122826790N08146881WA009410101900310000
B1838172826748N08146844WA009400101700310000
B1838222826721N08146790WA009370101700310000
B1838272826692N08146736WA009320101300510000
B1838322826658N08146689WA009280100900510000
B1838372826619N08146650WA009170100100510000
B1838422826576N08146614WA009040098600310000
B1838472826527N08146598WA008940097300510000
B1838522826482N08146604WA008850096200310000
B1838572826445N08146623WA008780095300310000
B1839022826418N08146651WA008680094300310000
B1839072826395N08146683WA008590093300310000
B1839122826378N08146714WA008470092100410000
B1839172826362N08146748WA008280090400410000
B1839222826342N08146784WA008150088900510000
B1839272826335N08146823WA008000087200510000
B1839322826331N08146860WA007840085400410000
B1839372826315N08146893WA007670083900310000
B1839422826285N08146922WA007460081800310000
B1839472826279N08146955WA007310079900510000
B1839522826285N08146987WA007130078000610000
B1839572826277N08147025WA006950076100610000
B1840022826256N08147063WA006840074600510000
B1840072826228N08147098WA006750073600510000
B1840122826206N08147136WA006630072500510000
B1840172826181N08147174WA006510071300310000
B1840222826165N08147211WA006450070400610000
F184027070809111623272830
B1840272826158N08147249WA006310069300509000
F18403201070809111623272830
B1840322826167N08147287WA006200068300510000
B1840372826179N08147327WA006150067600510000
B1840422826185N08147359WA006170067500610000
B1840472826156N08147371WA006140067601110000
B1840522826114N08147337WA006070067000710000
B1840572826099N08147281WA006020066500610000
B1841022826114N08147227WA006000066100310000
B1841072826150N08147199WA005950065800710000
B1841122826189N08147206WA005900065500510000
B1841172826209N08147234WA005830064700810000
B1841222826216N08147268WA005790064100510000
B1841272826209N08147300WA005770063800510000
B1841322826188N08147330WA005790063800510000
B1841372826155N08147315WA005800063801110000
B1841422826170N08147261WA005770063701110000
B1841472826215N08147257WA005780063800510000
B1841522826228N08147285WA005790063700710000
B1841572826202N08147300WA005800063800710000
B1842022826166N08147274WA005790064000710000
B1842072826168N08147222WA005760064001110000
B1842122826207N08147192WA005760063800810000
B1842172826216N08147222WA005760063701110000
B1842222826181N08147214WA005790063801110000
B1842272826178N08147162WA005800064000610000
B1842322826216N08147143WA005820064501010000
B1842372826241N08147162WA005820064500810000
B1842422826234N08147194WA005810064300410000
B1842472826205N08147211WA005750063800510000
B1842522826164N08147211WA005670062900710000
B1842572826124N08147173WA005590062000510000
B1843022826094N08147127WA005510061200410000
B1843072826103N08147075WA005420060101010000
B1843122826146N08147063WA005410060001010000
B1843172826163N08147084WA005410060101010000
B1843222826123N08147075WA005340059700810000
B1843272826131N08147014WA005320059201110000
B1843322826172N08147011WA005320059000810000
B1843372826172N08147048WA005340059000710000
B1843422826136N08147026WA005290058701310000
B1843472826147N08146969WA005290058800710000
B1843522826184N08146958WA005260058700610000
B1843572826204N08146991WA005230058100710000
B1844022826191N08147022WA005140057600610000
B1844072826151N08147016WA005050056801110000
B1844122826131N08146964WA004960056000910000
B1844172826164N08146922WA004850054801210000
B1844222826204N08146927WA004800053700810000
B1844272826227N08146954WA004710052700710000
B1844322826238N08146986WA004640051800410000
B1844372826251N08147017WA004580051100510000
B1844422826274N08147044WA004560050700510000
B1844472826271N08147069WA004580050900710000
B1844522826236N08147044WA004600051100610000
B1844572826240N08146990WA004620051500510000
B1845022826277N08146975WA004580051200510000
B1845072826308N08146999WA004580051200710000
B1845122826300N08147026WA004640051500810000
B1845172826267N08146993WA004730052001310000
B1845222826283N08146943WA004780053100810000
B1845272826318N08146955WA004800053500710000
B1845322826318N08146990WA004850053800710000
B1845372826281N08146979WA004950054300910000
B1845422826305N08146936WA005010055001010000
B1845472826303N08146976WA005090055801110000
B1845522826277N08146940WA005190057500910000
B1845572826316N08146920WA005300058701310000
B1846022826308N08146949WA005380059600510000
B1846072826279N08146921WA005500060801410000
B1846122826316N08146893WA005620062101110000
B1846172826327N08146920WA005730063301310000
B1846222826290N08146924WA005820064400510000
B1846272826278N08146875WA005920065501110000
B1846322826316N08146853WA006030066600710000
B1846372826331N08146878WA006120067200810000
B1846422826298N08146882WA006210068200710000
B1846472826296N08146828WA006310068601010000
B1846522826327N08146838WA006370069301010000
B1846572826294N08146858WA006450069900710000
B1847022826259N08146824WA006540071001310000
B1847072826280N08146776WA006600072101010000
B1847122826309N08146791WA006720073000910000
B1847172826278N08146804WA006820074600710000
B1847222826259N08146756WA006880075601210000
B1847272826293N08146724WA007000076300810000
B1847322826303N08146747WA007070077000810000
B1847372826262N08146740WA007150077800810000
B1847422826253N08146686WA007240079200910000
B1847472826286N08146673WA007310080000910000
B1847522826282N08146699WA007380080401010000
B1847572826244N08146680WA007440081100710000
B1848022826244N08146626WA007540082001210000
B1848072826278N08146614WA007600082600710000
B1848122826278N08146644WA007650082900910000
B1848172826240N08146629WA007750083901210000
B1848222826257N08146582WA007800084701010000
B1848272826268N08146614WA007850085500610000
B1848322826237N08146580WA007900086501010000
B1848372826270N08146572WA007960086700910000
B1848422826250N08146594WA008040087301110000
B1848472826223N08146554WA008090088100810000
B1848522826248N08146517WA008140088701110000
B1848572826254N08146550WA008170088801010000
B1849022826215N08146559WA008260089500810000
B1849072826198N08146509WA008330090201010000
B1849122826231N08146499WA008400090901110000
B1849172826212N08146525WA008490092000910000
B1849222826181N08146488WA008570093001010000
B1849272826208N08146448WA008600093500910000
B1849322826222N08146483WA008610093300710000
B1849372826189N08146484WA008730094100810000
B1849422826183N08146429WA008770094501010000
B1849472826216N08146415WA008800095200810000
B1849522826217N08146451WA008810095400710000
B1849572826183N08146445WA008870095900810000
B1850022826190N08146387WA008910096301410000
B1850072826220N08146401WA008910096600910000
B1850122826211N08146428WA009000097200910000
B1850172826175N08146413WA009000097400510000
B1850222826164N08146361WA009040098000810000
B1850272826189N08146333WA009060098400910000
B1850322826207N08146361WA009070098301110000
B1850372826182N08146374WA009040098200810000
B1850422826149N08146329WA009050098200610000
B1850472826162N08146280WA009090098600610000
B1850522826193N08146282WA009080098500510000
B1850572826197N08146311WA009100098400510000
B1851022826174N08146333WA009100098600310000
B1851072826137N08146324WA009180099300710000
B1851122826127N08146267WA009230100000610000
B1851172826158N08146250WA009210099800610000
B1851222826161N08146283WA009180099600810000
B1851272826134N08146305WA009260100000510000
B1851322826117N08146260WA009310100401210000
B1851372826148N08146233WA009390100901310000
B1851422826161N08146261WA009430101501010000
B1851472826134N08146261WA009520102400610000
B1851522826133N08146209WA009550103101210000
B1851572826169N08146206WA009600104000910000
B1852022826155N08146225WA009650104400510000
B1852072826137N08146181WA009690104700810000
B1852122826167N08146149WA009730105001010000
B1852172826195N08146166WA009760105400510000
B1852222826179N08146182WA009850106200610000
B1852272826158N08146138WA009890106501010000
B1852322826187N08146100WA009930107200810000
B1852372826209N08146118WA009970107500810000
B1852422826180N08146130WA010000107800710000
B1852472826143N08146105WA010050108300610000
B1852522826135N08146050WA010060108600510000
B1852572826164N08146008WA010100108800510000
B1853022826192N08146020WA010090108800710000
B1853072826184N08146045WA010140109100510000
B1853122826152N08146021WA010170109500410000
B1853172826152N08145963WA010200109700710000
B1853222826186N08145943WA010220110000610000
B1853272826199N08145967WA010200110000810000
B1853322826176N08145982WA010240110300410000
B1853372826142N08145954WA010260110500310000
B1853422826135N08145897WA010310110800710000
B1853472826168N08145882WA010310111001010000
B1853522826179N08145909WA010330111200610000
B1853572826148N08145908WA010370111600310000
B1854022826136N08145856WA010380111800910000
B1854072826169N08145829WA010440112200710000
B1854122826167N08145853WA010420112301010000
B1854172826126N08145836WA010460112700810000
B1854222826112N08145785WA010500113100610000
B1854272826137N08145746WA010470113000610000
B1854322826162N08145760WA010450112800710000
B1854372826149N08145789WA010470112800410000
B1854422826117N08145779WA010530113300510000
B1854472826111N08145723WA010550113700610000
B1854522826142N08145697WA010560113800710000
B1854572826159N08145721WA010550113700910000
B1855022826138N08145745WA010580114200510000
B1855072826100N08145737WA010610114400710000
B1855122826083N08145685WA010580114300510000
B1855172826096N08145630WA010600114300510000
B1855222826123N08145623WA010590114100510000
B1855272826104N08145653WA010540113700610000
B1855322826063N08145649WA010580114100610000
B1855372826039N08145602WA010560114200510000
B1855422826046N08145551WA010540114000610000
B1855472826076N08145549WA010460113400410000
B1855522826077N08145583WA010420112800510000
B1855572826045N08145606WA010420112700510000
B1856022826002N08145602WA010390112300410000
B1856072825961N08145585WA010330111700310000
B1856122825921N08145564WA010250110800410000
B1856172825881N08145537WA010150109900610000
B1856222825842N08145510WA010040108700510000
B1856272825800N08145485WA009940107600310000
B1856322825753N08145461WA009820106400310000
B1856372825703N08145442WA009680105100610000
B1856422825654N08145422WA009580104000310000
B1856472825604N08145404WA009480103000310000
B1856522825556N08145382WA009410102000310000
B1856572825510N08145354WA009380101400310000
B1857022825467N08145325WA009350101200310000
B1857072825422N08145299WA009300100700310000
B1857122825374N08145278WA009210099800410000
B1857172825324N08145256WA009090098700310000
B1857222825277N08145226WA009000097600310000
B1857272825231N08145193WA008900096500410000
B1857322825186N08145155WA008800095300310000
B1857372825145N08145111WA008700094300310000
B1857422825101N08145076WA008610093300310000
B1857472825056N08145053WA008520092200310000
B1857522825010N08145032WA008370091000210000
B1857572824961N08145006WA008220089500310000
B1858022824910N08144981WA008070087900310000
B1858072824863N08144958WA007930086400310000
B1858122824817N08144937WA007770084700310000
B1858172824768N08144916WA007630083100310000
B1858222824722N08144897WA007480081500310000
B1858272824674N08144881WA007300079600310000
B1858322824631N08144865WA007170077900410000
B1858372824588N08144850WA006960076100310000
B1858422824542N08144842WA006790074400510000
B1858472824494N08144820WA006670072900510000
B1858522824442N08144801WA006530071500510000
B1858572824390N08144782WA006420070300410000
B1859022824337N08144763WA006310069100410000
B1859072824287N08144745WA006330068600610000
B1859122824278N08144694WA006360068901110000
B1859172824311N08144669WA006380069301010000
B1859222824307N08144699WA006380069500910000
B1859272824266N08144706WA006360069400610000
B1859322824230N08144677WA006400069600610000
B1859372824236N08144617WA006380069600710000
B1859422824270N08144604WA006400069700610000
B1859472824273N08144639WA006390069800410000
B1859522824243N08144657WA006420070100510000
B1859572824210N08144620WA006440070400310000
B1900022824214N08144561WA006460070400710000
B1900072824246N08144541WA006490070700710000
B1900122824250N08144571WA006480070600710000
B1900172824212N08144582WA006490070800610000
B1900222824173N08144562WA006500070900410000
B1900272824147N08144516WA006580071300510000
B1900322824164N08144469WA006650072000910000
B1900372824192N08144477WA006650072401010000
B1900422824174N08144507WA006620072500710000
B1900472824135N08144505WA006640072700510000
B1900522824127N08144443WA006700073000910000
B1900572824157N08144442WA006740073301210000
B1901022824128N08144463WA006750073800610000
B1901072824093N08144430WA006810074400610000
B1901122824113N08144389WA006860074901310000
B1901172824120N08144415WA006920075100710000
B1901222824083N08144407WA006980075800510000
B1901272824056N08144362WA007020076500310000
B1901322824073N08144321WA007050076901010000
B1901372824100N08144342WA007070077100810000
B1901422824071N08144357WA007130077500710000
B1901472824050N08144306WA007160077900910000
B1901522824073N08144273WA007200078600810000
B1901572824084N08144302WA007170078301010000
B1902022824045N08144314WA007210078800710000
B1902072824019N08144278WA007270079300510000
B1902122824042N08144237WA007300079401010000
B1902172824072N08144251WA007320079500810000
B1902222824066N08144286WA007350079800610000
B1902272824031N08144285WA007400080400710000
B1902322824028N08144235WA007420080601210000
B1902372824066N08144227WA007420080900710000
B1902422824080N08144261WA007440080900410000
B1902472824059N08144288WA007500081300610000
B1902522824027N08144262WA007540081800410000
B1902572824035N08144214WA007540081901010000
B1903022824075N08144213WA007530081900910000
B1903072824086N08144250WA007590082200810000
B1903122824057N08144244WA007610082301310000
B1903172824081N08144201WA007650082701110000
B1903222824102N08144225WA007690083100910000
B1903272824068N08144231WA007680083400910000
B1903322824051N08144190WA007750083900810000
B1903372824080N08144157WA007730084000910000
B1903422824111N08144172WA007770084400610000
B1903472824104N08144201WA007780084600610000
B1903522824068N08144201WA007800084700510000
B1903572824046N08144161WA007840085000510000
B1904022824059N08144110WA007830085000510000
B1904072824093N08144090WA007860085200810000
B1904122824111N08144118WA007870085400510000
B1904172824089N08144136WA007930086000810000
B1904222824069N08144094WA007940086301110000
B1904272824091N08144049WA007960086500710000
B1904322824131N08144046WA007980086600710000
B1904372824142N08144076WA007980086700510000
B1904422824120N08144098WA007980086800810000
B1904472824086N08144095WA008020087000610000
B1904522824076N08144047WA008010087000810000
B1904572824111N08144006WA008040087100810000
B1905022824138N08144020WA008040086900710000
B1905072824110N08144036WA008000086700910000
B1905122824077N08144003WA007980086800610000
B1905172824082N08143949WA008010087100610000
B1905222824117N08143942WA008030087100510000
B1905272824117N08143978WA008000086800710000
B1905322824081N08143978WA008040087100610000
B1905372824074N08143922WA008040087000910000
B1905422824106N08143910WA008080087400710000
B1905472824090N08143939WA008060087200810000
B1905522824060N08143921WA008090087501010000
B1905572824086N08143868WA008080087500810000
B1906022824118N08143866WA008120087800510000
B1906072824112N08143899WA008090087800710000
B1906122824081N08143919WA008110088000410000
B1906172824044N08143892WA008090087800310000
B1906222824041N08143837WA008080087700310000
B1906272824069N08143794WA008100087700410000
B1906322824102N08143801WA008070087400310000
B1906372824104N08143837WA008060087400410000
B1906422824082N08143860WA008060087500510000
B1906472824040N08143853WA007980086900610000
B1906522824002N08143814WA007940086500410000
B1906572823965N08143780WA007890086000510000
B1907022823918N08143771WA007850085300510000
B1907072823879N08143791WA007820085000310000
B1907122823854N08143825WA007820084900410000
B1907172823834N08143859WA007870085100410000
B1907222823843N08143891WA007900085600610000
B1907272823882N08143906WA007860085500810000
B1907322823924N08143891WA007820085000610000
B1907372823936N08143843WA007780084600610000
B1907422823917N08143794WA007690083900410000
B1907472823879N08143766WA007640083300610000
B1907522823838N08143777WA007610082800310000
B1907572823807N08143811WA007580082600510000
B1908022823790N08143848WA007640082900610000
B1908072823751N08143841WA007700083400610000
B1908122823748N08143794WA007770083801010000
B1908172823777N08143807WA007770084001310000
B1908222823734N08143828WA007840084801010000
B1908272823713N08143784WA007890085300810000
B1908322823748N08143761WA007990086201110000
B1908372823756N08143796WA008060086900910000
B1908422823718N08143808WA008090087700710000
B1908472823684N08143769WA008130088100410000
B1908522823692N08143722WA008190088701210000
B1908572823713N08143753WA008270089100910000
B1909022823677N08143767WA008340089800810000
B1909072823652N08143719WA008340090000910000
B1909122823673N08143675WA008370090301010000
B1909172823701N08143685WA008490091100810000
B1909222823678N08143714WA008570091900810000
B1909272823647N08143677WA008610092500710000
F190932070809111623272830
B1909322823674N08143635WA008620092501309000
F19093701070809111623272830
B1909372823694N08143658WA008720093001010000
B1909422823655N08143662WA008810094101210000
B1909472823661N08143612WA008860095201110000
B1909522823689N08143628WA008920095900610000
B1909572823669N08143656WA009000096900610000
B1910022823634N08143631WA009050097200810000
B1910072823651N08143592WA009060097501410000
B1910122823675N08143618WA009060097401010000
B1910172823644N08143638WA009110098000710000
B1910222823622N08143586WA009120098201110000
B1910272823652N08143548WA009120098201010000
B1910322823684N08143570WA009150098700510000
B1910372823671N08143603WA009180099100510000
B1910422823631N08143592WA009250099700510000
B1910472823630N08143540WA009230099701110000
B1910522823667N08143520WA009270099801010000
B1910572823669N08143559WA009220099301010000
B1911022823632N08143569WA009290099700610000
B1911072823618N08143524WA009300100000910000
B1911122823649N08143482WA009310100200810000
B1911172823677N08143499WA009290100301210000
B1911222823655N08143534WA009260100200810000
B1911272823625N08143511WA009280100400710000
B1911322823646N08143467WA009300100401210000
B1911372823677N08143479WA009280100201210000
B1911422823664N08143518WA009250100000910000
B1911472823628N08143527WA009250099900610000
B1911522823592N08143502WA009280100000310000
B1911572823586N08143451WA009310100400810000
B1912022823622N08143424WA009360100801010000
B1912072823638N08143454WA009370101000810000
B1912122823612N08143486WA009340101100710000
B1912172823577N08143482WA009420101400610000
B1912222823555N08143435WA009390101200710000
B1912272823566N08143384WA009410101300710000
B1912322823605N08143376WA009420101301010000
B1912372823605N08143406WA009460101700810000
B1912422823566N08143400WA009480102100610000
B1912472823559N08143350WA009450101901010000
B1912522823594N08143319WA009430101701110000
B1912572823608N08143350WA009430101600810000
B1913022823573N08143354WA009460101800710000
B1913072823548N08143315WA009430101900610000
B1913122823564N08143260WA009400101301010000
B1913172823606N08143261WA009370101100710000
B1913222823605N08143289WA009400101201010000
B1913272823574N08143251WA009390101100910000
B1913322823589N08143198WA009410101400810000
B1913372823631N08143194WA009410101300510000
B1913422823632N08143226WA009380101200810000
B1913472823601N08143240WA009400101300610000
B1913522823565N08143232WA009410101400610000
B1913572823528N08143216WA009360101000410000
B1914022823489N08143196WA009250100100510000
B1914072823448N08143178WA009140099000310000
B1914122823411N08143162WA009100098300510000
B1914172823374N08143150WA009040097600410000
B1914222823336N08143139WA008970096900410000
B1914272823299N08143126WA008920096300510000
B1914322823260N08143114WA008860095700410000
B1914372823218N08143102WA008720094600510000
B1914422823175N08143092WA008640093700410000
B1914472823132N08143083WA008560092800410000
B1914522823089N08143078WA008500092100410000
B1914572823044N08143076WA008450091400310000
B1915022822995N08143066WA008430090900310000
B1915072822946N08143048WA008400090700410000
B1915122822911N08143017WA008410090601210000
B1915172822950N08143002WA008230089801010000
B1915222822954N08143034WA008320089801010000
B1915272822912N08143032WA008300089700810000
B1915322822872N08142993WA008290089600510000
B1915372822876N08142938WA008270089501110000
B1915422822911N08142938WA008200088800510000
B1915472822919N08142972WA008180088700610000
B1915522822899N08143001WA008140088600510000
B1915572822864N08143014WA008090088300310000
B1916022822819N08143008WA008050087600310000
B1916072822777N08142983WA007990087000310000
B1916122822732N08142966WA007920086200510000
B1916172822690N08142954WA007870085500310000
B1916222822646N08142942WA007700084100510000
B1916272822607N08142953WA007540082200410000
B1916322822569N08142958WA007430080700410000
B1916372822527N08142944WA007300079200410000
B1916422822482N08142928WA007160077800410000
B1916472822436N08142909WA006990076200410000
B1916522822390N08142881WA006870074800510000
B1916572822346N08142858WA006780073800310000
B1917022822301N08142841WA006680072700310000
B1917072822256N08142828WA006580071600410000
B1917122822212N08142823WA006480070600310000
B1917172822168N08142821WA006350069300410000
B1917222822136N08142793WA006240068200510000
B1917272822131N08142732WA006000065900710000
B1917322822123N08142670WA005810063800610000
B1917372822122N08142604WA005630061800510000
B1917422822133N08142541WA005660060500710000
B1917472822158N08142546WA005620060201510000
B1917522822129N08142582WA005660060901210000
B1917572822113N08142524WA005650061301110000
B1918022822144N08142502WA005700061700710000
B1918072822162N08142535WA005690061800610000
B1918122822136N08142564WA005690062000710000
B1918172822094N08142550WA005620061700610000
B1918222822059N08142500WA005460060500410000
B1918272822053N08142440WA005410059800910000
B1918322822090N08142419WA005380059300710000
B1918372822115N08142444WA005370059000510000
B1918422822126N08142477WA005350058800710000
B1918472822115N08142511WA005330058700710000
B1918522822073N08142504WA005270058200510000
B1918572822064N08142455WA005220057500410000
B1919022822097N08142431WA005140056500810000
F191907010708091116232830
B1919072822127N08142450WA005120056200509000
F19191201070809111623272830
B1919122822144N08142482WA005120056100610000
B1919172822143N08142520WA005120056100410000
B1919222822105N08142522WA005040055800810000
B1919272822086N08142472WA004950054900910000
B1919322822111N08142447WA004880054101010000
B1919372822135N08142480WA004800053100910000
B1919422822141N08142516WA004790052800610000
B1919472822110N08142545WA004690052100610000
B1919522822069N08142555WA004660051600410000
B1919572822050N08142587WA004570051000910000
B1920022822071N08142617WA004500050400610000
B1920072822106N08142620WA004440049600810000
B1920122822139N08142602WA004420049100510000
B1920172822173N08142598WA004380048600610000
B1920222822198N08142630WA004370048300610000
B1920272822177N08142652WA004410048601010000
B1920322822169N08142605WA004440049101310000
B1920372822205N08142611WA004420048900810000
B1920422822217N08142647WA004480049100610000
B1920472822192N08142664WA004430049000710000
B1920522822166N08142624WA004410048600710000
B1920572822192N08142579WA004430048700810000
B1921022822222N08142591WA004470049000510000
B1921072822228N08142624WA004420048900510000
B1921122822198N08142654WA004380048700510000
B1921172822165N08142630WA004420048801110000
B1921222822198N08142603WA004420048800910000
B1921272822213N08142641WA004450048800810000
B1921322822175N08142637WA004500049101110000
B1921372822181N08142591WA004570049501010000
B1921422822215N08142604WA004540049601010000
B1921472822210N08142648WA004590049900610000
B1921522822177N08142664WA004570050000810000
B1921572822151N08142621WA004490049700710000
B1922022822155N08142566WA004490049501110000
B1922072822195N08142568WA004520049600810000
B1922122822204N08142611WA004510049601010000
B1922172822167N08142632WA004460049201010000
B1922222822128N08142609WA004330048300610000
B1922272822107N08142556WA004190046800810000
B1922322822134N08142504WA004150045901210000
B1922372822180N08142510WA004100045200910000
B1922422822185N08142544WA004170045601110000
B1922472822149N08142523WA004120045600510000
B1922522822164N08142474WA004070045001310000
B1922572822205N08142485WA004110045300710000
B1923022822223N08142523WA004050045000810000
B1923072822231N08142561WA004000044600510000
B1923122822208N08142589WA003780043501110000
B1923172822170N08142556WA003600041500710000
B1923222822170N08142491WA003450039100910000
B1923272822182N08142432WA003350037300810000
B1923322822192N08142371WA003290036200710000
B1923372822218N08142326WA003270036000610000
B1923422822248N08142282WA003290036000610000
B1923472822267N08142311WA003180035801410000
B1923522822227N08142328WA003190035801010000
B1923572822217N08142279WA003180035801110000
B1924022822252N08142238WA003190035800710000
B1924072822287N08142250WA003150035300610000
B1924122822279N08142291WA003100034800410000
B1924172822260N08142318WA003150034800610000
B1924222822235N08142285WA003120034801210000
B1924272822256N08142235WA003150035001010000
B1924322822290N08142252WA003160035100810000
B1924372822267N08142269WA003160035301110000
B1924422822245N08142218WA003140035401210000
B1924472822257N08142169WA003160035301110000
B1924522822302N08142171WA003110035000710000
B1924572822327N08142204WA003040034400810000
B1925022822321N08142245WA003000033900610000
B1925072822288N08142252WA002970033801010000
B1925122822272N08142196WA002870032900610000
B1925172822301N08142144WA002880032500910000
B1925222822333N08142158WA002840032000610000
B1925272822299N08142170WA002830032000910000
B1925322822268N08142147WA002880032100610000
B1925372822279N08142097WA002830032000910000
B1925422822320N08142080WA002810031900910000
B1925472822331N08142116WA002750031701110000
B1925522822296N08142122WA002720031400810000
B1925572822271N08142075WA002640030800710000
B1926022822290N08142023WA002660030900910000
B1926072822328N08142036WA002620030100710000
B1926122822313N08142069WA002570029601010000
B1926172822278N08142048WA002530029100910000
B1926222822276N08141996WA002540028900810000
B1926272822318N08141971WA002560028900910000
B1926322822330N08142003WA002540028900810000
B1926372822297N08142000WA002540029000710000
B1926422822291N08141947WA002550029200710000
B1926472822329N08141910WA002540029101010000
B1926522822357N08141934WA002540028800710000
B1926572822327N08141949WA002520028600710000
B1927022822303N08141916WA002550028800410000
B1927072822332N08141875WA002510028601010000
B1927122822354N08141903WA002450028401310000
B1927172822317N08141898WA002420028101210000
B1927222822297N08141848WA002410027800510000
B1927272822287N08141789WA002370027300610000
B1927322822284N08141729WA002330026900410000
B1927372822288N08141668WA002300026600310000
B1927422822294N08141604WA002280026200510000
B1927472822300N08141546WA002270025900410000
B1927522822306N08141489WA002250025700510000
B1927572822315N08141431WA002230025600410000
B1928022822313N08141372WA002180025200410000
B1928072822297N08141311WA002100024600410000
B1928122822270N08141254WA002050024100310000
B1928172822249N08141197WA002030023800410000
B1928222822227N08141146WA002070024100710000
B1928272822188N08141148WA002020024000710000
B1928322822157N08141112WA001980023700410000
B1928372822169N08141067WA002030023701110000
B1928422822195N08141088WA001970023400910000
B1928472822166N08141110WA001940023100910000
B1928522822135N08141081WA001980023100710000
B1928572822158N08141043WA001990023301110000
B1929022822180N08141067WA002030023201110000
B1929072822146N08141074WA002020023300810000
B1929122822117N08141039WA002090023900910000
B1929172822139N08141000WA002120024301110000
B1929222822158N08141026WA002150024600910000
B1929272822127N08141029WA002210025000810000
B1929322822130N08140979WA002240025300910000
B1929372822165N08140976WA002280025500610000
B1929422822155N08141005WA002320026100710000
B1929472822123N08140982WA002360026600910000
B1929522822143N08140937WA002340026601210000
B1929572822169N08140964WA002360026500910000
B1930022822141N08140980WA002400027101210000
B1930072822121N08140931WA002400027300810000
B1930122822147N08140892WA002440028001210000
B1930172822163N08140922WA002440028001010000
B1930222822132N08140918WA002480028001110000
B1930272822161N08140888WA002520028501410000
B1930322822146N08140904WA002570028601310000
B1930372822139N08140857WA002600028901310000
B1930422822176N08140850WA002660029401110000
B1930472822163N08140880WA002700030200910000
B1930522822129N08140863WA002760030700610000
B1930572822134N08140809WA002760030800510000
B1931022822171N08140789WA002830031400710000
B1931072822166N08140818WA002840031700910000
B1931122822136N08140784WA002910032001110000
B1931172822173N08140757WA002970032400710000
B1931222822155N08140777WA003030033000910000
B1931272822149N08140721WA003110033701010000
B1931322822183N08140720WA003170034700910000
B1931372822163N08140745WA003260035501510000
B1931422822140N08140702WA003350036800910000
B1931472822175N08140687WA003350036800910000
B1931522822168N08140719WA003470037500910000
B1931572822140N08140689WA003540038700710000
B1932022822163N08140642WA003550039200910000
B1932072822184N08140664WA003590039601110000
B1932122822152N08140685WA003680040201010000
B1932172822131N08140644WA003780041000610000
B1932222822161N08140630WA003730041200710000
B1932272822150N08140658WA003770041801010000
F1932320107080911161723272830
B1932322822108N08140639WA003800042200811000
B1932372822098N08140582WA003790042301211000
B1932422822136N08140554WA003760042000711000
B1932472822144N08140580WA003760042001011000
B1932522822122N08140598WA003770042100611000
B1932572822094N08140607WA003750041900311000
B1933022822060N08140614WA003720041500411000
B1933072822030N08140623WA003700041400311000
B1933122822022N08140647WA003620041000411000
F19331701080911161723272830
B1933172822025N08140675WA003500040100610000
F1933220107080911161723272830
B1933222822045N08140698WA003460039400411000
B1933272822070N08140720WA003410038900411000
B1933322822090N08140744WA003380038400211000
B1933372822108N08140769WA003350037900311000
B1933422822123N08140794WA003290037400311000
B1933472822112N08140819WA003240036800311000
B1933522822096N08140843WA003200036200411000
B1933572822116N08140866WA003140035600911000
B1934022822156N08140866WA003080034900411000
B1934072822199N08140849WA003040034300311000
B1934122822240N08140831WA003010033900511000
B1934172822263N08140854WA002970033600411000
B1934222822265N08140882WA002940033200411000
B1934272822241N08140899WA002840032600611000
B1934322822204N08140886WA002880032700411000
B1934372822174N08140887WA002890032700411000
B1934422822171N08140915WA002780032300811000
B1934472822199N08140932WA002740031700811000
B1934522822240N08140908WA002660030700411000
B1934572822275N08140864WA002630030100411000
B1935022822313N08140852WA002580029500711000
B1935072822313N08140881WA002480028400611000
B1935122822286N08140900WA002430027800611000
B1935172822253N08140903WA002390027400511000
B1935222822217N08140903WA002350026900411000
B1935272822180N08140894WA002300026500411000
B1935322822149N08140896WA002280026300411000
B1935372822127N08140918WA002210025700411000
B1935422822094N08140903WA002170025300511000
B1935472822101N08140852WA002130024900711000
B1935522822138N08140850WA002030024200511000
B1935572822126N08140876WA001990023501211000
B1936022822088N08140864WA001940023000511000
B1936072822053N08140849WA001870022300511000
B1936122822017N08140840WA001750021200511000
B1936172821981N08140840WA001650019800411000
B1936222821946N08140838WA001600018800411000
B1936272821909N08140827WA001500018000411000
B1936322821874N08140813WA001410017200411000
B1936372821837N08140802WA001290015800511000
B1936422821794N08140782WA001100014100611000
B1936472821751N08140757WA000930012200411000
B1936522821704N08140756WA000690009800711000
B1936572821685N08140799WA000510007300711000
B1937022821684N08140845WA000350005100611000
B1937072821687N08140885WA000280003900511000
B1937122821687N08140907WA000290003900611000
B1937172821685N08140909WA000290004100511000
B1937222821683N08140906WA000290004400311000
B1937272821681N08140902WA000290004600311000
B1937322821679N08140899WA000300004600411000
B1937372821676N08140899WA000300004700211000
B1937422821674N08140898WA000300004700211000
B1937472821671N08140896WA000300004800211000
B1937522821667N08140895WA000300004800211000
B1937572821665N08140892WA000300004800211000
B1938022821665N08140887WA000290004800211000
B1938072821665N08140882WA000290004800211000
B1938122821666N08140878WA000290004800311000
B1938172821669N08140875WA000290004800211000
B1938222821671N08140870WA000290004700211000
B1938272821672N08140866WA000280004600211000
B1938322821671N08140863WA000280004600211000
B1938372821669N08140860WA000270004500211000
B1938422821667N08140857WA000270004600211000
B1938472821666N08140853WA000260004500211000
B1938522821667N08140849WA000260004500211000
B1938572821667N08140845WA000250004500211000
B1939022821665N08140841WA000250004500211000
B1939072821664N08140837WA000250004500211000
B1939122821661N08140835WA000240004400211000
B1939172821658N08140832WA000240004400211000
B1939222821655N08140828WA000240004400311000
B1939272821654N08140824WA000230004300311000
B1939322821655N08140819WA000240004400311000
B1939372821656N08140815WA000240004400411000
B1939422821657N08140811WA000240004400411000
B1939472821658N08140806WA000240004500311000
B1939522821658N08140803WA000240004600311000
B1939572821658N08140803WA000240004600311000
B1940022821658N08140803WA000240004600311000
B1940072821658N08140803WA000240004500411000
B1940122821658N08140804WA000240004400511000
B1940172821658N08140805WA000240004500411000
B1940222821658N08140805WA000240004500411000
B1940272821658N08140805WA000240004500411000
B1940322821658N08140805WA000240004500311000
B1940372821658N08140805WA000240004500411000
B1940422821658N08140805WA000240004500311000
B1940472821658N08140805WA000240004500311000
B1940522821658N08140805WA000240004500311000
B1940572821658N08140805WA000240004500411000
B1941022821658N08140805WA000240004500311000
B1941072821658N08140805WA000240004500411000
B1941122821658N08140805WA000240004400311000
GA15757F727BE4A5D82F6495802CC1ADB177FBB96E249A2962970D0D5AB7539F4
